{
  "contractName": "AccessControl",
  "abi": [
    {
      "inputs": [],
      "payable": false,
      "stateMutability": "nonpayable",
      "type": "constructor"
    },
    {
      "anonymous": false,
      "inputs": [
        {
          "indexed": false,
          "internalType": "address",
          "name": "account",
          "type": "address"
        }
      ],
      "name": "Paused",
      "type": "event"
    },
    {
      "anonymous": false,
      "inputs": [
        {
          "indexed": true,
          "internalType": "bytes32",
          "name": "role",
          "type": "bytes32"
        },
        {
          "indexed": true,
          "internalType": "bytes32",
          "name": "previousAdminRole",
          "type": "bytes32"
        },
        {
          "indexed": true,
          "internalType": "bytes32",
          "name": "newAdminRole",
          "type": "bytes32"
        }
      ],
      "name": "RoleAdminChanged",
      "type": "event"
    },
    {
      "anonymous": false,
      "inputs": [
        {
          "indexed": true,
          "internalType": "bytes32",
          "name": "role",
          "type": "bytes32"
        },
        {
          "indexed": true,
          "internalType": "address",
          "name": "account",
          "type": "address"
        },
        {
          "indexed": true,
          "internalType": "address",
          "name": "sender",
          "type": "address"
        }
      ],
      "name": "RoleGranted",
      "type": "event"
    },
    {
      "anonymous": false,
      "inputs": [
        {
          "indexed": true,
          "internalType": "bytes32",
          "name": "role",
          "type": "bytes32"
        },
        {
          "indexed": true,
          "internalType": "address",
          "name": "account",
          "type": "address"
        },
        {
          "indexed": true,
          "internalType": "address",
          "name": "sender",
          "type": "address"
        }
      ],
      "name": "RoleRevoked",
      "type": "event"
    },
    {
      "anonymous": false,
      "inputs": [
        {
          "indexed": false,
          "internalType": "address",
          "name": "account",
          "type": "address"
        }
      ],
      "name": "Unpaused",
      "type": "event"
    },
    {
      "constant": true,
      "inputs": [],
      "name": "ADMIN_ROLE",
      "outputs": [
        {
          "internalType": "bytes32",
          "name": "",
          "type": "bytes32"
        }
      ],
      "payable": false,
      "stateMutability": "view",
      "type": "function"
    },
    {
      "constant": true,
      "inputs": [],
      "name": "COMPANY_ROLE",
      "outputs": [
        {
          "internalType": "bytes32",
          "name": "",
          "type": "bytes32"
        }
      ],
      "payable": false,
      "stateMutability": "view",
      "type": "function"
    },
    {
      "constant": true,
      "inputs": [],
      "name": "DEFAULT_ADMIN_ROLE",
      "outputs": [
        {
          "internalType": "bytes32",
          "name": "",
          "type": "bytes32"
        }
      ],
      "payable": false,
      "stateMutability": "view",
      "type": "function"
    },
    {
      "constant": true,
      "inputs": [],
      "name": "PAUSER_ROLE",
      "outputs": [
        {
          "internalType": "bytes32",
          "name": "",
          "type": "bytes32"
        }
      ],
      "payable": false,
      "stateMutability": "view",
      "type": "function"
    },
    {
      "constant": true,
      "inputs": [],
      "name": "VALIDATOR_ROLE",
      "outputs": [
        {
          "internalType": "bytes32",
          "name": "",
          "type": "bytes32"
        }
      ],
      "payable": false,
      "stateMutability": "view",
      "type": "function"
    },
    {
      "constant": true,
      "inputs": [
        {
          "internalType": "bytes32",
          "name": "role",
          "type": "bytes32"
        },
        {
          "internalType": "address",
          "name": "account",
          "type": "address"
        }
      ],
      "name": "hasRole",
      "outputs": [
        {
          "internalType": "bool",
          "name": "",
          "type": "bool"
        }
      ],
      "payable": false,
      "stateMutability": "view",
      "type": "function"
    },
    {
      "constant": true,
      "inputs": [
        {
          "internalType": "bytes32",
          "name": "role",
          "type": "bytes32"
        }
      ],
      "name": "getRoleAdmin",
      "outputs": [
        {
          "internalType": "bytes32",
          "name": "",
          "type": "bytes32"
        }
      ],
      "payable": false,
      "stateMutability": "view",
      "type": "function"
    },
    {
      "constant": false,
      "inputs": [
        {
          "internalType": "bytes32",
          "name": "role",
          "type": "bytes32"
        },
        {
          "internalType": "address",
          "name": "account",
          "type": "address"
        }
      ],
      "name": "grantRole",
      "outputs": [],
      "payable": false,
      "stateMutability": "nonpayable",
      "type": "function"
    },
    {
      "constant": false,
      "inputs": [
        {
          "internalType": "bytes32",
          "name": "role",
          "type": "bytes32"
        },
        {
          "internalType": "address",
          "name": "account",
          "type": "address"
        }
      ],
      "name": "revokeRole",
      "outputs": [],
      "payable": false,
      "stateMutability": "nonpayable",
      "type": "function"
    },
    {
      "constant": false,
      "inputs": [
        {
          "internalType": "bytes32",
          "name": "role",
          "type": "bytes32"
        },
        {
          "internalType": "address",
          "name": "account",
          "type": "address"
        }
      ],
      "name": "renounceRole",
      "outputs": [],
      "payable": false,
      "stateMutability": "nonpayable",
      "type": "function"
    },
    {
      "constant": false,
      "inputs": [],
      "name": "pause",
      "outputs": [],
      "payable": false,
      "stateMutability": "nonpayable",
      "type": "function"
    },
    {
      "constant": false,
      "inputs": [],
      "name": "unpause",
      "outputs": [],
      "payable": false,
      "stateMutability": "nonpayable",
      "type": "function"
    },
    {
      "constant": true,
      "inputs": [],
      "name": "paused",
      "outputs": [
        {
          "internalType": "bool",
          "name": "",
          "type": "bool"
        }
      ],
      "payable": false,
      "stateMutability": "view",
      "type": "function"
    },
    {
      "constant": false,
      "inputs": [
        {
          "internalType": "address",
          "name": "account",
          "type": "address"
        }
      ],
      "name": "blacklistAccount",
      "outputs": [],
      "payable": false,
      "stateMutability": "nonpayable",
      "type": "function"
    },
    {
      "constant": false,
      "inputs": [
        {
          "internalType": "address",
          "name": "account",
          "type": "address"
        }
      ],
      "name": "removeFromBlacklist",
      "outputs": [],
      "payable": false,
      "stateMutability": "nonpayable",
      "type": "function"
    },
    {
      "constant": true,
      "inputs": [
        {
          "internalType": "address",
          "name": "account",
          "type": "address"
        }
      ],
      "name": "isBlacklisted",
      "outputs": [
        {
          "internalType": "bool",
          "name": "",
          "type": "bool"
        }
      ],
      "payable": false,
      "stateMutability": "view",
      "type": "function"
    },
    {
      "constant": true,
      "inputs": [],
      "name": "owner",
      "outputs": [
        {
          "internalType": "address",
          "name": "",
          "type": "address"
        }
      ],
      "payable": false,
      "stateMutability": "view",
      "type": "function"
    }
  ],
  "bytecode": "0x60806040523480156200001157600080fd5b5033600360016101000a81548173ffffffffffffffffffffffffffffffffffffffff021916908373ffffffffffffffffffffffffffffffffffffffff1602179055506000600360006101000a81548160ff02191690831515021790555060016004819055506200008b6000801b33620002ab60201b60201c565b620000d260405180807f41444d494e5f524f4c4500000000000000000000000000000000000000000000815250600a019050604051809103902033620002ab60201b60201c565b6200011960405180807f5041555345525f524f4c45000000000000000000000000000000000000000000815250600b019050604051809103902033620002ab60201b60201c565b6200016360405180807f41444d494e5f524f4c4500000000000000000000000000000000000000000000815250600a01905060405180910390206000801b6200038a60201b60201c565b620001df60405180807f56414c494441544f525f524f4c45000000000000000000000000000000000000815250600e019050604051809103902060405180807f41444d494e5f524f4c4500000000000000000000000000000000000000000000815250600a01905060405180910390206200038a60201b60201c565b6200025b60405180807f434f4d50414e595f524f4c450000000000000000000000000000000000000000815250600c019050604051809103902060405180807f41444d494e5f524f4c4500000000000000000000000000000000000000000000815250600a01905060405180910390206200038a60201b60201c565b620002a560405180807f5041555345525f524f4c45000000000000000000000000000000000000000000815250600b01905060405180910390206000801b6200038a60201b60201c565b6200046f565b620002bd8282620003eb60201b60201c565b6200038657600160008084815260200190815260200160002060008373ffffffffffffffffffffffffffffffffffffffff1673ffffffffffffffffffffffffffffffffffffffff16815260200190815260200160002060006101000a81548160ff0219169083151502179055503373ffffffffffffffffffffffffffffffffffffffff168173ffffffffffffffffffffffffffffffffffffffff16837f2f8788117e7eff1d82e926ec794901d17c78024a50270940304540a733656f0d60405160405180910390a45b5050565b60006200039d836200045260201b60201c565b90508160016000858152602001908152602001600020819055508181847fbd79b86ffe0ab8e8776151514217cd7cacd52c909f66475c3af44e129f0b00ff60405160405180910390a4505050565b600080600084815260200190815260200160002060008373ffffffffffffffffffffffffffffffffffffffff1673ffffffffffffffffffffffffffffffffffffffff16815260200190815260200160002060009054906101000a900460ff16905092915050565b600060016000838152602001908152602001600020549050919050565b6114f4806200047f6000396000f3fe608060405234801561001057600080fd5b506004361061010b5760003560e01c80638456cb59116100a2578063c49baebe11610071578063c49baebe14610372578063d37b34d714610390578063d547741f146103d4578063e63ab1e914610422578063fe575a87146104405761010b565b80638456cb591461029a5780638da5cb5b146102a457806391d14854146102ee578063a217fddf146103545761010b565b80633f4ba83a116100de5780633f4ba83a1461020c578063537df3b6146102165780635c975abb1461025a57806375b238fc1461027c5761010b565b80631c9ee11a14610110578063248a9ca31461012e5780632f2ff15d1461017057806336568abe146101be575b600080fd5b61011861049c565b6040518082815260200191505060405180910390f35b61015a6004803603602081101561014457600080fd5b81019080803590602001909291905050506104d5565b6040518082815260200191505060405180910390f35b6101bc6004803603604081101561018657600080fd5b8101908080359060200190929190803573ffffffffffffffffffffffffffffffffffffffff1690602001909291905050506104f2565b005b61020a600480360360408110156101d457600080fd5b8101908080359060200190929190803573ffffffffffffffffffffffffffffffffffffffff1690602001909291905050506106b3565b005b610214610745565b005b6102586004803603602081101561022c57600080fd5b81019080803573ffffffffffffffffffffffffffffffffffffffff1690602001909291905050506108c0565b005b610262610af8565b604051808215151515815260200191505060405180910390f35b610284610b0f565b6040518082815260200191505060405180910390f35b6102a2610b48565b005b6102ac610cc4565b604051808273ffffffffffffffffffffffffffffffffffffffff1673ffffffffffffffffffffffffffffffffffffffff16815260200191505060405180910390f35b61033a6004803603604081101561030457600080fd5b8101908080359060200190929190803573ffffffffffffffffffffffffffffffffffffffff169060200190929190505050610cee565b604051808215151515815260200191505060405180910390f35b61035c610d55565b6040518082815260200191505060405180910390f35b61037a610d5c565b6040518082815260200191505060405180910390f35b6103d2600480360360208110156103a657600080fd5b81019080803573ffffffffffffffffffffffffffffffffffffffff169060200190929190505050610d95565b005b610420600480360360408110156103ea57600080fd5b8101908080359060200190929190803573ffffffffffffffffffffffffffffffffffffffff16906020019092919050505061104c565b005b61042a611168565b6040518082815260200191505060405180910390f35b6104826004803603602081101561045657600080fd5b81019080803573ffffffffffffffffffffffffffffffffffffffff1690602001909291905050506111a1565b604051808215151515815260200191505060405180910390f35b60405180807f434f4d50414e595f524f4c450000000000000000000000000000000000000000815250600c019050604051809103902081565b600060016000838152602001908152602001600020549050919050565b6104fb826104d5565b6105058133610cee565b61055a576040517f08c379a000000000000000000000000000000000000000000000000000000000815260040180806020018281038252603181526020018061143b6031913960400191505060405180910390fd5b81600073ffffffffffffffffffffffffffffffffffffffff168173ffffffffffffffffffffffffffffffffffffffff1614156105fe576040517f08c379a000000000000000000000000000000000000000000000000000000000815260040180806020018281038252601e8152602001807f416363657373436f6e74726f6c3a20696e76616c69642061646472657373000081525060200191505060405180910390fd5b82600260008273ffffffffffffffffffffffffffffffffffffffff1673ffffffffffffffffffffffffffffffffffffffff16815260200190815260200160002060009054906101000a900460ff16156106a2576040517f08c379a00000000000000000000000000000000000000000000000000000000081526004018080602001828103825260258152602001806113ec6025913960400191505060405180910390fd5b6106ac85856111f7565b5050505050565b3373ffffffffffffffffffffffffffffffffffffffff168173ffffffffffffffffffffffffffffffffffffffff1614610737576040517f08c379a000000000000000000000000000000000000000000000000000000000815260040180806020018281038252602f81526020018061146c602f913960400191505060405180910390fd5b61074182826112cd565b5050565b60405180807f5041555345525f524f4c45000000000000000000000000000000000000000000815250600b01905060405180910390206107858133610cee565b6107da576040517f08c379a000000000000000000000000000000000000000000000000000000000815260040180806020018281038252603181526020018061143b6031913960400191505060405180910390fd5b600360009054906101000a900460ff1661083f576040517f08c379a000000000000000000000000000000000000000000000000000000000815260040180806020018281038252602581526020018061149b6025913960400191505060405180910390fd5b6000600360006101000a81548160ff0219169083151502179055507f5db9ee0a495bf2e6ff9c91a7834c1ba4fdd244a5e8aa4e537bd38aeae4b073aa33604051808273ffffffffffffffffffffffffffffffffffffffff1673ffffffffffffffffffffffffffffffffffffffff16815260200191505060405180910390a150565b60405180807f41444d494e5f524f4c4500000000000000000000000000000000000000000000815250600a01905060405180910390206109008133610cee565b610955576040517f08c379a000000000000000000000000000000000000000000000000000000000815260040180806020018281038252603181526020018061143b6031913960400191505060405180910390fd5b81600073ffffffffffffffffffffffffffffffffffffffff168173ffffffffffffffffffffffffffffffffffffffff1614156109f9576040517f08c379a000000000000000000000000000000000000000000000000000000000815260040180806020018281038252601e8152602001807f416363657373436f6e74726f6c3a20696e76616c69642061646472657373000081525060200191505060405180910390fd5b600260008473ffffffffffffffffffffffffffffffffffffffff1673ffffffffffffffffffffffffffffffffffffffff16815260200190815260200160002060009054906101000a900460ff16610a9b576040517f08c379a00000000000000000000000000000000000000000000000000000000081526004018080602001828103825260268152602001806113c66026913960400191505060405180910390fd5b6000600260008573ffffffffffffffffffffffffffffffffffffffff1673ffffffffffffffffffffffffffffffffffffffff16815260200190815260200160002060006101000a81548160ff021916908315150217905550505050565b6000600360009054906101000a900460ff16905090565b60405180807f41444d494e5f524f4c4500000000000000000000000000000000000000000000815250600a019050604051809103902081565b60405180807f5041555345525f524f4c45000000000000000000000000000000000000000000815250600b0190506040518091039020610b888133610cee565b610bdd576040517f08c379a000000000000000000000000000000000000000000000000000000000815260040180806020018281038252603181526020018061143b6031913960400191505060405180910390fd5b600360009054906101000a900460ff1615610c43576040517f08c379a00000000000000000000000000000000000000000000000000000000081526004018080602001828103825260218152602001806113a56021913960400191505060405180910390fd5b6001600360006101000a81548160ff0219169083151502179055507f62e78cea01bee320cd4e420270b5ea74000d11b0c9f74754ebdbfc544b05a25833604051808273ffffffffffffffffffffffffffffffffffffffff1673ffffffffffffffffffffffffffffffffffffffff16815260200191505060405180910390a150565b6000600360019054906101000a900473ffffffffffffffffffffffffffffffffffffffff16905090565b600080600084815260200190815260200160002060008373ffffffffffffffffffffffffffffffffffffffff1673ffffffffffffffffffffffffffffffffffffffff16815260200190815260200160002060009054906101000a900460ff16905092915050565b6000801b81565b60405180807f56414c494441544f525f524f4c45000000000000000000000000000000000000815250600e019050604051809103902081565b60405180807f41444d494e5f524f4c4500000000000000000000000000000000000000000000815250600a0190506040518091039020610dd58133610cee565b610e2a576040517f08c379a000000000000000000000000000000000000000000000000000000000815260040180806020018281038252603181526020018061143b6031913960400191505060405180910390fd5b81600073ffffffffffffffffffffffffffffffffffffffff168173ffffffffffffffffffffffffffffffffffffffff161415610ece576040517f08c379a000000000000000000000000000000000000000000000000000000000815260040180806020018281038252601e8152602001807f416363657373436f6e74726f6c3a20696e76616c69642061646472657373000081525060200191505060405180910390fd5b600260008473ffffffffffffffffffffffffffffffffffffffff1673ffffffffffffffffffffffffffffffffffffffff16815260200190815260200160002060009054906101000a900460ff1615610f71576040517f08c379a000000000000000000000000000000000000000000000000000000000815260040180806020018281038252602a815260200180611411602a913960400191505060405180910390fd5b6001600260008573ffffffffffffffffffffffffffffffffffffffff1673ffffffffffffffffffffffffffffffffffffffff16815260200190815260200160002060006101000a81548160ff02191690831515021790555061100860405180807f56414c494441544f525f524f4c45000000000000000000000000000000000000815250600e0190506040518091039020846112cd565b61104760405180807f434f4d50414e595f524f4c450000000000000000000000000000000000000000815250600c0190506040518091039020846112cd565b505050565b611055826104d5565b61105f8133610cee565b6110b4576040517f08c379a000000000000000000000000000000000000000000000000000000000815260040180806020018281038252603181526020018061143b6031913960400191505060405180910390fd5b81600073ffffffffffffffffffffffffffffffffffffffff168173ffffffffffffffffffffffffffffffffffffffff161415611158576040517f08c379a000000000000000000000000000000000000000000000000000000000815260040180806020018281038252601e8152602001807f416363657373436f6e74726f6c3a20696e76616c69642061646472657373000081525060200191505060405180910390fd5b61116284846112cd565b50505050565b60405180807f5041555345525f524f4c45000000000000000000000000000000000000000000815250600b019050604051809103902081565b6000600260008373ffffffffffffffffffffffffffffffffffffffff1673ffffffffffffffffffffffffffffffffffffffff16815260200190815260200160002060009054906101000a900460ff169050919050565b6112018282610cee565b6112c957600160008084815260200190815260200160002060008373ffffffffffffffffffffffffffffffffffffffff1673ffffffffffffffffffffffffffffffffffffffff16815260200190815260200160002060006101000a81548160ff0219169083151502179055503373ffffffffffffffffffffffffffffffffffffffff168173ffffffffffffffffffffffffffffffffffffffff16837f2f8788117e7eff1d82e926ec794901d17c78024a50270940304540a733656f0d60405160405180910390a45b5050565b6112d78282610cee565b156113a057600080600084815260200190815260200160002060008373ffffffffffffffffffffffffffffffffffffffff1673ffffffffffffffffffffffffffffffffffffffff16815260200190815260200160002060006101000a81548160ff0219169083151502179055503373ffffffffffffffffffffffffffffffffffffffff168173ffffffffffffffffffffffffffffffffffffffff16837ff6391f5c32d9c69d2a47ea670b442974b53935d1edc7fd64eb21e047a839171b60405160405180910390a45b505056fe416363657373436f6e74726f6c3a20636f6e747261637420697320706175736564416363657373436f6e74726f6c3a206163636f756e74206e6f7420626c61636b6c6973746564416363657373436f6e74726f6c3a206163636f756e7420697320626c61636b6c6973746564416363657373436f6e74726f6c3a206163636f756e7420616c726561647920626c61636b6c6973746564416363657373436f6e74726f6c3a2063616c6c657220646f6573206e6f74206861766520726571756972656420726f6c65416363657373436f6e74726f6c3a2063616e206f6e6c792072656e6f756e636520726f6c657320666f722073656c66416363657373436f6e74726f6c3a20636f6e7472616374206973206e6f7420706175736564a265627a7a72315820e43fdac26bdf1a82116ae116a2f50163341df17381556dfd7cb4e748f0097d1964736f6c63430005110032",
  "source": "pragma solidity ^0.5.0;\n\n/**\n * @title AccessControl\n * @dev Role-based access control contract providing comprehensive security features\n * @notice This contract implements a flexible role-based access control system with emergency pause functionality\n */\ncontract AccessControl {\n    // Events\n    event RoleGranted(bytes32 indexed role, address indexed account, address indexed sender);\n    event RoleRevoked(bytes32 indexed role, address indexed account, address indexed sender);\n    event RoleAdminChanged(bytes32 indexed role, bytes32 indexed previousAdminRole, bytes32 indexed newAdminRole);\n    event Paused(address account);\n    event Unpaused(address account);\n\n    // Role definitions\n    bytes32 public constant DEFAULT_ADMIN_ROLE = 0x00;\n    bytes32 public constant ADMIN_ROLE = keccak256(\"ADMIN_ROLE\");\n    bytes32 public constant VALIDATOR_ROLE = keccak256(\"VALIDATOR_ROLE\");\n    bytes32 public constant COMPANY_ROLE = keccak256(\"COMPANY_ROLE\");\n    bytes32 public constant PAUSER_ROLE = keccak256(\"PAUSER_ROLE\");\n\n    // State variables\n    mapping(bytes32 => mapping(address => bool)) private _roles;\n    mapping(bytes32 => bytes32) private _roleAdmins;\n    mapping(address => bool) private _blacklisted;\n    \n    bool private _paused;\n    address private _owner;\n    uint256 private _reentrancyStatus;\n\n    // Constants for reentrancy guard\n    uint256 private constant _NOT_ENTERED = 1;\n    uint256 private constant _ENTERED = 2;\n\n    /**\n     * @dev Constructor sets the deployer as the default admin\n     */\n    constructor() public {\n        _owner = msg.sender;\n        _paused = false;\n        _reentrancyStatus = _NOT_ENTERED;\n        \n        // Grant default admin role to deployer\n        _grantRole(DEFAULT_ADMIN_ROLE, msg.sender);\n        _grantRole(ADMIN_ROLE, msg.sender);\n        _grantRole(PAUSER_ROLE, msg.sender);\n        \n        // Set role admins\n        _setRoleAdmin(ADMIN_ROLE, DEFAULT_ADMIN_ROLE);\n        _setRoleAdmin(VALIDATOR_ROLE, ADMIN_ROLE);\n        _setRoleAdmin(COMPANY_ROLE, ADMIN_ROLE);\n        _setRoleAdmin(PAUSER_ROLE, DEFAULT_ADMIN_ROLE);\n    }\n\n    /**\n     * @dev Modifier to check if caller has a specific role\n     */\n    modifier onlyRole(bytes32 role) {\n        require(hasRole(role, msg.sender), \"AccessControl: caller does not have required role\");\n        _;\n    }\n\n    /**\n     * @dev Modifier to check if contract is not paused\n     */\n    modifier whenNotPaused() {\n        require(!_paused, \"AccessControl: contract is paused\");\n        _;\n    }\n\n    /**\n     * @dev Modifier to check if contract is paused\n     */\n    modifier whenPaused() {\n        require(_paused, \"AccessControl: contract is not paused\");\n        _;\n    }\n\n    /**\n     * @dev Modifier to check if address is not blacklisted\n     */\n    modifier notBlacklisted(address account) {\n        require(!_blacklisted[account], \"AccessControl: account is blacklisted\");\n        _;\n    }\n\n    /**\n     * @dev Reentrancy guard modifier\n     */\n    modifier nonReentrant() {\n        require(_reentrancyStatus != _ENTERED, \"AccessControl: reentrant call\");\n        _reentrancyStatus = _ENTERED;\n        _;\n        _reentrancyStatus = _NOT_ENTERED;\n    }\n\n    /**\n     * @dev Input validation modifier for non-zero addresses\n     */\n    modifier validAddress(address account) {\n        require(account != address(0), \"AccessControl: invalid address\");\n        _;\n    }\n\n    /**\n     * @dev Input validation modifier for non-zero amounts\n     */\n    modifier validAmount(uint256 amount) {\n        require(amount > 0, \"AccessControl: amount must be greater than zero\");\n        _;\n    }\n\n    /**\n     * @dev Check if an account has a specific role\n     */\n    function hasRole(bytes32 role, address account) public view returns (bool) {\n        return _roles[role][account];\n    }\n\n    /**\n     * @dev Get the admin role that controls a role\n     */\n    function getRoleAdmin(bytes32 role) public view returns (bytes32) {\n        return _roleAdmins[role];\n    }\n\n    /**\n     * @dev Grant a role to an account\n     */\n    function grantRole(bytes32 role, address account) \n        public \n        onlyRole(getRoleAdmin(role)) \n        validAddress(account)\n        notBlacklisted(account)\n    {\n        _grantRole(role, account);\n    }\n\n    /**\n     * @dev Revoke a role from an account\n     */\n    function revokeRole(bytes32 role, address account) \n        public \n        onlyRole(getRoleAdmin(role)) \n        validAddress(account)\n    {\n        _revokeRole(role, account);\n    }\n\n    /**\n     * @dev Renounce a role (caller renounces their own role)\n     */\n    function renounceRole(bytes32 role, address account) public {\n        require(account == msg.sender, \"AccessControl: can only renounce roles for self\");\n        _revokeRole(role, account);\n    }\n\n    /**\n     * @dev Pause the contract (emergency stop)\n     */\n    function pause() public onlyRole(PAUSER_ROLE) whenNotPaused {\n        _paused = true;\n        emit Paused(msg.sender);\n    }\n\n    /**\n     * @dev Unpause the contract\n     */\n    function unpause() public onlyRole(PAUSER_ROLE) whenPaused {\n        _paused = false;\n        emit Unpaused(msg.sender);\n    }\n\n    /**\n     * @dev Check if contract is paused\n     */\n    function paused() public view returns (bool) {\n        return _paused;\n    }\n\n    /**\n     * @dev Add address to blacklist\n     */\n    function blacklistAccount(address account) \n        public \n        onlyRole(ADMIN_ROLE) \n        validAddress(account)\n    {\n        require(!_blacklisted[account], \"AccessControl: account already blacklisted\");\n        _blacklisted[account] = true;\n        \n        // Revoke all roles from blacklisted account\n        _revokeRole(VALIDATOR_ROLE, account);\n        _revokeRole(COMPANY_ROLE, account);\n    }\n\n    /**\n     * @dev Remove address from blacklist\n     */\n    function removeFromBlacklist(address account) \n        public \n        onlyRole(ADMIN_ROLE) \n        validAddress(account)\n    {\n        require(_blacklisted[account], \"AccessControl: account not blacklisted\");\n        _blacklisted[account] = false;\n    }\n\n    /**\n     * @dev Check if account is blacklisted\n     */\n    function isBlacklisted(address account) public view returns (bool) {\n        return _blacklisted[account];\n    }\n\n    /**\n     * @dev Get contract owner\n     */\n    function owner() public view returns (address) {\n        return _owner;\n    }\n\n    /**\n     * @dev Internal function to grant role\n     */\n    function _grantRole(bytes32 role, address account) internal {\n        if (!hasRole(role, account)) {\n            _roles[role][account] = true;\n            emit RoleGranted(role, account, msg.sender);\n        }\n    }\n\n    /**\n     * @dev Internal function to revoke role\n     */\n    function _revokeRole(bytes32 role, address account) internal {\n        if (hasRole(role, account)) {\n            _roles[role][account] = false;\n            emit RoleRevoked(role, account, msg.sender);\n        }\n    }\n\n    /**\n     * @dev Internal function to set role admin\n     */\n    function _setRoleAdmin(bytes32 role, bytes32 adminRole) internal {\n        bytes32 previousAdminRole = getRoleAdmin(role);\n        _roleAdmins[role] = adminRole;\n        emit RoleAdminChanged(role, previousAdminRole, adminRole);\n    }\n}\n",
  "sourcePath": "C:\\Users\\aliya\\Downloads\\EcoXChange\\contracts\\AccessControl.sol",
  "compiler": {
    "name": "solc",
    "version": "0.5.17+commit.d19bba13.Emscripten.clang"
  },
  "schemaVersion": "3.4.16",
  "updatedAt": "2025-06-23T09:15:20.570Z",
  "devdoc": {
    "details": "Role-based access control contract providing comprehensive security features",
    "methods": {
      "blacklistAccount(address)": {
        "details": "Add address to blacklist"
      },
      "constructor": {
        "details": "Constructor sets the deployer as the default admin"
      },
      "getRoleAdmin(bytes32)": {
        "details": "Get the admin role that controls a role"
      },
      "grantRole(bytes32,address)": {
        "details": "Grant a role to an account"
      },
      "hasRole(bytes32,address)": {
        "details": "Check if an account has a specific role"
      },
      "isBlacklisted(address)": {
        "details": "Check if account is blacklisted"
      },
      "owner()": {
        "details": "Get contract owner"
      },
      "pause()": {
        "details": "Pause the contract (emergency stop)"
      },
      "paused()": {
        "details": "Check if contract is paused"
      },
      "removeFromBlacklist(address)": {
        "details": "Remove address from blacklist"
      },
      "renounceRole(bytes32,address)": {
        "details": "Renounce a role (caller renounces their own role)"
      },
      "revokeRole(bytes32,address)": {
        "details": "Revoke a role from an account"
      },
      "unpause()": {
        "details": "Unpause the contract"
      }
    },
    "title": "AccessControl"
  },
  "userdoc": {
    "methods": {},
    "notice": "This contract implements a flexible role-based access control system with emergency pause functionality"
  }
}