{
  "contractName": "Company",
  "abi": [
    {
      "anonymous": false,
      "inputs": [
        {
          "indexed": false,
          "internalType": "address",
          "name": "account",
          "type": "address"
        }
      ],
      "name": "Paused",
      "type": "event"
    },
    {
      "anonymous": false,
      "inputs": [
        {
          "indexed": true,
          "internalType": "bytes32",
          "name": "role",
          "type": "bytes32"
        },
        {
          "indexed": true,
          "internalType": "bytes32",
          "name": "previousAdminRole",
          "type": "bytes32"
        },
        {
          "indexed": true,
          "internalType": "bytes32",
          "name": "newAdminRole",
          "type": "bytes32"
        }
      ],
      "name": "RoleAdminChanged",
      "type": "event"
    },
    {
      "anonymous": false,
      "inputs": [
        {
          "indexed": true,
          "internalType": "bytes32",
          "name": "role",
          "type": "bytes32"
        },
        {
          "indexed": true,
          "internalType": "address",
          "name": "account",
          "type": "address"
        },
        {
          "indexed": true,
          "internalType": "address",
          "name": "sender",
          "type": "address"
        }
      ],
      "name": "RoleGranted",
      "type": "event"
    },
    {
      "anonymous": false,
      "inputs": [
        {
          "indexed": true,
          "internalType": "bytes32",
          "name": "role",
          "type": "bytes32"
        },
        {
          "indexed": true,
          "internalType": "address",
          "name": "account",
          "type": "address"
        },
        {
          "indexed": true,
          "internalType": "address",
          "name": "sender",
          "type": "address"
        }
      ],
      "name": "RoleRevoked",
      "type": "event"
    },
    {
      "anonymous": false,
      "inputs": [
        {
          "indexed": false,
          "internalType": "address",
          "name": "account",
          "type": "address"
        }
      ],
      "name": "Unpaused",
      "type": "event"
    },
    {
      "anonymous": false,
      "inputs": [
        {
          "indexed": false,
          "internalType": "address",
          "name": "companyAddress",
          "type": "address"
        }
      ],
      "name": "companyAdded",
      "type": "event"
    },
    {
      "anonymous": false,
      "inputs": [
        {
          "indexed": false,
          "internalType": "address",
          "name": "companyAddress",
          "type": "address"
        },
        {
          "indexed": false,
          "internalType": "uint256",
          "name": "projectId",
          "type": "uint256"
        }
      ],
      "name": "projectAdded",
      "type": "event"
    },
    {
      "constant": true,
      "inputs": [],
      "name": "ADMIN_ROLE",
      "outputs": [
        {
          "internalType": "bytes32",
          "name": "",
          "type": "bytes32"
        }
      ],
      "payable": false,
      "stateMutability": "view",
      "type": "function"
    },
    {
      "constant": true,
      "inputs": [],
      "name": "COMPANY_ROLE",
      "outputs": [
        {
          "internalType": "bytes32",
          "name": "",
          "type": "bytes32"
        }
      ],
      "payable": false,
      "stateMutability": "view",
      "type": "function"
    },
    {
      "constant": true,
      "inputs": [],
      "name": "DEFAULT_ADMIN_ROLE",
      "outputs": [
        {
          "internalType": "bytes32",
          "name": "",
          "type": "bytes32"
        }
      ],
      "payable": false,
      "stateMutability": "view",
      "type": "function"
    },
    {
      "constant": true,
      "inputs": [],
      "name": "MAX_CO2_AMOUNT",
      "outputs": [
        {
          "internalType": "uint256",
          "name": "",
          "type": "uint256"
        }
      ],
      "payable": false,
      "stateMutability": "view",
      "type": "function"
    },
    {
      "constant": true,
      "inputs": [],
      "name": "MAX_PROJECT_DURATION",
      "outputs": [
        {
          "internalType": "uint256",
          "name": "",
          "type": "uint256"
        }
      ],
      "payable": false,
      "stateMutability": "view",
      "type": "function"
    },
    {
      "constant": true,
      "inputs": [],
      "name": "MIN_CO2_AMOUNT",
      "outputs": [
        {
          "internalType": "uint256",
          "name": "",
          "type": "uint256"
        }
      ],
      "payable": false,
      "stateMutability": "view",
      "type": "function"
    },
    {
      "constant": true,
      "inputs": [],
      "name": "MIN_PROJECT_DURATION",
      "outputs": [
        {
          "internalType": "uint256",
          "name": "",
          "type": "uint256"
        }
      ],
      "payable": false,
      "stateMutability": "view",
      "type": "function"
    },
    {
      "constant": true,
      "inputs": [],
      "name": "PAUSER_ROLE",
      "outputs": [
        {
          "internalType": "bytes32",
          "name": "",
          "type": "bytes32"
        }
      ],
      "payable": false,
      "stateMutability": "view",
      "type": "function"
    },
    {
      "constant": true,
      "inputs": [],
      "name": "VALIDATOR_ROLE",
      "outputs": [
        {
          "internalType": "bytes32",
          "name": "",
          "type": "bytes32"
        }
      ],
      "payable": false,
      "stateMutability": "view",
      "type": "function"
    },
    {
      "constant": false,
      "inputs": [
        {
          "internalType": "address",
          "name": "account",
          "type": "address"
        }
      ],
      "name": "blacklistAccount",
      "outputs": [],
      "payable": false,
      "stateMutability": "nonpayable",
      "type": "function"
    },
    {
      "constant": true,
      "inputs": [
        {
          "internalType": "address",
          "name": "",
          "type": "address"
        },
        {
          "internalType": "uint256",
          "name": "",
          "type": "uint256"
        }
      ],
      "name": "companyProjects",
      "outputs": [
        {
          "internalType": "uint256",
          "name": "",
          "type": "uint256"
        }
      ],
      "payable": false,
      "stateMutability": "view",
      "type": "function"
    },
    {
      "constant": true,
      "inputs": [
        {
          "internalType": "address",
          "name": "",
          "type": "address"
        }
      ],
      "name": "companyRegistrationDate",
      "outputs": [
        {
          "internalType": "uint256",
          "name": "",
          "type": "uint256"
        }
      ],
      "payable": false,
      "stateMutability": "view",
      "type": "function"
    },
    {
      "constant": true,
      "inputs": [
        {
          "internalType": "bytes32",
          "name": "role",
          "type": "bytes32"
        }
      ],
      "name": "getRoleAdmin",
      "outputs": [
        {
          "internalType": "bytes32",
          "name": "",
          "type": "bytes32"
        }
      ],
      "payable": false,
      "stateMutability": "view",
      "type": "function"
    },
    {
      "constant": false,
      "inputs": [
        {
          "internalType": "bytes32",
          "name": "role",
          "type": "bytes32"
        },
        {
          "internalType": "address",
          "name": "account",
          "type": "address"
        }
      ],
      "name": "grantRole",
      "outputs": [],
      "payable": false,
      "stateMutability": "nonpayable",
      "type": "function"
    },
    {
      "constant": true,
      "inputs": [
        {
          "internalType": "bytes32",
          "name": "role",
          "type": "bytes32"
        },
        {
          "internalType": "address",
          "name": "account",
          "type": "address"
        }
      ],
      "name": "hasRole",
      "outputs": [
        {
          "internalType": "bool",
          "name": "",
          "type": "bool"
        }
      ],
      "payable": false,
      "stateMutability": "view",
      "type": "function"
    },
    {
      "constant": true,
      "inputs": [
        {
          "internalType": "address",
          "name": "account",
          "type": "address"
        }
      ],
      "name": "isBlacklisted",
      "outputs": [
        {
          "internalType": "bool",
          "name": "",
          "type": "bool"
        }
      ],
      "payable": false,
      "stateMutability": "view",
      "type": "function"
    },
    {
      "constant": true,
      "inputs": [],
      "name": "numCompanies",
      "outputs": [
        {
          "internalType": "uint256",
          "name": "",
          "type": "uint256"
        }
      ],
      "payable": false,
      "stateMutability": "view",
      "type": "function"
    },
    {
      "constant": true,
      "inputs": [],
      "name": "numProjects",
      "outputs": [
        {
          "internalType": "uint256",
          "name": "",
          "type": "uint256"
        }
      ],
      "payable": false,
      "stateMutability": "view",
      "type": "function"
    },
    {
      "constant": true,
      "inputs": [],
      "name": "owner",
      "outputs": [
        {
          "internalType": "address",
          "name": "",
          "type": "address"
        }
      ],
      "payable": false,
      "stateMutability": "view",
      "type": "function"
    },
    {
      "constant": false,
      "inputs": [],
      "name": "pause",
      "outputs": [],
      "payable": false,
      "stateMutability": "nonpayable",
      "type": "function"
    },
    {
      "constant": true,
      "inputs": [],
      "name": "paused",
      "outputs": [
        {
          "internalType": "bool",
          "name": "",
          "type": "bool"
        }
      ],
      "payable": false,
      "stateMutability": "view",
      "type": "function"
    },
    {
      "constant": true,
      "inputs": [
        {
          "internalType": "uint256",
          "name": "",
          "type": "uint256"
        }
      ],
      "name": "projectExists",
      "outputs": [
        {
          "internalType": "bool",
          "name": "",
          "type": "bool"
        }
      ],
      "payable": false,
      "stateMutability": "view",
      "type": "function"
    },
    {
      "constant": true,
      "inputs": [
        {
          "internalType": "uint256",
          "name": "",
          "type": "uint256"
        }
      ],
      "name": "projects",
      "outputs": [
        {
          "internalType": "address",
          "name": "companyAddress",
          "type": "address"
        },
        {
          "internalType": "string",
          "name": "projectName",
          "type": "string"
        },
        {
          "internalType": "string",
          "name": "desc",
          "type": "string"
        },
        {
          "internalType": "uint256",
          "name": "excAmount",
          "type": "uint256"
        },
        {
          "internalType": "uint256",
          "name": "excSold",
          "type": "uint256"
        },
        {
          "internalType": "uint256",
          "name": "excListed",
          "type": "uint256"
        },
        {
          "internalType": "enum Company.ProjectState",
          "name": "state",
          "type": "uint8"
        },
        {
          "internalType": "uint256",
          "name": "daystillCompletion",
          "type": "uint256"
        }
      ],
      "payable": false,
      "stateMutability": "view",
      "type": "function"
    },
    {
      "constant": true,
      "inputs": [
        {
          "internalType": "address",
          "name": "",
          "type": "address"
        }
      ],
      "name": "registeredCompanies",
      "outputs": [
        {
          "internalType": "bool",
          "name": "",
          "type": "bool"
        }
      ],
      "payable": false,
      "stateMutability": "view",
      "type": "function"
    },
    {
      "constant": false,
      "inputs": [
        {
          "internalType": "address",
          "name": "account",
          "type": "address"
        }
      ],
      "name": "removeFromBlacklist",
      "outputs": [],
      "payable": false,
      "stateMutability": "nonpayable",
      "type": "function"
    },
    {
      "constant": false,
      "inputs": [
        {
          "internalType": "bytes32",
          "name": "role",
          "type": "bytes32"
        },
        {
          "internalType": "address",
          "name": "account",
          "type": "address"
        }
      ],
      "name": "renounceRole",
      "outputs": [],
      "payable": false,
      "stateMutability": "nonpayable",
      "type": "function"
    },
    {
      "constant": false,
      "inputs": [
        {
          "internalType": "bytes32",
          "name": "role",
          "type": "bytes32"
        },
        {
          "internalType": "address",
          "name": "account",
          "type": "address"
        }
      ],
      "name": "revokeRole",
      "outputs": [],
      "payable": false,
      "stateMutability": "nonpayable",
      "type": "function"
    },
    {
      "constant": false,
      "inputs": [],
      "name": "unpause",
      "outputs": [],
      "payable": false,
      "stateMutability": "nonpayable",
      "type": "function"
    },
    {
      "constant": true,
      "inputs": [
        {
          "internalType": "address",
          "name": "companyAddress",
          "type": "address"
        },
        {
          "internalType": "address",
          "name": "senderAddress",
          "type": "address"
        }
      ],
      "name": "companyOwner",
      "outputs": [
        {
          "internalType": "bool",
          "name": "",
          "type": "bool"
        }
      ],
      "payable": false,
      "stateMutability": "view",
      "type": "function"
    },
    {
      "constant": true,
      "inputs": [
        {
          "internalType": "uint256",
          "name": "projectId",
          "type": "uint256"
        },
        {
          "internalType": "address",
          "name": "companyAddress",
          "type": "address"
        }
      ],
      "name": "projectCompanyOwner",
      "outputs": [
        {
          "internalType": "bool",
          "name": "",
          "type": "bool"
        }
      ],
      "payable": false,
      "stateMutability": "view",
      "type": "function"
    },
    {
      "constant": false,
      "inputs": [
        {
          "internalType": "address",
          "name": "companyAddress",
          "type": "address"
        },
        {
          "internalType": "string",
          "name": "companyName",
          "type": "string"
        }
      ],
      "name": "addCompany",
      "outputs": [
        {
          "internalType": "uint256",
          "name": "",
          "type": "uint256"
        }
      ],
      "payable": false,
      "stateMutability": "nonpayable",
      "type": "function"
    },
    {
      "constant": false,
      "inputs": [
        {
          "internalType": "string",
          "name": "pName",
          "type": "string"
        },
        {
          "internalType": "string",
          "name": "desc",
          "type": "string"
        },
        {
          "internalType": "uint256",
          "name": "daystillCompletion",
          "type": "uint256"
        },
        {
          "internalType": "uint256",
          "name": "carbonDioxideSaved",
          "type": "uint256"
        }
      ],
      "name": "addProject",
      "outputs": [],
      "payable": true,
      "stateMutability": "payable",
      "type": "function"
    },
    {
      "constant": true,
      "inputs": [
        {
          "internalType": "address",
          "name": "companyAddress",
          "type": "address"
        }
      ],
      "name": "getCompanyEthBalance",
      "outputs": [
        {
          "internalType": "uint256",
          "name": "",
          "type": "uint256"
        }
      ],
      "payable": false,
      "stateMutability": "view",
      "type": "function"
    },
    {
      "constant": false,
      "inputs": [
        {
          "internalType": "address",
          "name": "companyAddress",
          "type": "address"
        },
        {
          "internalType": "uint256",
          "name": "projectId",
          "type": "uint256"
        },
        {
          "internalType": "uint256",
          "name": "credits",
          "type": "uint256"
        }
      ],
      "name": "stakeCredits",
      "outputs": [],
      "payable": false,
      "stateMutability": "nonpayable",
      "type": "function"
    },
    {
      "constant": true,
      "inputs": [
        {
          "internalType": "address",
          "name": "companyAddress",
          "type": "address"
        },
        {
          "internalType": "uint256",
          "name": "projectId",
          "type": "uint256"
        }
      ],
      "name": "getStakedCredits",
      "outputs": [
        {
          "internalType": "uint256",
          "name": "",
          "type": "uint256"
        }
      ],
      "payable": false,
      "stateMutability": "view",
      "type": "function"
    },
    {
      "constant": true,
      "inputs": [
        {
          "internalType": "address",
          "name": "companyAddress",
          "type": "address"
        },
        {
          "internalType": "uint256",
          "name": "projectId",
          "type": "uint256"
        },
        {
          "internalType": "uint256",
          "name": "excAmt",
          "type": "uint256"
        }
      ],
      "name": "checkSufficientEXC",
      "outputs": [
        {
          "internalType": "bool",
          "name": "",
          "type": "bool"
        }
      ],
      "payable": false,
      "stateMutability": "view",
      "type": "function"
    },
    {
      "constant": false,
      "inputs": [
        {
          "internalType": "address",
          "name": "companyAddress",
          "type": "address"
        },
        {
          "internalType": "uint256",
          "name": "projectId",
          "type": "uint256"
        },
        {
          "internalType": "uint256",
          "name": "excAmt",
          "type": "uint256"
        }
      ],
      "name": "sellEXC",
      "outputs": [],
      "payable": false,
      "stateMutability": "nonpayable",
      "type": "function"
    },
    {
      "constant": true,
      "inputs": [
        {
          "internalType": "address",
          "name": "companyAddress",
          "type": "address"
        },
        {
          "internalType": "uint256",
          "name": "projectId",
          "type": "uint256"
        },
        {
          "internalType": "uint256",
          "name": "excAmt",
          "type": "uint256"
        }
      ],
      "name": "checkEXCListed",
      "outputs": [
        {
          "internalType": "bool",
          "name": "",
          "type": "bool"
        }
      ],
      "payable": false,
      "stateMutability": "view",
      "type": "function"
    },
    {
      "constant": false,
      "inputs": [
        {
          "internalType": "address",
          "name": "companyAddress",
          "type": "address"
        },
        {
          "internalType": "uint256",
          "name": "projectId",
          "type": "uint256"
        },
        {
          "internalType": "uint256",
          "name": "excAmt",
          "type": "uint256"
        }
      ],
      "name": "listEXC",
      "outputs": [],
      "payable": false,
      "stateMutability": "nonpayable",
      "type": "function"
    },
    {
      "constant": false,
      "inputs": [
        {
          "internalType": "uint256",
          "name": "projectId",
          "type": "uint256"
        },
        {
          "internalType": "uint256",
          "name": "excAmt",
          "type": "uint256"
        }
      ],
      "name": "setEXCListed",
      "outputs": [],
      "payable": false,
      "stateMutability": "nonpayable",
      "type": "function"
    },
    {
      "constant": true,
      "inputs": [
        {
          "internalType": "uint256",
          "name": "projectId",
          "type": "uint256"
        }
      ],
      "name": "getProjectexcAmount",
      "outputs": [
        {
          "internalType": "uint256",
          "name": "",
          "type": "uint256"
        }
      ],
      "payable": false,
      "stateMutability": "view",
      "type": "function"
    },
    {
      "constant": false,
      "inputs": [
        {
          "internalType": "uint256",
          "name": "projectId",
          "type": "uint256"
        },
        {
          "internalType": "uint256",
          "name": "excAmt",
          "type": "uint256"
        }
      ],
      "name": "setProjectexcAmount",
      "outputs": [],
      "payable": false,
      "stateMutability": "nonpayable",
      "type": "function"
    },
    {
      "constant": true,
      "inputs": [
        {
          "internalType": "uint256",
          "name": "projectId",
          "type": "uint256"
        }
      ],
      "name": "getEXCSold",
      "outputs": [
        {
          "internalType": "uint256",
          "name": "",
          "type": "uint256"
        }
      ],
      "payable": false,
      "stateMutability": "view",
      "type": "function"
    },
    {
      "constant": false,
      "inputs": [
        {
          "internalType": "uint256",
          "name": "projectId",
          "type": "uint256"
        },
        {
          "internalType": "uint256",
          "name": "excAmt",
          "type": "uint256"
        }
      ],
      "name": "setEXCSold",
      "outputs": [],
      "payable": false,
      "stateMutability": "nonpayable",
      "type": "function"
    },
    {
      "constant": true,
      "inputs": [
        {
          "internalType": "uint256",
          "name": "projectId",
          "type": "uint256"
        }
      ],
      "name": "getProjectState",
      "outputs": [
        {
          "internalType": "enum Company.ProjectState",
          "name": "",
          "type": "uint8"
        }
      ],
      "payable": false,
      "stateMutability": "view",
      "type": "function"
    },
    {
      "constant": false,
      "inputs": [
        {
          "internalType": "uint256",
          "name": "projectId",
          "type": "uint256"
        }
      ],
      "name": "setProjectStateComplete",
      "outputs": [],
      "payable": false,
      "stateMutability": "nonpayable",
      "type": "function"
    },
    {
      "constant": true,
      "inputs": [
        {
          "internalType": "address",
          "name": "companyAddress",
          "type": "address"
        }
      ],
      "name": "getCompanyName",
      "outputs": [
        {
          "internalType": "string",
          "name": "",
          "type": "string"
        }
      ],
      "payable": false,
      "stateMutability": "view",
      "type": "function"
    }
  ],
  "bytecode": "0x60806040526000600555600060065533600360016101000a81548173ffffffffffffffffffffffffffffffffffffffff021916908373ffffffffffffffffffffffffffffffffffffffff1602179055506000600360006101000a81548160ff0219169083151502179055506001600481905550620000876000801b33620002a760201b60201c565b620000ce60405180807f41444d494e5f524f4c4500000000000000000000000000000000000000000000815250600a019050604051809103902033620002a760201b60201c565b6200011560405180807f5041555345525f524f4c45000000000000000000000000000000000000000000815250600b019050604051809103902033620002a760201b60201c565b6200015f60405180807f41444d494e5f524f4c4500000000000000000000000000000000000000000000815250600a01905060405180910390206000801b6200038660201b60201c565b620001db60405180807f56414c494441544f525f524f4c45000000000000000000000000000000000000815250600e019050604051809103902060405180807f41444d494e5f524f4c4500000000000000000000000000000000000000000000815250600a01905060405180910390206200038660201b60201c565b6200025760405180807f434f4d50414e595f524f4c450000000000000000000000000000000000000000815250600c019050604051809103902060405180807f41444d494e5f524f4c4500000000000000000000000000000000000000000000815250600a01905060405180910390206200038660201b60201c565b620002a160405180807f5041555345525f524f4c45000000000000000000000000000000000000000000815250600b01905060405180910390206000801b6200038660201b60201c565b6200046b565b620002b98282620003e760201b60201c565b6200038257600160008084815260200190815260200160002060008373ffffffffffffffffffffffffffffffffffffffff1673ffffffffffffffffffffffffffffffffffffffff16815260200190815260200160002060006101000a81548160ff0219169083151502179055503373ffffffffffffffffffffffffffffffffffffffff168173ffffffffffffffffffffffffffffffffffffffff16837f2f8788117e7eff1d82e926ec794901d17c78024a50270940304540a733656f0d60405160405180910390a45b5050565b600062000399836200044e60201b60201c565b90508160016000858152602001908152602001600020819055508181847fbd79b86ffe0ab8e8776151514217cd7cacd52c909f66475c3af44e129f0b00ff60405160405180910390a4505050565b600080600084815260200190815260200160002060008373ffffffffffffffffffffffffffffffffffffffff1673ffffffffffffffffffffffffffffffffffffffff16815260200190815260200160002060009054906101000a900460ff16905092915050565b600060016000838152602001908152602001600020549050919050565b614b23806200047b6000396000f3fe6080604052600436106102885760003560e01c806375b238fc1161015a578063c08e375f116100c1578063e01557141161007a578063e015571414611159578063e63ab1e9146111b6578063e8241cc9146111e1578063ed234e2014611254578063ef5e100814611350578063fe575a87146113cd57610288565b8063c08e375f14610fa9578063c49baebe14610ff8578063cccef47414611023578063d37b34d714611072578063d547741f146110c3578063dd8c9c9f1461111e57610288565b80638da5cb5b116101135780638da5cb5b14610d5a57806391d1485414610db1578063a217fddf14610e24578063a4ef703114610e4f578063ba254e3714610f19578063bb54195214610f4457610288565b806375b238fc14610bba5780637b4e151b14610be55780637ffd86c014610c6e5780638456cb5914610cb3578063874fdf2d14610cca5780638b4867dd14610cf557610288565b80633f4ba83a116101fe5780635c975abb116101b75780635c975abb146109e05780635f94091914610a0f57806361854d2014610a785780636e3eb76d14610add578063703d52af14610b22578063704eb33114610b7557610288565b80633f4ba83a1461083657806343a2004e1461084d5780634991d7f9146108ca578063537df3b6146108f557806353cd2582146109465780635a067baa146109b557610288565b80632160036a116102505780632160036a146105315780632287637614610697578063248a9ca3146107065780632c3b25bb146107555780632f2ff15d1461078057806336568abe146107db57610288565b80630a8659c71461028d578063107046bd146102b857806313732f471461043c5780631c9ee11a146104a15780631d2dfb74146104cc575b600080fd5b34801561029957600080fd5b506102a2611436565b6040518082815260200191505060405180910390f35b3480156102c457600080fd5b506102f1600480360360208110156102db57600080fd5b810190808035906020019092919050505061143d565b604051808973ffffffffffffffffffffffffffffffffffffffff1673ffffffffffffffffffffffffffffffffffffffff168152602001806020018060200188815260200187815260200186815260200185600181111561034d57fe5b60ff16815260200184815260200183810383528a818151815260200191508051906020019080838360005b83811015610393578082015181840152602081019050610378565b50505050905090810190601f1680156103c05780820380516001836020036101000a031916815260200191505b50838103825289818151815260200191508051906020019080838360005b838110156103f95780820151818401526020810190506103de565b50505050905090810190601f1680156104265780820380516001836020036101000a031916815260200191505b509a505050505050505050505060405180910390f35b34801561044857600080fd5b5061049f6004803603606081101561045f57600080fd5b81019080803573ffffffffffffffffffffffffffffffffffffffff16906020019092919080359060200190929190803590602001909291905050506115e2565b005b3480156104ad57600080fd5b506104b661166a565b6040518082815260200191505060405180910390f35b3480156104d857600080fd5b5061051b600480360360208110156104ef57600080fd5b81019080803573ffffffffffffffffffffffffffffffffffffffff1690602001909291905050506116a3565b6040518082815260200191505060405180910390f35b6106956004803603608081101561054757600080fd5b810190808035906020019064010000000081111561056457600080fd5b82018360208201111561057657600080fd5b8035906020019184600183028401116401000000008311171561059857600080fd5b91908080601f016020809104026020016040519081016040528093929190818152602001838380828437600081840152601f19601f820116905080830192505050505050509192919290803590602001906401000000008111156105fb57600080fd5b82018360208201111561060d57600080fd5b8035906020019184600183028401116401000000008311171561062f57600080fd5b91908080601f016020809104026020016040519081016040528093929190818152602001838380828437600081840152601f19601f8201169050808301925050505050505091929192908035906020019092919080359060200190929190505050611827565b005b3480156106a357600080fd5b506106f0600480360360408110156106ba57600080fd5b81019080803573ffffffffffffffffffffffffffffffffffffffff169060200190929190803590602001909291905050506121af565b6040518082815260200191505060405180910390f35b34801561071257600080fd5b5061073f6004803603602081101561072957600080fd5b81019080803590602001909291905050506121dd565b6040518082815260200191505060405180910390f35b34801561076157600080fd5b5061076a6121fa565b6040518082815260200191505060405180910390f35b34801561078c57600080fd5b506107d9600480360360408110156107a357600080fd5b8101908080359060200190929190803573ffffffffffffffffffffffffffffffffffffffff169060200190929190505050612202565b005b3480156107e757600080fd5b50610834600480360360408110156107fe57600080fd5b8101908080359060200190929190803573ffffffffffffffffffffffffffffffffffffffff1690602001909291905050506123c3565b005b34801561084257600080fd5b5061084b612455565b005b34801561085957600080fd5b506108b06004803603606081101561087057600080fd5b81019080803573ffffffffffffffffffffffffffffffffffffffff16906020019092919080359060200190929190803590602001909291905050506125d0565b604051808215151515815260200191505060405180910390f35b3480156108d657600080fd5b506108df61267c565b6040518082815260200191505060405180910390f35b34801561090157600080fd5b506109446004803603602081101561091857600080fd5b81019080803573ffffffffffffffffffffffffffffffffffffffff169060200190929190505050612683565b005b34801561095257600080fd5b5061099f6004803603604081101561096957600080fd5b81019080803573ffffffffffffffffffffffffffffffffffffffff169060200190929190803590602001909291905050506128bb565b6040518082815260200191505060405180910390f35b3480156109c157600080fd5b506109ca612995565b6040518082815260200191505060405180910390f35b3480156109ec57600080fd5b506109f561299b565b604051808215151515815260200191505060405180910390f35b348015610a1b57600080fd5b50610a5e60048036036020811015610a3257600080fd5b81019080803573ffffffffffffffffffffffffffffffffffffffff1690602001909291905050506129b2565b604051808215151515815260200191505060405180910390f35b348015610a8457600080fd5b50610adb60048036036060811015610a9b57600080fd5b81019080803573ffffffffffffffffffffffffffffffffffffffff16906020019092919080359060200190929190803590602001909291905050506129d2565b005b348015610ae957600080fd5b50610b2060048036036040811015610b0057600080fd5b810190808035906020019092919080359060200190929190505050612b4b565b005b348015610b2e57600080fd5b50610b5b60048036036020811015610b4557600080fd5b8101908080359060200190929190505050612be1565b604051808215151515815260200191505060405180910390f35b348015610b8157600080fd5b50610bb860048036036040811015610b9857600080fd5b810190808035906020019092919080359060200190929190505050612c01565b005b348015610bc657600080fd5b50610bcf612c97565b6040518082815260200191505060405180910390f35b348015610bf157600080fd5b50610c5460048036036040811015610c0857600080fd5b81019080803573ffffffffffffffffffffffffffffffffffffffff169060200190929190803573ffffffffffffffffffffffffffffffffffffffff169060200190929190505050612cd0565b604051808215151515815260200191505060405180910390f35b348015610c7a57600080fd5b50610cb160048036036040811015610c9157600080fd5b810190808035906020019092919080359060200190929190505050612d82565b005b348015610cbf57600080fd5b50610cc8612e18565b005b348015610cd657600080fd5b50610cdf612f94565b6040518082815260200191505060405180910390f35b348015610d0157600080fd5b50610d5860048036036060811015610d1857600080fd5b81019080803573ffffffffffffffffffffffffffffffffffffffff1690602001909291908035906020019092919080359060200190929190505050612f9a565b005b348015610d6657600080fd5b50610d6f613022565b604051808273ffffffffffffffffffffffffffffffffffffffff1673ffffffffffffffffffffffffffffffffffffffff16815260200191505060405180910390f35b348015610dbd57600080fd5b50610e0a60048036036040811015610dd457600080fd5b8101908080359060200190929190803573ffffffffffffffffffffffffffffffffffffffff16906020019092919050505061304c565b604051808215151515815260200191505060405180910390f35b348015610e3057600080fd5b50610e396130b3565b6040518082815260200191505060405180910390f35b348015610e5b57600080fd5b50610e9e60048036036020811015610e7257600080fd5b81019080803573ffffffffffffffffffffffffffffffffffffffff1690602001909291905050506130ba565b6040518080602001828103825283818151815260200191508051906020019080838360005b83811015610ede578082015181840152602081019050610ec3565b50505050905090810190601f168015610f0b5780820380516001836020036101000a031916815260200191505b509250505060405180910390f35b348015610f2557600080fd5b50610f2e6132a3565b6040518082815260200191505060405180910390f35b348015610f5057600080fd5b50610f9360048036036020811015610f6757600080fd5b81019080803573ffffffffffffffffffffffffffffffffffffffff1690602001909291905050506132a8565b6040518082815260200191505060405180910390f35b348015610fb557600080fd5b50610fe260048036036020811015610fcc57600080fd5b81019080803590602001909291905050506132c0565b6040518082815260200191505060405180910390f35b34801561100457600080fd5b5061100d613357565b6040518082815260200191505060405180910390f35b34801561102f57600080fd5b5061105c6004803603602081101561104657600080fd5b8101908080359060200190929190505050613390565b6040518082815260200191505060405180910390f35b34801561107e57600080fd5b506110c16004803603602081101561109557600080fd5b81019080803573ffffffffffffffffffffffffffffffffffffffff16906020019092919050505061362e565b005b3480156110cf57600080fd5b5061111c600480360360408110156110e657600080fd5b8101908080359060200190929190803573ffffffffffffffffffffffffffffffffffffffff1690602001909291905050506138e5565b005b34801561112a57600080fd5b506111576004803603602081101561114157600080fd5b8101908080359060200190929190505050613a01565b005b34801561116557600080fd5b506111926004803603602081101561117c57600080fd5b8101908080359060200190929190505050613ab3565b604051808260018111156111a257fe5b60ff16815260200191505060405180910390f35b3480156111c257600080fd5b506111cb613b57565b6040518082815260200191505060405180910390f35b3480156111ed57600080fd5b5061123a6004803603604081101561120457600080fd5b8101908080359060200190929190803573ffffffffffffffffffffffffffffffffffffffff169060200190929190505050613b90565b604051808215151515815260200191505060405180910390f35b34801561126057600080fd5b5061133a6004803603604081101561127757600080fd5b81019080803573ffffffffffffffffffffffffffffffffffffffff169060200190929190803590602001906401000000008111156112b457600080fd5b8201836020820111156112c657600080fd5b803590602001918460018302840111640100000000831117156112e857600080fd5b91908080601f016020809104026020016040519081016040528093929190818152602001838380828437600081840152601f19601f820116905080830192505050505050509192919290505050613c73565b6040518082815260200191505060405180910390f35b34801561135c57600080fd5b506113b36004803603606081101561137357600080fd5b81019080803573ffffffffffffffffffffffffffffffffffffffff169060200190929190803590602001909291908035906020019092919050505061441c565b604051808215151515815260200191505060405180910390f35b3480156113d957600080fd5b5061141c600480360360208110156113f057600080fd5b81019080803573ffffffffffffffffffffffffffffffffffffffff1690602001909291905050506144c8565b604051808215151515815260200191505060405180910390f35b620f424081565b60096020528060005260406000206000915090508060000160009054906101000a900473ffffffffffffffffffffffffffffffffffffffff1690806001018054600181600116156101000203166002900480601f01602080910402602001604051908101604052809291908181526020018280546001816001161561010002031660029004801561150f5780601f106114e45761010080835404028352916020019161150f565b820191906000526020600020905b8154815290600101906020018083116114f257829003601f168201915b505050505090806002018054600181600116156101000203166002900480601f0160208091040260200160405190810160405280929190818152602001828054600181600116156101000203166002900480156115ad5780601f10611582576101008083540402835291602001916115ad565b820191906000526020600020905b81548152906001019060200180831161159057829003601f168201915b5050505050908060030154908060040154908060050154908060060160009054906101000a900460ff16908060070154905088565b6115ec8284613b90565b611641576040517f08c379a00000000000000000000000000000000000000000000000000000000081526004018080602001828103825260248152602001806148f36024913960400191505060405180910390fd5b806009600084815260200190815260200160002060040160008282540192505081905550505050565b60405180807f434f4d50414e595f524f4c450000000000000000000000000000000000000000815250600c019050604051809103902081565b60008073ffffffffffffffffffffffffffffffffffffffff16600760008473ffffffffffffffffffffffffffffffffffffffff1673ffffffffffffffffffffffffffffffffffffffff16815260200190815260200160002060000160009054906101000a900473ffffffffffffffffffffffffffffffffffffffff1673ffffffffffffffffffffffffffffffffffffffff1614156117a9576040517f08c379a00000000000000000000000000000000000000000000000000000000081526004018080602001828103825260168152602001807f436f6d70616e7920646f6573206e6f742065786973740000000000000000000081525060200191505060405180910390fd5b6117b38233612cd0565b611808576040517f08c379a000000000000000000000000000000000000000000000000000000000815260040180806020018281038252602681526020018061493c6026913960400191505060405180910390fd5b8173ffffffffffffffffffffffffffffffffffffffff16319050919050565b600360009054906101000a900460ff161561188d576040517f08c379a00000000000000000000000000000000000000000000000000000000081526004018080602001828103825260218152602001806148656021913960400191505060405180910390fd5b33600260008273ffffffffffffffffffffffffffffffffffffffff1673ffffffffffffffffffffffffffffffffffffffff16815260200190815260200160002060009054906101000a900460ff1615611931576040517f08c379a00000000000000000000000000000000000000000000000000000000081526004018080602001828103825260258152602001806149626025913960400191505060405180910390fd5b600260045414156119aa576040517f08c379a000000000000000000000000000000000000000000000000000000000815260040180806020018281038252601d8152602001807f416363657373436f6e74726f6c3a207265656e7472616e742063616c6c00000081525060200191505060405180910390fd5b60026004819055506000855111611a0c576040517f08c379a00000000000000000000000000000000000000000000000000000000081526004018080602001828103825260258152602001806148ac6025913960400191505060405180910390fd5b606485511115611a84576040517f08c379a000000000000000000000000000000000000000000000000000000000815260040180806020018281038252601e8152602001807f436f6d70616e793a2070726f6a656374206e616d6520746f6f206c6f6e67000081525060200191505060405180910390fd5b600a84511015611afc576040517f08c379a000000000000000000000000000000000000000000000000000000000815260040180806020018281038252601e8152602001807f436f6d70616e793a206465736372697074696f6e20746f6f2073686f7274000081525060200191505060405180910390fd5b6103e884511115611b75576040517f08c379a000000000000000000000000000000000000000000000000000000000815260040180806020018281038252601d8152602001807f436f6d70616e793a206465736372697074696f6e20746f6f206c6f6e6700000081525060200191505060405180910390fd5b620151808081611b8157fe5b04831015611bda576040517f08c379a0000000000000000000000000000000000000000000000000000000008152600401808060200182810382526023815260200180614a336023913960400191505060405180910390fd5b620151806301e1338081611bea57fe5b04831115611c43576040517f08c379a00000000000000000000000000000000000000000000000000000000081526004018080602001828103825260228152602001806148d16022913960400191505060405180910390fd5b60018210158015611c575750620f42408211155b611cac576040517f08c379a0000000000000000000000000000000000000000000000000000000008152600401808060200182810382526021815260200180614aa96021913960400191505060405180910390fd5b600b60003373ffffffffffffffffffffffffffffffffffffffff1673ffffffffffffffffffffffffffffffffffffffff16815260200190815260200160002060009054906101000a900460ff16611d6b576040517f08c379a000000000000000000000000000000000000000000000000000000000815260040180806020018281038252601f8152602001807f436f6d70616e793a20636f6d70616e79206e6f7420726567697374657265640081525060200191505060405180910390fd5b611daa60405180807f434f4d50414e595f524f4c450000000000000000000000000000000000000000815250600c01905060405180910390203361304c565b611dff576040517f08c379a000000000000000000000000000000000000000000000000000000000815260040180806020018281038252602a815260200180614987602a913960400191505060405180910390fd5b6000600760003373ffffffffffffffffffffffffffffffffffffffff1673ffffffffffffffffffffffffffffffffffffffff1681526020019081526020016000209050600073ffffffffffffffffffffffffffffffffffffffff168160000160009054906101000a900473ffffffffffffffffffffffffffffffffffffffff1673ffffffffffffffffffffffffffffffffffffffff161415611eec576040517f08c379a000000000000000000000000000000000000000000000000000000000815260040180806020018281038252603481526020018061480e6034913960400191505060405180910390fd5b600060056000815480929190600101919050559050611f096146cb565b87816020018190525033816000019073ffffffffffffffffffffffffffffffffffffffff16908173ffffffffffffffffffffffffffffffffffffffff168152505086816040018190525060008160c001906001811115611f6557fe5b90816001811115611f7257fe5b81525050858160e001818152505060008160a0018181525050848160600181815250506000816080018181525050806009600084815260200190815260200160002060008201518160000160006101000a81548173ffffffffffffffffffffffffffffffffffffffff021916908373ffffffffffffffffffffffffffffffffffffffff1602179055506020820151816001019080519060200190612017929190614731565b506040820151816002019080519060200190612034929190614731565b50606082015181600301556080820151816004015560a0820151816005015560c08201518160060160006101000a81548160ff0219169083600181111561207757fe5b021790555060e082015181600701559050506001600c600084815260200190815260200160002060006101000a81548160ff0219169083151502179055508260020160008154809291906001019190505550600a60003373ffffffffffffffffffffffffffffffffffffffff1673ffffffffffffffffffffffffffffffffffffffff1681526020019081526020016000208290806001815401808255809150509060018203906000526020600020016000909192909190915055507f68fa61752bdcbd546c2f36da7bf0ae4183db23be0f1b4194329377ab8519b1413383604051808373ffffffffffffffffffffffffffffffffffffffff1673ffffffffffffffffffffffffffffffffffffffff1681526020018281526020019250505060405180910390a150505060016004819055505050505050565b600a60205281600052604060002081815481106121c857fe5b90600052602060002001600091509150505481565b600060016000838152602001908152602001600020549050919050565b6301e1338081565b61220b826121dd565b612215813361304c565b61226a576040517f08c379a00000000000000000000000000000000000000000000000000000000081526004018080602001828103825260318152602001806149db6031913960400191505060405180910390fd5b81600073ffffffffffffffffffffffffffffffffffffffff168173ffffffffffffffffffffffffffffffffffffffff16141561230e576040517f08c379a000000000000000000000000000000000000000000000000000000000815260040180806020018281038252601e8152602001807f416363657373436f6e74726f6c3a20696e76616c69642061646472657373000081525060200191505060405180910390fd5b82600260008273ffffffffffffffffffffffffffffffffffffffff1673ffffffffffffffffffffffffffffffffffffffff16815260200190815260200160002060009054906101000a900460ff16156123b2576040517f08c379a00000000000000000000000000000000000000000000000000000000081526004018080602001828103825260258152602001806149626025913960400191505060405180910390fd5b6123bc858561451e565b5050505050565b3373ffffffffffffffffffffffffffffffffffffffff168173ffffffffffffffffffffffffffffffffffffffff1614612447576040517f08c379a000000000000000000000000000000000000000000000000000000000815260040180806020018281038252602f815260200180614a7a602f913960400191505060405180910390fd5b61245182826145f4565b5050565b60405180807f5041555345525f524f4c45000000000000000000000000000000000000000000815250600b0190506040518091039020612495813361304c565b6124ea576040517f08c379a00000000000000000000000000000000000000000000000000000000081526004018080602001828103825260318152602001806149db6031913960400191505060405180910390fd5b600360009054906101000a900460ff1661254f576040517f08c379a0000000000000000000000000000000000000000000000000000000008152600401808060200182810382526025815260200180614aca6025913960400191505060405180910390fd5b6000600360006101000a81548160ff0219169083151502179055507f5db9ee0a495bf2e6ff9c91a7834c1ba4fdd244a5e8aa4e537bd38aeae4b073aa33604051808273ffffffffffffffffffffffffffffffffffffffff1673ffffffffffffffffffffffffffffffffffffffff16815260200191505060405180910390a150565b60006125dc8385613b90565b612631576040517f08c379a00000000000000000000000000000000000000000000000000000000081526004018080602001828103825260248152602001806148f36024913960400191505060405180910390fd5b60096000848152602001908152602001600020600301548260096000868152602001908152602001600020600501540111156126705760009050612675565b600190505b9392505050565b6201518081565b60405180807f41444d494e5f524f4c4500000000000000000000000000000000000000000000815250600a01905060405180910390206126c3813361304c565b612718576040517f08c379a00000000000000000000000000000000000000000000000000000000081526004018080602001828103825260318152602001806149db6031913960400191505060405180910390fd5b81600073ffffffffffffffffffffffffffffffffffffffff168173ffffffffffffffffffffffffffffffffffffffff1614156127bc576040517f08c379a000000000000000000000000000000000000000000000000000000000815260040180806020018281038252601e8152602001807f416363657373436f6e74726f6c3a20696e76616c69642061646472657373000081525060200191505060405180910390fd5b600260008473ffffffffffffffffffffffffffffffffffffffff1673ffffffffffffffffffffffffffffffffffffffff16815260200190815260200160002060009054906101000a900460ff1661285e576040517f08c379a00000000000000000000000000000000000000000000000000000000081526004018080602001828103825260268152602001806148866026913960400191505060405180910390fd5b6000600260008573ffffffffffffffffffffffffffffffffffffffff1673ffffffffffffffffffffffffffffffffffffffff16815260200190815260200160002060006101000a81548160ff021916908315150217905550505050565b60006128c78284613b90565b612939576040517f08c379a000000000000000000000000000000000000000000000000000000000815260040180806020018281038252601c8152602001807f50726f6a656374206e6f74206f776e656420627920636f6d70616e790000000081525060200191505060405180910390fd5b6009600083815260200190815260200160002060080160008473ffffffffffffffffffffffffffffffffffffffff1673ffffffffffffffffffffffffffffffffffffffff16815260200190815260200160002054905092915050565b60055481565b6000600360009054906101000a900460ff16905090565b600b6020528060005260406000206000915054906101000a900460ff1681565b8273ffffffffffffffffffffffffffffffffffffffff166009600084815260200190815260200160002060000160009054906101000a900473ffffffffffffffffffffffffffffffffffffffff1673ffffffffffffffffffffffffffffffffffffffff1614612a8c576040517f08c379a0000000000000000000000000000000000000000000000000000000008152600401808060200182810382526024815260200180614a566024913960400191505060405180910390fd5b60008111612ae5576040517f08c379a0000000000000000000000000000000000000000000000000000000008152600401808060200182810382526027815260200180614a0c6027913960400191505060405180910390fd5b806009600084815260200190815260200160002060080160008573ffffffffffffffffffffffffffffffffffffffff1673ffffffffffffffffffffffffffffffffffffffff16815260200190815260200160002060008282540192505081905550505050565b6005548210612bc2576040517f08c379a00000000000000000000000000000000000000000000000000000000081526004018080602001828103825260128152602001807f496e76616c69642070726f6a656374204944000000000000000000000000000081525060200191505060405180910390fd5b8060096000848152602001908152602001600020600501819055505050565b600c6020528060005260406000206000915054906101000a900460ff1681565b6005548210612c78576040517f08c379a00000000000000000000000000000000000000000000000000000000081526004018080602001828103825260128152602001807f496e76616c69642070726f6a656374204944000000000000000000000000000081525060200191505060405180910390fd5b8060096000848152602001908152602001600020600401819055505050565b60405180807f41444d494e5f524f4c4500000000000000000000000000000000000000000000815250600a019050604051809103902081565b600080600760008573ffffffffffffffffffffffffffffffffffffffff1673ffffffffffffffffffffffffffffffffffffffff16815260200190815260200160002090508273ffffffffffffffffffffffffffffffffffffffff168160000160009054906101000a900473ffffffffffffffffffffffffffffffffffffffff1673ffffffffffffffffffffffffffffffffffffffff161415612d76576001915050612d7c565b60009150505b92915050565b6005548210612df9576040517f08c379a00000000000000000000000000000000000000000000000000000000081526004018080602001828103825260128152602001807f496e76616c69642070726f6a656374204944000000000000000000000000000081525060200191505060405180910390fd5b8060096000848152602001908152602001600020600301819055505050565b60405180807f5041555345525f524f4c45000000000000000000000000000000000000000000815250600b0190506040518091039020612e58813361304c565b612ead576040517f08c379a00000000000000000000000000000000000000000000000000000000081526004018080602001828103825260318152602001806149db6031913960400191505060405180910390fd5b600360009054906101000a900460ff1615612f13576040517f08c379a00000000000000000000000000000000000000000000000000000000081526004018080602001828103825260218152602001806148656021913960400191505060405180910390fd5b6001600360006101000a81548160ff0219169083151502179055507f62e78cea01bee320cd4e420270b5ea74000d11b0c9f74754ebdbfc544b05a25833604051808273ffffffffffffffffffffffffffffffffffffffff1673ffffffffffffffffffffffffffffffffffffffff16815260200191505060405180910390a150565b60065481565b612fa48284613b90565b612ff9576040517f08c379a00000000000000000000000000000000000000000000000000000000081526004018080602001828103825260248152602001806148f36024913960400191505060405180910390fd5b806009600084815260200190815260200160002060050160008282540192505081905550505050565b6000600360019054906101000a900473ffffffffffffffffffffffffffffffffffffffff16905090565b600080600084815260200190815260200160002060008373ffffffffffffffffffffffffffffffffffffffff1673ffffffffffffffffffffffffffffffffffffffff16815260200190815260200160002060009054906101000a900460ff16905092915050565b6000801b81565b6060600073ffffffffffffffffffffffffffffffffffffffff16600760008473ffffffffffffffffffffffffffffffffffffffff1673ffffffffffffffffffffffffffffffffffffffff16815260200190815260200160002060000160009054906101000a900473ffffffffffffffffffffffffffffffffffffffff1673ffffffffffffffffffffffffffffffffffffffff1614156131c1576040517f08c379a00000000000000000000000000000000000000000000000000000000081526004018080602001828103825260168152602001807f436f6d70616e7920646f6573206e6f742065786973740000000000000000000081525060200191505060405180910390fd5b600760008373ffffffffffffffffffffffffffffffffffffffff1673ffffffffffffffffffffffffffffffffffffffff1681526020019081526020016000206001018054600181600116156101000203166002900480601f0160208091040260200160405190810160405280929190818152602001828054600181600116156101000203166002900480156132975780601f1061326c57610100808354040283529160200191613297565b820191906000526020600020905b81548152906001019060200180831161327a57829003601f168201915b50505050509050919050565b600181565b600d6020528060005260406000206000915090505481565b60006005548210613339576040517f08c379a00000000000000000000000000000000000000000000000000000000081526004018080602001828103825260128152602001807f496e76616c69642070726f6a656374204944000000000000000000000000000081525060200191505060405180910390fd5b60096000838152602001908152602001600020600401549050919050565b60405180807f56414c494441544f525f524f4c45000000000000000000000000000000000000815250600e019050604051809103902081565b60006005548210613409576040517f08c379a00000000000000000000000000000000000000000000000000000000081526004018080602001828103825260128152602001807f496e76616c69642070726f6a656374204944000000000000000000000000000081525060200191505060405180910390fd5b6134116146cb565b60096000848152602001908152602001600020604051806101000160405290816000820160009054906101000a900473ffffffffffffffffffffffffffffffffffffffff1673ffffffffffffffffffffffffffffffffffffffff1673ffffffffffffffffffffffffffffffffffffffff168152602001600182018054600181600116156101000203166002900480601f01602080910402602001604051908101604052809291908181526020018280546001816001161561010002031660029004801561351f5780601f106134f45761010080835404028352916020019161351f565b820191906000526020600020905b81548152906001019060200180831161350257829003601f168201915b50505050508152602001600282018054600181600116156101000203166002900480601f0160208091040260200160405190810160405280929190818152602001828054600181600116156101000203166002900480156135c15780601f10613596576101008083540402835291602001916135c1565b820191906000526020600020905b8154815290600101906020018083116135a457829003601f168201915b505050505081526020016003820154815260200160048201548152602001600582015481526020016006820160009054906101000a900460ff16600181111561360657fe5b600181111561361157fe5b815260200160078201548152505090508060600151915050919050565b60405180807f41444d494e5f524f4c4500000000000000000000000000000000000000000000815250600a019050604051809103902061366e813361304c565b6136c3576040517f08c379a00000000000000000000000000000000000000000000000000000000081526004018080602001828103825260318152602001806149db6031913960400191505060405180910390fd5b81600073ffffffffffffffffffffffffffffffffffffffff168173ffffffffffffffffffffffffffffffffffffffff161415613767576040517f08c379a000000000000000000000000000000000000000000000000000000000815260040180806020018281038252601e8152602001807f416363657373436f6e74726f6c3a20696e76616c69642061646472657373000081525060200191505060405180910390fd5b600260008473ffffffffffffffffffffffffffffffffffffffff1673ffffffffffffffffffffffffffffffffffffffff16815260200190815260200160002060009054906101000a900460ff161561380a576040517f08c379a000000000000000000000000000000000000000000000000000000000815260040180806020018281038252602a8152602001806149b1602a913960400191505060405180910390fd5b6001600260008573ffffffffffffffffffffffffffffffffffffffff1673ffffffffffffffffffffffffffffffffffffffff16815260200190815260200160002060006101000a81548160ff0219169083151502179055506138a160405180807f56414c494441544f525f524f4c45000000000000000000000000000000000000815250600e0190506040518091039020846145f4565b6138e060405180807f434f4d50414e595f524f4c450000000000000000000000000000000000000000815250600c0190506040518091039020846145f4565b505050565b6138ee826121dd565b6138f8813361304c565b61394d576040517f08c379a00000000000000000000000000000000000000000000000000000000081526004018080602001828103825260318152602001806149db6031913960400191505060405180910390fd5b81600073ffffffffffffffffffffffffffffffffffffffff168173ffffffffffffffffffffffffffffffffffffffff1614156139f1576040517f08c379a000000000000000000000000000000000000000000000000000000000815260040180806020018281038252601e8152602001807f416363657373436f6e74726f6c3a20696e76616c69642061646472657373000081525060200191505060405180910390fd5b6139fb84846145f4565b50505050565b6005548110613a78576040517f08c379a00000000000000000000000000000000000000000000000000000000081526004018080602001828103825260128152602001807f496e76616c69642070726f6a656374204944000000000000000000000000000081525060200191505060405180910390fd5b60016009600083815260200190815260200160002060060160006101000a81548160ff02191690836001811115613aab57fe5b021790555050565b60006005548210613b2c576040517f08c379a00000000000000000000000000000000000000000000000000000000081526004018080602001828103825260128152602001807f496e76616c69642070726f6a656374204944000000000000000000000000000081525060200191505060405180910390fd5b6009600083815260200190815260200160002060060160009054906101000a900460ff169050919050565b60405180807f5041555345525f524f4c45000000000000000000000000000000000000000000815250600b019050604051809103902081565b60006060600a60008473ffffffffffffffffffffffffffffffffffffffff1673ffffffffffffffffffffffffffffffffffffffff168152602001908152602001600020805480602002602001604051908101604052809291908181526020018280548015613c1d57602002820191906000526020600020905b815481526020019060010190808311613c09575b5050505050905060008090505b8151811015613c665784828281518110613c4057fe5b60200260200101511415613c5957600192505050613c6d565b8080600101915050613c2a565b5060009150505b92915050565b600060405180807f41444d494e5f524f4c4500000000000000000000000000000000000000000000815250600a0190506040518091039020613cb5813361304c565b613d0a576040517f08c379a00000000000000000000000000000000000000000000000000000000081526004018080602001828103825260318152602001806149db6031913960400191505060405180910390fd5b600360009054906101000a900460ff1615613d70576040517f08c379a00000000000000000000000000000000000000000000000000000000081526004018080602001828103825260218152602001806148656021913960400191505060405180910390fd5b83600073ffffffffffffffffffffffffffffffffffffffff168173ffffffffffffffffffffffffffffffffffffffff161415613e14576040517f08c379a000000000000000000000000000000000000000000000000000000000815260040180806020018281038252601e8152602001807f416363657373436f6e74726f6c3a20696e76616c69642061646472657373000081525060200191505060405180910390fd5b84600260008273ffffffffffffffffffffffffffffffffffffffff1673ffffffffffffffffffffffffffffffffffffffff16815260200190815260200160002060009054906101000a900460ff1615613eb8576040517f08c379a00000000000000000000000000000000000000000000000000000000081526004018080602001828103825260258152602001806149626025913960400191505060405180910390fd5b6000855111613f12576040517f08c379a00000000000000000000000000000000000000000000000000000000081526004018080602001828103825260258152602001806149176025913960400191505060405180910390fd5b606485511115613f8a576040517f08c379a000000000000000000000000000000000000000000000000000000000815260040180806020018281038252601e8152602001807f436f6d70616e793a20636f6d70616e79206e616d6520746f6f206c6f6e67000081525060200191505060405180910390fd5b600b60008773ffffffffffffffffffffffffffffffffffffffff1673ffffffffffffffffffffffffffffffffffffffff16815260200190815260200160002060009054906101000a900460ff161561402d576040517f08c379a00000000000000000000000000000000000000000000000000000000081526004018080602001828103825260238152602001806148426023913960400191505060405180910390fd5b600073ffffffffffffffffffffffffffffffffffffffff16600760008873ffffffffffffffffffffffffffffffffffffffff1673ffffffffffffffffffffffffffffffffffffffff16815260200190815260200160002060000160009054906101000a900473ffffffffffffffffffffffffffffffffffffffff1673ffffffffffffffffffffffffffffffffffffffff1614614131576040517f08c379a000000000000000000000000000000000000000000000000000000000815260040180806020018281038252601e8152602001807f436f6d70616e793a20636f6d70616e7920616c7265616479206164646564000081525060200191505060405180910390fd5b6141396147b1565b85816020018190525086816000019073ffffffffffffffffffffffffffffffffffffffff16908173ffffffffffffffffffffffffffffffffffffffff1681525050600081604001818152505080600760008973ffffffffffffffffffffffffffffffffffffffff1673ffffffffffffffffffffffffffffffffffffffff16815260200190815260200160002060008201518160000160006101000a81548173ffffffffffffffffffffffffffffffffffffffff021916908373ffffffffffffffffffffffffffffffffffffffff1602179055506020820151816001019080519060200190614228929190614731565b50604082015181600201559050506001600b60008973ffffffffffffffffffffffffffffffffffffffff1673ffffffffffffffffffffffffffffffffffffffff16815260200190815260200160002060006101000a81548160ff02191690831515021790555042600d60008973ffffffffffffffffffffffffffffffffffffffff1673ffffffffffffffffffffffffffffffffffffffff1681526020019081526020016000208190555061431160405180807f434f4d50414e595f524f4c450000000000000000000000000000000000000000815250600c01905060405180910390208861451e565b7f1072a9b8a7ccf3921d43d7ba49d97c33e8201e33eb954ed3063939efa57d4f7587604051808273ffffffffffffffffffffffffffffffffffffffff1673ffffffffffffffffffffffffffffffffffffffff16815260200191505060405180910390a1600060066000815480929190600101919050559050816008600083815260200190815260200160002060008201518160000160006101000a81548173ffffffffffffffffffffffffffffffffffffffff021916908373ffffffffffffffffffffffffffffffffffffffff1602179055506020820151816001019080519060200190614400929190614731565b5060408201518160020155905050809550505050505092915050565b60006144288385613b90565b61447d576040517f08c379a00000000000000000000000000000000000000000000000000000000081526004018080602001828103825260248152602001806148f36024913960400191505060405180910390fd5b60096000848152602001908152602001600020600301548260096000868152602001908152602001600020600401540111156144bc57600090506144c1565b600190505b9392505050565b6000600260008373ffffffffffffffffffffffffffffffffffffffff1673ffffffffffffffffffffffffffffffffffffffff16815260200190815260200160002060009054906101000a900460ff169050919050565b614528828261304c565b6145f057600160008084815260200190815260200160002060008373ffffffffffffffffffffffffffffffffffffffff1673ffffffffffffffffffffffffffffffffffffffff16815260200190815260200160002060006101000a81548160ff0219169083151502179055503373ffffffffffffffffffffffffffffffffffffffff168173ffffffffffffffffffffffffffffffffffffffff16837f2f8788117e7eff1d82e926ec794901d17c78024a50270940304540a733656f0d60405160405180910390a45b5050565b6145fe828261304c565b156146c757600080600084815260200190815260200160002060008373ffffffffffffffffffffffffffffffffffffffff1673ffffffffffffffffffffffffffffffffffffffff16815260200190815260200160002060006101000a81548160ff0219169083151502179055503373ffffffffffffffffffffffffffffffffffffffff168173ffffffffffffffffffffffffffffffffffffffff16837ff6391f5c32d9c69d2a47ea670b442974b53935d1edc7fd64eb21e047a839171b60405160405180910390a45b5050565b604051806101000160405280600073ffffffffffffffffffffffffffffffffffffffff16815260200160608152602001606081526020016000815260200160008152602001600081526020016000600181111561472457fe5b8152602001600081525090565b828054600181600116156101000203166002900490600052602060002090601f016020900481019282601f1061477257805160ff19168380011785556147a0565b828001600101855582156147a0579182015b8281111561479f578251825591602001919060010190614784565b5b5090506147ad91906147e8565b5090565b6040518060600160405280600073ffffffffffffffffffffffffffffffffffffffff16815260200160608152602001600081525090565b61480a91905b808211156148065760008160009055506001016147ee565b5090565b9056fe436f6d70616e793a20636f6d70616e79206d757374206265206164646564206265666f726520616464696e672070726f6a656374436f6d70616e793a20636f6d70616e7920616c72656164792072656769737465726564416363657373436f6e74726f6c3a20636f6e747261637420697320706175736564416363657373436f6e74726f6c3a206163636f756e74206e6f7420626c61636b6c6973746564436f6d70616e793a2070726f6a656374206e616d652063616e6e6f7420626520656d707479436f6d70616e793a2070726f6a656374206475726174696f6e20746f6f206c6f6e6750726f6a656374206e6f7420646f6e652062792070726f766964656420636f6d70616e79436f6d70616e793a20636f6d70616e79206e616d652063616e6e6f7420626520656d707479596f7520646f206e6f7420686176652061636365737320746f207468697320636f6d70616e79416363657373436f6e74726f6c3a206163636f756e7420697320626c61636b6c6973746564436f6d70616e793a2063616c6c657220646f6573206e6f74206861766520636f6d70616e7920726f6c65416363657373436f6e74726f6c3a206163636f756e7420616c726561647920626c61636b6c6973746564416363657373436f6e74726f6c3a2063616c6c657220646f6573206e6f74206861766520726571756972656420726f6c654d757374207374616b65206120706f73697469766520616d6f756e74206f662063726564697473436f6d70616e793a2070726f6a656374206475726174696f6e20746f6f2073686f72744f6e6c792070726f6a656374206f776e65722063616e207374616b652063726564697473416363657373436f6e74726f6c3a2063616e206f6e6c792072656e6f756e636520726f6c657320666f722073656c66436f6d70616e793a20434f3220616d6f756e74206f7574206f6620626f756e6473416363657373436f6e74726f6c3a20636f6e7472616374206973206e6f7420706175736564a265627a7a7231582029818acb7ed659d77eb8966d50c04d3ff4db169d965460b1630f2897b6127c5b64736f6c63430005110032",
  "source": "pragma solidity ^0.5.0;\n\nimport \"./AccessControl.sol\";\n\n/**\n * @title Company\n * @dev This contract represents a company and its projects in a carbon market with enhanced security.\n */\ncontract Company is AccessControl {\n    // Enums and structs\n    enum ProjectState {\n        ongoing,\n        completed\n    } //add a modifier that updates state depending on time in carbon market\n\n    struct company {\n        address company_address;\n        string companyName;\n        uint256 projectCount;\n    }\n\n    struct Project {\n        address companyAddress;\n        string projectName;\n        string desc;\n        uint256 excAmount; //exc amount predicted / given for project\n        uint256 excSold; //exc sold so far, updated after buyer buys\n        uint256 excListed; //exc listed for sale\n        ProjectState state;\n        uint256 daystillCompletion;\n        mapping(address => uint256) stakedCredits; // Mapping of staked credits for each company\n    }\n\n    // Events\n    event companyAdded(address companyAddress);\n    event projectAdded(address companyAddress, uint256 projectId);\n\n    // State variables\n    uint256 public numProjects = 0; // number of projects\n    uint256 public numCompanies = 0; // number of companies\n    mapping(address => company) companies; // mapping of company address to company\n    mapping(uint256 => company) companiesId; // mapping of company id to company\n    mapping(uint256 => Project) public projects; // mapping of project id to project\n    mapping(address => uint256[]) public companyProjects; // mapping of company address to list of project ids\n    mapping(address => bool) public registeredCompanies; // track registered companies\n\n    // Enhanced security mappings\n    mapping(uint256 => bool) public projectExists; // track existing projects\n    mapping(address => uint256) public companyRegistrationDate; // track when companies were registered\n\n    // Constants for validation\n    uint256 public constant MIN_PROJECT_DURATION = 1 days;\n    uint256 public constant MAX_PROJECT_DURATION = 365 days;\n    uint256 public constant MIN_CO2_AMOUNT = 1;\n    uint256 public constant MAX_CO2_AMOUNT = 1000000;\n    /**\n     * @dev Checks that the calling address is the company itself trying to access its own information.\n     * @param companyAddress The address of the company.\n     * @return A boolean indicating whether the company has rights to view the company requested. (must be itself)\n     */\n    function companyOwner(\n        address companyAddress,\n        address senderAddress\n    ) public view returns (bool) {\n        company storage thisCompany = companies[companyAddress];\n        if (thisCompany.company_address == senderAddress) {\n            return true; // sender is the company, it is  trying to access the details of itself\n        }\n        return false; // sender does not have rights to view the company requested (not the company itself)\n    }\n\n    /**\n     * @dev Checks if a project is owned by a specific company.\n     * @param projectId The ID of the project.\n     * @param companyAddress The address of the company.\n     * @return A boolean indicating whether the project is owned by the company.\n     */\n    function projectCompanyOwner(\n        uint256 projectId,\n        address companyAddress\n    ) public view returns (bool) {\n        uint256[] memory projectsByCompany = companyProjects[companyAddress];\n        for (uint256 i = 0; i < projectsByCompany.length; i++) {\n            if (projectsByCompany[i] == projectId) {\n                // project done by company\n                return true; // project done by company\n            }\n        }\n        return false; // project not done by company\n    }\n\n    /**\n     * @dev Adds a new company to the carbon market with enhanced validation.\n     * @param companyAddress The address of the company.\n     * @param companyName The name of the company.\n     * @return The ID of the newly added company.\n     */\n    function addCompany(\n        address companyAddress,\n        string memory companyName\n    )\n        public\n        onlyRole(ADMIN_ROLE)\n        whenNotPaused\n        validAddress(companyAddress)\n        notBlacklisted(companyAddress)\n        returns (uint256)\n    {\n        require(\n            bytes(companyName).length > 0,\n            \"Company: company name cannot be empty\"\n        );\n        require(\n            bytes(companyName).length <= 100,\n            \"Company: company name too long\"\n        );\n        require(\n            !registeredCompanies[companyAddress],\n            \"Company: company already registered\"\n        );\n        require(\n            companies[companyAddress].company_address == address(0),\n            \"Company: company already added\"\n        );\n\n        company memory newCompany;\n        newCompany.companyName = companyName;\n        newCompany.company_address = companyAddress;\n        newCompany.projectCount = 0;\n\n        companies[companyAddress] = newCompany;\n        registeredCompanies[companyAddress] = true;\n        companyRegistrationDate[companyAddress] = block.timestamp;\n\n        // Grant company role\n        _grantRole(COMPANY_ROLE, companyAddress);\n\n        emit companyAdded(companyAddress);\n\n        uint256 newCompanyId = numCompanies++;\n        companiesId[newCompanyId] = newCompany;\n        return newCompanyId;\n    }\n\n    /**\n     * @dev Adds a new project to the carbon market with enhanced validation.\n     * @param pName The name of the project.\n     * @param desc The description of the project.\n     * @param daystillCompletion The number of days until project completion.\n     * @param carbonDioxideSaved The amount of CO2 to be saved.\n     */\n    function addProject(\n        string memory pName,\n        string memory desc,\n        uint256 daystillCompletion,\n        uint256 carbonDioxideSaved\n    ) public payable whenNotPaused notBlacklisted(msg.sender) nonReentrant {\n        // Input validation\n        require(\n            bytes(pName).length > 0,\n            \"Company: project name cannot be empty\"\n        );\n        require(bytes(pName).length <= 100, \"Company: project name too long\");\n        require(bytes(desc).length >= 10, \"Company: description too short\");\n        require(bytes(desc).length <= 1000, \"Company: description too long\");\n        require(\n            daystillCompletion >= MIN_PROJECT_DURATION / 1 days,\n            \"Company: project duration too short\"\n        );\n        require(\n            daystillCompletion <= MAX_PROJECT_DURATION / 1 days,\n            \"Company: project duration too long\"\n        );\n        require(\n            carbonDioxideSaved >= MIN_CO2_AMOUNT &&\n                carbonDioxideSaved <= MAX_CO2_AMOUNT,\n            \"Company: CO2 amount out of bounds\"\n        );\n\n        // Company validation\n        require(\n            registeredCompanies[msg.sender],\n            \"Company: company not registered\"\n        );\n        require(\n            hasRole(COMPANY_ROLE, msg.sender),\n            \"Company: caller does not have company role\"\n        );\n\n        company storage thisCompany = companies[msg.sender];\n        require(\n            thisCompany.company_address != address(0),\n            \"Company: company must be added before adding project\"\n        );\n\n        // Create project\n        uint256 thisProjectId = numProjects++;\n        Project memory newProject;\n        newProject.projectName = pName;\n        newProject.companyAddress = msg.sender;\n        newProject.desc = desc;\n        newProject.state = ProjectState.ongoing;\n        newProject.daystillCompletion = daystillCompletion;\n        newProject.excListed = 0;\n        newProject.excAmount = carbonDioxideSaved;\n        newProject.excSold = 0;\n\n        projects[thisProjectId] = newProject;\n        projectExists[thisProjectId] = true;\n\n        // Update company\n        thisCompany.projectCount++;\n        companyProjects[msg.sender].push(thisProjectId);\n\n        emit projectAdded(msg.sender, thisProjectId);\n    }\n\n    /**\n     * @dev Returns the ETH balance of a company.\n     * @param companyAddress The address of the company.\n     * @return The ETH balance of the company.\n     */\n    function getCompanyEthBalance(\n        address companyAddress\n    ) public view returns (uint256) {\n        require(\n            companies[companyAddress].company_address != address(0),\n            \"Company does not exist\"\n        );\n        require(\n            companyOwner(companyAddress, msg.sender),\n            \"You do not have access to this company\"\n        );\n        return companyAddress.balance; // get eth balance of the company (msg.sender)\n    }\n\n    /**\n     * @dev Stakes credits for a project.\n     * @param companyAddress The address of the company.\n     * @param projectId The ID of the project.\n     * @param credits The amount of credits to stake.\n     */\n    function stakeCredits(\n        address companyAddress,\n        uint256 projectId,\n        uint256 credits\n    ) public {\n        require(\n            projects[projectId].companyAddress == companyAddress,\n            \"Only project owner can stake credits\"\n        );\n        require(credits > 0, \"Must stake a positive amount of credits\");\n        projects[projectId].stakedCredits[companyAddress] += credits;\n    }\n\n    /**\n     * @dev Returns the staked credits for a project.\n     * @param companyAddress The address of the company.\n     * @param projectId The ID of the project.\n     * @return The amount of staked credits for the project.\n     */\n    function getStakedCredits(\n        address companyAddress,\n        uint256 projectId\n    ) public view returns (uint256) {\n        require(\n            projectCompanyOwner(projectId, companyAddress),\n            \"Project not owned by company\"\n        );\n        return projects[projectId].stakedCredits[companyAddress];\n    }\n\n    /**\n     * @dev Checks if there are sufficient EXC (EcoXChange Tokens) for a project.\n     * @param companyAddress The address of the company.\n     * @param projectId The ID of the project.\n     * @param excAmt The amount of EXC to check.\n     * @return A boolean indicating whether there are sufficient EXC for the project.\n     */\n    function checkSufficientEXC(\n        address companyAddress,\n        uint256 projectId,\n        uint256 excAmt\n    ) public view returns (bool) {\n        require(\n            projectCompanyOwner(projectId, companyAddress),\n            \"Project not done by provided company\"\n        );\n        if (\n            projects[projectId].excSold + excAmt > projects[projectId].excAmount\n        ) {\n            //when buy, excSold increases\n            return false;\n        }\n        return true;\n    }\n\n    /**\n     * @dev Sells EXC (EcoXChange Tokens) for a project.\n     * @param companyAddress The address of the company.\n     * @param projectId The ID of the project.\n     * @param excAmt The amount of EXC to sell.\n     */\n    function sellEXC(\n        address companyAddress,\n        uint256 projectId,\n        uint256 excAmt\n    ) public {\n        require(\n            projectCompanyOwner(projectId, companyAddress),\n            \"Project not done by provided company\"\n        );\n        projects[projectId].excSold += excAmt; //excSold increases when buyer buys\n        // projects[projectId].excAmount -= excAmt; //the exc amount for the project decreases when buyer buys\n    }\n\n    /**\n     * @dev Checks if there are sufficient EXC (EcoXChange Tokens) listed for sale for a project.\n     * @param companyAddress The address of the company.\n     * @param projectId The ID of the project.\n     * @param excAmt The amount of EXC to check.\n     * @return A boolean indicating whether there are sufficient EXC listed for sale for the project.\n     */\n    function checkEXCListed(\n        address companyAddress,\n        uint256 projectId,\n        uint256 excAmt\n    ) public view returns (bool) {\n        require(\n            projectCompanyOwner(projectId, companyAddress),\n            \"Project not done by provided company\"\n        );\n        if (\n            projects[projectId].excListed + excAmt >\n            projects[projectId].excAmount\n        ) {\n            //when sell, excListed increases\n            return false;\n        }\n        return true;\n    }\n\n    /**\n     * @dev Lists EXC (EcoXChange Tokens) for sale for a project.\n     * @param companyAddress The address of the company.\n     * @param projectId The ID of the project.\n     * @param excAmt The amount of EXC to list for sale.\n     */\n    function listEXC(\n        address companyAddress,\n        uint256 projectId,\n        uint256 excAmt\n    ) public {\n        require(\n            projectCompanyOwner(projectId, companyAddress),\n            \"Project not done by provided company\"\n        );\n        projects[projectId].excListed += excAmt; //excListed increases when listed\n        // projects[projectId].excAmount += excAmt; //excAmount equals excListed when listed\n    }\n\n    /**\n     * @dev Sets the amount of listed EXC for a project.\n     * @param projectId The ID of the project.\n     * @param excAmt The amount of EXC to set.\n     */\n    function setEXCListed(uint256 projectId, uint256 excAmt) public {\n        require(projectId < numProjects, \"Invalid project ID\");\n        projects[projectId].excListed = excAmt;\n    }\n\n    /**\n     * @dev Returns the excAmount of a specific project.\n     * @param projectId The ID of the project.\n     * @return The excAmount of the project.\n     */\n    function getProjectexcAmount(\n        uint256 projectId\n    ) public view returns (uint256) {\n        require(projectId < numProjects, \"Invalid project ID\");\n        Project memory project = projects[projectId];\n        return project.excAmount; //exc amount you can sell for the project\n    }\n\n    /**\n     * @dev Sets the amount of EXC for a project.\n     * @param projectId The ID of the project.\n     * @param excAmt The amount of EXC to set.\n     */\n    function setProjectexcAmount(uint256 projectId, uint256 excAmt) public {\n        require(projectId < numProjects, \"Invalid project ID\");\n        projects[projectId].excAmount = excAmt;\n    }\n\n    /**\n     * @dev Returns the amount of EXC sold for a project.\n     * @param projectId The ID of the project.\n     * @return The amount of EXC sold for the project.\n     */\n    function getEXCSold(uint256 projectId) public view returns (uint256) {\n        require(projectId < numProjects, \"Invalid project ID\");\n        return projects[projectId].excSold;\n    }\n\n    /**\n     * @dev Sets the amount of sold EXC for a project.\n     * @param projectId The ID of the project.\n     * @param excAmt The amount of EXC to set.\n     */\n    function setEXCSold(uint256 projectId, uint256 excAmt) public {\n        require(projectId < numProjects, \"Invalid project ID\");\n        projects[projectId].excSold = excAmt;\n    }\n\n    /**\n     * @dev Returns the state of a specific project.\n     * @param projectId The ID of the project.\n     * @return The state of the project.\n     */\n    function getProjectState(\n        uint256 projectId\n    ) public view returns (ProjectState) {\n        require(projectId < numProjects, \"Invalid project ID\");\n        return projects[projectId].state;\n    }\n\n    /**\n     * @dev Sets a project state to complete.\n     * @param projectId The ID of the project.\n     */\n    function setProjectStateComplete(uint256 projectId) public {\n        require(projectId < numProjects, \"Invalid project ID\");\n        projects[projectId].state = ProjectState.completed;\n    }\n\n    /**\n     * @dev Returns the name of a specific company.\n     * @param companyAddress The address of the company.\n     * @return The name of the company.\n     */\n    function getCompanyName(\n        address companyAddress\n    ) public view returns (string memory) {\n        require(\n            companies[companyAddress].company_address != address(0),\n            \"Company does not exist\"\n        );\n        return companies[companyAddress].companyName;\n    }\n}\n",
  "sourcePath": "C:\\Users\\aliya\\Downloads\\EcoXChange\\contracts\\Company.sol",
  "compiler": {
    "name": "solc",
    "version": "0.5.17+commit.d19bba13.Emscripten.clang"
  },
  "schemaVersion": "3.4.16",
  "updatedAt": "2025-06-23T08:45:15.491Z",
  "devdoc": {
    "details": "This contract represents a company and its projects in a carbon market with enhanced security.",
    "methods": {
      "addCompany(address,string)": {
        "details": "Adds a new company to the carbon market with enhanced validation.",
        "params": {
          "companyAddress": "The address of the company.",
          "companyName": "The name of the company."
        },
        "return": "The ID of the newly added company."
      },
      "addProject(string,string,uint256,uint256)": {
        "details": "Adds a new project to the carbon market with enhanced validation.",
        "params": {
          "carbonDioxideSaved": "The amount of CO2 to be saved.",
          "daystillCompletion": "The number of days until project completion.",
          "desc": "The description of the project.",
          "pName": "The name of the project."
        }
      },
      "blacklistAccount(address)": {
        "details": "Add address to blacklist"
      },
      "checkEXCListed(address,uint256,uint256)": {
        "details": "Checks if there are sufficient EXC (EcoXChange Tokens) listed for sale for a project.",
        "params": {
          "companyAddress": "The address of the company.",
          "excAmt": "The amount of EXC to check.",
          "projectId": "The ID of the project."
        },
        "return": "A boolean indicating whether there are sufficient EXC listed for sale for the project."
      },
      "checkSufficientEXC(address,uint256,uint256)": {
        "details": "Checks if there are sufficient EXC (EcoXChange Tokens) for a project.",
        "params": {
          "companyAddress": "The address of the company.",
          "excAmt": "The amount of EXC to check.",
          "projectId": "The ID of the project."
        },
        "return": "A boolean indicating whether there are sufficient EXC for the project."
      },
      "companyOwner(address,address)": {
        "details": "Checks that the calling address is the company itself trying to access its own information.",
        "params": {
          "companyAddress": "The address of the company."
        },
        "return": "A boolean indicating whether the company has rights to view the company requested. (must be itself)"
      },
      "getCompanyEthBalance(address)": {
        "details": "Returns the ETH balance of a company.",
        "params": {
          "companyAddress": "The address of the company."
        },
        "return": "The ETH balance of the company."
      },
      "getCompanyName(address)": {
        "details": "Returns the name of a specific company.",
        "params": {
          "companyAddress": "The address of the company."
        },
        "return": "The name of the company."
      },
      "getEXCSold(uint256)": {
        "details": "Returns the amount of EXC sold for a project.",
        "params": {
          "projectId": "The ID of the project."
        },
        "return": "The amount of EXC sold for the project."
      },
      "getProjectState(uint256)": {
        "details": "Returns the state of a specific project.",
        "params": {
          "projectId": "The ID of the project."
        },
        "return": "The state of the project."
      },
      "getProjectexcAmount(uint256)": {
        "details": "Returns the excAmount of a specific project.",
        "params": {
          "projectId": "The ID of the project."
        },
        "return": "The excAmount of the project."
      },
      "getRoleAdmin(bytes32)": {
        "details": "Get the admin role that controls a role"
      },
      "getStakedCredits(address,uint256)": {
        "details": "Returns the staked credits for a project.",
        "params": {
          "companyAddress": "The address of the company.",
          "projectId": "The ID of the project."
        },
        "return": "The amount of staked credits for the project."
      },
      "grantRole(bytes32,address)": {
        "details": "Grant a role to an account"
      },
      "hasRole(bytes32,address)": {
        "details": "Check if an account has a specific role"
      },
      "isBlacklisted(address)": {
        "details": "Check if account is blacklisted"
      },
      "listEXC(address,uint256,uint256)": {
        "details": "Lists EXC (EcoXChange Tokens) for sale for a project.",
        "params": {
          "companyAddress": "The address of the company.",
          "excAmt": "The amount of EXC to list for sale.",
          "projectId": "The ID of the project."
        }
      },
      "owner()": {
        "details": "Get contract owner"
      },
      "pause()": {
        "details": "Pause the contract (emergency stop)"
      },
      "paused()": {
        "details": "Check if contract is paused"
      },
      "projectCompanyOwner(uint256,address)": {
        "details": "Checks if a project is owned by a specific company.",
        "params": {
          "companyAddress": "The address of the company.",
          "projectId": "The ID of the project."
        },
        "return": "A boolean indicating whether the project is owned by the company."
      },
      "removeFromBlacklist(address)": {
        "details": "Remove address from blacklist"
      },
      "renounceRole(bytes32,address)": {
        "details": "Renounce a role (caller renounces their own role)"
      },
      "revokeRole(bytes32,address)": {
        "details": "Revoke a role from an account"
      },
      "sellEXC(address,uint256,uint256)": {
        "details": "Sells EXC (EcoXChange Tokens) for a project.",
        "params": {
          "companyAddress": "The address of the company.",
          "excAmt": "The amount of EXC to sell.",
          "projectId": "The ID of the project."
        }
      },
      "setEXCListed(uint256,uint256)": {
        "details": "Sets the amount of listed EXC for a project.",
        "params": {
          "excAmt": "The amount of EXC to set.",
          "projectId": "The ID of the project."
        }
      },
      "setEXCSold(uint256,uint256)": {
        "details": "Sets the amount of sold EXC for a project.",
        "params": {
          "excAmt": "The amount of EXC to set.",
          "projectId": "The ID of the project."
        }
      },
      "setProjectStateComplete(uint256)": {
        "details": "Sets a project state to complete.",
        "params": {
          "projectId": "The ID of the project."
        }
      },
      "setProjectexcAmount(uint256,uint256)": {
        "details": "Sets the amount of EXC for a project.",
        "params": {
          "excAmt": "The amount of EXC to set.",
          "projectId": "The ID of the project."
        }
      },
      "stakeCredits(address,uint256,uint256)": {
        "details": "Stakes credits for a project.",
        "params": {
          "companyAddress": "The address of the company.",
          "credits": "The amount of credits to stake.",
          "projectId": "The ID of the project."
        }
      },
      "unpause()": {
        "details": "Unpause the contract"
      }
    },
    "title": "Company"
  },
  "userdoc": {
    "methods": {}
  }
}