{
  "contractName": "DynamicPricing",
  "abi": [
    {
      "inputs": [
        {
          "internalType": "address",
          "name": "_companyAddress",
          "type": "address"
        }
      ],
      "payable": false,
      "stateMutability": "nonpayable",
      "type": "constructor"
    },
    {
      "anonymous": false,
      "inputs": [
        {
          "indexed": true,
          "internalType": "uint256",
          "name": "factor",
          "type": "uint256"
        },
        {
          "indexed": false,
          "internalType": "uint256",
          "name": "oldValue",
          "type": "uint256"
        },
        {
          "indexed": false,
          "internalType": "uint256",
          "name": "newValue",
          "type": "uint256"
        }
      ],
      "name": "MarketConditionChanged",
      "type": "event"
    },
    {
      "anonymous": false,
      "inputs": [
        {
          "indexed": false,
          "internalType": "address",
          "name": "account",
          "type": "address"
        }
      ],
      "name": "Paused",
      "type": "event"
    },
    {
      "anonymous": false,
      "inputs": [
        {
          "indexed": true,
          "internalType": "uint256",
          "name": "projectId",
          "type": "uint256"
        },
        {
          "indexed": false,
          "internalType": "uint256",
          "name": "oldPrice",
          "type": "uint256"
        },
        {
          "indexed": false,
          "internalType": "uint256",
          "name": "newPrice",
          "type": "uint256"
        },
        {
          "indexed": false,
          "internalType": "string",
          "name": "reason",
          "type": "string"
        }
      ],
      "name": "PriceUpdated",
      "type": "event"
    },
    {
      "anonymous": false,
      "inputs": [
        {
          "indexed": true,
          "internalType": "uint256",
          "name": "projectId",
          "type": "uint256"
        },
        {
          "indexed": false,
          "internalType": "enum DynamicPricing.PricingModel",
          "name": "oldModel",
          "type": "uint8"
        },
        {
          "indexed": false,
          "internalType": "enum DynamicPricing.PricingModel",
          "name": "newModel",
          "type": "uint8"
        }
      ],
      "name": "PricingModelChanged",
      "type": "event"
    },
    {
      "anonymous": false,
      "inputs": [
        {
          "indexed": true,
          "internalType": "bytes32",
          "name": "role",
          "type": "bytes32"
        },
        {
          "indexed": true,
          "internalType": "bytes32",
          "name": "previousAdminRole",
          "type": "bytes32"
        },
        {
          "indexed": true,
          "internalType": "bytes32",
          "name": "newAdminRole",
          "type": "bytes32"
        }
      ],
      "name": "RoleAdminChanged",
      "type": "event"
    },
    {
      "anonymous": false,
      "inputs": [
        {
          "indexed": true,
          "internalType": "bytes32",
          "name": "role",
          "type": "bytes32"
        },
        {
          "indexed": true,
          "internalType": "address",
          "name": "account",
          "type": "address"
        },
        {
          "indexed": true,
          "internalType": "address",
          "name": "sender",
          "type": "address"
        }
      ],
      "name": "RoleGranted",
      "type": "event"
    },
    {
      "anonymous": false,
      "inputs": [
        {
          "indexed": true,
          "internalType": "bytes32",
          "name": "role",
          "type": "bytes32"
        },
        {
          "indexed": true,
          "internalType": "address",
          "name": "account",
          "type": "address"
        },
        {
          "indexed": true,
          "internalType": "address",
          "name": "sender",
          "type": "address"
        }
      ],
      "name": "RoleRevoked",
      "type": "event"
    },
    {
      "anonymous": false,
      "inputs": [
        {
          "indexed": false,
          "internalType": "address",
          "name": "account",
          "type": "address"
        }
      ],
      "name": "Unpaused",
      "type": "event"
    },
    {
      "anonymous": false,
      "inputs": [
        {
          "indexed": true,
          "internalType": "uint256",
          "name": "projectId",
          "type": "uint256"
        },
        {
          "indexed": false,
          "internalType": "uint256",
          "name": "volatilityPercentage",
          "type": "uint256"
        }
      ],
      "name": "VolatilityAlert",
      "type": "event"
    },
    {
      "constant": true,
      "inputs": [],
      "name": "ADMIN_ROLE",
      "outputs": [
        {
          "internalType": "bytes32",
          "name": "",
          "type": "bytes32"
        }
      ],
      "payable": false,
      "stateMutability": "view",
      "type": "function"
    },
    {
      "constant": true,
      "inputs": [],
      "name": "BASE_PRICE",
      "outputs": [
        {
          "internalType": "uint256",
          "name": "",
          "type": "uint256"
        }
      ],
      "payable": false,
      "stateMutability": "view",
      "type": "function"
    },
    {
      "constant": true,
      "inputs": [],
      "name": "COMPANY_ROLE",
      "outputs": [
        {
          "internalType": "bytes32",
          "name": "",
          "type": "bytes32"
        }
      ],
      "payable": false,
      "stateMutability": "view",
      "type": "function"
    },
    {
      "constant": true,
      "inputs": [],
      "name": "DAY",
      "outputs": [
        {
          "internalType": "uint256",
          "name": "",
          "type": "uint256"
        }
      ],
      "payable": false,
      "stateMutability": "view",
      "type": "function"
    },
    {
      "constant": true,
      "inputs": [],
      "name": "DEFAULT_ADMIN_ROLE",
      "outputs": [
        {
          "internalType": "bytes32",
          "name": "",
          "type": "bytes32"
        }
      ],
      "payable": false,
      "stateMutability": "view",
      "type": "function"
    },
    {
      "constant": true,
      "inputs": [],
      "name": "DEMAND_WEIGHT",
      "outputs": [
        {
          "internalType": "uint256",
          "name": "",
          "type": "uint256"
        }
      ],
      "payable": false,
      "stateMutability": "view",
      "type": "function"
    },
    {
      "constant": true,
      "inputs": [],
      "name": "HOUR",
      "outputs": [
        {
          "internalType": "uint256",
          "name": "",
          "type": "uint256"
        }
      ],
      "payable": false,
      "stateMutability": "view",
      "type": "function"
    },
    {
      "constant": true,
      "inputs": [],
      "name": "MAX_PRICE",
      "outputs": [
        {
          "internalType": "uint256",
          "name": "",
          "type": "uint256"
        }
      ],
      "payable": false,
      "stateMutability": "view",
      "type": "function"
    },
    {
      "constant": true,
      "inputs": [],
      "name": "MAX_VOLATILITY",
      "outputs": [
        {
          "internalType": "uint256",
          "name": "",
          "type": "uint256"
        }
      ],
      "payable": false,
      "stateMutability": "view",
      "type": "function"
    },
    {
      "constant": true,
      "inputs": [],
      "name": "MIN_PRICE",
      "outputs": [
        {
          "internalType": "uint256",
          "name": "",
          "type": "uint256"
        }
      ],
      "payable": false,
      "stateMutability": "view",
      "type": "function"
    },
    {
      "constant": true,
      "inputs": [],
      "name": "PAUSER_ROLE",
      "outputs": [
        {
          "internalType": "bytes32",
          "name": "",
          "type": "bytes32"
        }
      ],
      "payable": false,
      "stateMutability": "view",
      "type": "function"
    },
    {
      "constant": true,
      "inputs": [],
      "name": "PRICE_PRECISION",
      "outputs": [
        {
          "internalType": "uint256",
          "name": "",
          "type": "uint256"
        }
      ],
      "payable": false,
      "stateMutability": "view",
      "type": "function"
    },
    {
      "constant": true,
      "inputs": [],
      "name": "QUALITY_WEIGHT",
      "outputs": [
        {
          "internalType": "uint256",
          "name": "",
          "type": "uint256"
        }
      ],
      "payable": false,
      "stateMutability": "view",
      "type": "function"
    },
    {
      "constant": true,
      "inputs": [],
      "name": "SUPPLY_WEIGHT",
      "outputs": [
        {
          "internalType": "uint256",
          "name": "",
          "type": "uint256"
        }
      ],
      "payable": false,
      "stateMutability": "view",
      "type": "function"
    },
    {
      "constant": true,
      "inputs": [],
      "name": "TIME_DECAY_FACTOR",
      "outputs": [
        {
          "internalType": "uint256",
          "name": "",
          "type": "uint256"
        }
      ],
      "payable": false,
      "stateMutability": "view",
      "type": "function"
    },
    {
      "constant": true,
      "inputs": [],
      "name": "VALIDATOR_ROLE",
      "outputs": [
        {
          "internalType": "bytes32",
          "name": "",
          "type": "bytes32"
        }
      ],
      "payable": false,
      "stateMutability": "view",
      "type": "function"
    },
    {
      "constant": true,
      "inputs": [],
      "name": "WEEK",
      "outputs": [
        {
          "internalType": "uint256",
          "name": "",
          "type": "uint256"
        }
      ],
      "payable": false,
      "stateMutability": "view",
      "type": "function"
    },
    {
      "constant": false,
      "inputs": [
        {
          "internalType": "address",
          "name": "account",
          "type": "address"
        }
      ],
      "name": "blacklistAccount",
      "outputs": [],
      "payable": false,
      "stateMutability": "nonpayable",
      "type": "function"
    },
    {
      "constant": true,
      "inputs": [
        {
          "internalType": "uint256",
          "name": "",
          "type": "uint256"
        }
      ],
      "name": "bondingCurves",
      "outputs": [
        {
          "internalType": "uint256",
          "name": "reserveRatio",
          "type": "uint256"
        },
        {
          "internalType": "uint256",
          "name": "slope",
          "type": "uint256"
        },
        {
          "internalType": "uint256",
          "name": "intercept",
          "type": "uint256"
        }
      ],
      "payable": false,
      "stateMutability": "view",
      "type": "function"
    },
    {
      "constant": true,
      "inputs": [],
      "name": "companyInstance",
      "outputs": [
        {
          "internalType": "contract Company",
          "name": "",
          "type": "address"
        }
      ],
      "payable": false,
      "stateMutability": "view",
      "type": "function"
    },
    {
      "constant": true,
      "inputs": [
        {
          "internalType": "uint256",
          "name": "",
          "type": "uint256"
        }
      ],
      "name": "dailyVolume",
      "outputs": [
        {
          "internalType": "uint256",
          "name": "",
          "type": "uint256"
        }
      ],
      "payable": false,
      "stateMutability": "view",
      "type": "function"
    },
    {
      "constant": true,
      "inputs": [
        {
          "internalType": "bytes32",
          "name": "role",
          "type": "bytes32"
        }
      ],
      "name": "getRoleAdmin",
      "outputs": [
        {
          "internalType": "bytes32",
          "name": "",
          "type": "bytes32"
        }
      ],
      "payable": false,
      "stateMutability": "view",
      "type": "function"
    },
    {
      "constant": false,
      "inputs": [
        {
          "internalType": "bytes32",
          "name": "role",
          "type": "bytes32"
        },
        {
          "internalType": "address",
          "name": "account",
          "type": "address"
        }
      ],
      "name": "grantRole",
      "outputs": [],
      "payable": false,
      "stateMutability": "nonpayable",
      "type": "function"
    },
    {
      "constant": true,
      "inputs": [
        {
          "internalType": "bytes32",
          "name": "role",
          "type": "bytes32"
        },
        {
          "internalType": "address",
          "name": "account",
          "type": "address"
        }
      ],
      "name": "hasRole",
      "outputs": [
        {
          "internalType": "bool",
          "name": "",
          "type": "bool"
        }
      ],
      "payable": false,
      "stateMutability": "view",
      "type": "function"
    },
    {
      "constant": true,
      "inputs": [
        {
          "internalType": "address",
          "name": "account",
          "type": "address"
        }
      ],
      "name": "isBlacklisted",
      "outputs": [
        {
          "internalType": "bool",
          "name": "",
          "type": "bool"
        }
      ],
      "payable": false,
      "stateMutability": "view",
      "type": "function"
    },
    {
      "constant": true,
      "inputs": [],
      "name": "marketConditions",
      "outputs": [
        {
          "internalType": "uint256",
          "name": "globalDemandMultiplier",
          "type": "uint256"
        },
        {
          "internalType": "uint256",
          "name": "globalSupplyMultiplier",
          "type": "uint256"
        },
        {
          "internalType": "uint256",
          "name": "volatilityIndex",
          "type": "uint256"
        },
        {
          "internalType": "uint256",
          "name": "marketSentiment",
          "type": "uint256"
        },
        {
          "internalType": "uint256",
          "name": "lastUpdateTime",
          "type": "uint256"
        }
      ],
      "payable": false,
      "stateMutability": "view",
      "type": "function"
    },
    {
      "constant": true,
      "inputs": [],
      "name": "owner",
      "outputs": [
        {
          "internalType": "address",
          "name": "",
          "type": "address"
        }
      ],
      "payable": false,
      "stateMutability": "view",
      "type": "function"
    },
    {
      "constant": false,
      "inputs": [],
      "name": "pause",
      "outputs": [],
      "payable": false,
      "stateMutability": "nonpayable",
      "type": "function"
    },
    {
      "constant": true,
      "inputs": [],
      "name": "paused",
      "outputs": [
        {
          "internalType": "bool",
          "name": "",
          "type": "bool"
        }
      ],
      "payable": false,
      "stateMutability": "view",
      "type": "function"
    },
    {
      "constant": true,
      "inputs": [
        {
          "internalType": "uint256",
          "name": "",
          "type": "uint256"
        },
        {
          "internalType": "uint256",
          "name": "",
          "type": "uint256"
        }
      ],
      "name": "priceHistoryDetailed",
      "outputs": [
        {
          "internalType": "uint256",
          "name": "",
          "type": "uint256"
        }
      ],
      "payable": false,
      "stateMutability": "view",
      "type": "function"
    },
    {
      "constant": true,
      "inputs": [
        {
          "internalType": "uint256",
          "name": "",
          "type": "uint256"
        }
      ],
      "name": "projectPricing",
      "outputs": [
        {
          "internalType": "uint256",
          "name": "basePrice",
          "type": "uint256"
        },
        {
          "internalType": "uint256",
          "name": "currentPrice",
          "type": "uint256"
        },
        {
          "internalType": "uint256",
          "name": "minPrice",
          "type": "uint256"
        },
        {
          "internalType": "uint256",
          "name": "maxPrice",
          "type": "uint256"
        },
        {
          "internalType": "enum DynamicPricing.PricingModel",
          "name": "model",
          "type": "uint8"
        },
        {
          "internalType": "uint256",
          "name": "totalVolume",
          "type": "uint256"
        },
        {
          "internalType": "uint256",
          "name": "lastTradeTime",
          "type": "uint256"
        },
        {
          "internalType": "uint256",
          "name": "priceHistory",
          "type": "uint256"
        },
        {
          "internalType": "uint256",
          "name": "qualityScore",
          "type": "uint256"
        },
        {
          "internalType": "uint256",
          "name": "demandScore",
          "type": "uint256"
        },
        {
          "internalType": "uint256",
          "name": "supplyScore",
          "type": "uint256"
        }
      ],
      "payable": false,
      "stateMutability": "view",
      "type": "function"
    },
    {
      "constant": false,
      "inputs": [
        {
          "internalType": "address",
          "name": "account",
          "type": "address"
        }
      ],
      "name": "removeFromBlacklist",
      "outputs": [],
      "payable": false,
      "stateMutability": "nonpayable",
      "type": "function"
    },
    {
      "constant": false,
      "inputs": [
        {
          "internalType": "bytes32",
          "name": "role",
          "type": "bytes32"
        },
        {
          "internalType": "address",
          "name": "account",
          "type": "address"
        }
      ],
      "name": "renounceRole",
      "outputs": [],
      "payable": false,
      "stateMutability": "nonpayable",
      "type": "function"
    },
    {
      "constant": false,
      "inputs": [
        {
          "internalType": "bytes32",
          "name": "role",
          "type": "bytes32"
        },
        {
          "internalType": "address",
          "name": "account",
          "type": "address"
        }
      ],
      "name": "revokeRole",
      "outputs": [],
      "payable": false,
      "stateMutability": "nonpayable",
      "type": "function"
    },
    {
      "constant": false,
      "inputs": [],
      "name": "unpause",
      "outputs": [],
      "payable": false,
      "stateMutability": "nonpayable",
      "type": "function"
    },
    {
      "constant": true,
      "inputs": [
        {
          "internalType": "address",
          "name": "",
          "type": "address"
        }
      ],
      "name": "userTradingVolume",
      "outputs": [
        {
          "internalType": "uint256",
          "name": "",
          "type": "uint256"
        }
      ],
      "payable": false,
      "stateMutability": "view",
      "type": "function"
    },
    {
      "constant": false,
      "inputs": [
        {
          "internalType": "uint256",
          "name": "projectId",
          "type": "uint256"
        },
        {
          "internalType": "enum DynamicPricing.PricingModel",
          "name": "model",
          "type": "uint8"
        },
        {
          "internalType": "uint256",
          "name": "qualityScore",
          "type": "uint256"
        }
      ],
      "name": "initializeProjectPricing",
      "outputs": [],
      "payable": false,
      "stateMutability": "nonpayable",
      "type": "function"
    },
    {
      "constant": true,
      "inputs": [
        {
          "internalType": "uint256",
          "name": "projectId",
          "type": "uint256"
        }
      ],
      "name": "getCurrentPrice",
      "outputs": [
        {
          "internalType": "uint256",
          "name": "",
          "type": "uint256"
        }
      ],
      "payable": false,
      "stateMutability": "view",
      "type": "function"
    },
    {
      "constant": true,
      "inputs": [
        {
          "internalType": "uint256",
          "name": "projectId",
          "type": "uint256"
        }
      ],
      "name": "calculateSupplyDemandPrice",
      "outputs": [
        {
          "internalType": "uint256",
          "name": "",
          "type": "uint256"
        }
      ],
      "payable": false,
      "stateMutability": "view",
      "type": "function"
    },
    {
      "constant": true,
      "inputs": [
        {
          "internalType": "uint256",
          "name": "basePrice",
          "type": "uint256"
        },
        {
          "internalType": "uint256",
          "name": "qualityScore",
          "type": "uint256"
        }
      ],
      "name": "calculateQualityAdjustedPrice",
      "outputs": [
        {
          "internalType": "uint256",
          "name": "",
          "type": "uint256"
        }
      ],
      "payable": false,
      "stateMutability": "pure",
      "type": "function"
    },
    {
      "constant": true,
      "inputs": [
        {
          "internalType": "uint256",
          "name": "lastTradeTime",
          "type": "uint256"
        }
      ],
      "name": "calculateTimeDecay",
      "outputs": [
        {
          "internalType": "uint256",
          "name": "",
          "type": "uint256"
        }
      ],
      "payable": false,
      "stateMutability": "view",
      "type": "function"
    },
    {
      "constant": true,
      "inputs": [
        {
          "internalType": "uint256",
          "name": "projectId",
          "type": "uint256"
        }
      ],
      "name": "calculateBondingCurvePrice",
      "outputs": [
        {
          "internalType": "uint256",
          "name": "",
          "type": "uint256"
        }
      ],
      "payable": false,
      "stateMutability": "view",
      "type": "function"
    },
    {
      "constant": true,
      "inputs": [
        {
          "internalType": "uint256",
          "name": "projectId",
          "type": "uint256"
        }
      ],
      "name": "calculateTWAP",
      "outputs": [
        {
          "internalType": "uint256",
          "name": "",
          "type": "uint256"
        }
      ],
      "payable": false,
      "stateMutability": "view",
      "type": "function"
    },
    {
      "constant": false,
      "inputs": [
        {
          "internalType": "uint256",
          "name": "projectId",
          "type": "uint256"
        },
        {
          "internalType": "uint256",
          "name": "tradeAmount",
          "type": "uint256"
        },
        {
          "internalType": "bool",
          "name": "isBuy",
          "type": "bool"
        }
      ],
      "name": "updatePriceAfterTrade",
      "outputs": [],
      "payable": false,
      "stateMutability": "nonpayable",
      "type": "function"
    },
    {
      "constant": false,
      "inputs": [
        {
          "internalType": "uint256",
          "name": "demandMultiplier",
          "type": "uint256"
        },
        {
          "internalType": "uint256",
          "name": "supplyMultiplier",
          "type": "uint256"
        },
        {
          "internalType": "uint256",
          "name": "volatilityIndex",
          "type": "uint256"
        },
        {
          "internalType": "uint256",
          "name": "sentiment",
          "type": "uint256"
        }
      ],
      "name": "updateMarketConditions",
      "outputs": [],
      "payable": false,
      "stateMutability": "nonpayable",
      "type": "function"
    },
    {
      "constant": false,
      "inputs": [
        {
          "internalType": "uint256",
          "name": "projectId",
          "type": "uint256"
        },
        {
          "internalType": "enum DynamicPricing.PricingModel",
          "name": "newModel",
          "type": "uint8"
        }
      ],
      "name": "changePricingModel",
      "outputs": [],
      "payable": false,
      "stateMutability": "nonpayable",
      "type": "function"
    },
    {
      "constant": false,
      "inputs": [
        {
          "internalType": "uint256",
          "name": "projectId",
          "type": "uint256"
        },
        {
          "internalType": "uint256",
          "name": "newQualityScore",
          "type": "uint256"
        }
      ],
      "name": "updateProjectQuality",
      "outputs": [],
      "payable": false,
      "stateMutability": "nonpayable",
      "type": "function"
    },
    {
      "constant": true,
      "inputs": [
        {
          "internalType": "uint256",
          "name": "projectId",
          "type": "uint256"
        }
      ],
      "name": "getProjectPricingInfo",
      "outputs": [
        {
          "internalType": "uint256",
          "name": "currentPrice",
          "type": "uint256"
        },
        {
          "internalType": "uint256",
          "name": "basePrice",
          "type": "uint256"
        },
        {
          "internalType": "uint256",
          "name": "minPrice",
          "type": "uint256"
        },
        {
          "internalType": "uint256",
          "name": "maxPrice",
          "type": "uint256"
        },
        {
          "internalType": "enum DynamicPricing.PricingModel",
          "name": "model",
          "type": "uint8"
        },
        {
          "internalType": "uint256",
          "name": "totalVolume",
          "type": "uint256"
        },
        {
          "internalType": "uint256",
          "name": "qualityScore",
          "type": "uint256"
        },
        {
          "internalType": "uint256",
          "name": "demandScore",
          "type": "uint256"
        },
        {
          "internalType": "uint256",
          "name": "supplyScore",
          "type": "uint256"
        }
      ],
      "payable": false,
      "stateMutability": "view",
      "type": "function"
    },
    {
      "constant": true,
      "inputs": [],
      "name": "getMarketConditions",
      "outputs": [
        {
          "internalType": "uint256",
          "name": "demandMultiplier",
          "type": "uint256"
        },
        {
          "internalType": "uint256",
          "name": "supplyMultiplier",
          "type": "uint256"
        },
        {
          "internalType": "uint256",
          "name": "volatilityIndex",
          "type": "uint256"
        },
        {
          "internalType": "uint256",
          "name": "sentiment",
          "type": "uint256"
        },
        {
          "internalType": "uint256",
          "name": "lastUpdate",
          "type": "uint256"
        }
      ],
      "payable": false,
      "stateMutability": "view",
      "type": "function"
    },
    {
      "constant": true,
      "inputs": [
        {
          "internalType": "uint256",
          "name": "projectId",
          "type": "uint256"
        },
        {
          "internalType": "uint256",
          "name": "tradeAmount",
          "type": "uint256"
        },
        {
          "internalType": "bool",
          "name": "isBuy",
          "type": "bool"
        }
      ],
      "name": "calculatePriceImpact",
      "outputs": [
        {
          "internalType": "uint256",
          "name": "priceImpact",
          "type": "uint256"
        },
        {
          "internalType": "uint256",
          "name": "newPrice",
          "type": "uint256"
        }
      ],
      "payable": false,
      "stateMutability": "view",
      "type": "function"
    },
    {
      "constant": true,
      "inputs": [
        {
          "internalType": "uint256",
          "name": "projectId",
          "type": "uint256"
        },
        {
          "internalType": "uint256",
          "name": "numDays",
          "type": "uint256"
        }
      ],
      "name": "getPriceHistory",
      "outputs": [
        {
          "internalType": "uint256[]",
          "name": "prices",
          "type": "uint256[]"
        },
        {
          "internalType": "uint256[]",
          "name": "timestamps",
          "type": "uint256[]"
        }
      ],
      "payable": false,
      "stateMutability": "view",
      "type": "function"
    }
  ],
  "bytecode": "0x60806040523480156200001157600080fd5b506040516200457f3803806200457f833981810160405260208110156200003757600080fd5b810190808051906020019092919050505033600360016101000a81548173ffffffffffffffffffffffffffffffffffffffff021916908373ffffffffffffffffffffffffffffffffffffffff1602179055506000600360006101000a81548160ff0219169083151502179055506001600481905550620000c16000801b336200038860201b60201c565b6200010860405180807f41444d494e5f524f4c4500000000000000000000000000000000000000000000815250600a0190506040518091039020336200038860201b60201c565b6200014f60405180807f5041555345525f524f4c45000000000000000000000000000000000000000000815250600b0190506040518091039020336200038860201b60201c565b6200019960405180807f41444d494e5f524f4c4500000000000000000000000000000000000000000000815250600a01905060405180910390206000801b6200046760201b60201c565b6200021560405180807f56414c494441544f525f524f4c45000000000000000000000000000000000000815250600e019050604051809103902060405180807f41444d494e5f524f4c4500000000000000000000000000000000000000000000815250600a01905060405180910390206200046760201b60201c565b6200029160405180807f434f4d50414e595f524f4c450000000000000000000000000000000000000000815250600c019050604051809103902060405180807f41444d494e5f524f4c4500000000000000000000000000000000000000000000815250600a01905060405180910390206200046760201b60201c565b620002db60405180807f5041555345525f524f4c45000000000000000000000000000000000000000000815250600b01905060405180910390206000801b6200046760201b60201c565b80600560006101000a81548173ffffffffffffffffffffffffffffffffffffffff021916908373ffffffffffffffffffffffffffffffffffffffff1602179055506040518060a001604052806103e881526020016103e88152602001606481526020016103e881526020014281525060066000820151816000015560208201518160010155604082015181600201556060820151816003015560808201518160040155905050506200054c565b6200039a8282620004c860201b60201c565b6200046357600160008084815260200190815260200160002060008373ffffffffffffffffffffffffffffffffffffffff1673ffffffffffffffffffffffffffffffffffffffff16815260200190815260200160002060006101000a81548160ff0219169083151502179055503373ffffffffffffffffffffffffffffffffffffffff168173ffffffffffffffffffffffffffffffffffffffff16837f2f8788117e7eff1d82e926ec794901d17c78024a50270940304540a733656f0d60405160405180910390a45b5050565b60006200047a836200052f60201b60201c565b90508160016000858152602001908152602001600020819055508181847fbd79b86ffe0ab8e8776151514217cd7cacd52c909f66475c3af44e129f0b00ff60405160405180910390a4505050565b600080600084815260200190815260200160002060008373ffffffffffffffffffffffffffffffffffffffff1673ffffffffffffffffffffffffffffffffffffffff16815260200190815260200160002060009054906101000a900460ff16905092915050565b600060016000838152602001908152602001600020549050919050565b614023806200055c6000396000f3fe608060405234801561001057600080fd5b50600436106102f15760003560e01c80637002a7b61161019d578063bb4efa72116100e9578063d5a89bd6116100a2578063ef859e301161007c578063ef859e3014610e17578063f4359ce514610e76578063f86325ed14610e94578063fe575a8714610eb2576102f1565b8063d5a89bd614610d91578063e63ab1e914610daf578063ead0aa3314610dcd576102f1565b8063bb4efa7214610c63578063c49baebe14610c81578063c55d0f5614610c9f578063d37b34d714610ce1578063d3fcbac914610d25578063d547741f14610d43576102f1565b806395082d2511610156578063a39dc9be11610130578063a39dc9be14610b10578063a450094114610b2e578063ad9f20a614610c03578063b8d220c514610c21576102f1565b806395082d2514610a88578063a217fddf14610aa6578063a29c353414610ac4576102f1565b80637002a7b61461091e57806375b238fc1461096e5780638456cb591461098c5780638da5cb5b1461099657806391d14854146109e0578063943ca3b914610a46576102f1565b806339b688d01161025c578063537df3b61161021557806364ce8900116101ef57806364ce8900146107ec578063684ab1d2146108445780636cdfbcf4146108905780636ddc27b2146108d2576102f1565b8063537df3b61461074c5780635c975abb146107905780636492070c146107b2576102f1565b806339b688d0146105805780633cc63503146105c45780633f4ba83a146106065780634838d73c14610610578063497c1be8146106a65780634e8d43aa146106c4576102f1565b8063272a6e30116102ae578063272a6e301461042b57806327cfe8561461046657806328f27ace146104845780632e6774be146104a25780632f2ff15d146104e457806336568abe14610532576102f1565b806301c11d96146102f657806301f10ba414610314578063053951c41461034c5780630f79a1c3146103865780631c9ee11a146103cb578063248a9ca3146103e9575b600080fd5b6102fe610f0e565b6040518082815260200191505060405180910390f35b61034a6004803603604081101561032a57600080fd5b810190808035906020019092919080359060200190929190505050610f1a565b005b610354611227565b604051808681526020018581526020018481526020018381526020018281526020019550505050505060405180910390f35b6103c96004803603606081101561039c57600080fd5b8101908080359060200190929190803560ff1690602001909291908035906020019092919050505061125f565b005b6103d36116af565b6040518082815260200191505060405180910390f35b610415600480360360208110156103ff57600080fd5b81019080803590602001909291905050506116e8565b6040518082815260200191505060405180910390f35b6104646004803603604081101561044157600080fd5b8101908080359060200190929190803560ff169060200190929190505050611705565b005b61046e6119f8565b6040518082815260200191505060405180910390f35b61048c6119ff565b6040518082815260200191505060405180910390f35b6104ce600480360360208110156104b857600080fd5b8101908080359060200190929190505050611a05565b6040518082815260200191505060405180910390f35b610530600480360360408110156104fa57600080fd5b8101908080359060200190929190803573ffffffffffffffffffffffffffffffffffffffff169060200190929190505050611a50565b005b61057e6004803603604081101561054857600080fd5b8101908080359060200190929190803573ffffffffffffffffffffffffffffffffffffffff169060200190929190505050611c11565b005b6105c26004803603606081101561059657600080fd5b810190808035906020019092919080359060200190929190803515159060200190929190505050611ca3565b005b6105f0600480360360208110156105da57600080fd5b8101908080359060200190929190505050612146565b6040518082815260200191505060405180910390f35b61060e61228b565b005b61063c6004803603602081101561062657600080fd5b8101908080359060200190929190505050612406565b604051808c81526020018b81526020018a815260200189815260200188600581111561066457fe5b60ff1681526020018781526020018681526020018581526020018481526020018381526020018281526020019b50505050505050505050505060405180910390f35b6106ae61246d565b6040518082815260200191505060405180910390f35b6106f0600480360360208110156106da57600080fd5b8101908080359060200190929190505050612473565b604051808a815260200189815260200188815260200187815260200186600581111561071857fe5b60ff168152602001858152602001848152602001838152602001828152602001995050505050505050505060405180910390f35b61078e6004803603602081101561076257600080fd5b81019080803573ffffffffffffffffffffffffffffffffffffffff1690602001909291905050506124f5565b005b61079861272d565b604051808215151515815260200191505060405180910390f35b6107ba612744565b604051808681526020018581526020018481526020018381526020018281526020019550505050505060405180910390f35b61082e6004803603602081101561080257600080fd5b81019080803573ffffffffffffffffffffffffffffffffffffffff169060200190929190505050612768565b6040518082815260200191505060405180910390f35b61087a6004803603604081101561085a57600080fd5b810190808035906020019092919080359060200190929190505050612780565b6040518082815260200191505060405180910390f35b6108bc600480360360208110156108a657600080fd5b81019080803590602001909291905050506127ae565b6040518082815260200191505060405180910390f35b610908600480360360408110156108e857600080fd5b810190808035906020019092919080359060200190929190505050612a60565b6040518082815260200191505060405180910390f35b61094a6004803603602081101561093457600080fd5b8101908080359060200190929190505050612a85565b60405180848152602001838152602001828152602001935050505060405180910390f35b610976612aaf565b6040518082815260200191505060405180910390f35b610994612ae8565b005b61099e612c64565b604051808273ffffffffffffffffffffffffffffffffffffffff1673ffffffffffffffffffffffffffffffffffffffff16815260200191505060405180910390f35b610a2c600480360360408110156109f657600080fd5b8101908080359060200190929190803573ffffffffffffffffffffffffffffffffffffffff169060200190929190505050612c8e565b604051808215151515815260200191505060405180910390f35b610a7260048036036020811015610a5c57600080fd5b8101908080359060200190929190505050612cf5565b6040518082815260200191505060405180910390f35b610a90612d0d565b6040518082815260200191505060405180910390f35b610aae612d14565b6040518082815260200191505060405180910390f35b610b0e60048036036080811015610ada57600080fd5b8101908080359060200190929190803590602001909291908035906020019092919080359060200190929190505050612d1b565b005b610b186130ed565b6040518082815260200191505060405180910390f35b610b6460048036036040811015610b4457600080fd5b8101908080359060200190929190803590602001909291905050506130f3565b604051808060200180602001838103835285818151815260200191508051906020019060200280838360005b83811015610bab578082015181840152602081019050610b90565b50505050905001838103825284818151815260200191508051906020019060200280838360005b83811015610bed578082015181840152602081019050610bd2565b5050505090500194505050505060405180910390f35b610c0b6131f8565b6040518082815260200191505060405180910390f35b610c4d60048036036020811015610c3757600080fd5b8101908080359060200190929190505050613204565b6040518082815260200191505060405180910390f35b610c6b6132a0565b6040518082815260200191505060405180910390f35b610c896132a5565b6040518082815260200191505060405180910390f35b610ccb60048036036020811015610cb557600080fd5b81019080803590602001909291905050506132de565b6040518082815260200191505060405180910390f35b610d2360048036036020811015610cf757600080fd5b81019080803573ffffffffffffffffffffffffffffffffffffffff16906020019092919050505061346b565b005b610d2d613722565b6040518082815260200191505060405180910390f35b610d8f60048036036040811015610d5957600080fd5b8101908080359060200190929190803573ffffffffffffffffffffffffffffffffffffffff169060200190929190505050613727565b005b610d99613843565b6040518082815260200191505060405180910390f35b610db7613849565b6040518082815260200191505060405180910390f35b610dd5613882565b604051808273ffffffffffffffffffffffffffffffffffffffff1673ffffffffffffffffffffffffffffffffffffffff16815260200191505060405180910390f35b610e5960048036036060811015610e2d57600080fd5b8101908080359060200190929190803590602001909291908035151590602001909291905050506138a8565b604051808381526020018281526020019250505060405180910390f35b610e7e613b15565b6040518082815260200191505060405180910390f35b610e9c613b1c565b6040518082815260200191505060405180910390f35b610ef460048036036020811015610ec857600080fd5b81019080803573ffffffffffffffffffffffffffffffffffffffff169060200190929190505050613b28565b604051808215151515815260200191505060405180910390f35b678ac7230489e8000081565b60405180807f41444d494e5f524f4c4500000000000000000000000000000000000000000000815250600a0190506040518091039020610f5a8133612c8e565b610faf576040517f08c379a0000000000000000000000000000000000000000000000000000000008152600401808060200182810382526031815260200180613f426031913960400191505060405180910390fd5b600360009054906101000a900460ff1615611015576040517f08c379a0000000000000000000000000000000000000000000000000000000008152600401808060200182810382526021815260200180613db26021913960400191505060405180910390fd5b816000811161106f576040517f08c379a000000000000000000000000000000000000000000000000000000000815260040180806020018281038252602f815260200180613e7a602f913960400191505060405180910390fd5b6103e88311156110ca576040517f08c379a000000000000000000000000000000000000000000000000000000000815260040180806020018281038252602d815260200180613e4d602d913960400191505060405180910390fd5b6000600b60008681526020019081526020016000209050600081600001541161113e576040517f08c379a0000000000000000000000000000000000000000000000000000000008152600401808060200182810382526027815260200180613d8b6027913960400191505060405180910390fd5b60008160080154905084826008018190555060058081111561115c57fe5b8260040160009054906101000a900460ff16600581111561117957fe5b141561121f576000826001015490506000611198846000015488612780565b9050808460010181905550877fd17ae1ef0c5ba2eba1c2d71154e82b1455ff73f1a7f5e04c87b6fd68fe881a59838360405180838152602001828152602001806020018281038252600f8152602001807f5175616c69747920757064617465640000000000000000000000000000000000815250602001935050505060405180910390a250505b505050505050565b600080600080600080600690508060000154816001015482600201548360030154846004015495509550955095509550509091929394565b60405180807f41444d494e5f524f4c4500000000000000000000000000000000000000000000815250600a019050604051809103902061129f8133612c8e565b6112f4576040517f08c379a0000000000000000000000000000000000000000000000000000000008152600401808060200182810382526031815260200180613f426031913960400191505060405180910390fd5b600360009054906101000a900460ff161561135a576040517f08c379a0000000000000000000000000000000000000000000000000000000008152600401808060200182810382526021815260200180613db26021913960400191505060405180910390fd5b81600081116113b4576040517f08c379a000000000000000000000000000000000000000000000000000000000815260040180806020018281038252602f815260200180613e7a602f913960400191505060405180910390fd5b6103e883111561140f576040517f08c379a000000000000000000000000000000000000000000000000000000000815260040180806020018281038252602d815260200180613e4d602d913960400191505060405180910390fd5b6000600b6000878152602001908152602001600020600001541461147e576040517f08c379a000000000000000000000000000000000000000000000000000000000815260040180806020018281038252602b815260200180613df9602b913960400191505060405180910390fd5b6000611492670de0b6b3a764000085612780565b905060405180610160016040528082815260200182815260200167016345785d8a00008152602001678ac7230489e8000081526020018660058111156114d457fe5b815260200160008152602001428152602001600081526020018581526020016101f481526020016101f4815250600b60008881526020019081526020016000206000820151816000015560208201518160010155604082015181600201556060820151816003015560808201518160040160006101000a81548160ff0219169083600581111561156057fe5b021790555060a0820151816005015560c0820151816006015560e082015181600701556101008201518160080155610120820151816009015561014082015181600a0155905050600260058111156115b457fe5b8560058111156115c057fe5b14156115d0576115cf86613b7e565b5b857f3f9f19cc19417cd89ca0f38e44aa3cd72a89525696348fe83070c68619de09b56000876040518083600581111561160557fe5b60ff16815260200182600581111561161957fe5b60ff1681526020019250505060405180910390a2857fd17ae1ef0c5ba2eba1c2d71154e82b1455ff73f1a7f5e04c87b6fd68fe881a596000836040518083815260200182815260200180602001828103825260138152602001807f50726f6a65637420696e697469616c697a656400000000000000000000000000815250602001935050505060405180910390a2505050505050565b60405180807f434f4d50414e595f524f4c450000000000000000000000000000000000000000815250600c019050604051809103902081565b600060016000838152602001908152602001600020549050919050565b60405180807f41444d494e5f524f4c4500000000000000000000000000000000000000000000815250600a01905060405180910390206117458133612c8e565b61179a576040517f08c379a0000000000000000000000000000000000000000000000000000000008152600401808060200182810382526031815260200180613f426031913960400191505060405180910390fd5b600360009054906101000a900460ff1615611800576040517f08c379a0000000000000000000000000000000000000000000000000000000008152600401808060200182810382526021815260200180613db26021913960400191505060405180910390fd5b6000600b600085815260200190815260200160002090506000816000015411611874576040517f08c379a0000000000000000000000000000000000000000000000000000000008152600401808060200182810382526027815260200180613d8b6027913960400191505060405180910390fd5b60008160040160009054906101000a900460ff169050838260040160006101000a81548160ff021916908360058111156118aa57fe5b0217905550600260058111156118bc57fe5b8460058111156118c857fe5b1480156118ec5750600260058111156118dd57fe5b8160058111156118e957fe5b14155b156118fb576118fa85613b7e565b5b6000611906866132de565b9050600083600101549050818460010181905550867f3f9f19cc19417cd89ca0f38e44aa3cd72a89525696348fe83070c68619de09b584886040518083600581111561194e57fe5b60ff16815260200182600581111561196257fe5b60ff1681526020019250505060405180910390a2867fd17ae1ef0c5ba2eba1c2d71154e82b1455ff73f1a7f5e04c87b6fd68fe881a59828460405180838152602001828152602001806020018281038252600d8152602001807f4d6f64656c206368616e67656400000000000000000000000000000000000000815250602001935050505060405180910390a250505050505050565b6201518081565b6103e881565b600080600b600084815260200190815260200160002090506000611a28846127ae565b90506000600a6003830260078560010154020181611a4257fe5b049050809350505050919050565b611a59826116e8565b611a638133612c8e565b611ab8576040517f08c379a0000000000000000000000000000000000000000000000000000000008152600401808060200182810382526031815260200180613f426031913960400191505060405180910390fd5b81600073ffffffffffffffffffffffffffffffffffffffff168173ffffffffffffffffffffffffffffffffffffffff161415611b5c576040517f08c379a000000000000000000000000000000000000000000000000000000000815260040180806020018281038252601e8152602001807f416363657373436f6e74726f6c3a20696e76616c69642061646472657373000081525060200191505060405180910390fd5b82600260008273ffffffffffffffffffffffffffffffffffffffff1673ffffffffffffffffffffffffffffffffffffffff16815260200190815260200160002060009054906101000a900460ff1615611c00576040517f08c379a0000000000000000000000000000000000000000000000000000000008152600401808060200182810382526025815260200180613ea96025913960400191505060405180910390fd5b611c0a8585613bdd565b5050505050565b3373ffffffffffffffffffffffffffffffffffffffff168173ffffffffffffffffffffffffffffffffffffffff1614611c95576040517f08c379a000000000000000000000000000000000000000000000000000000000815260040180806020018281038252602f815260200180613f73602f913960400191505060405180910390fd5b611c9f8282613cb3565b5050565b60405180807f41444d494e5f524f4c4500000000000000000000000000000000000000000000815250600a0190506040518091039020611ce38133612c8e565b611d38576040517f08c379a0000000000000000000000000000000000000000000000000000000008152600401808060200182810382526031815260200180613f426031913960400191505060405180910390fd5b600360009054906101000a900460ff1615611d9e576040517f08c379a0000000000000000000000000000000000000000000000000000000008152600401808060200182810382526021815260200180613db26021913960400191505060405180910390fd5b8260008111611df8576040517f08c379a000000000000000000000000000000000000000000000000000000000815260040180806020018281038252602f815260200180613e7a602f913960400191505060405180910390fd5b6000600b600087815260200190815260200160002090506000816000015411611e6c576040517f08c379a0000000000000000000000000000000000000000000000000000000008152600401808060200182810382526027815260200180613d8b6027913960400191505060405180910390fd5b6000816001015490506000611e80886132de565b90508083600101819055508683600501600082825401925050819055504283600601819055508515611efb576103b6836009015410611ec1576103e8611eca565b60328360090154015b8360090181905550603283600a015411611ee5576000611eee565b601983600a0154035b83600a0181905550611f46565b6032836009015411611f0e576000611f17565b60198360090154035b83600901819055506103b683600a015410611f34576103e8611f3d565b603283600a0154015b83600a01819055505b6000620151804281611f5457fe5b04905081600d60008b815260200190815260200160002060008381526020019081526020016000208190555087600f6000838152602001908152602001600020600082825401925050819055506000831115612018576000828411611fbb57838303611fbf565b8284035b90506000846103e8830281611fd057fe5b0490506064811115612015578a7f497f2a5ebd6281d826c49b55729d8b7c1d3ddacdac2d3eb70c2b612b67c12846826040518082815260200191505060405180910390a25b50505b887fd17ae1ef0c5ba2eba1c2d71154e82b1455ff73f1a7f5e04c87b6fd68fe881a5984848a61207c576040518060400160405280600a81526020017f53656c6c207472616465000000000000000000000000000000000000000000008152506120b3565b6040518060400160405280600981526020017f42757920747261646500000000000000000000000000000000000000000000008152505b6040518084815260200183815260200180602001828103825283818151815260200191508051906020019080838360005b838110156120ff5780820151818401526020810190506120e4565b50505050905090810190601f16801561212c5780820380516001836020036101000a031916815260200191505b5094505050505060405180910390a2505050505050505050565b600080600c600084815260200190815260200160002090506000600560009054906101000a900473ffffffffffffffffffffffffffffffffffffffff1673ffffffffffffffffffffffffffffffffffffffff1663c08e375f856040518263ffffffff1660e01b81526004018082815260200191505060206040518083038186803b1580156121d357600080fd5b505afa1580156121e7573d6000803e3d6000fd5b505050506040513d60208110156121fd57600080fd5b810190808051906020019092919050505090506000620f42408283856001015402028161222657fe5b0483600201540190506000600b600087815260200190815260200160002090508060020154821015612262578060020154945050505050612286565b806003015482111561227e578060030154945050505050612286565b819450505050505b919050565b60405180807f5041555345525f524f4c45000000000000000000000000000000000000000000815250600b01905060405180910390206122cb8133612c8e565b612320576040517f08c379a0000000000000000000000000000000000000000000000000000000008152600401808060200182810382526031815260200180613f426031913960400191505060405180910390fd5b600360009054906101000a900460ff16612385576040517f08c379a0000000000000000000000000000000000000000000000000000000008152600401808060200182810382526025815260200180613fca6025913960400191505060405180910390fd5b6000600360006101000a81548160ff0219169083151502179055507f5db9ee0a495bf2e6ff9c91a7834c1ba4fdd244a5e8aa4e537bd38aeae4b073aa33604051808273ffffffffffffffffffffffffffffffffffffffff1673ffffffffffffffffffffffffffffffffffffffff16815260200191505060405180910390a150565b600b6020528060005260406000206000915090508060000154908060010154908060020154908060030154908060040160009054906101000a900460ff169080600501549080600601549080600701549080600801549080600901549080600a015490508b565b61012c81565b600080600080600080600080600080600b60008c815260200190815260200160002090506124a08b6132de565b8160000154826002015483600301548460040160009054906101000a900460ff1685600501548660080154876009015488600a0154995099509950995099509950995099509950509193959799909294969850565b60405180807f41444d494e5f524f4c4500000000000000000000000000000000000000000000815250600a01905060405180910390206125358133612c8e565b61258a576040517f08c379a0000000000000000000000000000000000000000000000000000000008152600401808060200182810382526031815260200180613f426031913960400191505060405180910390fd5b81600073ffffffffffffffffffffffffffffffffffffffff168173ffffffffffffffffffffffffffffffffffffffff16141561262e576040517f08c379a000000000000000000000000000000000000000000000000000000000815260040180806020018281038252601e8152602001807f416363657373436f6e74726f6c3a20696e76616c69642061646472657373000081525060200191505060405180910390fd5b600260008473ffffffffffffffffffffffffffffffffffffffff1673ffffffffffffffffffffffffffffffffffffffff16815260200190815260200160002060009054906101000a900460ff166126d0576040517f08c379a0000000000000000000000000000000000000000000000000000000008152600401808060200182810382526026815260200180613dd36026913960400191505060405180910390fd5b6000600260008573ffffffffffffffffffffffffffffffffffffffff1673ffffffffffffffffffffffffffffffffffffffff16815260200190815260200160002060006101000a81548160ff021916908315150217905550505050565b6000600360009054906101000a900460ff16905090565b60068060000154908060010154908060020154908060030154908060040154905085565b600e6020528060005260406000206000915090505481565b6000806103e88084028161279057fe5b046101f40190506103e8818502816127a457fe5b0491505092915050565b600080600b600084815260200190815260200160002090506000600560009054906101000a900473ffffffffffffffffffffffffffffffffffffffff1673ffffffffffffffffffffffffffffffffffffffff1663cccef474856040518263ffffffff1660e01b81526004018082815260200191505060206040518083038186803b15801561283b57600080fd5b505afa15801561284f573d6000803e3d6000fd5b505050506040513d602081101561286557600080fd5b810190808051906020019092919050505090506000600560009054906101000a900473ffffffffffffffffffffffffffffffffffffffff1673ffffffffffffffffffffffffffffffffffffffff1663c08e375f866040518263ffffffff1660e01b81526004018082815260200191505060206040518083038186803b1580156128ed57600080fd5b505afa158015612901573d6000803e3d6000fd5b505050506040513d602081101561291757600080fd5b81019080805190602001909291905050509050600081831161293a57600061293e565b8183035b90506000831415612959578360000154945050505050612a5b565b6000836103e883028161296857fe5b0490506000816103e803905060006103e860066000015483028161298857fe5b04905060006103e860066001015485028161299f57fe5b04905060006103e86105dc8402816129b357fe5b046101f401905060006103e86101908b6008015402816129cf57fe5b0461032001905060006129e58b60060154613204565b90506000633b9aca008284868f6000015402020281612a0057fe5b0490508b60020154811015612a27578b600201549c50505050505050505050505050612a5b565b8b60030154811115612a4b578b600301549c50505050505050505050505050612a5b565b809c505050505050505050505050505b919050565b600d602052816000526040600020602052806000526040600020600091509150505481565b600c6020528060005260406000206000915090508060000154908060010154908060020154905083565b60405180807f41444d494e5f524f4c4500000000000000000000000000000000000000000000815250600a019050604051809103902081565b60405180807f5041555345525f524f4c45000000000000000000000000000000000000000000815250600b0190506040518091039020612b288133612c8e565b612b7d576040517f08c379a0000000000000000000000000000000000000000000000000000000008152600401808060200182810382526031815260200180613f426031913960400191505060405180910390fd5b600360009054906101000a900460ff1615612be3576040517f08c379a0000000000000000000000000000000000000000000000000000000008152600401808060200182810382526021815260200180613db26021913960400191505060405180910390fd5b6001600360006101000a81548160ff0219169083151502179055507f62e78cea01bee320cd4e420270b5ea74000d11b0c9f74754ebdbfc544b05a25833604051808273ffffffffffffffffffffffffffffffffffffffff1673ffffffffffffffffffffffffffffffffffffffff16815260200191505060405180910390a150565b6000600360019054906101000a900473ffffffffffffffffffffffffffffffffffffffff16905090565b600080600084815260200190815260200160002060008373ffffffffffffffffffffffffffffffffffffffff1673ffffffffffffffffffffffffffffffffffffffff16815260200190815260200160002060009054906101000a900460ff16905092915050565b600f6020528060005260406000206000915090505481565b620f424081565b6000801b81565b60405180807f41444d494e5f524f4c4500000000000000000000000000000000000000000000815250600a0190506040518091039020612d5b8133612c8e565b612db0576040517f08c379a0000000000000000000000000000000000000000000000000000000008152600401808060200182810382526031815260200180613f426031913960400191505060405180910390fd5b600360009054906101000a900460ff1615612e16576040517f08c379a0000000000000000000000000000000000000000000000000000000008152600401808060200182810382526021815260200180613db26021913960400191505060405180910390fd5b6101f48510158015612e2a57506107d08511155b612e7f576040517f08c379a0000000000000000000000000000000000000000000000000000000008152600401808060200182810382526029815260200180613ece6029913960400191505060405180910390fd5b6101f48410158015612e9357506107d08411155b612ee8576040517f08c379a0000000000000000000000000000000000000000000000000000000008152600401808060200182810382526029815260200180613e246029913960400191505060405180910390fd5b6103e8831115612f43576040517f08c379a0000000000000000000000000000000000000000000000000000000008152600401808060200182810382526028815260200180613fa26028913960400191505060405180910390fd5b6107d0821115612f9e576040517f08c379a0000000000000000000000000000000000000000000000000000000008152600401808060200182810382526021815260200180613ef76021913960400191505060405180910390fd5b60006006905060007f4ef0b01d7a2d4c9633bb07536b5fcb732896a0c6d688fb04a887769d374477a8826000015488604051808381526020018281526020019250505060405180910390a260017f4ef0b01d7a2d4c9633bb07536b5fcb732896a0c6d688fb04a887769d374477a8826001015487604051808381526020018281526020019250505060405180910390a260027f4ef0b01d7a2d4c9633bb07536b5fcb732896a0c6d688fb04a887769d374477a8826002015486604051808381526020018281526020019250505060405180910390a260037f4ef0b01d7a2d4c9633bb07536b5fcb732896a0c6d688fb04a887769d374477a8826003015485604051808381526020018281526020019250505060405180910390a2858160000181905550848160010181905550838160020181905550828160030181905550428160040181905550505050505050565b610e1081565b606080826040519080825280602002602001820160405280156131255781602001602082028038833980820191505090505b509150826040519080825280602002602001820160405280156131575781602001602082028038833980820191505090505b509050600062015180428161316857fe5b04905060008090505b848110156131e95760008183039050600d60008881526020019081526020016000206000828152602001908152602001600020548583815181106131b157fe5b6020026020010181815250506201518081028483815181106131cf57fe5b602002602001018181525050508080600101915050613171565b50828292509250509250929050565b67016345785d8a000081565b600080821415613218576103e8905061329b565b60008242039050610e10811015613234576103e891505061329b565b6201518081101561326357610e1062015180036032610e108303028161325657fe5b046103e80391505061329b565b62093a80811015613294576201518062093a80036032620151808303028161328757fe5b046103b60391505061329b565b6103849150505b919050565b60c881565b60405180807f56414c494441544f525f524f4c45000000000000000000000000000000000000815250600e019050604051809103902081565b600080600b6000848152602001908152602001600020905060008160000154141561331457670de0b6b3a7640000915050613466565b6000600581111561332157fe5b8160040160009054906101000a900460ff16600581111561333e57fe5b1415613351578060010154915050613466565b6001600581111561335e57fe5b8160040160009054906101000a900460ff16600581111561337b57fe5b14156133925761338a836127ae565b915050613466565b6002600581111561339f57fe5b8160040160009054906101000a900460ff1660058111156133bc57fe5b14156133d3576133cb83612146565b915050613466565b6005808111156133df57fe5b8160040160009054906101000a900460ff1660058111156133fc57fe5b141561341c5761341481600001548260080154612780565b915050613466565b6004600581111561342957fe5b8160040160009054906101000a900460ff16600581111561344657fe5b141561345d5761345583611a05565b915050613466565b80600101549150505b919050565b60405180807f41444d494e5f524f4c4500000000000000000000000000000000000000000000815250600a01905060405180910390206134ab8133612c8e565b613500576040517f08c379a0000000000000000000000000000000000000000000000000000000008152600401808060200182810382526031815260200180613f426031913960400191505060405180910390fd5b81600073ffffffffffffffffffffffffffffffffffffffff168173ffffffffffffffffffffffffffffffffffffffff1614156135a4576040517f08c379a000000000000000000000000000000000000000000000000000000000815260040180806020018281038252601e8152602001807f416363657373436f6e74726f6c3a20696e76616c69642061646472657373000081525060200191505060405180910390fd5b600260008473ffffffffffffffffffffffffffffffffffffffff1673ffffffffffffffffffffffffffffffffffffffff16815260200190815260200160002060009054906101000a900460ff1615613647576040517f08c379a000000000000000000000000000000000000000000000000000000000815260040180806020018281038252602a815260200180613f18602a913960400191505060405180910390fd5b6001600260008573ffffffffffffffffffffffffffffffffffffffff1673ffffffffffffffffffffffffffffffffffffffff16815260200190815260200160002060006101000a81548160ff0219169083151502179055506136de60405180807f56414c494441544f525f524f4c45000000000000000000000000000000000000815250600e019050604051809103902084613cb3565b61371d60405180807f434f4d50414e595f524f4c450000000000000000000000000000000000000000815250600c019050604051809103902084613cb3565b505050565b60c881565b613730826116e8565b61373a8133612c8e565b61378f576040517f08c379a0000000000000000000000000000000000000000000000000000000008152600401808060200182810382526031815260200180613f426031913960400191505060405180910390fd5b81600073ffffffffffffffffffffffffffffffffffffffff168173ffffffffffffffffffffffffffffffffffffffff161415613833576040517f08c379a000000000000000000000000000000000000000000000000000000000815260040180806020018281038252601e8152602001807f416363657373436f6e74726f6c3a20696e76616c69642061646472657373000081525060200191505060405180910390fd5b61383d8484613cb3565b50505050565b61012c81565b60405180807f5041555345525f524f4c45000000000000000000000000000000000000000000815250600b019050604051809103902081565b600560009054906101000a900473ffffffffffffffffffffffffffffffffffffffff1681565b60008060006138b6866132de565b90506000600560009054906101000a900473ffffffffffffffffffffffffffffffffffffffff1673ffffffffffffffffffffffffffffffffffffffff1663cccef474886040518263ffffffff1660e01b81526004018082815260200191505060206040518083038186803b15801561392d57600080fd5b505afa158015613941573d6000803e3d6000fd5b505050506040513d602081101561395757600080fd5b810190808051906020019092919050505090506000600560009054906101000a900473ffffffffffffffffffffffffffffffffffffffff1673ffffffffffffffffffffffffffffffffffffffff1663c08e375f896040518263ffffffff1660e01b81526004018082815260200191505060206040518083038186803b1580156139df57600080fd5b505afa1580156139f3573d6000803e3d6000fd5b505050506040513d6020811015613a0957600080fd5b810190808051906020019092919050505090506000821415613a375760008381915094509450505050613b0d565b60008615613a59576001828403016103e8890281613a5157fe5b049050613a6d565b600182016103e8890281613a6957fe5b0490505b6101f4811115613a7d576101f490505b8615613a9a576103e881850281613a9057fe5b0484019450613aad565b6103e881850281613aa757fe5b04840394505b6000600b60008b815260200190815260200160002090508060020154861015613ad857806002015495505b8060030154861115613aec57806003015495505b848611613afb57858503613aff565b8486035b965086869650965050505050505b935093915050565b62093a8081565b670de0b6b3a764000081565b6000600260008373ffffffffffffffffffffffffffffffffffffffff1673ffffffffffffffffffffffffffffffffffffffff16815260200190815260200160002060009054906101000a900460ff169050919050565b60405180606001604052806207a12081526020016103e88152602001670de0b6b3a7640000815250600c600083815260200190815260200160002060008201518160000155602082015181600101556040820151816002015590505050565b613be78282612c8e565b613caf57600160008084815260200190815260200160002060008373ffffffffffffffffffffffffffffffffffffffff1673ffffffffffffffffffffffffffffffffffffffff16815260200190815260200160002060006101000a81548160ff0219169083151502179055503373ffffffffffffffffffffffffffffffffffffffff168173ffffffffffffffffffffffffffffffffffffffff16837f2f8788117e7eff1d82e926ec794901d17c78024a50270940304540a733656f0d60405160405180910390a45b5050565b613cbd8282612c8e565b15613d8657600080600084815260200190815260200160002060008373ffffffffffffffffffffffffffffffffffffffff1673ffffffffffffffffffffffffffffffffffffffff16815260200190815260200160002060006101000a81548160ff0219169083151502179055503373ffffffffffffffffffffffffffffffffffffffff168173ffffffffffffffffffffffffffffffffffffffff16837ff6391f5c32d9c69d2a47ea670b442974b53935d1edc7fd64eb21e047a839171b60405160405180910390a45b505056fe44796e616d696350726963696e673a2070726f6a656374206e6f7420696e697469616c697a6564416363657373436f6e74726f6c3a20636f6e747261637420697320706175736564416363657373436f6e74726f6c3a206163636f756e74206e6f7420626c61636b6c697374656444796e616d696350726963696e673a2070726f6a65637420616c726561647920696e697469616c697a656444796e616d696350726963696e673a20696e76616c696420737570706c79206d756c7469706c69657244796e616d696350726963696e673a207175616c6974792073636f7265206d757374206265203c3d2031303030416363657373436f6e74726f6c3a20616d6f756e74206d7573742062652067726561746572207468616e207a65726f416363657373436f6e74726f6c3a206163636f756e7420697320626c61636b6c697374656444796e616d696350726963696e673a20696e76616c69642064656d616e64206d756c7469706c69657244796e616d696350726963696e673a20696e76616c69642073656e74696d656e74416363657373436f6e74726f6c3a206163636f756e7420616c726561647920626c61636b6c6973746564416363657373436f6e74726f6c3a2063616c6c657220646f6573206e6f74206861766520726571756972656420726f6c65416363657373436f6e74726f6c3a2063616e206f6e6c792072656e6f756e636520726f6c657320666f722073656c6644796e616d696350726963696e673a20696e76616c696420766f6c6174696c69747920696e646578416363657373436f6e74726f6c3a20636f6e7472616374206973206e6f7420706175736564a265627a7a72315820cca276414a3d7b8c1802162e8349c5c4d4a464066be5324c756cef332b64ba2b64736f6c63430005110032",
  "source": "pragma solidity ^0.5.0;\n\nimport \"./AccessControl.sol\";\nimport \"./Company.sol\";\n\n/**\n * @title DynamicPricing\n * @dev Advanced dynamic pricing engine for carbon credits with multiple pricing models\n * @notice This contract implements sophisticated pricing algorithms based on supply/demand, project quality, and market conditions\n */\ncontract DynamicPricing is AccessControl {\n    // Events\n    event PriceUpdated(\n        uint256 indexed projectId,\n        uint256 oldPrice,\n        uint256 newPrice,\n        string reason\n    );\n    event MarketConditionChanged(\n        uint256 indexed factor,\n        uint256 oldValue,\n        uint256 newValue\n    );\n    event PricingModelChanged(\n        uint256 indexed projectId,\n        PricingModel oldModel,\n        PricingModel newModel\n    );\n    event VolatilityAlert(\n        uint256 indexed projectId,\n        uint256 volatilityPercentage\n    );\n\n    // Pricing Models\n    enum PricingModel {\n        FIXED, // Fixed price (legacy)\n        SUPPLY_DEMAND, // Supply and demand based\n        BONDING_CURVE, // Bonding curve pricing\n        AUCTION, // Auction-based pricing\n        TWAP, // Time-weighted average price\n        QUALITY_ADJUSTED // Quality-adjusted pricing\n    }\n\n    // Market Condition Factors\n    struct MarketConditions {\n        uint256 globalDemandMultiplier; // 1000 = 100% (normal), 1200 = 120% (high demand)\n        uint256 globalSupplyMultiplier; // 1000 = 100% (normal), 800 = 80% (low supply)\n        uint256 volatilityIndex; // 0-1000, higher = more volatile\n        uint256 marketSentiment; // 0-2000, 1000 = neutral, >1000 = bullish\n        uint256 lastUpdateTime;\n    }\n\n    // Project Pricing Data\n    struct ProjectPricing {\n        uint256 basePrice; // Base price in wei per EXC\n        uint256 currentPrice; // Current market price in wei per EXC\n        uint256 minPrice; // Minimum allowed price\n        uint256 maxPrice; // Maximum allowed price\n        PricingModel model; // Active pricing model\n        uint256 totalVolume; // Total trading volume\n        uint256 lastTradeTime; // Last trade timestamp\n        uint256 priceHistory; // Simple price history (last 5 prices encoded)\n        uint256 qualityScore; // Project quality score (0-1000)\n        uint256 demandScore; // Current demand score (0-1000)\n        uint256 supplyScore; // Current supply score (0-1000)\n    }\n\n    // Bonding Curve Parameters\n    struct BondingCurve {\n        uint256 reserveRatio; // Reserve ratio for bonding curve (0-1000000)\n        uint256 slope; // Curve slope parameter\n        uint256 intercept; // Curve intercept parameter\n    }\n\n    // State variables\n    Company public companyInstance;\n    MarketConditions public marketConditions;\n\n    mapping(uint256 => ProjectPricing) public projectPricing;\n    mapping(uint256 => BondingCurve) public bondingCurves;\n    mapping(uint256 => mapping(uint256 => uint256)) public priceHistoryDetailed; // projectId => timestamp => price\n    mapping(address => uint256) public userTradingVolume;\n    mapping(uint256 => uint256) public dailyVolume; // day => volume\n\n    // Constants\n    uint256 public constant BASE_PRICE = 1 ether; // 1 ETH base price\n    uint256 public constant MIN_PRICE = 0.1 ether; // Minimum 0.1 ETH\n    uint256 public constant MAX_PRICE = 10 ether; // Maximum 10 ETH\n    uint256 public constant PRICE_PRECISION = 1000000; // 6 decimal precision\n    uint256 public constant MAX_VOLATILITY = 1000; // Maximum volatility index\n    uint256 public constant QUALITY_WEIGHT = 200; // Quality factor weight\n    uint256 public constant DEMAND_WEIGHT = 300; // Demand factor weight\n    uint256 public constant SUPPLY_WEIGHT = 300; // Supply factor weight\n    uint256 public constant TIME_DECAY_FACTOR = 200; // Time decay weight\n\n    // Time constants\n    uint256 public constant HOUR = 3600;\n    uint256 public constant DAY = 86400;\n    uint256 public constant WEEK = 604800;\n\n    /**\n     * @dev Constructor initializes the pricing engine\n     */\n    constructor(address _companyAddress) public {\n        companyInstance = Company(_companyAddress);\n\n        // Initialize market conditions\n        marketConditions = MarketConditions({\n            globalDemandMultiplier: 1000,\n            globalSupplyMultiplier: 1000,\n            volatilityIndex: 100,\n            marketSentiment: 1000,\n            lastUpdateTime: block.timestamp\n        });\n    }\n\n    /**\n     * @dev Initialize pricing for a new project\n     */\n    function initializeProjectPricing(\n        uint256 projectId,\n        PricingModel model,\n        uint256 qualityScore\n    ) public onlyRole(ADMIN_ROLE) whenNotPaused validAmount(qualityScore) {\n        require(\n            qualityScore <= 1000,\n            \"DynamicPricing: quality score must be <= 1000\"\n        );\n        require(\n            projectPricing[projectId].basePrice == 0,\n            \"DynamicPricing: project already initialized\"\n        );\n\n        uint256 adjustedBasePrice = calculateQualityAdjustedPrice(\n            BASE_PRICE,\n            qualityScore\n        );\n\n        projectPricing[projectId] = ProjectPricing({\n            basePrice: adjustedBasePrice,\n            currentPrice: adjustedBasePrice,\n            minPrice: MIN_PRICE,\n            maxPrice: MAX_PRICE,\n            model: model,\n            totalVolume: 0,\n            lastTradeTime: block.timestamp,\n            priceHistory: 0,\n            qualityScore: qualityScore,\n            demandScore: 500, // Start neutral\n            supplyScore: 500 // Start neutral\n        });\n\n        if (model == PricingModel.BONDING_CURVE) {\n            initializeBondingCurve(projectId);\n        }\n\n        emit PricingModelChanged(projectId, PricingModel.FIXED, model);\n        emit PriceUpdated(\n            projectId,\n            0,\n            adjustedBasePrice,\n            \"Project initialized\"\n        );\n    }\n\n    /**\n     * @dev Calculate current price for a project based on its pricing model\n     */\n    function getCurrentPrice(uint256 projectId) public view returns (uint256) {\n        ProjectPricing storage pricing = projectPricing[projectId];\n\n        if (pricing.basePrice == 0) {\n            return BASE_PRICE; // Fallback to base price\n        }\n\n        if (pricing.model == PricingModel.FIXED) {\n            return pricing.currentPrice;\n        } else if (pricing.model == PricingModel.SUPPLY_DEMAND) {\n            return calculateSupplyDemandPrice(projectId);\n        } else if (pricing.model == PricingModel.BONDING_CURVE) {\n            return calculateBondingCurvePrice(projectId);\n        } else if (pricing.model == PricingModel.QUALITY_ADJUSTED) {\n            return\n                calculateQualityAdjustedPrice(\n                    pricing.basePrice,\n                    pricing.qualityScore\n                );\n        } else if (pricing.model == PricingModel.TWAP) {\n            return calculateTWAP(projectId);\n        }\n\n        return pricing.currentPrice;\n    }\n\n    /**\n     * @dev Calculate supply and demand based price\n     */\n    function calculateSupplyDemandPrice(\n        uint256 projectId\n    ) public view returns (uint256) {\n        ProjectPricing storage pricing = projectPricing[projectId];\n\n        // Get project data\n        uint256 totalSupply = companyInstance.getProjectexcAmount(projectId);\n        uint256 soldAmount = companyInstance.getEXCSold(projectId);\n        uint256 availableSupply = totalSupply > soldAmount\n            ? totalSupply - soldAmount\n            : 0;\n\n        if (totalSupply == 0) return pricing.basePrice;\n\n        // Calculate supply ratio (0-1000)\n        uint256 supplyRatio = (availableSupply * 1000) / totalSupply;\n\n        // Calculate demand pressure (inverse of supply ratio)\n        uint256 demandPressure = 1000 - supplyRatio;\n\n        // Apply market conditions\n        uint256 adjustedDemand = (demandPressure *\n            marketConditions.globalDemandMultiplier) / 1000;\n        uint256 adjustedSupply = (supplyRatio *\n            marketConditions.globalSupplyMultiplier) / 1000;\n\n        // Calculate price multiplier (500-2000, representing 50%-200%)\n        uint256 priceMultiplier = 500 + (adjustedDemand * 1500) / 1000;\n\n        // Apply quality and time decay\n        uint256 qualityMultiplier = 800 + (pricing.qualityScore * 400) / 1000; // 80%-120%\n        uint256 timeDecay = calculateTimeDecay(pricing.lastTradeTime);\n\n        uint256 finalPrice = (pricing.basePrice *\n            priceMultiplier *\n            qualityMultiplier *\n            timeDecay) / (1000 * 1000 * 1000);\n\n        // Ensure price is within bounds\n        if (finalPrice < pricing.minPrice) return pricing.minPrice;\n        if (finalPrice > pricing.maxPrice) return pricing.maxPrice;\n\n        return finalPrice;\n    }\n\n    /**\n     * @dev Calculate quality-adjusted price\n     */\n    function calculateQualityAdjustedPrice(\n        uint256 basePrice,\n        uint256 qualityScore\n    ) public pure returns (uint256) {\n        // Quality score 0-1000 maps to 50%-150% price multiplier\n        uint256 qualityMultiplier = 500 + (qualityScore * 1000) / 1000;\n        return (basePrice * qualityMultiplier) / 1000;\n    }\n\n    /**\n     * @dev Calculate time decay factor for pricing\n     */\n    function calculateTimeDecay(\n        uint256 lastTradeTime\n    ) public view returns (uint256) {\n        if (lastTradeTime == 0) return 1000;\n\n        uint256 timeSinceLastTrade = block.timestamp - lastTradeTime;\n\n        if (timeSinceLastTrade < HOUR) {\n            return 1000; // No decay within an hour\n        } else if (timeSinceLastTrade < DAY) {\n            // Linear decay from 100% to 95% over 24 hours\n            return 1000 - ((timeSinceLastTrade - HOUR) * 50) / (DAY - HOUR);\n        } else if (timeSinceLastTrade < WEEK) {\n            // Slower decay from 95% to 90% over a week\n            return 950 - ((timeSinceLastTrade - DAY) * 50) / (WEEK - DAY);\n        } else {\n            return 900; // Minimum 90% after a week\n        }\n    }\n\n    /**\n     * @dev Initialize bonding curve for a project\n     */\n    function initializeBondingCurve(uint256 projectId) internal {\n        bondingCurves[projectId] = BondingCurve({\n            reserveRatio: 500000, // 50% reserve ratio\n            slope: 1000,\n            intercept: BASE_PRICE\n        });\n    }\n\n    /**\n     * @dev Calculate bonding curve price\n     */\n    function calculateBondingCurvePrice(\n        uint256 projectId\n    ) public view returns (uint256) {\n        BondingCurve storage curve = bondingCurves[projectId];\n        uint256 soldAmount = companyInstance.getEXCSold(projectId);\n\n        // Bonding curve formula: price = intercept + (slope * soldAmount^2) / 1000000\n        uint256 curvePrice = curve.intercept +\n            (curve.slope * soldAmount * soldAmount) /\n            1000000;\n\n        ProjectPricing storage pricing = projectPricing[projectId];\n        if (curvePrice < pricing.minPrice) return pricing.minPrice;\n        if (curvePrice > pricing.maxPrice) return pricing.maxPrice;\n\n        return curvePrice;\n    }\n\n    /**\n     * @dev Calculate Time-Weighted Average Price (TWAP)\n     */\n    function calculateTWAP(uint256 projectId) public view returns (uint256) {\n        // Simplified TWAP calculation using recent price history\n        ProjectPricing storage pricing = projectPricing[projectId];\n\n        // For now, return current price with slight smoothing\n        // In a full implementation, this would use detailed price history\n        uint256 currentMarketPrice = calculateSupplyDemandPrice(projectId);\n        uint256 smoothedPrice = (pricing.currentPrice *\n            7 +\n            currentMarketPrice *\n            3) / 10;\n\n        return smoothedPrice;\n    }\n\n    /**\n     * @dev Update price after a trade\n     */\n    function updatePriceAfterTrade(\n        uint256 projectId,\n        uint256 tradeAmount,\n        bool isBuy\n    ) public onlyRole(ADMIN_ROLE) whenNotPaused validAmount(tradeAmount) {\n        ProjectPricing storage pricing = projectPricing[projectId];\n        require(\n            pricing.basePrice > 0,\n            \"DynamicPricing: project not initialized\"\n        );\n\n        uint256 oldPrice = pricing.currentPrice;\n        uint256 newPrice = getCurrentPrice(projectId);\n\n        // Update pricing data\n        pricing.currentPrice = newPrice;\n        pricing.totalVolume += tradeAmount;\n        pricing.lastTradeTime = block.timestamp;\n\n        // Update demand/supply scores based on trade direction\n        if (isBuy) {\n            pricing.demandScore = pricing.demandScore < 950\n                ? pricing.demandScore + 50\n                : 1000;\n            pricing.supplyScore = pricing.supplyScore > 50\n                ? pricing.supplyScore - 25\n                : 0;\n        } else {\n            pricing.demandScore = pricing.demandScore > 50\n                ? pricing.demandScore - 25\n                : 0;\n            pricing.supplyScore = pricing.supplyScore < 950\n                ? pricing.supplyScore + 50\n                : 1000;\n        }\n\n        // Store price in history\n        uint256 currentDay = block.timestamp / DAY;\n        priceHistoryDetailed[projectId][currentDay] = newPrice;\n        dailyVolume[currentDay] += tradeAmount;\n\n        // Check for volatility alert\n        if (oldPrice > 0) {\n            uint256 priceChange = oldPrice > newPrice\n                ? oldPrice - newPrice\n                : newPrice - oldPrice;\n            uint256 volatilityPercentage = (priceChange * 1000) / oldPrice;\n\n            if (volatilityPercentage > 100) {\n                // More than 10% change\n                emit VolatilityAlert(projectId, volatilityPercentage);\n            }\n        }\n\n        emit PriceUpdated(\n            projectId,\n            oldPrice,\n            newPrice,\n            isBuy ? \"Buy trade\" : \"Sell trade\"\n        );\n    }\n\n    /**\n     * @dev Update market conditions (admin only)\n     */\n    function updateMarketConditions(\n        uint256 demandMultiplier,\n        uint256 supplyMultiplier,\n        uint256 volatilityIndex,\n        uint256 sentiment\n    ) public onlyRole(ADMIN_ROLE) whenNotPaused {\n        require(\n            demandMultiplier >= 500 && demandMultiplier <= 2000,\n            \"DynamicPricing: invalid demand multiplier\"\n        );\n        require(\n            supplyMultiplier >= 500 && supplyMultiplier <= 2000,\n            \"DynamicPricing: invalid supply multiplier\"\n        );\n        require(\n            volatilityIndex <= MAX_VOLATILITY,\n            \"DynamicPricing: invalid volatility index\"\n        );\n        require(sentiment <= 2000, \"DynamicPricing: invalid sentiment\");\n\n        MarketConditions storage conditions = marketConditions;\n\n        emit MarketConditionChanged(\n            0,\n            conditions.globalDemandMultiplier,\n            demandMultiplier\n        );\n        emit MarketConditionChanged(\n            1,\n            conditions.globalSupplyMultiplier,\n            supplyMultiplier\n        );\n        emit MarketConditionChanged(\n            2,\n            conditions.volatilityIndex,\n            volatilityIndex\n        );\n        emit MarketConditionChanged(3, conditions.marketSentiment, sentiment);\n\n        conditions.globalDemandMultiplier = demandMultiplier;\n        conditions.globalSupplyMultiplier = supplyMultiplier;\n        conditions.volatilityIndex = volatilityIndex;\n        conditions.marketSentiment = sentiment;\n        conditions.lastUpdateTime = block.timestamp;\n    }\n\n    /**\n     * @dev Change pricing model for a project\n     */\n    function changePricingModel(\n        uint256 projectId,\n        PricingModel newModel\n    ) public onlyRole(ADMIN_ROLE) whenNotPaused {\n        ProjectPricing storage pricing = projectPricing[projectId];\n        require(\n            pricing.basePrice > 0,\n            \"DynamicPricing: project not initialized\"\n        );\n\n        PricingModel oldModel = pricing.model;\n        pricing.model = newModel;\n\n        if (\n            newModel == PricingModel.BONDING_CURVE &&\n            oldModel != PricingModel.BONDING_CURVE\n        ) {\n            initializeBondingCurve(projectId);\n        }\n\n        // Update current price based on new model\n        uint256 newPrice = getCurrentPrice(projectId);\n        uint256 oldPrice = pricing.currentPrice;\n        pricing.currentPrice = newPrice;\n\n        emit PricingModelChanged(projectId, oldModel, newModel);\n        emit PriceUpdated(projectId, oldPrice, newPrice, \"Model changed\");\n    }\n\n    /**\n     * @dev Update project quality score\n     */\n    function updateProjectQuality(\n        uint256 projectId,\n        uint256 newQualityScore\n    ) public onlyRole(ADMIN_ROLE) whenNotPaused validAmount(newQualityScore) {\n        require(\n            newQualityScore <= 1000,\n            \"DynamicPricing: quality score must be <= 1000\"\n        );\n\n        ProjectPricing storage pricing = projectPricing[projectId];\n        require(\n            pricing.basePrice > 0,\n            \"DynamicPricing: project not initialized\"\n        );\n\n        uint256 oldScore = pricing.qualityScore;\n        pricing.qualityScore = newQualityScore;\n\n        // Recalculate price if using quality-adjusted model\n        if (pricing.model == PricingModel.QUALITY_ADJUSTED) {\n            uint256 oldPrice = pricing.currentPrice;\n            uint256 newPrice = calculateQualityAdjustedPrice(\n                pricing.basePrice,\n                newQualityScore\n            );\n            pricing.currentPrice = newPrice;\n\n            emit PriceUpdated(projectId, oldPrice, newPrice, \"Quality updated\");\n        }\n    }\n\n    /**\n     * @dev Get comprehensive pricing information for a project\n     */\n    function getProjectPricingInfo(\n        uint256 projectId\n    )\n        public\n        view\n        returns (\n            uint256 currentPrice,\n            uint256 basePrice,\n            uint256 minPrice,\n            uint256 maxPrice,\n            PricingModel model,\n            uint256 totalVolume,\n            uint256 qualityScore,\n            uint256 demandScore,\n            uint256 supplyScore\n        )\n    {\n        ProjectPricing storage pricing = projectPricing[projectId];\n\n        return (\n            getCurrentPrice(projectId),\n            pricing.basePrice,\n            pricing.minPrice,\n            pricing.maxPrice,\n            pricing.model,\n            pricing.totalVolume,\n            pricing.qualityScore,\n            pricing.demandScore,\n            pricing.supplyScore\n        );\n    }\n\n    /**\n     * @dev Get market conditions\n     */\n    function getMarketConditions()\n        public\n        view\n        returns (\n            uint256 demandMultiplier,\n            uint256 supplyMultiplier,\n            uint256 volatilityIndex,\n            uint256 sentiment,\n            uint256 lastUpdate\n        )\n    {\n        MarketConditions storage conditions = marketConditions;\n        return (\n            conditions.globalDemandMultiplier,\n            conditions.globalSupplyMultiplier,\n            conditions.volatilityIndex,\n            conditions.marketSentiment,\n            conditions.lastUpdateTime\n        );\n    }\n\n    /**\n     * @dev Calculate price impact for a potential trade\n     */\n    function calculatePriceImpact(\n        uint256 projectId,\n        uint256 tradeAmount,\n        bool isBuy\n    ) public view returns (uint256 priceImpact, uint256 newPrice) {\n        uint256 currentPrice = getCurrentPrice(projectId);\n\n        // Simulate the trade impact\n        uint256 totalSupply = companyInstance.getProjectexcAmount(projectId);\n        uint256 soldAmount = companyInstance.getEXCSold(projectId);\n\n        if (totalSupply == 0) return (0, currentPrice);\n\n        uint256 impactPercentage;\n        if (isBuy) {\n            // Buying increases price\n            impactPercentage =\n                (tradeAmount * 1000) /\n                (totalSupply - soldAmount + 1);\n        } else {\n            // Selling decreases price\n            impactPercentage = (tradeAmount * 1000) / (soldAmount + 1);\n        }\n\n        // Cap impact at 50%\n        if (impactPercentage > 500) impactPercentage = 500;\n\n        if (isBuy) {\n            newPrice = currentPrice + (currentPrice * impactPercentage) / 1000;\n        } else {\n            newPrice = currentPrice - (currentPrice * impactPercentage) / 1000;\n        }\n\n        // Ensure within bounds\n        ProjectPricing storage pricing = projectPricing[projectId];\n        if (newPrice < pricing.minPrice) newPrice = pricing.minPrice;\n        if (newPrice > pricing.maxPrice) newPrice = pricing.maxPrice;\n\n        priceImpact = newPrice > currentPrice\n            ? newPrice - currentPrice\n            : currentPrice - newPrice;\n\n        return (priceImpact, newPrice);\n    }\n\n    /**\n     * @dev Get price history for a project\n     */\n    function getPriceHistory(\n        uint256 projectId,\n        uint256 numDays\n    )\n        public\n        view\n        returns (uint256[] memory prices, uint256[] memory timestamps)\n    {\n        prices = new uint256[](numDays);\n        timestamps = new uint256[](numDays);\n\n        uint256 currentDay = block.timestamp / DAY;\n\n        for (uint256 i = 0; i < numDays; i++) {\n            uint256 day = currentDay - i;\n            prices[i] = priceHistoryDetailed[projectId][day];\n            timestamps[i] = day * DAY;\n        }\n\n        return (prices, timestamps);\n    }\n}\n",
  "sourcePath": "C:\\Users\\aliya\\Downloads\\EcoXChange\\contracts\\DynamicPricing.sol",
  "compiler": {
    "name": "solc",
    "version": "0.5.17+commit.d19bba13.Emscripten.clang"
  },
  "schemaVersion": "3.4.16",
  "updatedAt": "2025-06-23T09:15:20.590Z",
  "devdoc": {
    "details": "Advanced dynamic pricing engine for carbon credits with multiple pricing models",
    "methods": {
      "blacklistAccount(address)": {
        "details": "Add address to blacklist"
      },
      "calculateBondingCurvePrice(uint256)": {
        "details": "Calculate bonding curve price"
      },
      "calculatePriceImpact(uint256,uint256,bool)": {
        "details": "Calculate price impact for a potential trade"
      },
      "calculateQualityAdjustedPrice(uint256,uint256)": {
        "details": "Calculate quality-adjusted price"
      },
      "calculateSupplyDemandPrice(uint256)": {
        "details": "Calculate supply and demand based price"
      },
      "calculateTWAP(uint256)": {
        "details": "Calculate Time-Weighted Average Price (TWAP)"
      },
      "calculateTimeDecay(uint256)": {
        "details": "Calculate time decay factor for pricing"
      },
      "changePricingModel(uint256,uint8)": {
        "details": "Change pricing model for a project"
      },
      "constructor": {
        "details": "Constructor initializes the pricing engine"
      },
      "getCurrentPrice(uint256)": {
        "details": "Calculate current price for a project based on its pricing model"
      },
      "getMarketConditions()": {
        "details": "Get market conditions"
      },
      "getPriceHistory(uint256,uint256)": {
        "details": "Get price history for a project"
      },
      "getProjectPricingInfo(uint256)": {
        "details": "Get comprehensive pricing information for a project"
      },
      "getRoleAdmin(bytes32)": {
        "details": "Get the admin role that controls a role"
      },
      "grantRole(bytes32,address)": {
        "details": "Grant a role to an account"
      },
      "hasRole(bytes32,address)": {
        "details": "Check if an account has a specific role"
      },
      "initializeProjectPricing(uint256,uint8,uint256)": {
        "details": "Initialize pricing for a new project"
      },
      "isBlacklisted(address)": {
        "details": "Check if account is blacklisted"
      },
      "owner()": {
        "details": "Get contract owner"
      },
      "pause()": {
        "details": "Pause the contract (emergency stop)"
      },
      "paused()": {
        "details": "Check if contract is paused"
      },
      "removeFromBlacklist(address)": {
        "details": "Remove address from blacklist"
      },
      "renounceRole(bytes32,address)": {
        "details": "Renounce a role (caller renounces their own role)"
      },
      "revokeRole(bytes32,address)": {
        "details": "Revoke a role from an account"
      },
      "unpause()": {
        "details": "Unpause the contract"
      },
      "updateMarketConditions(uint256,uint256,uint256,uint256)": {
        "details": "Update market conditions (admin only)"
      },
      "updatePriceAfterTrade(uint256,uint256,bool)": {
        "details": "Update price after a trade"
      },
      "updateProjectQuality(uint256,uint256)": {
        "details": "Update project quality score"
      }
    },
    "title": "DynamicPricing"
  },
  "userdoc": {
    "methods": {},
    "notice": "This contract implements sophisticated pricing algorithms based on supply/demand, project quality, and market conditions"
  }
}