{
  "contractName": "EcoXChangeMarket",
  "abi": [
    {
      "inputs": [
        {
          "internalType": "contract Company",
          "name": "companyAddress",
          "type": "address"
        },
        {
          "internalType": "contract EcoXChangeToken",
          "name": "ecoXChangeTokenAddress",
          "type": "address"
        },
        {
          "internalType": "contract ValidatorRegistry",
          "name": "validatorRegistryAddress",
          "type": "address"
        }
      ],
      "payable": false,
      "stateMutability": "nonpayable",
      "type": "constructor"
    },
    {
      "anonymous": false,
      "inputs": [
        {
          "indexed": false,
          "internalType": "address",
          "name": "buyer",
          "type": "address"
        },
        {
          "indexed": false,
          "internalType": "uint256",
          "name": "amount",
          "type": "uint256"
        }
      ],
      "name": "BuyCredit",
      "type": "event"
    },
    {
      "anonymous": false,
      "inputs": [
        {
          "indexed": false,
          "internalType": "address",
          "name": "account",
          "type": "address"
        }
      ],
      "name": "Paused",
      "type": "event"
    },
    {
      "anonymous": false,
      "inputs": [
        {
          "indexed": false,
          "internalType": "address",
          "name": "companyAddress",
          "type": "address"
        },
        {
          "indexed": false,
          "internalType": "uint256",
          "name": "projectId",
          "type": "uint256"
        }
      ],
      "name": "Penalty",
      "type": "event"
    },
    {
      "anonymous": false,
      "inputs": [
        {
          "indexed": false,
          "internalType": "address",
          "name": "companyAddress",
          "type": "address"
        },
        {
          "indexed": false,
          "internalType": "uint256",
          "name": "projectId",
          "type": "uint256"
        },
        {
          "indexed": false,
          "internalType": "bool",
          "name": "isValid",
          "type": "bool"
        }
      ],
      "name": "ProjectValidated",
      "type": "event"
    },
    {
      "anonymous": false,
      "inputs": [
        {
          "indexed": false,
          "internalType": "address",
          "name": "seller",
          "type": "address"
        },
        {
          "indexed": false,
          "internalType": "uint256",
          "name": "amount",
          "type": "uint256"
        }
      ],
      "name": "ReturnCredits",
      "type": "event"
    },
    {
      "anonymous": false,
      "inputs": [
        {
          "indexed": true,
          "internalType": "bytes32",
          "name": "role",
          "type": "bytes32"
        },
        {
          "indexed": true,
          "internalType": "bytes32",
          "name": "previousAdminRole",
          "type": "bytes32"
        },
        {
          "indexed": true,
          "internalType": "bytes32",
          "name": "newAdminRole",
          "type": "bytes32"
        }
      ],
      "name": "RoleAdminChanged",
      "type": "event"
    },
    {
      "anonymous": false,
      "inputs": [
        {
          "indexed": true,
          "internalType": "bytes32",
          "name": "role",
          "type": "bytes32"
        },
        {
          "indexed": true,
          "internalType": "address",
          "name": "account",
          "type": "address"
        },
        {
          "indexed": true,
          "internalType": "address",
          "name": "sender",
          "type": "address"
        }
      ],
      "name": "RoleGranted",
      "type": "event"
    },
    {
      "anonymous": false,
      "inputs": [
        {
          "indexed": true,
          "internalType": "bytes32",
          "name": "role",
          "type": "bytes32"
        },
        {
          "indexed": true,
          "internalType": "address",
          "name": "account",
          "type": "address"
        },
        {
          "indexed": true,
          "internalType": "address",
          "name": "sender",
          "type": "address"
        }
      ],
      "name": "RoleRevoked",
      "type": "event"
    },
    {
      "anonymous": false,
      "inputs": [
        {
          "indexed": false,
          "internalType": "address",
          "name": "account",
          "type": "address"
        }
      ],
      "name": "Unpaused",
      "type": "event"
    },
    {
      "constant": true,
      "inputs": [],
      "name": "ADMIN_ROLE",
      "outputs": [
        {
          "internalType": "bytes32",
          "name": "",
          "type": "bytes32"
        }
      ],
      "payable": false,
      "stateMutability": "view",
      "type": "function"
    },
    {
      "constant": true,
      "inputs": [],
      "name": "COMPANY_ROLE",
      "outputs": [
        {
          "internalType": "bytes32",
          "name": "",
          "type": "bytes32"
        }
      ],
      "payable": false,
      "stateMutability": "view",
      "type": "function"
    },
    {
      "constant": true,
      "inputs": [],
      "name": "DEFAULT_ADMIN_ROLE",
      "outputs": [
        {
          "internalType": "bytes32",
          "name": "",
          "type": "bytes32"
        }
      ],
      "payable": false,
      "stateMutability": "view",
      "type": "function"
    },
    {
      "constant": true,
      "inputs": [],
      "name": "MAX_TRANSACTION_AMOUNT",
      "outputs": [
        {
          "internalType": "uint256",
          "name": "",
          "type": "uint256"
        }
      ],
      "payable": false,
      "stateMutability": "view",
      "type": "function"
    },
    {
      "constant": true,
      "inputs": [],
      "name": "MIN_TRANSACTION_AMOUNT",
      "outputs": [
        {
          "internalType": "uint256",
          "name": "",
          "type": "uint256"
        }
      ],
      "payable": false,
      "stateMutability": "view",
      "type": "function"
    },
    {
      "constant": true,
      "inputs": [],
      "name": "PAUSER_ROLE",
      "outputs": [
        {
          "internalType": "bytes32",
          "name": "",
          "type": "bytes32"
        }
      ],
      "payable": false,
      "stateMutability": "view",
      "type": "function"
    },
    {
      "constant": true,
      "inputs": [],
      "name": "STAKE_PERCENTAGE",
      "outputs": [
        {
          "internalType": "uint256",
          "name": "",
          "type": "uint256"
        }
      ],
      "payable": false,
      "stateMutability": "view",
      "type": "function"
    },
    {
      "constant": true,
      "inputs": [],
      "name": "VALIDATOR_ROLE",
      "outputs": [
        {
          "internalType": "bytes32",
          "name": "",
          "type": "bytes32"
        }
      ],
      "payable": false,
      "stateMutability": "view",
      "type": "function"
    },
    {
      "constant": false,
      "inputs": [
        {
          "internalType": "address",
          "name": "account",
          "type": "address"
        }
      ],
      "name": "blacklistAccount",
      "outputs": [],
      "payable": false,
      "stateMutability": "nonpayable",
      "type": "function"
    },
    {
      "constant": true,
      "inputs": [
        {
          "internalType": "address",
          "name": "",
          "type": "address"
        },
        {
          "internalType": "uint256",
          "name": "",
          "type": "uint256"
        }
      ],
      "name": "companyProjects",
      "outputs": [
        {
          "internalType": "uint256",
          "name": "",
          "type": "uint256"
        }
      ],
      "payable": false,
      "stateMutability": "view",
      "type": "function"
    },
    {
      "constant": true,
      "inputs": [
        {
          "internalType": "bytes32",
          "name": "role",
          "type": "bytes32"
        }
      ],
      "name": "getRoleAdmin",
      "outputs": [
        {
          "internalType": "bytes32",
          "name": "",
          "type": "bytes32"
        }
      ],
      "payable": false,
      "stateMutability": "view",
      "type": "function"
    },
    {
      "constant": false,
      "inputs": [
        {
          "internalType": "bytes32",
          "name": "role",
          "type": "bytes32"
        },
        {
          "internalType": "address",
          "name": "account",
          "type": "address"
        }
      ],
      "name": "grantRole",
      "outputs": [],
      "payable": false,
      "stateMutability": "nonpayable",
      "type": "function"
    },
    {
      "constant": true,
      "inputs": [
        {
          "internalType": "bytes32",
          "name": "role",
          "type": "bytes32"
        },
        {
          "internalType": "address",
          "name": "account",
          "type": "address"
        }
      ],
      "name": "hasRole",
      "outputs": [
        {
          "internalType": "bool",
          "name": "",
          "type": "bool"
        }
      ],
      "payable": false,
      "stateMutability": "view",
      "type": "function"
    },
    {
      "constant": true,
      "inputs": [
        {
          "internalType": "address",
          "name": "account",
          "type": "address"
        }
      ],
      "name": "isBlacklisted",
      "outputs": [
        {
          "internalType": "bool",
          "name": "",
          "type": "bool"
        }
      ],
      "payable": false,
      "stateMutability": "view",
      "type": "function"
    },
    {
      "constant": true,
      "inputs": [
        {
          "internalType": "address",
          "name": "",
          "type": "address"
        }
      ],
      "name": "isSeller",
      "outputs": [
        {
          "internalType": "bool",
          "name": "",
          "type": "bool"
        }
      ],
      "payable": false,
      "stateMutability": "view",
      "type": "function"
    },
    {
      "constant": true,
      "inputs": [],
      "name": "owner",
      "outputs": [
        {
          "internalType": "address",
          "name": "",
          "type": "address"
        }
      ],
      "payable": false,
      "stateMutability": "view",
      "type": "function"
    },
    {
      "constant": false,
      "inputs": [],
      "name": "pause",
      "outputs": [],
      "payable": false,
      "stateMutability": "nonpayable",
      "type": "function"
    },
    {
      "constant": true,
      "inputs": [],
      "name": "paused",
      "outputs": [
        {
          "internalType": "bool",
          "name": "",
          "type": "bool"
        }
      ],
      "payable": false,
      "stateMutability": "view",
      "type": "function"
    },
    {
      "constant": true,
      "inputs": [
        {
          "internalType": "uint256",
          "name": "",
          "type": "uint256"
        },
        {
          "internalType": "uint256",
          "name": "",
          "type": "uint256"
        }
      ],
      "name": "projectBuyers",
      "outputs": [
        {
          "internalType": "address",
          "name": "",
          "type": "address"
        }
      ],
      "payable": false,
      "stateMutability": "view",
      "type": "function"
    },
    {
      "constant": true,
      "inputs": [
        {
          "internalType": "uint256",
          "name": "",
          "type": "uint256"
        }
      ],
      "name": "projectCreationTime",
      "outputs": [
        {
          "internalType": "uint256",
          "name": "",
          "type": "uint256"
        }
      ],
      "payable": false,
      "stateMutability": "view",
      "type": "function"
    },
    {
      "constant": true,
      "inputs": [
        {
          "internalType": "address",
          "name": "",
          "type": "address"
        },
        {
          "internalType": "uint256",
          "name": "",
          "type": "uint256"
        }
      ],
      "name": "projectStakes",
      "outputs": [
        {
          "internalType": "uint256",
          "name": "",
          "type": "uint256"
        }
      ],
      "payable": false,
      "stateMutability": "view",
      "type": "function"
    },
    {
      "constant": true,
      "inputs": [
        {
          "internalType": "uint256",
          "name": "",
          "type": "uint256"
        }
      ],
      "name": "projectValidated",
      "outputs": [
        {
          "internalType": "bool",
          "name": "",
          "type": "bool"
        }
      ],
      "payable": false,
      "stateMutability": "view",
      "type": "function"
    },
    {
      "constant": true,
      "inputs": [
        {
          "internalType": "address",
          "name": "",
          "type": "address"
        },
        {
          "internalType": "uint256",
          "name": "",
          "type": "uint256"
        }
      ],
      "name": "relisted",
      "outputs": [
        {
          "internalType": "uint256",
          "name": "",
          "type": "uint256"
        }
      ],
      "payable": false,
      "stateMutability": "view",
      "type": "function"
    },
    {
      "constant": false,
      "inputs": [
        {
          "internalType": "address",
          "name": "account",
          "type": "address"
        }
      ],
      "name": "removeFromBlacklist",
      "outputs": [],
      "payable": false,
      "stateMutability": "nonpayable",
      "type": "function"
    },
    {
      "constant": false,
      "inputs": [
        {
          "internalType": "bytes32",
          "name": "role",
          "type": "bytes32"
        },
        {
          "internalType": "address",
          "name": "account",
          "type": "address"
        }
      ],
      "name": "renounceRole",
      "outputs": [],
      "payable": false,
      "stateMutability": "nonpayable",
      "type": "function"
    },
    {
      "constant": false,
      "inputs": [
        {
          "internalType": "bytes32",
          "name": "role",
          "type": "bytes32"
        },
        {
          "internalType": "address",
          "name": "account",
          "type": "address"
        }
      ],
      "name": "revokeRole",
      "outputs": [],
      "payable": false,
      "stateMutability": "nonpayable",
      "type": "function"
    },
    {
      "constant": false,
      "inputs": [],
      "name": "unpause",
      "outputs": [],
      "payable": false,
      "stateMutability": "nonpayable",
      "type": "function"
    },
    {
      "constant": true,
      "inputs": [
        {
          "internalType": "address",
          "name": "",
          "type": "address"
        }
      ],
      "name": "userTransactionCount",
      "outputs": [
        {
          "internalType": "uint256",
          "name": "",
          "type": "uint256"
        }
      ],
      "payable": false,
      "stateMutability": "view",
      "type": "function"
    },
    {
      "constant": false,
      "inputs": [
        {
          "internalType": "address payable",
          "name": "companyAddress",
          "type": "address"
        },
        {
          "internalType": "uint256",
          "name": "amount",
          "type": "uint256"
        }
      ],
      "name": "withdrawEther",
      "outputs": [],
      "payable": false,
      "stateMutability": "nonpayable",
      "type": "function"
    },
    {
      "constant": true,
      "inputs": [
        {
          "internalType": "uint256",
          "name": "_excAmount",
          "type": "uint256"
        },
        {
          "internalType": "uint256",
          "name": "etherAmount",
          "type": "uint256"
        }
      ],
      "name": "checkSufficientStake",
      "outputs": [
        {
          "internalType": "bool",
          "name": "",
          "type": "bool"
        }
      ],
      "payable": false,
      "stateMutability": "pure",
      "type": "function"
    },
    {
      "constant": false,
      "inputs": [
        {
          "internalType": "address payable",
          "name": "companyAddress",
          "type": "address"
        },
        {
          "internalType": "uint256",
          "name": "projectId",
          "type": "uint256"
        },
        {
          "internalType": "bool",
          "name": "isValid",
          "type": "bool"
        },
        {
          "internalType": "uint256",
          "name": "actualEXC",
          "type": "uint256"
        }
      ],
      "name": "validateProject",
      "outputs": [],
      "payable": false,
      "stateMutability": "nonpayable",
      "type": "function"
    },
    {
      "constant": false,
      "inputs": [
        {
          "internalType": "uint256",
          "name": "_excAmount",
          "type": "uint256"
        },
        {
          "internalType": "uint256",
          "name": "projectId",
          "type": "uint256"
        }
      ],
      "name": "sell",
      "outputs": [],
      "payable": true,
      "stateMutability": "payable",
      "type": "function"
    },
    {
      "constant": false,
      "inputs": [
        {
          "internalType": "uint256",
          "name": "_excAmount",
          "type": "uint256"
        },
        {
          "internalType": "address payable",
          "name": "companyAddress",
          "type": "address"
        },
        {
          "internalType": "uint256",
          "name": "projectId",
          "type": "uint256"
        }
      ],
      "name": "buy",
      "outputs": [],
      "payable": true,
      "stateMutability": "payable",
      "type": "function"
    },
    {
      "constant": true,
      "inputs": [
        {
          "internalType": "uint256",
          "name": "projectId",
          "type": "uint256"
        }
      ],
      "name": "getProjectBuyers",
      "outputs": [
        {
          "internalType": "address[]",
          "name": "",
          "type": "address[]"
        }
      ],
      "payable": false,
      "stateMutability": "view",
      "type": "function"
    }
  ],
  "bytecode": "0x608060405260006008553480156200001657600080fd5b5060405162005a8338038062005a83833981810160405260608110156200003c57600080fd5b8101908080519060200190929190805190602001909291908051906020019092919050505033600360016101000a81548173ffffffffffffffffffffffffffffffffffffffff021916908373ffffffffffffffffffffffffffffffffffffffff1602179055506000600360006101000a81548160ff0219169083151502179055506001600481905550620000da6000801b33620003c060201b60201c565b6200012160405180807f41444d494e5f524f4c4500000000000000000000000000000000000000000000815250600a019050604051809103902033620003c060201b60201c565b6200016860405180807f5041555345525f524f4c45000000000000000000000000000000000000000000815250600b019050604051809103902033620003c060201b60201c565b620001b260405180807f41444d494e5f524f4c4500000000000000000000000000000000000000000000815250600a01905060405180910390206000801b6200049f60201b60201c565b6200022e60405180807f56414c494441544f525f524f4c45000000000000000000000000000000000000815250600e019050604051809103902060405180807f41444d494e5f524f4c4500000000000000000000000000000000000000000000815250600a01905060405180910390206200049f60201b60201c565b620002aa60405180807f434f4d50414e595f524f4c450000000000000000000000000000000000000000815250600c019050604051809103902060405180807f41444d494e5f524f4c4500000000000000000000000000000000000000000000815250600a01905060405180910390206200049f60201b60201c565b620002f460405180807f5041555345525f524f4c45000000000000000000000000000000000000000000815250600b01905060405180910390206000801b6200049f60201b60201c565b81600560006101000a81548173ffffffffffffffffffffffffffffffffffffffff021916908373ffffffffffffffffffffffffffffffffffffffff16021790555080600660006101000a81548173ffffffffffffffffffffffffffffffffffffffff021916908373ffffffffffffffffffffffffffffffffffffffff16021790555082600760006101000a81548173ffffffffffffffffffffffffffffffffffffffff021916908373ffffffffffffffffffffffffffffffffffffffff16021790555050505062000584565b620003d282826200050060201b60201c565b6200049b57600160008084815260200190815260200160002060008373ffffffffffffffffffffffffffffffffffffffff1673ffffffffffffffffffffffffffffffffffffffff16815260200190815260200160002060006101000a81548160ff0219169083151502179055503373ffffffffffffffffffffffffffffffffffffffff168173ffffffffffffffffffffffffffffffffffffffff16837f2f8788117e7eff1d82e926ec794901d17c78024a50270940304540a733656f0d60405160405180910390a45b5050565b6000620004b2836200056760201b60201c565b90508160016000858152602001908152602001600020819055508181847fbd79b86ffe0ab8e8776151514217cd7cacd52c909f66475c3af44e129f0b00ff60405160405180910390a4505050565b600080600084815260200190815260200160002060008373ffffffffffffffffffffffffffffffffffffffff1673ffffffffffffffffffffffffffffffffffffffff16815260200190815260200160002060009054906101000a900460ff16905092915050565b600060016000838152602001908152602001600020549050919050565b6154ef80620005946000396000f3fe6080604052600436106101f95760003560e01c80638da5cb5b1161010d578063d37b34d7116100a0578063e63ab1e91161006f578063e63ab1e914610adc578063ee95feaf14610b07578063f785bd5a14610b70578063f896c48d14610bdf578063fe575a8714610c0a576101f9565b8063d37b34d71461099b578063d547741f146109ec578063d79875eb14610a47578063df4d761f14610a7f576101f9565b8063a2e07be0116100dc578063a2e07be014610885578063ac59c459146108b0578063c49baebe146108ff578063d2394c131461092a576101f9565b80638da5cb5b1461076557806391d14854146107bc57806392cc47601461082f578063a217fddf1461085a576101f9565b80633f4ba83a11610190578063537df3b61161015f578063537df3b6146106505780635c975abb146106a157806361de16c4146106d057806375b238fc146107235780638456cb591461074e576101f9565b80633f4ba83a146104df57806341dd5290146104f65780634a4f1da114610586578063522f6815146105f5576101f9565b8063248a9ca3116101cc578063248a9ca3146103825780632afaca20146103d15780632f2ff15d1461042957806336568abe14610484576101f9565b80630b6b90a9146101fe57806315ae40b8146102835780631c9ee11a146102e85780632287637614610313575b600080fd5b34801561020a57600080fd5b506102416004803603604081101561022157600080fd5b810190808035906020019092919080359060200190929190505050610c73565b604051808273ffffffffffffffffffffffffffffffffffffffff1673ffffffffffffffffffffffffffffffffffffffff16815260200191505060405180910390f35b34801561028f57600080fd5b506102d2600480360360208110156102a657600080fd5b81019080803573ffffffffffffffffffffffffffffffffffffffff169060200190929190505050610cbe565b6040518082815260200191505060405180910390f35b3480156102f457600080fd5b506102fd610cd6565b6040518082815260200191505060405180910390f35b34801561031f57600080fd5b5061036c6004803603604081101561033657600080fd5b81019080803573ffffffffffffffffffffffffffffffffffffffff16906020019092919080359060200190929190505050610d0f565b6040518082815260200191505060405180910390f35b34801561038e57600080fd5b506103bb600480360360208110156103a557600080fd5b8101908080359060200190929190505050610d3d565b6040518082815260200191505060405180910390f35b610427600480360360608110156103e757600080fd5b8101908080359060200190929190803573ffffffffffffffffffffffffffffffffffffffff16906020019092919080359060200190929190505050610d5a565b005b34801561043557600080fd5b506104826004803603604081101561044c57600080fd5b8101908080359060200190929190803573ffffffffffffffffffffffffffffffffffffffff169060200190929190505050611945565b005b34801561049057600080fd5b506104dd600480360360408110156104a757600080fd5b8101908080359060200190929190803573ffffffffffffffffffffffffffffffffffffffff169060200190929190505050611b06565b005b3480156104eb57600080fd5b506104f4611b98565b005b34801561050257600080fd5b5061052f6004803603602081101561051957600080fd5b8101908080359060200190929190505050611d13565b6040518080602001828103825283818151815260200191508051906020019060200280838360005b83811015610572578082015181840152602081019050610557565b505050509050019250505060405180910390f35b34801561059257600080fd5b506105df600480360360408110156105a957600080fd5b81019080803573ffffffffffffffffffffffffffffffffffffffff16906020019092919080359060200190929190505050611db4565b6040518082815260200191505060405180910390f35b34801561060157600080fd5b5061064e6004803603604081101561061857600080fd5b81019080803573ffffffffffffffffffffffffffffffffffffffff16906020019092919080359060200190929190505050611dd9565b005b34801561065c57600080fd5b5061069f6004803603602081101561067357600080fd5b81019080803573ffffffffffffffffffffffffffffffffffffffff16906020019092919050505061216a565b005b3480156106ad57600080fd5b506106b66123a2565b604051808215151515815260200191505060405180910390f35b3480156106dc57600080fd5b50610709600480360360208110156106f357600080fd5b81019080803590602001909291905050506123b9565b604051808215151515815260200191505060405180910390f35b34801561072f57600080fd5b506107386123d9565b6040518082815260200191505060405180910390f35b34801561075a57600080fd5b50610763612412565b005b34801561077157600080fd5b5061077a61258e565b604051808273ffffffffffffffffffffffffffffffffffffffff1673ffffffffffffffffffffffffffffffffffffffff16815260200191505060405180910390f35b3480156107c857600080fd5b50610815600480360360408110156107df57600080fd5b8101908080359060200190929190803573ffffffffffffffffffffffffffffffffffffffff1690602001909291905050506125b8565b604051808215151515815260200191505060405180910390f35b34801561083b57600080fd5b5061084461261f565b6040518082815260200191505060405180910390f35b34801561086657600080fd5b5061086f612624565b6040518082815260200191505060405180910390f35b34801561089157600080fd5b5061089a61262b565b6040518082815260200191505060405180910390f35b3480156108bc57600080fd5b506108e9600480360360208110156108d357600080fd5b8101908080359060200190929190505050612630565b6040518082815260200191505060405180910390f35b34801561090b57600080fd5b50610914612648565b6040518082815260200191505060405180910390f35b34801561093657600080fd5b506109996004803603608081101561094d57600080fd5b81019080803573ffffffffffffffffffffffffffffffffffffffff1690602001909291908035906020019092919080351515906020019092919080359060200190929190505050612681565b005b3480156109a757600080fd5b506109ea600480360360208110156109be57600080fd5b81019080803573ffffffffffffffffffffffffffffffffffffffff1690602001909291905050506134b6565b005b3480156109f857600080fd5b50610a4560048036036040811015610a0f57600080fd5b8101908080359060200190929190803573ffffffffffffffffffffffffffffffffffffffff16906020019092919050505061376d565b005b610a7d60048036036040811015610a5d57600080fd5b810190808035906020019092919080359060200190929190505050613889565b005b348015610a8b57600080fd5b50610ac260048036036040811015610aa257600080fd5b8101908080359060200190929190803590602001909291905050506145c5565b604051808215151515815260200191505060405180910390f35b348015610ae857600080fd5b50610af16145e5565b6040518082815260200191505060405180910390f35b348015610b1357600080fd5b50610b5660048036036020811015610b2a57600080fd5b81019080803573ffffffffffffffffffffffffffffffffffffffff16906020019092919050505061461e565b604051808215151515815260200191505060405180910390f35b348015610b7c57600080fd5b50610bc960048036036040811015610b9357600080fd5b81019080803573ffffffffffffffffffffffffffffffffffffffff1690602001909291908035906020019092919050505061463e565b6040518082815260200191505060405180910390f35b348015610beb57600080fd5b50610bf4614663565b6040518082815260200191505060405180910390f35b348015610c1657600080fd5b50610c5960048036036020811015610c2d57600080fd5b81019080803573ffffffffffffffffffffffffffffffffffffffff169060200190929190505050614669565b604051808215151515815260200191505060405180910390f35b600b6020528160005260406000208181548110610c8c57fe5b906000526020600020016000915091509054906101000a900473ffffffffffffffffffffffffffffffffffffffff1681565b600f6020528060005260406000206000915090505481565b60405180807f434f4d50414e595f524f4c450000000000000000000000000000000000000000815250600c019050604051809103902081565b600a6020528160005260406000208181548110610d2857fe5b90600052602060002001600091509150505481565b600060016000838152602001908152602001600020549050919050565b600360009054906101000a900460ff1615610dc0576040517f08c379a00000000000000000000000000000000000000000000000000000000081526004018080602001828103825260218152602001806152ef6021913960400191505060405180910390fd5b33600260008273ffffffffffffffffffffffffffffffffffffffff1673ffffffffffffffffffffffffffffffffffffffff16815260200190815260200160002060009054906101000a900460ff1615610e64576040517f08c379a00000000000000000000000000000000000000000000000000000000081526004018080602001828103825260258152602001806153e76025913960400191505060405180910390fd5b82600073ffffffffffffffffffffffffffffffffffffffff168173ffffffffffffffffffffffffffffffffffffffff161415610f08576040517f08c379a000000000000000000000000000000000000000000000000000000000815260040180806020018281038252601e8152602001807f416363657373436f6e74726f6c3a20696e76616c69642061646472657373000081525060200191505060405180910390fd5b8460018110158015610f1c57506127108111155b610f71576040517f08c379a000000000000000000000000000000000000000000000000000000000815260040180806020018281038252603281526020018061525c6032913960400191505060405180910390fd5b60026004541415610fea576040517f08c379a000000000000000000000000000000000000000000000000000000000815260040180806020018281038252601d8152602001807f416363657373436f6e74726f6c3a207265656e7472616e742063616c6c00000081525060200191505060405180910390fd5b6002600481905550670de0b6b3a764000086023414611054576040517f08c379a00000000000000000000000000000000000000000000000000000000081526004018080602001828103825260288152602001806151c56028913960400191505060405180910390fd5b600760009054906101000a900473ffffffffffffffffffffffffffffffffffffffff1673ffffffffffffffffffffffffffffffffffffffff166391d14854600760009054906101000a900473ffffffffffffffffffffffffffffffffffffffff1673ffffffffffffffffffffffffffffffffffffffff16631c9ee11a6040518163ffffffff1660e01b815260040160206040518083038186803b1580156110fa57600080fd5b505afa15801561110e573d6000803e3d6000fd5b505050506040513d602081101561112457600080fd5b8101908080519060200190929190505050876040518363ffffffff1660e01b8152600401808381526020018273ffffffffffffffffffffffffffffffffffffffff1673ffffffffffffffffffffffffffffffffffffffff1681526020019250505060206040518083038186803b15801561119d57600080fd5b505afa1580156111b1573d6000803e3d6000fd5b505050506040513d60208110156111c757600080fd5b810190808051906020019092919050505061122d576040517f08c379a000000000000000000000000000000000000000000000000000000000815260040180806020018281038252603c815260200180615220603c913960400191505060405180910390fd5b600760009054906101000a900473ffffffffffffffffffffffffffffffffffffffff1673ffffffffffffffffffffffffffffffffffffffff1663ef5e10088686896040518463ffffffff1660e01b8152600401808473ffffffffffffffffffffffffffffffffffffffff1673ffffffffffffffffffffffffffffffffffffffff168152602001838152602001828152602001935050505060206040518083038186803b1580156112dc57600080fd5b505afa1580156112f0573d6000803e3d6000fd5b505050506040513d602081101561130657600080fd5b810190808051906020019092919050505061136c576040517f08c379a00000000000000000000000000000000000000000000000000000000081526004018080602001828103825260228152602001806151a36022913960400191505060405180910390fd5b600760009054906101000a900473ffffffffffffffffffffffffffffffffffffffff1673ffffffffffffffffffffffffffffffffffffffff166313732f478686896040518463ffffffff1660e01b8152600401808473ffffffffffffffffffffffffffffffffffffffff1673ffffffffffffffffffffffffffffffffffffffff1681526020018381526020018281526020019350505050600060405180830381600087803b15801561141d57600080fd5b505af1158015611431573d6000803e3d6000fd5b5050505060018081111561144157fe5b600760009054906101000a900473ffffffffffffffffffffffffffffffffffffffff1673ffffffffffffffffffffffffffffffffffffffff1663e0155714866040518263ffffffff1660e01b81526004018082815260200191505060206040518083038186803b1580156114b457600080fd5b505afa1580156114c8573d6000803e3d6000fd5b505050506040513d60208110156114de57600080fd5b810190808051906020019092919050505060018111156114fa57fe5b141561174157600d60008673ffffffffffffffffffffffffffffffffffffffff1673ffffffffffffffffffffffffffffffffffffffff1681526020019081526020016000206000858152602001908152602001600020548611156115c6576040517f08c379a00000000000000000000000000000000000000000000000000000000081526004018080602001828103825260178152602001807f496e73756666756369656e742045584320746f2062757900000000000000000081525060200191505060405180910390fd5b8560086000828254039250508190555085600d60008773ffffffffffffffffffffffffffffffffffffffff1673ffffffffffffffffffffffffffffffffffffffff168152602001908152602001600020600086815260200190815260200160002060008282540392505081905550600560009054906101000a900473ffffffffffffffffffffffffffffffffffffffff1673ffffffffffffffffffffffffffffffffffffffff1663e3491a6c33886040518363ffffffff1660e01b8152600401808373ffffffffffffffffffffffffffffffffffffffff1673ffffffffffffffffffffffffffffffffffffffff16815260200182815260200192505050600060405180830381600087803b1580156116dd57600080fd5b505af11580156116f1573d6000803e3d6000fd5b505050508473ffffffffffffffffffffffffffffffffffffffff166108fc349081150290604051600060405180830381858888f1935050505015801561173b573d6000803e3d6000fd5b506118ca565b85600c60003373ffffffffffffffffffffffffffffffffffffffff1673ffffffffffffffffffffffffffffffffffffffff1681526020019081526020016000206000868152602001908152602001600020600082825401925050819055506000600b60008681526020019081526020016000209050600080905060008090505b8280549050811015611849573373ffffffffffffffffffffffffffffffffffffffff168382815481106117f057fe5b9060005260206000200160009054906101000a900473ffffffffffffffffffffffffffffffffffffffff1673ffffffffffffffffffffffffffffffffffffffff16141561183c57600191505b80806001019150506117c1565b50806118c757600b60008781526020019081526020016000203390806001815401808255809150509060018203906000526020600020016000909192909190916101000a81548173ffffffffffffffffffffffffffffffffffffffff021916908373ffffffffffffffffffffffffffffffffffffffff160217905550505b50505b7f62bc306e27ea992b4fe17bf6ae7d2618241afa1a5cc4dd29590e0613dc77f47e3387604051808373ffffffffffffffffffffffffffffffffffffffff1673ffffffffffffffffffffffffffffffffffffffff1681526020018281526020019250505060405180910390a16001600481905550505050505050565b61194e82610d3d565b61195881336125b8565b6119ad576040517f08c379a00000000000000000000000000000000000000000000000000000000081526004018080602001828103825260318152602001806154366031913960400191505060405180910390fd5b81600073ffffffffffffffffffffffffffffffffffffffff168173ffffffffffffffffffffffffffffffffffffffff161415611a51576040517f08c379a000000000000000000000000000000000000000000000000000000000815260040180806020018281038252601e8152602001807f416363657373436f6e74726f6c3a20696e76616c69642061646472657373000081525060200191505060405180910390fd5b82600260008273ffffffffffffffffffffffffffffffffffffffff1673ffffffffffffffffffffffffffffffffffffffff16815260200190815260200160002060009054906101000a900460ff1615611af5576040517f08c379a00000000000000000000000000000000000000000000000000000000081526004018080602001828103825260258152602001806153e76025913960400191505060405180910390fd5b611aff85856146bf565b5050505050565b3373ffffffffffffffffffffffffffffffffffffffff168173ffffffffffffffffffffffffffffffffffffffff1614611b8a576040517f08c379a000000000000000000000000000000000000000000000000000000000815260040180806020018281038252602f815260200180615467602f913960400191505060405180910390fd5b611b948282614795565b5050565b60405180807f5041555345525f524f4c45000000000000000000000000000000000000000000815250600b0190506040518091039020611bd881336125b8565b611c2d576040517f08c379a00000000000000000000000000000000000000000000000000000000081526004018080602001828103825260318152602001806154366031913960400191505060405180910390fd5b600360009054906101000a900460ff16611c92576040517f08c379a00000000000000000000000000000000000000000000000000000000081526004018080602001828103825260258152602001806154966025913960400191505060405180910390fd5b6000600360006101000a81548160ff0219169083151502179055507f5db9ee0a495bf2e6ff9c91a7834c1ba4fdd244a5e8aa4e537bd38aeae4b073aa33604051808273ffffffffffffffffffffffffffffffffffffffff1673ffffffffffffffffffffffffffffffffffffffff16815260200191505060405180910390a150565b6060600b6000838152602001908152602001600020805480602002602001604051908101604052809291908181526020018280548015611da857602002820191906000526020600020905b8160009054906101000a900473ffffffffffffffffffffffffffffffffffffffff1673ffffffffffffffffffffffffffffffffffffffff1681526020019060010190808311611d5e575b50505050509050919050565b600c602052816000526040600020602052806000526040600020600091509150505481565b600660009054906101000a900473ffffffffffffffffffffffffffffffffffffffff1673ffffffffffffffffffffffffffffffffffffffff1663facd743b336040518263ffffffff1660e01b8152600401808273ffffffffffffffffffffffffffffffffffffffff1673ffffffffffffffffffffffffffffffffffffffff16815260200191505060206040518083038186803b158015611e7857600080fd5b505afa158015611e8c573d6000803e3d6000fd5b505050506040513d6020811015611ea257600080fd5b8101908080519060200190929190505050611f08576040517f08c379a00000000000000000000000000000000000000000000000000000000081526004018080602001828103825260338152602001806151ed6033913960400191505060405180910390fd5b611f4760405180807f56414c494441544f525f524f4c45000000000000000000000000000000000000815250600e0190506040518091039020336125b8565b611f9c576040517f08c379a000000000000000000000000000000000000000000000000000000000815260040180806020018281038252603581526020018061528e6035913960400191505060405180910390fd5b81600073ffffffffffffffffffffffffffffffffffffffff168173ffffffffffffffffffffffffffffffffffffffff161415612040576040517f08c379a000000000000000000000000000000000000000000000000000000000815260040180806020018281038252601e8152602001807f416363657373436f6e74726f6c3a20696e76616c69642061646472657373000081525060200191505060405180910390fd5b816000811161209a576040517f08c379a000000000000000000000000000000000000000000000000000000000815260040180806020018281038252602f8152602001806153b8602f913960400191505060405180910390fd5b47831115612110576040517f08c379a000000000000000000000000000000000000000000000000000000000815260040180806020018281038252601d8152602001807f496e73756666696369656e7420636f6e74726163742062616c616e636500000081525060200191505060405180910390fd5b670de0b6b3a7640000830292508373ffffffffffffffffffffffffffffffffffffffff166108fc849081150290604051600060405180830381858888f19350505050158015612163573d6000803e3d6000fd5b5050505050565b60405180807f41444d494e5f524f4c4500000000000000000000000000000000000000000000815250600a01905060405180910390206121aa81336125b8565b6121ff576040517f08c379a00000000000000000000000000000000000000000000000000000000081526004018080602001828103825260318152602001806154366031913960400191505060405180910390fd5b81600073ffffffffffffffffffffffffffffffffffffffff168173ffffffffffffffffffffffffffffffffffffffff1614156122a3576040517f08c379a000000000000000000000000000000000000000000000000000000000815260040180806020018281038252601e8152602001807f416363657373436f6e74726f6c3a20696e76616c69642061646472657373000081525060200191505060405180910390fd5b600260008473ffffffffffffffffffffffffffffffffffffffff1673ffffffffffffffffffffffffffffffffffffffff16815260200190815260200160002060009054906101000a900460ff16612345576040517f08c379a00000000000000000000000000000000000000000000000000000000081526004018080602001828103825260268152602001806153106026913960400191505060405180910390fd5b6000600260008573ffffffffffffffffffffffffffffffffffffffff1673ffffffffffffffffffffffffffffffffffffffff16815260200190815260200160002060006101000a81548160ff021916908315150217905550505050565b6000600360009054906101000a900460ff16905090565b600e6020528060005260406000206000915054906101000a900460ff1681565b60405180807f41444d494e5f524f4c4500000000000000000000000000000000000000000000815250600a019050604051809103902081565b60405180807f5041555345525f524f4c45000000000000000000000000000000000000000000815250600b019050604051809103902061245281336125b8565b6124a7576040517f08c379a00000000000000000000000000000000000000000000000000000000081526004018080602001828103825260318152602001806154366031913960400191505060405180910390fd5b600360009054906101000a900460ff161561250d576040517f08c379a00000000000000000000000000000000000000000000000000000000081526004018080602001828103825260218152602001806152ef6021913960400191505060405180910390fd5b6001600360006101000a81548160ff0219169083151502179055507f62e78cea01bee320cd4e420270b5ea74000d11b0c9f74754ebdbfc544b05a25833604051808273ffffffffffffffffffffffffffffffffffffffff1673ffffffffffffffffffffffffffffffffffffffff16815260200191505060405180910390a150565b6000600360019054906101000a900473ffffffffffffffffffffffffffffffffffffffff16905090565b600080600084815260200190815260200160002060008373ffffffffffffffffffffffffffffffffffffffff1673ffffffffffffffffffffffffffffffffffffffff16815260200190815260200160002060009054906101000a900460ff16905092915050565b608281565b6000801b81565b600181565b60106020528060005260406000206000915090505481565b60405180807f56414c494441544f525f524f4c45000000000000000000000000000000000000815250600e019050604051809103902081565b600660009054906101000a900473ffffffffffffffffffffffffffffffffffffffff1673ffffffffffffffffffffffffffffffffffffffff1663facd743b336040518263ffffffff1660e01b8152600401808273ffffffffffffffffffffffffffffffffffffffff1673ffffffffffffffffffffffffffffffffffffffff16815260200191505060206040518083038186803b15801561272057600080fd5b505afa158015612734573d6000803e3d6000fd5b505050506040513d602081101561274a57600080fd5b81019080805190602001909291905050506127b0576040517f08c379a00000000000000000000000000000000000000000000000000000000081526004018080602001828103825260338152602001806151ed6033913960400191505060405180910390fd5b6127ef60405180807f56414c494441544f525f524f4c45000000000000000000000000000000000000815250600e0190506040518091039020336125b8565b612844576040517f08c379a000000000000000000000000000000000000000000000000000000000815260040180806020018281038252603581526020018061528e6035913960400191505060405180910390fd5b600360009054906101000a900460ff16156128aa576040517f08c379a00000000000000000000000000000000000000000000000000000000081526004018080602001828103825260218152602001806152ef6021913960400191505060405180910390fd5b83600073ffffffffffffffffffffffffffffffffffffffff168173ffffffffffffffffffffffffffffffffffffffff16141561294e576040517f08c379a000000000000000000000000000000000000000000000000000000000815260040180806020018281038252601e8152602001807f416363657373436f6e74726f6c3a20696e76616c69642061646472657373000081525060200191505060405180910390fd5b83600760009054906101000a900473ffffffffffffffffffffffffffffffffffffffff1673ffffffffffffffffffffffffffffffffffffffff16635a067baa6040518163ffffffff1660e01b815260040160206040518083038186803b1580156129b757600080fd5b505afa1580156129cb573d6000803e3d6000fd5b505050506040513d60208110156129e157600080fd5b81019080805190602001909291905050508110612a49576040517f08c379a00000000000000000000000000000000000000000000000000000000081526004018080602001828103825260288152602001806153656028913960400191505060405180910390fd5b600180811115612a5557fe5b600760009054906101000a900473ffffffffffffffffffffffffffffffffffffffff1673ffffffffffffffffffffffffffffffffffffffff1663e0155714836040518263ffffffff1660e01b81526004018082815260200191505060206040518083038186803b158015612ac857600080fd5b505afa158015612adc573d6000803e3d6000fd5b505050506040513d6020811015612af257600080fd5b81019080805190602001909291905050506001811115612b0e57fe5b1415612b65576040517f08c379a000000000000000000000000000000000000000000000000000000000815260040180806020018281038252602b81526020018061538d602b913960400191505060405180910390fd5b8260008111612bbf576040517f08c379a000000000000000000000000000000000000000000000000000000000815260040180806020018281038252602f8152602001806153b8602f913960400191505060405180910390fd5b60026004541415612c38576040517f08c379a000000000000000000000000000000000000000000000000000000000815260040180806020018281038252601d8152602001807f416363657373436f6e74726f6c3a207265656e7472616e742063616c6c00000081525060200191505060405180910390fd5b6002600481905550600180811115612c4c57fe5b600760009054906101000a900473ffffffffffffffffffffffffffffffffffffffff1673ffffffffffffffffffffffffffffffffffffffff1663e0155714886040518263ffffffff1660e01b81526004018082815260200191505060206040518083038186803b158015612cbf57600080fd5b505afa158015612cd3573d6000803e3d6000fd5b505050506040513d6020811015612ce957600080fd5b81019080805190602001909291905050506001811115612d0557fe5b1415612d5c576040517f08c379a000000000000000000000000000000000000000000000000000000000815260040180806020018281038252602c8152602001806152c3602c913960400191505060405180910390fd5b600760009054906101000a900473ffffffffffffffffffffffffffffffffffffffff1673ffffffffffffffffffffffffffffffffffffffff1663dd8c9c9f876040518263ffffffff1660e01b815260040180828152602001915050600060405180830381600087803b158015612dd157600080fd5b505af1158015612de5573d6000803e3d6000fd5b505050507f99c9063f4fc4a080eac1f1de08fe0c36d9a5ee798519dc7a33c2461d407d2dc8878787604051808473ffffffffffffffffffffffffffffffffffffffff1673ffffffffffffffffffffffffffffffffffffffff16815260200183815260200182151515158152602001935050505060405180910390a184612e7557612e7087878661486c565b613379565b6000600b6000888152602001908152602001600020905060008090505b8180549050811015613078576000828281548110612eac57fe5b9060005260206000200160009054906101000a900473ffffffffffffffffffffffffffffffffffffffff1690506000600c60008373ffffffffffffffffffffffffffffffffffffffff1673ffffffffffffffffffffffffffffffffffffffff16815260200190815260200160002060008b8152602001908152602001600020549050600560009054906101000a900473ffffffffffffffffffffffffffffffffffffffff1673ffffffffffffffffffffffffffffffffffffffff1663b73cacc583836040518363ffffffff1660e01b8152600401808373ffffffffffffffffffffffffffffffffffffffff1673ffffffffffffffffffffffffffffffffffffffff16815260200182815260200192505050602060405180830381600087803b158015612fd757600080fd5b505af1158015612feb573d6000803e3d6000fd5b505050506040513d602081101561300157600080fd5b8101908080519060200190929190505050506000600c60008473ffffffffffffffffffffffffffffffffffffffff1673ffffffffffffffffffffffffffffffffffffffff16815260200190815260200160002060008c81526020019081526020016000208190555050508080600101915050612e92565b506000600760009054906101000a900473ffffffffffffffffffffffffffffffffffffffff1673ffffffffffffffffffffffffffffffffffffffff1663c08e375f896040518263ffffffff1660e01b81526004018082815260200191505060206040518083038186803b1580156130ee57600080fd5b505afa158015613102573d6000803e3d6000fd5b505050506040513d602081101561311857600080fd5b810190808051906020019092919050505086039050600760009054906101000a900473ffffffffffffffffffffffffffffffffffffffff1673ffffffffffffffffffffffffffffffffffffffff16637ffd86c089836040518363ffffffff1660e01b81526004018083815260200182815260200192505050600060405180830381600087803b1580156131aa57600080fd5b505af11580156131be573d6000803e3d6000fd5b505050506000600760009054906101000a900473ffffffffffffffffffffffffffffffffffffffff1673ffffffffffffffffffffffffffffffffffffffff166353cd25828b8b6040518363ffffffff1660e01b8152600401808373ffffffffffffffffffffffffffffffffffffffff1673ffffffffffffffffffffffffffffffffffffffff1681526020018281526020019250505060206040518083038186803b15801561326b57600080fd5b505afa15801561327f573d6000803e3d6000fd5b505050506040513d602081101561329557600080fd5b8101908080519060200190929190505050905060006103e860038302816132b857fe5b0490506133748b600760009054906101000a900473ffffffffffffffffffffffffffffffffffffffff1673ffffffffffffffffffffffffffffffffffffffff1663c08e375f8d6040518263ffffffff1660e01b81526004018082815260200191505060206040518083038186803b15801561333257600080fd5b505afa158015613346573d6000803e3d6000fd5b505050506040513d602081101561335c57600080fd5b81019080805190602001909291905050508301611dd9565b505050505b600760009054906101000a900473ffffffffffffffffffffffffffffffffffffffff1673ffffffffffffffffffffffffffffffffffffffff16636e3eb76d8760006040518363ffffffff1660e01b81526004018083815260200182815260200192505050600060405180830381600087803b1580156133f757600080fd5b505af115801561340b573d6000803e3d6000fd5b50505050600760009054906101000a900473ffffffffffffffffffffffffffffffffffffffff1673ffffffffffffffffffffffffffffffffffffffff1663704eb3318760006040518363ffffffff1660e01b81526004018083815260200182815260200192505050600060405180830381600087803b15801561348d57600080fd5b505af11580156134a1573d6000803e3d6000fd5b50505050600160048190555050505050505050565b60405180807f41444d494e5f524f4c4500000000000000000000000000000000000000000000815250600a01905060405180910390206134f681336125b8565b61354b576040517f08c379a00000000000000000000000000000000000000000000000000000000081526004018080602001828103825260318152602001806154366031913960400191505060405180910390fd5b81600073ffffffffffffffffffffffffffffffffffffffff168173ffffffffffffffffffffffffffffffffffffffff1614156135ef576040517f08c379a000000000000000000000000000000000000000000000000000000000815260040180806020018281038252601e8152602001807f416363657373436f6e74726f6c3a20696e76616c69642061646472657373000081525060200191505060405180910390fd5b600260008473ffffffffffffffffffffffffffffffffffffffff1673ffffffffffffffffffffffffffffffffffffffff16815260200190815260200160002060009054906101000a900460ff1615613692576040517f08c379a000000000000000000000000000000000000000000000000000000000815260040180806020018281038252602a81526020018061540c602a913960400191505060405180910390fd5b6001600260008573ffffffffffffffffffffffffffffffffffffffff1673ffffffffffffffffffffffffffffffffffffffff16815260200190815260200160002060006101000a81548160ff02191690831515021790555061372960405180807f56414c494441544f525f524f4c45000000000000000000000000000000000000815250600e019050604051809103902084614795565b61376860405180807f434f4d50414e595f524f4c450000000000000000000000000000000000000000815250600c019050604051809103902084614795565b505050565b61377682610d3d565b61378081336125b8565b6137d5576040517f08c379a00000000000000000000000000000000000000000000000000000000081526004018080602001828103825260318152602001806154366031913960400191505060405180910390fd5b81600073ffffffffffffffffffffffffffffffffffffffff168173ffffffffffffffffffffffffffffffffffffffff161415613879576040517f08c379a000000000000000000000000000000000000000000000000000000000815260040180806020018281038252601e8152602001807f416363657373436f6e74726f6c3a20696e76616c69642061646472657373000081525060200191505060405180910390fd5b6138838484614795565b50505050565b600360009054906101000a900460ff16156138ef576040517f08c379a00000000000000000000000000000000000000000000000000000000081526004018080602001828103825260218152602001806152ef6021913960400191505060405180910390fd5b33600260008273ffffffffffffffffffffffffffffffffffffffff1673ffffffffffffffffffffffffffffffffffffffff16815260200190815260200160002060009054906101000a900460ff1615613993576040517f08c379a00000000000000000000000000000000000000000000000000000000081526004018080602001828103825260258152602001806153e76025913960400191505060405180910390fd5b82600181101580156139a757506127108111155b6139fc576040517f08c379a000000000000000000000000000000000000000000000000000000000815260040180806020018281038252603281526020018061525c6032913960400191505060405180910390fd5b60026004541415613a75576040517f08c379a000000000000000000000000000000000000000000000000000000000815260040180806020018281038252601d8152602001807f416363657373436f6e74726f6c3a207265656e7472616e742063616c6c00000081525060200191505060405180910390fd5b6002600481905550600760009054906101000a900473ffffffffffffffffffffffffffffffffffffffff1673ffffffffffffffffffffffffffffffffffffffff166391d14854600760009054906101000a900473ffffffffffffffffffffffffffffffffffffffff1673ffffffffffffffffffffffffffffffffffffffff16631c9ee11a6040518163ffffffff1660e01b815260040160206040518083038186803b158015613b2357600080fd5b505afa158015613b37573d6000803e3d6000fd5b505050506040513d6020811015613b4d57600080fd5b8101908080519060200190929190505050336040518363ffffffff1660e01b8152600401808381526020018273ffffffffffffffffffffffffffffffffffffffff1673ffffffffffffffffffffffffffffffffffffffff1681526020019250505060206040518083038186803b158015613bc657600080fd5b505afa158015613bda573d6000803e3d6000fd5b505050506040513d6020811015613bf057600080fd5b8101908080519060200190929190505050613c56576040517f08c379a000000000000000000000000000000000000000000000000000000000815260040180806020018281038252602f815260200180615336602f913960400191505060405180910390fd5b600760009054906101000a900473ffffffffffffffffffffffffffffffffffffffff1673ffffffffffffffffffffffffffffffffffffffff166343a2004e3385876040518463ffffffff1660e01b8152600401808473ffffffffffffffffffffffffffffffffffffffff1673ffffffffffffffffffffffffffffffffffffffff168152602001838152602001828152602001935050505060206040518083038186803b158015613d0557600080fd5b505afa158015613d19573d6000803e3d6000fd5b505050506040513d6020811015613d2f57600080fd5b8101908080519060200190929190505050613db2576040517f08c379a000000000000000000000000000000000000000000000000000000000815260040180806020018281038252601c8152602001807f45584320666f722070726f6a656374206f76657265786365656465640000000081525060200191505060405180910390fd5b600760009054906101000a900473ffffffffffffffffffffffffffffffffffffffff1673ffffffffffffffffffffffffffffffffffffffff1663ef5e10083385876040518463ffffffff1660e01b8152600401808473ffffffffffffffffffffffffffffffffffffffff1673ffffffffffffffffffffffffffffffffffffffff168152602001838152602001828152602001935050505060206040518083038186803b158015613e6157600080fd5b505afa158015613e75573d6000803e3d6000fd5b505050506040513d6020811015613e8b57600080fd5b8101908080519060200190929190505050613f0e576040517f08c379a00000000000000000000000000000000000000000000000000000000081526004018080602001828103825260188152602001807f496e73756666696369656e742045584320746f2073656c6c000000000000000081525060200191505060405180910390fd5b600180811115613f1a57fe5b600760009054906101000a900473ffffffffffffffffffffffffffffffffffffffff1673ffffffffffffffffffffffffffffffffffffffff1663e0155714856040518263ffffffff1660e01b81526004018082815260200191505060206040518083038186803b158015613f8d57600080fd5b505afa158015613fa1573d6000803e3d6000fd5b505050506040513d6020811015613fb757600080fd5b81019080805190602001909291905050506001811115613fd357fe5b14156141d6578360086000828254019250508190555083600d60003373ffffffffffffffffffffffffffffffffffffffff1673ffffffffffffffffffffffffffffffffffffffff168152602001908152602001600020600085815260200190815260200160002060008282540192505081905550600760009054906101000a900473ffffffffffffffffffffffffffffffffffffffff1673ffffffffffffffffffffffffffffffffffffffff16638b4867dd3385876040518463ffffffff1660e01b8152600401808473ffffffffffffffffffffffffffffffffffffffff1673ffffffffffffffffffffffffffffffffffffffff1681526020018381526020018281526020019350505050600060405180830381600087803b1580156140f857600080fd5b505af115801561410c573d6000803e3d6000fd5b50505050600560009054906101000a900473ffffffffffffffffffffffffffffffffffffffff1673ffffffffffffffffffffffffffffffffffffffff1663e3491a6c30866040518363ffffffff1660e01b8152600401808373ffffffffffffffffffffffffffffffffffffffff1673ffffffffffffffffffffffffffffffffffffffff16815260200182815260200192505050600060405180830381600087803b1580156141b957600080fd5b505af11580156141cd573d6000803e3d6000fd5b5050505061454c565b6141e084346145c5565b614252576040517f08c379a000000000000000000000000000000000000000000000000000000000815260040180806020018281038252601b8152602001807f496e73756666696369656e7420657468657220746f207374616b65000000000081525060200191505060405180910390fd5b6000600a600d86028161426157fe5b049050600760009054906101000a900473ffffffffffffffffffffffffffffffffffffffff1673ffffffffffffffffffffffffffffffffffffffff166361854d203386846040518463ffffffff1660e01b8152600401808473ffffffffffffffffffffffffffffffffffffffff1673ffffffffffffffffffffffffffffffffffffffff1681526020018381526020018281526020019350505050600060405180830381600087803b15801561431557600080fd5b505af1158015614329573d6000803e3d6000fd5b50505050600760009054906101000a900473ffffffffffffffffffffffffffffffffffffffff1673ffffffffffffffffffffffffffffffffffffffff16638b4867dd3386886040518463ffffffff1660e01b8152600401808473ffffffffffffffffffffffffffffffffffffffff1673ffffffffffffffffffffffffffffffffffffffff1681526020018381526020018281526020019350505050600060405180830381600087803b1580156143de57600080fd5b505af11580156143f2573d6000803e3d6000fd5b505050506000600a60003373ffffffffffffffffffffffffffffffffffffffff1673ffffffffffffffffffffffffffffffffffffffff1681526020019081526020016000209050600080905060008090505b8280549050811015614480578683828154811061445d57fe5b9060005260206000200154141561447357600191505b8080600101915050614444565b50806144f057600a60003373ffffffffffffffffffffffffffffffffffffffff1673ffffffffffffffffffffffffffffffffffffffff1681526020019081526020016000208690806001815401808255809150509060018203906000526020600020016000909192909190915055505b6001600960003373ffffffffffffffffffffffffffffffffffffffff1673ffffffffffffffffffffffffffffffffffffffff16815260200190815260200160002060006101000a81548160ff0219169083151502179055505050505b7f65532e881dcde6f4430830cdb3554179d3ecf95577975cc080aeed0d401452463385604051808373ffffffffffffffffffffffffffffffffffffffff1673ffffffffffffffffffffffffffffffffffffffff1681526020018281526020019250505060405180910390a1600160048190555050505050565b600080600a600d8502816145d557fe5b0490508083101591505092915050565b60405180807f5041555345525f524f4c45000000000000000000000000000000000000000000815250600b019050604051809103902081565b60096020528060005260406000206000915054906101000a900460ff1681565b600d602052816000526040600020602052806000526040600020600091509150505481565b61271081565b6000600260008373ffffffffffffffffffffffffffffffffffffffff1673ffffffffffffffffffffffffffffffffffffffff16815260200190815260200160002060009054906101000a900460ff169050919050565b6146c982826125b8565b61479157600160008084815260200190815260200160002060008373ffffffffffffffffffffffffffffffffffffffff1673ffffffffffffffffffffffffffffffffffffffff16815260200190815260200160002060006101000a81548160ff0219169083151502179055503373ffffffffffffffffffffffffffffffffffffffff168173ffffffffffffffffffffffffffffffffffffffff16837f2f8788117e7eff1d82e926ec794901d17c78024a50270940304540a733656f0d60405160405180910390a45b5050565b61479f82826125b8565b1561486857600080600084815260200190815260200160002060008373ffffffffffffffffffffffffffffffffffffffff1673ffffffffffffffffffffffffffffffffffffffff16815260200190815260200160002060006101000a81548160ff0219169083151502179055503373ffffffffffffffffffffffffffffffffffffffff168173ffffffffffffffffffffffffffffffffffffffff16837ff6391f5c32d9c69d2a47ea670b442974b53935d1edc7fd64eb21e047a839171b60405160405180910390a45b5050565b7f322e5021ddf51920f7602154a6c845b34ef1b32704a1fa2c66927b56be2807628383604051808373ffffffffffffffffffffffffffffffffffffffff1673ffffffffffffffffffffffffffffffffffffffff1681526020018281526020019250505060405180910390a160008090505b600b600084815260200190815260200160002080549050811015614d5c576000600b6000858152602001908152602001600020828154811061491b57fe5b9060005260206000200160009054906101000a900473ffffffffffffffffffffffffffffffffffffffff16905060008190506000600c60008473ffffffffffffffffffffffffffffffffffffffff1673ffffffffffffffffffffffffffffffffffffffff1681526020019081526020016000206000878152602001908152602001600020549050600760009054906101000a900473ffffffffffffffffffffffffffffffffffffffff1673ffffffffffffffffffffffffffffffffffffffff1663c08e375f876040518263ffffffff1660e01b81526004018082815260200191505060206040518083038186803b158015614a1557600080fd5b505afa158015614a29573d6000803e3d6000fd5b505050506040513d6020811015614a3f57600080fd5b81019080805190602001909291905050508510614b4057600560009054906101000a900473ffffffffffffffffffffffffffffffffffffffff1673ffffffffffffffffffffffffffffffffffffffff1663b73cacc584836040518363ffffffff1660e01b8152600401808373ffffffffffffffffffffffffffffffffffffffff1673ffffffffffffffffffffffffffffffffffffffff16815260200182815260200192505050602060405180830381600087803b158015614aff57600080fd5b505af1158015614b13573d6000803e3d6000fd5b505050506040513d6020811015614b2957600080fd5b810190808051906020019092919050505050614cf6565b6000600760009054906101000a900473ffffffffffffffffffffffffffffffffffffffff1673ffffffffffffffffffffffffffffffffffffffff1663c08e375f886040518263ffffffff1660e01b81526004018082815260200191505060206040518083038186803b158015614bb557600080fd5b505afa158015614bc9573d6000803e3d6000fd5b505050506040513d6020811015614bdf57600080fd5b810190808051906020019092919050505086830281614bfa57fe5b049050600560009054906101000a900473ffffffffffffffffffffffffffffffffffffffff1673ffffffffffffffffffffffffffffffffffffffff1663b73cacc585836040518363ffffffff1660e01b8152600401808373ffffffffffffffffffffffffffffffffffffffff1673ffffffffffffffffffffffffffffffffffffffff16815260200182815260200192505050602060405180830381600087803b158015614ca657600080fd5b505af1158015614cba573d6000803e3d6000fd5b505050506040513d6020811015614cd057600080fd5b81019080805190602001909291905050505060008183039050614cf38482611dd9565b50505b6000600c60008573ffffffffffffffffffffffffffffffffffffffff1673ffffffffffffffffffffffffffffffffffffffff16815260200190815260200160002060008881526020019081526020016000208190555050505080806001019150506148dd565b50600760009054906101000a900473ffffffffffffffffffffffffffffffffffffffff1673ffffffffffffffffffffffffffffffffffffffff1663c08e375f836040518263ffffffff1660e01b81526004018082815260200191505060206040518083038186803b158015614dd057600080fd5b505afa158015614de4573d6000803e3d6000fd5b505050506040513d6020811015614dfa57600080fd5b810190808051906020019092919050505081106150fc576000600760009054906101000a900473ffffffffffffffffffffffffffffffffffffffff1673ffffffffffffffffffffffffffffffffffffffff1663c08e375f846040518263ffffffff1660e01b81526004018082815260200191505060206040518083038186803b158015614e8657600080fd5b505afa158015614e9a573d6000803e3d6000fd5b505050506040513d6020811015614eb057600080fd5b810190808051906020019092919050505082039050600760009054906101000a900473ffffffffffffffffffffffffffffffffffffffff1673ffffffffffffffffffffffffffffffffffffffff16637ffd86c084836040518363ffffffff1660e01b81526004018083815260200182815260200192505050600060405180830381600087803b158015614f4257600080fd5b505af1158015614f56573d6000803e3d6000fd5b50505050600560009054906101000a900473ffffffffffffffffffffffffffffffffffffffff1673ffffffffffffffffffffffffffffffffffffffff1663b73cacc585836040518363ffffffff1660e01b8152600401808373ffffffffffffffffffffffffffffffffffffffff1673ffffffffffffffffffffffffffffffffffffffff16815260200182815260200192505050602060405180830381600087803b15801561500357600080fd5b505af1158015615017573d6000803e3d6000fd5b505050506040513d602081101561502d57600080fd5b8101908080519060200190929190505050506150f684600760009054906101000a900473ffffffffffffffffffffffffffffffffffffffff1673ffffffffffffffffffffffffffffffffffffffff1663c08e375f866040518263ffffffff1660e01b81526004018082815260200191505060206040518083038186803b1580156150b657600080fd5b505afa1580156150ca573d6000803e3d6000fd5b505050506040513d60208110156150e057600080fd5b8101908080519060200190929190505050611dd9565b5061519d565b600760009054906101000a900473ffffffffffffffffffffffffffffffffffffffff1673ffffffffffffffffffffffffffffffffffffffff16637ffd86c08360006040518363ffffffff1660e01b81526004018083815260200182815260200192505050600060405180830381600087803b15801561517a57600080fd5b505af115801561518e573d6000803e3d6000fd5b5050505061519c8382611dd9565b5b50505056fe496e73756666696369656e742045584320696e2070726f6a65637420746f2062757945636f584368616e67654d61726b65743a20696e636f727265637420657468657220616d6f756e7445636f584368616e67654d61726b65743a2063616c6c6572206973206e6f7420616e206163746976652076616c696461746f7245636f584368616e67654d61726b65743a20636f6d70616e79206164647265737320646f6573206e6f74206861766520636f6d70616e7920726f6c6545636f584368616e67654d61726b65743a207472616e73616374696f6e20616d6f756e74206f7574206f6620626f756e647345636f584368616e67654d61726b65743a2063616c6c657220646f6573206e6f7420686176652076616c696461746f7220726f6c6550726f6a65637420636f6d706c657465642c2063616e6e6f742062652076616c69646174656420616761696e416363657373436f6e74726f6c3a20636f6e747261637420697320706175736564416363657373436f6e74726f6c3a206163636f756e74206e6f7420626c61636b6c697374656445636f584368616e67654d61726b65743a2063616c6c6572206d757374206861766520636f6d70616e7920726f6c6545636f584368616e67654d61726b65743a2070726f6a65637420646f6573206e6f7420657869737445636f584368616e67654d61726b65743a2070726f6a65637420616c726561647920636f6d706c65746564416363657373436f6e74726f6c3a20616d6f756e74206d7573742062652067726561746572207468616e207a65726f416363657373436f6e74726f6c3a206163636f756e7420697320626c61636b6c6973746564416363657373436f6e74726f6c3a206163636f756e7420616c726561647920626c61636b6c6973746564416363657373436f6e74726f6c3a2063616c6c657220646f6573206e6f74206861766520726571756972656420726f6c65416363657373436f6e74726f6c3a2063616e206f6e6c792072656e6f756e636520726f6c657320666f722073656c66416363657373436f6e74726f6c3a20636f6e7472616374206973206e6f7420706175736564a265627a7a7231582036dc59cc99b51bcdefe3257dfb64b168ee6d45f0cfb510292206c62f5e0e6bc364736f6c63430005110032",
  "source": "pragma solidity ^0.5.0;\n\nimport \"./ValidatorRegistry.sol\";\nimport \"./EcoXChangeToken.sol\";\nimport \"./Company.sol\";\nimport \"./AccessControl.sol\";\n\n/**\n * @title EcoXChangeMarket\n * @dev This contract represents a carbon credit market where users can buy and sell carbon credits with enhanced security.\n */\ncontract EcoXChangeMarket is AccessControl {\n    // Events\n    event BuyCredit(address buyer, uint256 amount);\n    event ReturnCredits(address seller, uint256 amount);\n    event ProjectValidated(\n        address companyAddress,\n        uint256 projectId,\n        bool isValid\n    );\n    event Penalty(address companyAddress, uint256 projectId);\n\n    // State variables\n    EcoXChangeToken ecoXChangeTokenInstance;\n    ValidatorRegistry validatorRegistryInstance;\n    Company companyInstance;\n    uint256 excBank = 0;\n    mapping(address => bool) public isSeller;\n    mapping(address => uint256[]) public companyProjects; // Mapping of company address to list of projects\n    mapping(uint256 => address[]) public projectBuyers; // Mapping of project id to list of buyers\n    mapping(address => mapping(uint256 => uint256)) public projectStakes; //mapping of buyer address to project id to amount\n    mapping(address => mapping(uint256 => uint256)) public relisted; // Mapping of company address to projectId to their excs sold, due to listing project that have been validated\n\n    // Enhanced security mappings\n    mapping(uint256 => bool) public projectValidated; // Track validated projects\n    mapping(address => uint256) public userTransactionCount; // Track user activity\n    mapping(uint256 => uint256) public projectCreationTime; // Track project creation time\n\n    // Constants for validation\n    uint256 public constant MIN_TRANSACTION_AMOUNT = 1;\n    uint256 public constant MAX_TRANSACTION_AMOUNT = 10000;\n    uint256 public constant STAKE_PERCENTAGE = 130; // 130% staking requirement\n\n    // Constructor\n    constructor(\n        Company companyAddress,\n        EcoXChangeToken ecoXChangeTokenAddress,\n        ValidatorRegistry validatorRegistryAddress\n    ) public {\n        ecoXChangeTokenInstance = ecoXChangeTokenAddress;\n        validatorRegistryInstance = validatorRegistryAddress;\n        companyInstance = companyAddress;\n    }\n\n    /**\n     * @dev Modifier that restricts the execution of a function to only be called by a registered validator.\n     */\n    modifier onlyActiveValidator() {\n        require(\n            validatorRegistryInstance.isValidator(msg.sender),\n            \"EcoXChangeMarket: caller is not an active validator\"\n        );\n        require(\n            hasRole(VALIDATOR_ROLE, msg.sender),\n            \"EcoXChangeMarket: caller does not have validator role\"\n        );\n        _;\n    }\n\n    /**\n     * @dev Modifier to validate project exists and is not completed\n     */\n    modifier validProject(uint256 projectId) {\n        require(\n            projectId < companyInstance.numProjects(),\n            \"EcoXChangeMarket: project does not exist\"\n        );\n        require(\n            companyInstance.getProjectState(projectId) !=\n                Company.ProjectState.completed,\n            \"EcoXChangeMarket: project already completed\"\n        );\n        _;\n    }\n\n    /**\n     * @dev Modifier to validate transaction amounts\n     */\n    modifier validTransactionAmount(uint256 amount) {\n        require(\n            amount >= MIN_TRANSACTION_AMOUNT &&\n                amount <= MAX_TRANSACTION_AMOUNT,\n            \"EcoXChangeMarket: transaction amount out of bounds\"\n        );\n        _;\n    }\n\n    /**\n     * @dev Allows the contract owner to withdraw a specified amount of Ether from the contract balance and transfer it to a specified company address.\n     * @param companyAddress The address of the company to which the Ether will be transferred.\n     * @param amount The amount of Ether to be withdrawn and transferred.\n     * @notice Only the contract owner can call this function.\n     * @dev Throws an error if the specified amount is greater than the contract balance.\n     */\n    function withdrawEther(\n        address payable companyAddress,\n        uint256 amount\n    )\n        public\n        onlyActiveValidator\n        validAddress(companyAddress)\n        validAmount(amount)\n    {\n        require(\n            amount <= address(this).balance,\n            \"Insufficient contract balance\"\n        );\n        amount = amount * 1 ether; //convert to wei before transfer\n        companyAddress.transfer(amount);\n    }\n\n    /**\n     * @dev Check whether or not a company has provided enough Ether to stake for a project (for penalty purposes).\n     * @param _excAmount The amount of exc they wish to sell from the project.\n     * @param etherAmount The amount of Ether supplied.\n     */\n    function checkSufficientStake(\n        uint256 _excAmount,\n        uint256 etherAmount\n    ) public pure returns (bool) {\n        uint256 stakedAmount = (_excAmount * 13) / 10;\n        return etherAmount >= stakedAmount;\n    }\n\n    /**\n     * @dev Validate a project by a validator, and handle penalty if project is invalid, otherwise transfer EXC to buyers.\n     * @param companyAddress The address of the company.\n     * @param projectId The ID of the project.\n     * @param isValid A boolean indicating whether the project is valid or not.\n     * @param actualEXC The actual EXC (EcoXChange Token) amount for the project.\n     * @notice This function can only be called by a validator.\n     */\n    function validateProject(\n        address payable companyAddress,\n        uint256 projectId,\n        bool isValid,\n        uint256 actualEXC\n    )\n        public\n        onlyActiveValidator\n        whenNotPaused\n        validAddress(companyAddress)\n        validProject(projectId)\n        validAmount(actualEXC)\n        nonReentrant\n    {\n        // Validate a project by a validator, and handle penalty if project is invalid, otherwise transfer EXC to buyers\n        require(\n            companyInstance.getProjectState(projectId) !=\n                Company.ProjectState.completed,\n            \"Project completed, cannot be validated again\"\n        ); // Check if project is completed, cannot be validated again\n        companyInstance.setProjectStateComplete(projectId); // Set project state to completed\n        emit ProjectValidated(companyAddress, projectId, isValid); // Emit event for project validation\n        if (!isValid) {\n            // Project is invalid\n            handlePenalty(companyAddress, projectId, actualEXC);\n        } else {\n            // Project is valid\n            //Transfer EXC to buyers\n            address[] storage buyers = projectBuyers[projectId];\n            for (uint256 i = 0; i < buyers.length; i++) {\n                // Loop through buyers of the project\n                address buyer = buyers[i];\n                uint256 buyerStake = projectStakes[buyer][projectId]; // Get buyer's stake for the project\n                ecoXChangeTokenInstance.getEXC(buyer, buyerStake); // Mint EXC to buyer\n                projectStakes[buyer][projectId] = 0; // Reset buyer's stake to 0\n            }\n            // Project's EXCAmount left is returned to project\n            uint256 excAmountUnsold = actualEXC -\n                companyInstance.getEXCSold(projectId);\n            companyInstance.setProjectexcAmount(projectId, excAmountUnsold); // Update project's EXC amount, project can be resold with remaining EXC by seller\n            // Return penalty + profit to seller\n            uint256 stakedCredits = companyInstance.getStakedCredits( // Get staked credits (sellers stake 130% (of ether)) for the project\n                    companyAddress,\n                    projectId\n                );\n            uint256 returnPenalty = (stakedCredits * 3) / 1000; // Calculate penalty amount to return to seller\n            withdrawEther(\n                companyAddress,\n                returnPenalty + companyInstance.getEXCSold(projectId)\n            ); // Return penalty amount and profit back to seller\n        }\n\n        companyInstance.setEXCListed(projectId, 0);\n        companyInstance.setEXCSold(projectId, 0);\n    }\n\n    /**\n     * @dev Handles penalty for a project that fails validation.\n     * @param companyAddress The address of the company associated with the project.\n     * @param projectId The ID of the project.\n     * @param actualEXC The actual EcoXChange Tokens (EXC) generated by the project.\n     *\n     * Emits a `Penalty` event for the failed project.\n     * Loops through the buyers of the project and performs the following actions:\n     * - If the actual EXC is greater than or equal to the EXC sold, mints the actual EXC to the buyer.\n     * - If the actual EXC is less than the EXC sold, calculates the actual EXC received by the buyer,\n     *   mints the actual EXC to the buyer, and transfers the compensation amount to the buyer.\n     * Transfers the profits to the company and keeps the penalty amount.\n     * Resets the buyer's stake to 0.\n     */\n    function handlePenalty(\n        address payable companyAddress,\n        uint256 projectId,\n        uint256 actualEXC // Actual EXC generated by the project\n    ) internal {\n        // Handle penalty for a project that fails validation\n        emit Penalty(companyAddress, projectId);\n        for (uint256 i = 0; i < projectBuyers[projectId].length; i++) {\n            // Loop through buyers of the project\n            address buyer = projectBuyers[projectId][i]; // Get buyer address\n            address payable buyerPayable;\n            assembly {\n                buyerPayable := buyer\n            } //make buyer payable\n            uint256 buyerStake = projectStakes[buyer][projectId]; // Get buyer's stake for the project\n            if (actualEXC >= companyInstance.getEXCSold(projectId)) {\n                // If actual EXC is greater than or equal to EXC sold\n                ecoXChangeTokenInstance.getEXC(buyer, buyerStake); // Mint actual EXC to buyer, penalty and profits kept by market\n            } else {\n                // If actual EXC is less than EXC sold\n                uint256 actualBuyerEXC = (buyerStake * actualEXC) /\n                    companyInstance.getEXCSold(projectId); // Calculate actual EXC received by the buyer, based on proportion\n                ecoXChangeTokenInstance.getEXC(buyer, actualBuyerEXC); // Mint actual EXC to buyer\n                uint256 buyerCompensation = buyerStake - actualBuyerEXC; // Calculate compensation amount to buyer\n                withdrawEther(buyerPayable, buyerCompensation); // Transfer compensation amount to buyer\n            }\n            projectStakes[buyer][projectId] = 0; // Reset buyer's stake to 0\n        }\n\n        if (actualEXC >= companyInstance.getEXCSold(projectId)) {\n            // sellers have more exc to be resold\n            uint256 excAmountUnsold = actualEXC -\n                companyInstance.getEXCSold(projectId); // Calculate EXC amount unsold\n            companyInstance.setProjectexcAmount(projectId, excAmountUnsold); // Update project's EXC amount, project can be resold with remaining EXC by seller\n            ecoXChangeTokenInstance.getEXC(companyAddress, excAmountUnsold); // Mint actual EXC to company\n\n            withdrawEther(\n                companyAddress,\n                companyInstance.getEXCSold(projectId)\n            ); // Transfer profits to company, penalty kept by market\n        } else {\n            companyInstance.setProjectexcAmount(projectId, 0); // Update project's EXC amount to 0 as all EXC sold\n            withdrawEther(companyAddress, actualEXC); // Transfer profits to company (only got profits from the actual exc sold), penalty kept by market\n        }\n    }\n\n    /**\n     * @dev Allows a seller to list and sell EcoXChange tokens (EXC) for a specific project.\n     * @param _excAmount The amount of EXC to be sold.\n     * @param projectId The ID of the project for which the EXC is being sold.\n     *  The seller must have enough EXC listed for the project and sufficient EXC balance to sell.\n     *  If the project is completed, the EXC is transferred to the market and the seller receives ether.\n     *  If the project is ongoing, the seller must stake 130% of the EXC amount in ether.\n     *  The seller's ether is transferred to the contract for staking, with 30% being a penalty.\n     *  The EXC is listed and the project is added to the seller's list of projects.\n     *  Emits a `ReturnCredits` event with the seller's address and the amount of EXC sold.\n     */\n\n    function sell(\n        uint256 _excAmount,\n        uint256 projectId\n    )\n        public\n        payable\n        whenNotPaused\n        notBlacklisted(msg.sender)\n        validTransactionAmount(_excAmount)\n        nonReentrant\n    {\n        // Enhanced validation\n        require(\n            companyInstance.hasRole(companyInstance.COMPANY_ROLE(), msg.sender),\n            \"EcoXChangeMarket: caller must have company role\"\n        );\n        require(\n            companyInstance.checkEXCListed(msg.sender, projectId, _excAmount),\n            \"EXC for project overexceeded\"\n        ); // Check if excListed is <= to excAmount, must have enuf excAmount in project to sell\n        require(\n            companyInstance.checkSufficientEXC(\n                msg.sender,\n                projectId,\n                _excAmount\n            ),\n            \"Insufficient EXC to sell\"\n        ); // Check if seller has enough exc to sell in project, especially after sold excs from this project before\n\n        if (\n            companyInstance.getProjectState(projectId) ==\n            Company.ProjectState.completed\n        ) {\n            // if project is completed\n            excBank += _excAmount; // add EXC to bank\n            relisted[msg.sender][projectId] += _excAmount; // add exc from company to relisted\n            companyInstance.listEXC(msg.sender, projectId, _excAmount); //update excListed in project\n            ecoXChangeTokenInstance.transferEXC(address(this), _excAmount); // transfer EXC to market, from seller\n        } else {\n            //check if company has enough ether to stake only if project is ongoing\n            require(\n                checkSufficientStake(_excAmount, msg.value),\n                \"Insufficient ether to stake\"\n            ); // Seller has to transfer 130% ether to contract for staking, 30% is penalty. Ether is transferred as msg.value is called.\n            uint256 stakedAmount = (_excAmount * 13) / 10; // sellers stake 130% (of ether), 30% is penalty\n            companyInstance.stakeCredits(msg.sender, projectId, stakedAmount); //stake credits\n            companyInstance.listEXC(msg.sender, projectId, _excAmount); //update excListed in project\n\n            //Check if project has been listed by company (if company has sold tokens from project before)\n            uint256[] storage projectList = companyProjects[msg.sender];\n            bool projectAdded = false;\n            for (uint256 i = 0; i < projectList.length; i++) {\n                if (projectList[i] == projectId) {\n                    projectAdded = true; // project already added\n                }\n            }\n            if (!projectAdded) {\n                companyProjects[msg.sender].push(projectId); // add project to list of projects\n            }\n            isSeller[msg.sender] = true; // add address of seller to list of sellers\n        }\n        emit ReturnCredits(msg.sender, _excAmount);\n    }\n\n    /**\n     * @dev Allows a buyer to purchase carbon credits from a project.\n     * @param _excAmount The amount of carbon credits to purchase.\n     * @param companyAddress The address of the company selling the carbon credits.\n     * @param projectId The ID of the project from which to purchase the carbon credits.\n     */\n    function buy(\n        uint256 _excAmount,\n        address payable companyAddress,\n        uint256 projectId\n    )\n        public\n        payable\n        whenNotPaused\n        notBlacklisted(msg.sender)\n        validAddress(companyAddress)\n        validTransactionAmount(_excAmount)\n        nonReentrant\n    {\n        // Enhanced validation\n        require(\n            msg.value == _excAmount * 1 ether,\n            \"EcoXChangeMarket: incorrect ether amount\"\n        );\n        require(\n            companyInstance.hasRole(\n                companyInstance.COMPANY_ROLE(),\n                companyAddress\n            ),\n            \"EcoXChangeMarket: company address does not have company role\"\n        );\n        require(\n            companyInstance.checkSufficientEXC(\n                companyAddress,\n                projectId,\n                _excAmount\n            ),\n            \"Insufficient EXC in project to buy\"\n        ); // Check if buyer has enough exc to buy in project\n\n        companyInstance.sellEXC(companyAddress, projectId, _excAmount); // increase excSold in project by _excAmount\n\n        if (\n            companyInstance.getProjectState(projectId) ==\n            Company.ProjectState.completed\n        ) {\n            require(\n                _excAmount <= relisted[companyAddress][projectId],\n                \"Insuffucient EXC to buy\"\n            );\n            excBank -= _excAmount; // deduct EXC from bank\n            relisted[companyAddress][projectId] -= _excAmount; // deduct EXC from company's relisted EXC\n            ecoXChangeTokenInstance.transferEXC(msg.sender, _excAmount); // transfer EXC to buyer from market\n            companyAddress.transfer(msg.value); // transfer ether to company\n        } else {\n            projectStakes[msg.sender][projectId] += _excAmount; // add \"share\" of the project's EXC bought to the buyer\n\n            // check if buyer has bought from project before\n            address[] storage buyerList = projectBuyers[projectId];\n            bool buyerAdded = false;\n            for (uint256 i = 0; i < buyerList.length; i++) {\n                if (buyerList[i] == msg.sender) {\n                    buyerAdded = true;\n                }\n            }\n            if (!buyerAdded) {\n                projectBuyers[projectId].push(msg.sender);\n            }\n        }\n        emit BuyCredit(msg.sender, _excAmount);\n    }\n\n    function getProjectBuyers(\n        uint256 projectId\n    ) public view returns (address[] memory) {\n        return projectBuyers[projectId];\n    }\n}\n",
  "sourcePath": "C:\\Users\\aliya\\Downloads\\EcoXChange\\contracts\\EcoXChangeMarket.sol",
  "compiler": {
    "name": "solc",
    "version": "0.5.17+commit.d19bba13.Emscripten.clang"
  },
  "schemaVersion": "3.4.16",
  "updatedAt": "2025-06-23T08:45:15.516Z",
  "devdoc": {
    "details": "This contract represents a carbon credit market where users can buy and sell carbon credits with enhanced security.",
    "methods": {
      "blacklistAccount(address)": {
        "details": "Add address to blacklist"
      },
      "buy(uint256,address,uint256)": {
        "details": "Allows a buyer to purchase carbon credits from a project.",
        "params": {
          "_excAmount": "The amount of carbon credits to purchase.",
          "companyAddress": "The address of the company selling the carbon credits.",
          "projectId": "The ID of the project from which to purchase the carbon credits."
        }
      },
      "checkSufficientStake(uint256,uint256)": {
        "details": "Check whether or not a company has provided enough Ether to stake for a project (for penalty purposes).",
        "params": {
          "_excAmount": "The amount of exc they wish to sell from the project.",
          "etherAmount": "The amount of Ether supplied."
        }
      },
      "getRoleAdmin(bytes32)": {
        "details": "Get the admin role that controls a role"
      },
      "grantRole(bytes32,address)": {
        "details": "Grant a role to an account"
      },
      "hasRole(bytes32,address)": {
        "details": "Check if an account has a specific role"
      },
      "isBlacklisted(address)": {
        "details": "Check if account is blacklisted"
      },
      "owner()": {
        "details": "Get contract owner"
      },
      "pause()": {
        "details": "Pause the contract (emergency stop)"
      },
      "paused()": {
        "details": "Check if contract is paused"
      },
      "removeFromBlacklist(address)": {
        "details": "Remove address from blacklist"
      },
      "renounceRole(bytes32,address)": {
        "details": "Renounce a role (caller renounces their own role)"
      },
      "revokeRole(bytes32,address)": {
        "details": "Revoke a role from an account"
      },
      "sell(uint256,uint256)": {
        "details": "Allows a seller to list and sell EcoXChange tokens (EXC) for a specific project.",
        "params": {
          "_excAmount": "The amount of EXC to be sold.",
          "projectId": "The ID of the project for which the EXC is being sold. The seller must have enough EXC listed for the project and sufficient EXC balance to sell. If the project is completed, the EXC is transferred to the market and the seller receives ether. If the project is ongoing, the seller must stake 130% of the EXC amount in ether. The seller's ether is transferred to the contract for staking, with 30% being a penalty. The EXC is listed and the project is added to the seller's list of projects. Emits a `ReturnCredits` event with the seller's address and the amount of EXC sold."
        }
      },
      "unpause()": {
        "details": "Unpause the contract"
      },
      "validateProject(address,uint256,bool,uint256)": {
        "details": "Validate a project by a validator, and handle penalty if project is invalid, otherwise transfer EXC to buyers.",
        "params": {
          "actualEXC": "The actual EXC (EcoXChange Token) amount for the project.",
          "companyAddress": "The address of the company.",
          "isValid": "A boolean indicating whether the project is valid or not.",
          "projectId": "The ID of the project."
        }
      },
      "withdrawEther(address,uint256)": {
        "details": "Allows the contract owner to withdraw a specified amount of Ether from the contract balance and transfer it to a specified company address.Throws an error if the specified amount is greater than the contract balance.",
        "params": {
          "amount": "The amount of Ether to be withdrawn and transferred.",
          "companyAddress": "The address of the company to which the Ether will be transferred."
        }
      }
    },
    "title": "EcoXChangeMarket"
  },
  "userdoc": {
    "methods": {
      "validateProject(address,uint256,bool,uint256)": {
        "notice": "This function can only be called by a validator."
      },
      "withdrawEther(address,uint256)": {
        "notice": "Only the contract owner can call this function."
      }
    }
  }
}