{
  "contractName": "EcoXChangeMarket",
  "abi": [
    {
      "inputs": [
        {
          "internalType": "contract Company",
          "name": "companyAddress",
          "type": "address"
        },
        {
          "internalType": "contract EcoXChangeToken",
          "name": "ecoXChangeTokenAddress",
          "type": "address"
        },
        {
          "internalType": "contract ValidatorRegistry",
          "name": "validatorRegistryAddress",
          "type": "address"
        },
        {
          "internalType": "contract DynamicPricing",
          "name": "dynamicPricingAddress",
          "type": "address"
        }
      ],
      "payable": false,
      "stateMutability": "nonpayable",
      "type": "constructor"
    },
    {
      "anonymous": false,
      "inputs": [
        {
          "indexed": false,
          "internalType": "address",
          "name": "buyer",
          "type": "address"
        },
        {
          "indexed": false,
          "internalType": "uint256",
          "name": "amount",
          "type": "uint256"
        },
        {
          "indexed": false,
          "internalType": "uint256",
          "name": "price",
          "type": "uint256"
        },
        {
          "indexed": false,
          "internalType": "uint256",
          "name": "totalCost",
          "type": "uint256"
        }
      ],
      "name": "BuyCredit",
      "type": "event"
    },
    {
      "anonymous": false,
      "inputs": [
        {
          "indexed": true,
          "internalType": "uint256",
          "name": "projectId",
          "type": "uint256"
        },
        {
          "indexed": false,
          "internalType": "uint256",
          "name": "bidPrice",
          "type": "uint256"
        },
        {
          "indexed": false,
          "internalType": "uint256",
          "name": "askPrice",
          "type": "uint256"
        }
      ],
      "name": "MarketMaking",
      "type": "event"
    },
    {
      "anonymous": false,
      "inputs": [
        {
          "indexed": false,
          "internalType": "address",
          "name": "account",
          "type": "address"
        }
      ],
      "name": "Paused",
      "type": "event"
    },
    {
      "anonymous": false,
      "inputs": [
        {
          "indexed": false,
          "internalType": "address",
          "name": "companyAddress",
          "type": "address"
        },
        {
          "indexed": false,
          "internalType": "uint256",
          "name": "projectId",
          "type": "uint256"
        }
      ],
      "name": "Penalty",
      "type": "event"
    },
    {
      "anonymous": false,
      "inputs": [
        {
          "indexed": true,
          "internalType": "uint256",
          "name": "projectId",
          "type": "uint256"
        },
        {
          "indexed": false,
          "internalType": "uint256",
          "name": "oldPrice",
          "type": "uint256"
        },
        {
          "indexed": false,
          "internalType": "uint256",
          "name": "newPrice",
          "type": "uint256"
        }
      ],
      "name": "PriceDiscovery",
      "type": "event"
    },
    {
      "anonymous": false,
      "inputs": [
        {
          "indexed": false,
          "internalType": "address",
          "name": "companyAddress",
          "type": "address"
        },
        {
          "indexed": false,
          "internalType": "uint256",
          "name": "projectId",
          "type": "uint256"
        },
        {
          "indexed": false,
          "internalType": "bool",
          "name": "isValid",
          "type": "bool"
        }
      ],
      "name": "ProjectValidated",
      "type": "event"
    },
    {
      "anonymous": false,
      "inputs": [
        {
          "indexed": false,
          "internalType": "address",
          "name": "seller",
          "type": "address"
        },
        {
          "indexed": false,
          "internalType": "uint256",
          "name": "amount",
          "type": "uint256"
        },
        {
          "indexed": false,
          "internalType": "uint256",
          "name": "price",
          "type": "uint256"
        },
        {
          "indexed": false,
          "internalType": "uint256",
          "name": "totalRevenue",
          "type": "uint256"
        }
      ],
      "name": "ReturnCredits",
      "type": "event"
    },
    {
      "anonymous": false,
      "inputs": [
        {
          "indexed": true,
          "internalType": "bytes32",
          "name": "role",
          "type": "bytes32"
        },
        {
          "indexed": true,
          "internalType": "bytes32",
          "name": "previousAdminRole",
          "type": "bytes32"
        },
        {
          "indexed": true,
          "internalType": "bytes32",
          "name": "newAdminRole",
          "type": "bytes32"
        }
      ],
      "name": "RoleAdminChanged",
      "type": "event"
    },
    {
      "anonymous": false,
      "inputs": [
        {
          "indexed": true,
          "internalType": "bytes32",
          "name": "role",
          "type": "bytes32"
        },
        {
          "indexed": true,
          "internalType": "address",
          "name": "account",
          "type": "address"
        },
        {
          "indexed": true,
          "internalType": "address",
          "name": "sender",
          "type": "address"
        }
      ],
      "name": "RoleGranted",
      "type": "event"
    },
    {
      "anonymous": false,
      "inputs": [
        {
          "indexed": true,
          "internalType": "bytes32",
          "name": "role",
          "type": "bytes32"
        },
        {
          "indexed": true,
          "internalType": "address",
          "name": "account",
          "type": "address"
        },
        {
          "indexed": true,
          "internalType": "address",
          "name": "sender",
          "type": "address"
        }
      ],
      "name": "RoleRevoked",
      "type": "event"
    },
    {
      "anonymous": false,
      "inputs": [
        {
          "indexed": false,
          "internalType": "address",
          "name": "account",
          "type": "address"
        }
      ],
      "name": "Unpaused",
      "type": "event"
    },
    {
      "constant": true,
      "inputs": [],
      "name": "ADMIN_ROLE",
      "outputs": [
        {
          "internalType": "bytes32",
          "name": "",
          "type": "bytes32"
        }
      ],
      "payable": false,
      "stateMutability": "view",
      "type": "function"
    },
    {
      "constant": true,
      "inputs": [],
      "name": "COMPANY_ROLE",
      "outputs": [
        {
          "internalType": "bytes32",
          "name": "",
          "type": "bytes32"
        }
      ],
      "payable": false,
      "stateMutability": "view",
      "type": "function"
    },
    {
      "constant": true,
      "inputs": [],
      "name": "DEFAULT_ADMIN_ROLE",
      "outputs": [
        {
          "internalType": "bytes32",
          "name": "",
          "type": "bytes32"
        }
      ],
      "payable": false,
      "stateMutability": "view",
      "type": "function"
    },
    {
      "constant": true,
      "inputs": [],
      "name": "MAX_TRANSACTION_AMOUNT",
      "outputs": [
        {
          "internalType": "uint256",
          "name": "",
          "type": "uint256"
        }
      ],
      "payable": false,
      "stateMutability": "view",
      "type": "function"
    },
    {
      "constant": true,
      "inputs": [],
      "name": "MIN_TRANSACTION_AMOUNT",
      "outputs": [
        {
          "internalType": "uint256",
          "name": "",
          "type": "uint256"
        }
      ],
      "payable": false,
      "stateMutability": "view",
      "type": "function"
    },
    {
      "constant": true,
      "inputs": [],
      "name": "PAUSER_ROLE",
      "outputs": [
        {
          "internalType": "bytes32",
          "name": "",
          "type": "bytes32"
        }
      ],
      "payable": false,
      "stateMutability": "view",
      "type": "function"
    },
    {
      "constant": true,
      "inputs": [],
      "name": "STAKE_PERCENTAGE",
      "outputs": [
        {
          "internalType": "uint256",
          "name": "",
          "type": "uint256"
        }
      ],
      "payable": false,
      "stateMutability": "view",
      "type": "function"
    },
    {
      "constant": true,
      "inputs": [],
      "name": "VALIDATOR_ROLE",
      "outputs": [
        {
          "internalType": "bytes32",
          "name": "",
          "type": "bytes32"
        }
      ],
      "payable": false,
      "stateMutability": "view",
      "type": "function"
    },
    {
      "constant": false,
      "inputs": [
        {
          "internalType": "address",
          "name": "account",
          "type": "address"
        }
      ],
      "name": "blacklistAccount",
      "outputs": [],
      "payable": false,
      "stateMutability": "nonpayable",
      "type": "function"
    },
    {
      "constant": true,
      "inputs": [
        {
          "internalType": "address",
          "name": "",
          "type": "address"
        },
        {
          "internalType": "uint256",
          "name": "",
          "type": "uint256"
        }
      ],
      "name": "companyProjects",
      "outputs": [
        {
          "internalType": "uint256",
          "name": "",
          "type": "uint256"
        }
      ],
      "payable": false,
      "stateMutability": "view",
      "type": "function"
    },
    {
      "constant": true,
      "inputs": [
        {
          "internalType": "bytes32",
          "name": "role",
          "type": "bytes32"
        }
      ],
      "name": "getRoleAdmin",
      "outputs": [
        {
          "internalType": "bytes32",
          "name": "",
          "type": "bytes32"
        }
      ],
      "payable": false,
      "stateMutability": "view",
      "type": "function"
    },
    {
      "constant": false,
      "inputs": [
        {
          "internalType": "bytes32",
          "name": "role",
          "type": "bytes32"
        },
        {
          "internalType": "address",
          "name": "account",
          "type": "address"
        }
      ],
      "name": "grantRole",
      "outputs": [],
      "payable": false,
      "stateMutability": "nonpayable",
      "type": "function"
    },
    {
      "constant": true,
      "inputs": [
        {
          "internalType": "bytes32",
          "name": "role",
          "type": "bytes32"
        },
        {
          "internalType": "address",
          "name": "account",
          "type": "address"
        }
      ],
      "name": "hasRole",
      "outputs": [
        {
          "internalType": "bool",
          "name": "",
          "type": "bool"
        }
      ],
      "payable": false,
      "stateMutability": "view",
      "type": "function"
    },
    {
      "constant": true,
      "inputs": [
        {
          "internalType": "address",
          "name": "account",
          "type": "address"
        }
      ],
      "name": "isBlacklisted",
      "outputs": [
        {
          "internalType": "bool",
          "name": "",
          "type": "bool"
        }
      ],
      "payable": false,
      "stateMutability": "view",
      "type": "function"
    },
    {
      "constant": true,
      "inputs": [
        {
          "internalType": "address",
          "name": "",
          "type": "address"
        }
      ],
      "name": "isSeller",
      "outputs": [
        {
          "internalType": "bool",
          "name": "",
          "type": "bool"
        }
      ],
      "payable": false,
      "stateMutability": "view",
      "type": "function"
    },
    {
      "constant": true,
      "inputs": [],
      "name": "owner",
      "outputs": [
        {
          "internalType": "address",
          "name": "",
          "type": "address"
        }
      ],
      "payable": false,
      "stateMutability": "view",
      "type": "function"
    },
    {
      "constant": false,
      "inputs": [],
      "name": "pause",
      "outputs": [],
      "payable": false,
      "stateMutability": "nonpayable",
      "type": "function"
    },
    {
      "constant": true,
      "inputs": [],
      "name": "paused",
      "outputs": [
        {
          "internalType": "bool",
          "name": "",
          "type": "bool"
        }
      ],
      "payable": false,
      "stateMutability": "view",
      "type": "function"
    },
    {
      "constant": true,
      "inputs": [
        {
          "internalType": "uint256",
          "name": "",
          "type": "uint256"
        },
        {
          "internalType": "uint256",
          "name": "",
          "type": "uint256"
        }
      ],
      "name": "projectBuyers",
      "outputs": [
        {
          "internalType": "address",
          "name": "",
          "type": "address"
        }
      ],
      "payable": false,
      "stateMutability": "view",
      "type": "function"
    },
    {
      "constant": true,
      "inputs": [
        {
          "internalType": "uint256",
          "name": "",
          "type": "uint256"
        }
      ],
      "name": "projectCreationTime",
      "outputs": [
        {
          "internalType": "uint256",
          "name": "",
          "type": "uint256"
        }
      ],
      "payable": false,
      "stateMutability": "view",
      "type": "function"
    },
    {
      "constant": true,
      "inputs": [
        {
          "internalType": "address",
          "name": "",
          "type": "address"
        },
        {
          "internalType": "uint256",
          "name": "",
          "type": "uint256"
        }
      ],
      "name": "projectStakes",
      "outputs": [
        {
          "internalType": "uint256",
          "name": "",
          "type": "uint256"
        }
      ],
      "payable": false,
      "stateMutability": "view",
      "type": "function"
    },
    {
      "constant": true,
      "inputs": [
        {
          "internalType": "uint256",
          "name": "",
          "type": "uint256"
        }
      ],
      "name": "projectValidated",
      "outputs": [
        {
          "internalType": "bool",
          "name": "",
          "type": "bool"
        }
      ],
      "payable": false,
      "stateMutability": "view",
      "type": "function"
    },
    {
      "constant": true,
      "inputs": [
        {
          "internalType": "address",
          "name": "",
          "type": "address"
        },
        {
          "internalType": "uint256",
          "name": "",
          "type": "uint256"
        }
      ],
      "name": "relisted",
      "outputs": [
        {
          "internalType": "uint256",
          "name": "",
          "type": "uint256"
        }
      ],
      "payable": false,
      "stateMutability": "view",
      "type": "function"
    },
    {
      "constant": false,
      "inputs": [
        {
          "internalType": "address",
          "name": "account",
          "type": "address"
        }
      ],
      "name": "removeFromBlacklist",
      "outputs": [],
      "payable": false,
      "stateMutability": "nonpayable",
      "type": "function"
    },
    {
      "constant": false,
      "inputs": [
        {
          "internalType": "bytes32",
          "name": "role",
          "type": "bytes32"
        },
        {
          "internalType": "address",
          "name": "account",
          "type": "address"
        }
      ],
      "name": "renounceRole",
      "outputs": [],
      "payable": false,
      "stateMutability": "nonpayable",
      "type": "function"
    },
    {
      "constant": false,
      "inputs": [
        {
          "internalType": "bytes32",
          "name": "role",
          "type": "bytes32"
        },
        {
          "internalType": "address",
          "name": "account",
          "type": "address"
        }
      ],
      "name": "revokeRole",
      "outputs": [],
      "payable": false,
      "stateMutability": "nonpayable",
      "type": "function"
    },
    {
      "constant": false,
      "inputs": [],
      "name": "unpause",
      "outputs": [],
      "payable": false,
      "stateMutability": "nonpayable",
      "type": "function"
    },
    {
      "constant": true,
      "inputs": [
        {
          "internalType": "address",
          "name": "",
          "type": "address"
        }
      ],
      "name": "userTransactionCount",
      "outputs": [
        {
          "internalType": "uint256",
          "name": "",
          "type": "uint256"
        }
      ],
      "payable": false,
      "stateMutability": "view",
      "type": "function"
    },
    {
      "constant": false,
      "inputs": [
        {
          "internalType": "address payable",
          "name": "companyAddress",
          "type": "address"
        },
        {
          "internalType": "uint256",
          "name": "amount",
          "type": "uint256"
        }
      ],
      "name": "withdrawEther",
      "outputs": [],
      "payable": false,
      "stateMutability": "nonpayable",
      "type": "function"
    },
    {
      "constant": true,
      "inputs": [
        {
          "internalType": "uint256",
          "name": "_excAmount",
          "type": "uint256"
        },
        {
          "internalType": "uint256",
          "name": "etherAmount",
          "type": "uint256"
        }
      ],
      "name": "checkSufficientStake",
      "outputs": [
        {
          "internalType": "bool",
          "name": "",
          "type": "bool"
        }
      ],
      "payable": false,
      "stateMutability": "pure",
      "type": "function"
    },
    {
      "constant": false,
      "inputs": [
        {
          "internalType": "address payable",
          "name": "companyAddress",
          "type": "address"
        },
        {
          "internalType": "uint256",
          "name": "projectId",
          "type": "uint256"
        },
        {
          "internalType": "bool",
          "name": "isValid",
          "type": "bool"
        },
        {
          "internalType": "uint256",
          "name": "actualEXC",
          "type": "uint256"
        }
      ],
      "name": "validateProject",
      "outputs": [],
      "payable": false,
      "stateMutability": "nonpayable",
      "type": "function"
    },
    {
      "constant": false,
      "inputs": [
        {
          "internalType": "uint256",
          "name": "_excAmount",
          "type": "uint256"
        },
        {
          "internalType": "uint256",
          "name": "projectId",
          "type": "uint256"
        }
      ],
      "name": "sell",
      "outputs": [],
      "payable": true,
      "stateMutability": "payable",
      "type": "function"
    },
    {
      "constant": false,
      "inputs": [
        {
          "internalType": "uint256",
          "name": "_excAmount",
          "type": "uint256"
        },
        {
          "internalType": "address payable",
          "name": "companyAddress",
          "type": "address"
        },
        {
          "internalType": "uint256",
          "name": "projectId",
          "type": "uint256"
        }
      ],
      "name": "buy",
      "outputs": [],
      "payable": true,
      "stateMutability": "payable",
      "type": "function"
    },
    {
      "constant": true,
      "inputs": [
        {
          "internalType": "uint256",
          "name": "projectId",
          "type": "uint256"
        }
      ],
      "name": "getProjectBuyers",
      "outputs": [
        {
          "internalType": "address[]",
          "name": "",
          "type": "address[]"
        }
      ],
      "payable": false,
      "stateMutability": "view",
      "type": "function"
    },
    {
      "constant": true,
      "inputs": [
        {
          "internalType": "uint256",
          "name": "projectId",
          "type": "uint256"
        }
      ],
      "name": "getCurrentPrice",
      "outputs": [
        {
          "internalType": "uint256",
          "name": "",
          "type": "uint256"
        }
      ],
      "payable": false,
      "stateMutability": "view",
      "type": "function"
    },
    {
      "constant": true,
      "inputs": [
        {
          "internalType": "uint256",
          "name": "projectId",
          "type": "uint256"
        }
      ],
      "name": "getProjectPricingInfo",
      "outputs": [
        {
          "internalType": "uint256",
          "name": "currentPrice",
          "type": "uint256"
        },
        {
          "internalType": "uint256",
          "name": "basePrice",
          "type": "uint256"
        },
        {
          "internalType": "uint256",
          "name": "minPrice",
          "type": "uint256"
        },
        {
          "internalType": "uint256",
          "name": "maxPrice",
          "type": "uint256"
        },
        {
          "internalType": "enum DynamicPricing.PricingModel",
          "name": "model",
          "type": "uint8"
        },
        {
          "internalType": "uint256",
          "name": "totalVolume",
          "type": "uint256"
        },
        {
          "internalType": "uint256",
          "name": "qualityScore",
          "type": "uint256"
        },
        {
          "internalType": "uint256",
          "name": "demandScore",
          "type": "uint256"
        },
        {
          "internalType": "uint256",
          "name": "supplyScore",
          "type": "uint256"
        }
      ],
      "payable": false,
      "stateMutability": "view",
      "type": "function"
    },
    {
      "constant": true,
      "inputs": [
        {
          "internalType": "uint256",
          "name": "projectId",
          "type": "uint256"
        },
        {
          "internalType": "uint256",
          "name": "tradeAmount",
          "type": "uint256"
        },
        {
          "internalType": "bool",
          "name": "isBuy",
          "type": "bool"
        }
      ],
      "name": "calculatePriceImpact",
      "outputs": [
        {
          "internalType": "uint256",
          "name": "priceImpact",
          "type": "uint256"
        },
        {
          "internalType": "uint256",
          "name": "newPrice",
          "type": "uint256"
        }
      ],
      "payable": false,
      "stateMutability": "view",
      "type": "function"
    },
    {
      "constant": true,
      "inputs": [],
      "name": "getMarketConditions",
      "outputs": [
        {
          "internalType": "uint256",
          "name": "demandMultiplier",
          "type": "uint256"
        },
        {
          "internalType": "uint256",
          "name": "supplyMultiplier",
          "type": "uint256"
        },
        {
          "internalType": "uint256",
          "name": "volatilityIndex",
          "type": "uint256"
        },
        {
          "internalType": "uint256",
          "name": "sentiment",
          "type": "uint256"
        },
        {
          "internalType": "uint256",
          "name": "lastUpdate",
          "type": "uint256"
        }
      ],
      "payable": false,
      "stateMutability": "view",
      "type": "function"
    },
    {
      "constant": false,
      "inputs": [
        {
          "internalType": "uint256",
          "name": "projectId",
          "type": "uint256"
        },
        {
          "internalType": "enum DynamicPricing.PricingModel",
          "name": "model",
          "type": "uint8"
        },
        {
          "internalType": "uint256",
          "name": "qualityScore",
          "type": "uint256"
        }
      ],
      "name": "initializeProjectPricing",
      "outputs": [],
      "payable": false,
      "stateMutability": "nonpayable",
      "type": "function"
    },
    {
      "constant": false,
      "inputs": [
        {
          "internalType": "uint256",
          "name": "demandMultiplier",
          "type": "uint256"
        },
        {
          "internalType": "uint256",
          "name": "supplyMultiplier",
          "type": "uint256"
        },
        {
          "internalType": "uint256",
          "name": "volatilityIndex",
          "type": "uint256"
        },
        {
          "internalType": "uint256",
          "name": "sentiment",
          "type": "uint256"
        }
      ],
      "name": "updateMarketConditions",
      "outputs": [],
      "payable": false,
      "stateMutability": "nonpayable",
      "type": "function"
    }
  ],
  "bytecode": "0x608060405260006009553480156200001657600080fd5b50604051620064cc380380620064cc833981810160405260808110156200003c57600080fd5b810190808051906020019092919080519060200190929190805190602001909291908051906020019092919050505033600360016101000a81548173ffffffffffffffffffffffffffffffffffffffff021916908373ffffffffffffffffffffffffffffffffffffffff1602179055506000600360006101000a81548160ff0219169083151502179055506001600481905550620000e46000801b336200040c60201b60201c565b6200012b60405180807f41444d494e5f524f4c4500000000000000000000000000000000000000000000815250600a0190506040518091039020336200040c60201b60201c565b6200017260405180807f5041555345525f524f4c45000000000000000000000000000000000000000000815250600b0190506040518091039020336200040c60201b60201c565b620001bc60405180807f41444d494e5f524f4c4500000000000000000000000000000000000000000000815250600a01905060405180910390206000801b620004eb60201b60201c565b6200023860405180807f56414c494441544f525f524f4c45000000000000000000000000000000000000815250600e019050604051809103902060405180807f41444d494e5f524f4c4500000000000000000000000000000000000000000000815250600a0190506040518091039020620004eb60201b60201c565b620002b460405180807f434f4d50414e595f524f4c450000000000000000000000000000000000000000815250600c019050604051809103902060405180807f41444d494e5f524f4c4500000000000000000000000000000000000000000000815250600a0190506040518091039020620004eb60201b60201c565b620002fe60405180807f5041555345525f524f4c45000000000000000000000000000000000000000000815250600b01905060405180910390206000801b620004eb60201b60201c565b82600560006101000a81548173ffffffffffffffffffffffffffffffffffffffff021916908373ffffffffffffffffffffffffffffffffffffffff16021790555081600660006101000a81548173ffffffffffffffffffffffffffffffffffffffff021916908373ffffffffffffffffffffffffffffffffffffffff16021790555083600760006101000a81548173ffffffffffffffffffffffffffffffffffffffff021916908373ffffffffffffffffffffffffffffffffffffffff16021790555080600860006101000a81548173ffffffffffffffffffffffffffffffffffffffff021916908373ffffffffffffffffffffffffffffffffffffffff16021790555050505050620005d0565b6200041e82826200054c60201b60201c565b620004e757600160008084815260200190815260200160002060008373ffffffffffffffffffffffffffffffffffffffff1673ffffffffffffffffffffffffffffffffffffffff16815260200190815260200160002060006101000a81548160ff0219169083151502179055503373ffffffffffffffffffffffffffffffffffffffff168173ffffffffffffffffffffffffffffffffffffffff16837f2f8788117e7eff1d82e926ec794901d17c78024a50270940304540a733656f0d60405160405180910390a45b5050565b6000620004fe83620005b360201b60201c565b90508160016000858152602001908152602001600020819055508181847fbd79b86ffe0ab8e8776151514217cd7cacd52c909f66475c3af44e129f0b00ff60405160405180910390a4505050565b600080600084815260200190815260200160002060008373ffffffffffffffffffffffffffffffffffffffff1673ffffffffffffffffffffffffffffffffffffffff16815260200190815260200160002060009054906101000a900460ff16905092915050565b600060016000838152602001908152602001600020549050919050565b615eec80620005e06000396000f3fe60806040526004361061023b5760003560e01c80638da5cb5b1161012e578063d37b34d7116100ab578063ee95feaf1161006f578063ee95feaf14610d1f578063ef859e3014610d88578063f785bd5a14610df4578063f896c48d14610e63578063fe575a8714610e8e5761023b565b8063d37b34d714610bb3578063d547741f14610c04578063d79875eb14610c5f578063df4d761f14610c97578063e63ab1e914610cf45761023b565b8063a2e07be0116100f2578063a2e07be014610a4e578063ac59c45914610a79578063c49baebe14610ac8578063c55d0f5614610af3578063d2394c1314610b425761023b565b80638da5cb5b146108d557806391d148541461092c57806392cc47601461099f578063a217fddf146109ca578063a29c3534146109f55761023b565b80633f4ba83a116101bc578063537df3b611610180578063537df3b6146107c05780635c975abb1461081157806361de16c41461084057806375b238fc146108935780638456cb59146108be5761023b565b80633f4ba83a146105ba57806341dd5290146105d15780634a4f1da1146106615780634e8d43aa146106d0578063522f6815146107655761023b565b8063228763761161020357806322876376146103ee578063248a9ca31461045d5780632afaca20146104ac5780632f2ff15d1461050457806336568abe1461055f5761023b565b8063053951c4146102405780630b6b90a9146102875780630f79a1c31461030c57806315ae40b81461035e5780631c9ee11a146103c3575b600080fd5b34801561024c57600080fd5b50610255610ef7565b604051808681526020018581526020018481526020018381526020018281526020019550505050505060405180910390f35b34801561029357600080fd5b506102ca600480360360408110156102aa57600080fd5b810190808035906020019092919080359060200190929190505050610fdb565b604051808273ffffffffffffffffffffffffffffffffffffffff1673ffffffffffffffffffffffffffffffffffffffff16815260200191505060405180910390f35b34801561031857600080fd5b5061035c6004803603606081101561032f57600080fd5b8101908080359060200190929190803560ff16906020019092919080359060200190929190505050611026565b005b34801561036a57600080fd5b506103ad6004803603602081101561038157600080fd5b81019080803573ffffffffffffffffffffffffffffffffffffffff1690602001909291905050506111d2565b6040518082815260200191505060405180910390f35b3480156103cf57600080fd5b506103d86111ea565b6040518082815260200191505060405180910390f35b3480156103fa57600080fd5b506104476004803603604081101561041157600080fd5b81019080803573ffffffffffffffffffffffffffffffffffffffff16906020019092919080359060200190929190505050611223565b6040518082815260200191505060405180910390f35b34801561046957600080fd5b506104966004803603602081101561048057600080fd5b8101908080359060200190929190505050611251565b6040518082815260200191505060405180910390f35b610502600480360360608110156104c257600080fd5b8101908080359060200190929190803573ffffffffffffffffffffffffffffffffffffffff1690602001909291908035906020019092919050505061126e565b005b34801561051057600080fd5b5061055d6004803603604081101561052757600080fd5b8101908080359060200190929190803573ffffffffffffffffffffffffffffffffffffffff169060200190929190505050611f6c565b005b34801561056b57600080fd5b506105b86004803603604081101561058257600080fd5b8101908080359060200190929190803573ffffffffffffffffffffffffffffffffffffffff16906020019092919050505061212d565b005b3480156105c657600080fd5b506105cf6121bf565b005b3480156105dd57600080fd5b5061060a600480360360208110156105f457600080fd5b810190808035906020019092919050505061233a565b6040518080602001828103825283818151815260200191508051906020019060200280838360005b8381101561064d578082015181840152602081019050610632565b505050509050019250505060405180910390f35b34801561066d57600080fd5b506106ba6004803603604081101561068457600080fd5b81019080803573ffffffffffffffffffffffffffffffffffffffff169060200190929190803590602001909291905050506123db565b6040518082815260200191505060405180910390f35b3480156106dc57600080fd5b50610709600480360360208110156106f357600080fd5b8101908080359060200190929190505050612400565b604051808a815260200189815260200188815260200187815260200186600581111561073157fe5b60ff168152602001858152602001848152602001838152602001828152602001995050505050505050505060405180910390f35b34801561077157600080fd5b506107be6004803603604081101561078857600080fd5b81019080803573ffffffffffffffffffffffffffffffffffffffff1690602001909291908035906020019092919050505061252d565b005b3480156107cc57600080fd5b5061080f600480360360208110156107e357600080fd5b81019080803573ffffffffffffffffffffffffffffffffffffffff16906020019092919050505061282a565b005b34801561081d57600080fd5b50610826612a62565b604051808215151515815260200191505060405180910390f35b34801561084c57600080fd5b506108796004803603602081101561086357600080fd5b8101908080359060200190929190505050612a79565b604051808215151515815260200191505060405180910390f35b34801561089f57600080fd5b506108a8612a99565b6040518082815260200191505060405180910390f35b3480156108ca57600080fd5b506108d3612ad2565b005b3480156108e157600080fd5b506108ea612c4e565b604051808273ffffffffffffffffffffffffffffffffffffffff1673ffffffffffffffffffffffffffffffffffffffff16815260200191505060405180910390f35b34801561093857600080fd5b506109856004803603604081101561094f57600080fd5b8101908080359060200190929190803573ffffffffffffffffffffffffffffffffffffffff169060200190929190505050612c78565b604051808215151515815260200191505060405180910390f35b3480156109ab57600080fd5b506109b4612cdf565b6040518082815260200191505060405180910390f35b3480156109d657600080fd5b506109df612ce4565b6040518082815260200191505060405180910390f35b348015610a0157600080fd5b50610a4c60048036036080811015610a1857600080fd5b8101908080359060200190929190803590602001909291908035906020019092919080359060200190929190505050612ceb565b005b348015610a5a57600080fd5b50610a63612e92565b6040518082815260200191505060405180910390f35b348015610a8557600080fd5b50610ab260048036036020811015610a9c57600080fd5b8101908080359060200190929190505050612e97565b6040518082815260200191505060405180910390f35b348015610ad457600080fd5b50610add612eaf565b6040518082815260200191505060405180910390f35b348015610aff57600080fd5b50610b2c60048036036020811015610b1657600080fd5b8101908080359060200190929190505050612ee8565b6040518082815260200191505060405180910390f35b348015610b4e57600080fd5b50610bb160048036036080811015610b6557600080fd5b81019080803573ffffffffffffffffffffffffffffffffffffffff1690602001909291908035906020019092919080351515906020019092919080359060200190929190505050612f9f565b005b348015610bbf57600080fd5b50610c0260048036036020811015610bd657600080fd5b81019080803573ffffffffffffffffffffffffffffffffffffffff169060200190929190505050613d40565b005b348015610c1057600080fd5b50610c5d60048036036040811015610c2757600080fd5b8101908080359060200190929190803573ffffffffffffffffffffffffffffffffffffffff169060200190929190505050613ff7565b005b610c9560048036036040811015610c7557600080fd5b810190808035906020019092919080359060200190929190505050614113565b005b348015610ca357600080fd5b50610cda60048036036040811015610cba57600080fd5b810190808035906020019092919080359060200190929190505050614f12565b604051808215151515815260200191505060405180910390f35b348015610d0057600080fd5b50610d09614f32565b6040518082815260200191505060405180910390f35b348015610d2b57600080fd5b50610d6e60048036036020811015610d4257600080fd5b81019080803573ffffffffffffffffffffffffffffffffffffffff169060200190929190505050614f6b565b604051808215151515815260200191505060405180910390f35b348015610d9457600080fd5b50610dd760048036036060811015610dab57600080fd5b810190808035906020019092919080359060200190929190803515159060200190929190505050614f8b565b604051808381526020018281526020019250505060405180910390f35b348015610e0057600080fd5b50610e4d60048036036040811015610e1757600080fd5b81019080803573ffffffffffffffffffffffffffffffffffffffff16906020019092919080359060200190929190505050615065565b6040518082815260200191505060405180910390f35b348015610e6f57600080fd5b50610e7861508a565b6040518082815260200191505060405180910390f35b348015610e9a57600080fd5b50610edd60048036036020811015610eb157600080fd5b81019080803573ffffffffffffffffffffffffffffffffffffffff169060200190929190505050615090565b604051808215151515815260200191505060405180910390f35b6000806000806000600860009054906101000a900473ffffffffffffffffffffffffffffffffffffffff1673ffffffffffffffffffffffffffffffffffffffff1663053951c46040518163ffffffff1660e01b815260040160a06040518083038186803b158015610f6757600080fd5b505afa158015610f7b573d6000803e3d6000fd5b505050506040513d60a0811015610f9157600080fd5b810190808051906020019092919080519060200190929190805190602001909291908051906020019092919080519060200190929190505050945094509450945094509091929394565b600c6020528160005260406000208181548110610ff457fe5b906000526020600020016000915091509054906101000a900473ffffffffffffffffffffffffffffffffffffffff1681565b60405180807f41444d494e5f524f4c4500000000000000000000000000000000000000000000815250600a01905060405180910390206110668133612c78565b6110bb576040517f08c379a0000000000000000000000000000000000000000000000000000000008152600401808060200182810382526031815260200180615e336031913960400191505060405180910390fd5b600360009054906101000a900460ff1615611121576040517f08c379a0000000000000000000000000000000000000000000000000000000008152600401808060200182810382526021815260200180615cb06021913960400191505060405180910390fd5b600860009054906101000a900473ffffffffffffffffffffffffffffffffffffffff1673ffffffffffffffffffffffffffffffffffffffff16630f79a1c38585856040518463ffffffff1660e01b81526004018084815260200183600581111561118757fe5b60ff1681526020018281526020019350505050600060405180830381600087803b1580156111b457600080fd5b505af11580156111c8573d6000803e3d6000fd5b5050505050505050565b60106020528060005260406000206000915090505481565b60405180807f434f4d50414e595f524f4c450000000000000000000000000000000000000000815250600c019050604051809103902081565b600b602052816000526040600020818154811061123c57fe5b90600052602060002001600091509150505481565b600060016000838152602001908152602001600020549050919050565b600360009054906101000a900460ff16156112d4576040517f08c379a0000000000000000000000000000000000000000000000000000000008152600401808060200182810382526021815260200180615cb06021913960400191505060405180910390fd5b33600260008273ffffffffffffffffffffffffffffffffffffffff1673ffffffffffffffffffffffffffffffffffffffff16815260200190815260200160002060009054906101000a900460ff1615611378576040517f08c379a0000000000000000000000000000000000000000000000000000000008152600401808060200182810382526025815260200180615de46025913960400191505060405180910390fd5b82600073ffffffffffffffffffffffffffffffffffffffff168173ffffffffffffffffffffffffffffffffffffffff16141561141c576040517f08c379a000000000000000000000000000000000000000000000000000000000815260040180806020018281038252601e8152602001807f416363657373436f6e74726f6c3a20696e76616c69642061646472657373000081525060200191505060405180910390fd5b846001811015801561143057506127108111155b611485576040517f08c379a0000000000000000000000000000000000000000000000000000000008152600401808060200182810382526032815260200180615c526032913960400191505060405180910390fd5b600260045414156114fe576040517f08c379a000000000000000000000000000000000000000000000000000000000815260040180806020018281038252601d8152602001807f416363657373436f6e74726f6c3a207265656e7472616e742063616c6c00000081525060200191505060405180910390fd5b60026004819055506000600860009054906101000a900473ffffffffffffffffffffffffffffffffffffffff1673ffffffffffffffffffffffffffffffffffffffff1663c55d0f56866040518263ffffffff1660e01b81526004018082815260200191505060206040518083038186803b15801561157b57600080fd5b505afa15801561158f573d6000803e3d6000fd5b505050506040513d60208110156115a557600080fd5b810190808051906020019092919050505090506000818802905080341015611618576040517f08c379a0000000000000000000000000000000000000000000000000000000008152600401808060200182810382526036815260200180615dae6036913960400191505060405180910390fd5b600760009054906101000a900473ffffffffffffffffffffffffffffffffffffffff1673ffffffffffffffffffffffffffffffffffffffff16635f940919886040518263ffffffff1660e01b8152600401808273ffffffffffffffffffffffffffffffffffffffff1673ffffffffffffffffffffffffffffffffffffffff16815260200191505060206040518083038186803b1580156116b757600080fd5b505afa1580156116cb573d6000803e3d6000fd5b505050506040513d60208110156116e157600080fd5b8101908080519060200190929190505050611747576040517f08c379a0000000000000000000000000000000000000000000000000000000008152600401808060200182810382526033815260200180615bec6033913960400191505060405180910390fd5b600760009054906101000a900473ffffffffffffffffffffffffffffffffffffffff1673ffffffffffffffffffffffffffffffffffffffff1663ef5e100888888b6040518463ffffffff1660e01b8152600401808473ffffffffffffffffffffffffffffffffffffffff1673ffffffffffffffffffffffffffffffffffffffff168152602001838152602001828152602001935050505060206040518083038186803b1580156117f657600080fd5b505afa15801561180a573d6000803e3d6000fd5b505050506040513d602081101561182057600080fd5b8101908080519060200190929190505050611886576040517f08c379a0000000000000000000000000000000000000000000000000000000008152600401808060200182810382526022815260200180615bca6022913960400191505060405180910390fd5b600760009054906101000a900473ffffffffffffffffffffffffffffffffffffffff1673ffffffffffffffffffffffffffffffffffffffff166313732f4788888b6040518463ffffffff1660e01b8152600401808473ffffffffffffffffffffffffffffffffffffffff1673ffffffffffffffffffffffffffffffffffffffff1681526020018381526020018281526020019350505050600060405180830381600087803b15801561193757600080fd5b505af115801561194b573d6000803e3d6000fd5b50505050600860009054906101000a900473ffffffffffffffffffffffffffffffffffffffff1673ffffffffffffffffffffffffffffffffffffffff166339b688d0878a60016040518463ffffffff1660e01b815260040180848152602001838152602001821515151581526020019350505050600060405180830381600087803b1580156119d957600080fd5b505af11580156119ed573d6000803e3d6000fd5b5050505060008134039050600180811115611a0457fe5b600760009054906101000a900473ffffffffffffffffffffffffffffffffffffffff1673ffffffffffffffffffffffffffffffffffffffff1663e0155714896040518263ffffffff1660e01b81526004018082815260200191505060206040518083038186803b158015611a7757600080fd5b505afa158015611a8b573d6000803e3d6000fd5b505050506040513d6020811015611aa157600080fd5b81019080805190602001909291905050506001811115611abd57fe5b1415611d0457600e60008973ffffffffffffffffffffffffffffffffffffffff1673ffffffffffffffffffffffffffffffffffffffff168152602001908152602001600020600088815260200190815260200160002054891115611b89576040517f08c379a00000000000000000000000000000000000000000000000000000000081526004018080602001828103825260178152602001807f496e73756666756369656e742045584320746f2062757900000000000000000081525060200191505060405180910390fd5b8860096000828254039250508190555088600e60008a73ffffffffffffffffffffffffffffffffffffffff1673ffffffffffffffffffffffffffffffffffffffff168152602001908152602001600020600089815260200190815260200160002060008282540392505081905550600560009054906101000a900473ffffffffffffffffffffffffffffffffffffffff1673ffffffffffffffffffffffffffffffffffffffff1663e3491a6c338b6040518363ffffffff1660e01b8152600401808373ffffffffffffffffffffffffffffffffffffffff1673ffffffffffffffffffffffffffffffffffffffff16815260200182815260200192505050600060405180830381600087803b158015611ca057600080fd5b505af1158015611cb4573d6000803e3d6000fd5b505050508773ffffffffffffffffffffffffffffffffffffffff166108fc839081150290604051600060405180830381858888f19350505050158015611cfe573d6000803e3d6000fd5b50611e8d565b88600d60003373ffffffffffffffffffffffffffffffffffffffff1673ffffffffffffffffffffffffffffffffffffffff1681526020019081526020016000206000898152602001908152602001600020600082825401925050819055506000600c60008981526020019081526020016000209050600080905060008090505b8280549050811015611e0c573373ffffffffffffffffffffffffffffffffffffffff16838281548110611db357fe5b9060005260206000200160009054906101000a900473ffffffffffffffffffffffffffffffffffffffff1673ffffffffffffffffffffffffffffffffffffffff161415611dff57600191505b8080600101915050611d84565b5080611e8a57600c60008a81526020019081526020016000203390806001815401808255809150509060018203906000526020600020016000909192909190916101000a81548173ffffffffffffffffffffffffffffffffffffffff021916908373ffffffffffffffffffffffffffffffffffffffff160217905550505b50505b6000811115611ede573373ffffffffffffffffffffffffffffffffffffffff166108fc829081150290604051600060405180830381858888f19350505050158015611edc573d6000803e3d6000fd5b505b7fc595dd43277c5ab8e6bbb47c86228342b29926e3ff7400eb876d28a14500cd20338a8585604051808573ffffffffffffffffffffffffffffffffffffffff1673ffffffffffffffffffffffffffffffffffffffff16815260200184815260200183815260200182815260200194505050505060405180910390a15050506001600481905550505050505050565b611f7582611251565b611f7f8133612c78565b611fd4576040517f08c379a0000000000000000000000000000000000000000000000000000000008152600401808060200182810382526031815260200180615e336031913960400191505060405180910390fd5b81600073ffffffffffffffffffffffffffffffffffffffff168173ffffffffffffffffffffffffffffffffffffffff161415612078576040517f08c379a000000000000000000000000000000000000000000000000000000000815260040180806020018281038252601e8152602001807f416363657373436f6e74726f6c3a20696e76616c69642061646472657373000081525060200191505060405180910390fd5b82600260008273ffffffffffffffffffffffffffffffffffffffff1673ffffffffffffffffffffffffffffffffffffffff16815260200190815260200160002060009054906101000a900460ff161561211c576040517f08c379a0000000000000000000000000000000000000000000000000000000008152600401808060200182810382526025815260200180615de46025913960400191505060405180910390fd5b61212685856150e6565b5050505050565b3373ffffffffffffffffffffffffffffffffffffffff168173ffffffffffffffffffffffffffffffffffffffff16146121b1576040517f08c379a000000000000000000000000000000000000000000000000000000000815260040180806020018281038252602f815260200180615e64602f913960400191505060405180910390fd5b6121bb82826151bc565b5050565b60405180807f5041555345525f524f4c45000000000000000000000000000000000000000000815250600b01905060405180910390206121ff8133612c78565b612254576040517f08c379a0000000000000000000000000000000000000000000000000000000008152600401808060200182810382526031815260200180615e336031913960400191505060405180910390fd5b600360009054906101000a900460ff166122b9576040517f08c379a0000000000000000000000000000000000000000000000000000000008152600401808060200182810382526025815260200180615e936025913960400191505060405180910390fd5b6000600360006101000a81548160ff0219169083151502179055507f5db9ee0a495bf2e6ff9c91a7834c1ba4fdd244a5e8aa4e537bd38aeae4b073aa33604051808273ffffffffffffffffffffffffffffffffffffffff1673ffffffffffffffffffffffffffffffffffffffff16815260200191505060405180910390a150565b6060600c60008381526020019081526020016000208054806020026020016040519081016040528092919081815260200182805480156123cf57602002820191906000526020600020905b8160009054906101000a900473ffffffffffffffffffffffffffffffffffffffff1673ffffffffffffffffffffffffffffffffffffffff1681526020019060010190808311612385575b50505050509050919050565b600d602052816000526040600020602052806000526040600020600091509150505481565b6000806000806000806000806000600860009054906101000a900473ffffffffffffffffffffffffffffffffffffffff1673ffffffffffffffffffffffffffffffffffffffff16634e8d43aa8b6040518263ffffffff1660e01b8152600401808281526020019150506101206040518083038186803b15801561248257600080fd5b505afa158015612496573d6000803e3d6000fd5b505050506040513d6101208110156124ad57600080fd5b810190808051906020019092919080519060200190929190805190602001909291908051906020019092919080519060200190929190805190602001909291908051906020019092919080519060200190929190805190602001909291905050509850985098509850985098509850985098509193959799909294969850565b600660009054906101000a900473ffffffffffffffffffffffffffffffffffffffff1673ffffffffffffffffffffffffffffffffffffffff1663facd743b336040518263ffffffff1660e01b8152600401808273ffffffffffffffffffffffffffffffffffffffff1673ffffffffffffffffffffffffffffffffffffffff16815260200191505060206040518083038186803b1580156125cc57600080fd5b505afa1580156125e0573d6000803e3d6000fd5b505050506040513d60208110156125f657600080fd5b810190808051906020019092919050505061265c576040517f08c379a0000000000000000000000000000000000000000000000000000000008152600401808060200182810382526033815260200180615c1f6033913960400191505060405180910390fd5b81600073ffffffffffffffffffffffffffffffffffffffff168173ffffffffffffffffffffffffffffffffffffffff161415612700576040517f08c379a000000000000000000000000000000000000000000000000000000000815260040180806020018281038252601e8152602001807f416363657373436f6e74726f6c3a20696e76616c69642061646472657373000081525060200191505060405180910390fd5b816000811161275a576040517f08c379a000000000000000000000000000000000000000000000000000000000815260040180806020018281038252602f815260200180615d7f602f913960400191505060405180910390fd5b478311156127d0576040517f08c379a000000000000000000000000000000000000000000000000000000000815260040180806020018281038252601d8152602001807f496e73756666696369656e7420636f6e74726163742062616c616e636500000081525060200191505060405180910390fd5b670de0b6b3a7640000830292508373ffffffffffffffffffffffffffffffffffffffff166108fc849081150290604051600060405180830381858888f19350505050158015612823573d6000803e3d6000fd5b5050505050565b60405180807f41444d494e5f524f4c4500000000000000000000000000000000000000000000815250600a019050604051809103902061286a8133612c78565b6128bf576040517f08c379a0000000000000000000000000000000000000000000000000000000008152600401808060200182810382526031815260200180615e336031913960400191505060405180910390fd5b81600073ffffffffffffffffffffffffffffffffffffffff168173ffffffffffffffffffffffffffffffffffffffff161415612963576040517f08c379a000000000000000000000000000000000000000000000000000000000815260040180806020018281038252601e8152602001807f416363657373436f6e74726f6c3a20696e76616c69642061646472657373000081525060200191505060405180910390fd5b600260008473ffffffffffffffffffffffffffffffffffffffff1673ffffffffffffffffffffffffffffffffffffffff16815260200190815260200160002060009054906101000a900460ff16612a05576040517f08c379a0000000000000000000000000000000000000000000000000000000008152600401808060200182810382526026815260200180615cd16026913960400191505060405180910390fd5b6000600260008573ffffffffffffffffffffffffffffffffffffffff1673ffffffffffffffffffffffffffffffffffffffff16815260200190815260200160002060006101000a81548160ff021916908315150217905550505050565b6000600360009054906101000a900460ff16905090565b600f6020528060005260406000206000915054906101000a900460ff1681565b60405180807f41444d494e5f524f4c4500000000000000000000000000000000000000000000815250600a019050604051809103902081565b60405180807f5041555345525f524f4c45000000000000000000000000000000000000000000815250600b0190506040518091039020612b128133612c78565b612b67576040517f08c379a0000000000000000000000000000000000000000000000000000000008152600401808060200182810382526031815260200180615e336031913960400191505060405180910390fd5b600360009054906101000a900460ff1615612bcd576040517f08c379a0000000000000000000000000000000000000000000000000000000008152600401808060200182810382526021815260200180615cb06021913960400191505060405180910390fd5b6001600360006101000a81548160ff0219169083151502179055507f62e78cea01bee320cd4e420270b5ea74000d11b0c9f74754ebdbfc544b05a25833604051808273ffffffffffffffffffffffffffffffffffffffff1673ffffffffffffffffffffffffffffffffffffffff16815260200191505060405180910390a150565b6000600360019054906101000a900473ffffffffffffffffffffffffffffffffffffffff16905090565b600080600084815260200190815260200160002060008373ffffffffffffffffffffffffffffffffffffffff1673ffffffffffffffffffffffffffffffffffffffff16815260200190815260200160002060009054906101000a900460ff16905092915050565b608281565b6000801b81565b60405180807f41444d494e5f524f4c4500000000000000000000000000000000000000000000815250600a0190506040518091039020612d2b8133612c78565b612d80576040517f08c379a0000000000000000000000000000000000000000000000000000000008152600401808060200182810382526031815260200180615e336031913960400191505060405180910390fd5b600360009054906101000a900460ff1615612de6576040517f08c379a0000000000000000000000000000000000000000000000000000000008152600401808060200182810382526021815260200180615cb06021913960400191505060405180910390fd5b600860009054906101000a900473ffffffffffffffffffffffffffffffffffffffff1673ffffffffffffffffffffffffffffffffffffffff1663a29c3534868686866040518563ffffffff1660e01b815260040180858152602001848152602001838152602001828152602001945050505050600060405180830381600087803b158015612e7357600080fd5b505af1158015612e87573d6000803e3d6000fd5b505050505050505050565b600181565b60116020528060005260406000206000915090505481565b60405180807f56414c494441544f525f524f4c45000000000000000000000000000000000000815250600e019050604051809103902081565b6000600860009054906101000a900473ffffffffffffffffffffffffffffffffffffffff1673ffffffffffffffffffffffffffffffffffffffff1663c55d0f56836040518263ffffffff1660e01b81526004018082815260200191505060206040518083038186803b158015612f5d57600080fd5b505afa158015612f71573d6000803e3d6000fd5b505050506040513d6020811015612f8757600080fd5b81019080805190602001909291905050509050919050565b600660009054906101000a900473ffffffffffffffffffffffffffffffffffffffff1673ffffffffffffffffffffffffffffffffffffffff1663facd743b336040518263ffffffff1660e01b8152600401808273ffffffffffffffffffffffffffffffffffffffff1673ffffffffffffffffffffffffffffffffffffffff16815260200191505060206040518083038186803b15801561303e57600080fd5b505afa158015613052573d6000803e3d6000fd5b505050506040513d602081101561306857600080fd5b81019080805190602001909291905050506130ce576040517f08c379a0000000000000000000000000000000000000000000000000000000008152600401808060200182810382526033815260200180615c1f6033913960400191505060405180910390fd5b600360009054906101000a900460ff1615613134576040517f08c379a0000000000000000000000000000000000000000000000000000000008152600401808060200182810382526021815260200180615cb06021913960400191505060405180910390fd5b83600073ffffffffffffffffffffffffffffffffffffffff168173ffffffffffffffffffffffffffffffffffffffff1614156131d8576040517f08c379a000000000000000000000000000000000000000000000000000000000815260040180806020018281038252601e8152602001807f416363657373436f6e74726f6c3a20696e76616c69642061646472657373000081525060200191505060405180910390fd5b83600760009054906101000a900473ffffffffffffffffffffffffffffffffffffffff1673ffffffffffffffffffffffffffffffffffffffff16635a067baa6040518163ffffffff1660e01b815260040160206040518083038186803b15801561324157600080fd5b505afa158015613255573d6000803e3d6000fd5b505050506040513d602081101561326b57600080fd5b810190808051906020019092919050505081106132d3576040517f08c379a0000000000000000000000000000000000000000000000000000000008152600401808060200182810382526028815260200180615d2c6028913960400191505060405180910390fd5b6001808111156132df57fe5b600760009054906101000a900473ffffffffffffffffffffffffffffffffffffffff1673ffffffffffffffffffffffffffffffffffffffff1663e0155714836040518263ffffffff1660e01b81526004018082815260200191505060206040518083038186803b15801561335257600080fd5b505afa158015613366573d6000803e3d6000fd5b505050506040513d602081101561337c57600080fd5b8101908080519060200190929190505050600181111561339857fe5b14156133ef576040517f08c379a000000000000000000000000000000000000000000000000000000000815260040180806020018281038252602b815260200180615d54602b913960400191505060405180910390fd5b8260008111613449576040517f08c379a000000000000000000000000000000000000000000000000000000000815260040180806020018281038252602f815260200180615d7f602f913960400191505060405180910390fd5b600260045414156134c2576040517f08c379a000000000000000000000000000000000000000000000000000000000815260040180806020018281038252601d8152602001807f416363657373436f6e74726f6c3a207265656e7472616e742063616c6c00000081525060200191505060405180910390fd5b60026004819055506001808111156134d657fe5b600760009054906101000a900473ffffffffffffffffffffffffffffffffffffffff1673ffffffffffffffffffffffffffffffffffffffff1663e0155714886040518263ffffffff1660e01b81526004018082815260200191505060206040518083038186803b15801561354957600080fd5b505afa15801561355d573d6000803e3d6000fd5b505050506040513d602081101561357357600080fd5b8101908080519060200190929190505050600181111561358f57fe5b14156135e6576040517f08c379a000000000000000000000000000000000000000000000000000000000815260040180806020018281038252602c815260200180615c84602c913960400191505060405180910390fd5b600760009054906101000a900473ffffffffffffffffffffffffffffffffffffffff1673ffffffffffffffffffffffffffffffffffffffff1663dd8c9c9f876040518263ffffffff1660e01b815260040180828152602001915050600060405180830381600087803b15801561365b57600080fd5b505af115801561366f573d6000803e3d6000fd5b505050507f99c9063f4fc4a080eac1f1de08fe0c36d9a5ee798519dc7a33c2461d407d2dc8878787604051808473ffffffffffffffffffffffffffffffffffffffff1673ffffffffffffffffffffffffffffffffffffffff16815260200183815260200182151515158152602001935050505060405180910390a1846136ff576136fa878786615293565b613c03565b6000600c6000888152602001908152602001600020905060008090505b818054905081101561390257600082828154811061373657fe5b9060005260206000200160009054906101000a900473ffffffffffffffffffffffffffffffffffffffff1690506000600d60008373ffffffffffffffffffffffffffffffffffffffff1673ffffffffffffffffffffffffffffffffffffffff16815260200190815260200160002060008b8152602001908152602001600020549050600560009054906101000a900473ffffffffffffffffffffffffffffffffffffffff1673ffffffffffffffffffffffffffffffffffffffff1663b73cacc583836040518363ffffffff1660e01b8152600401808373ffffffffffffffffffffffffffffffffffffffff1673ffffffffffffffffffffffffffffffffffffffff16815260200182815260200192505050602060405180830381600087803b15801561386157600080fd5b505af1158015613875573d6000803e3d6000fd5b505050506040513d602081101561388b57600080fd5b8101908080519060200190929190505050506000600d60008473ffffffffffffffffffffffffffffffffffffffff1673ffffffffffffffffffffffffffffffffffffffff16815260200190815260200160002060008c8152602001908152602001600020819055505050808060010191505061371c565b506000600760009054906101000a900473ffffffffffffffffffffffffffffffffffffffff1673ffffffffffffffffffffffffffffffffffffffff1663c08e375f896040518263ffffffff1660e01b81526004018082815260200191505060206040518083038186803b15801561397857600080fd5b505afa15801561398c573d6000803e3d6000fd5b505050506040513d60208110156139a257600080fd5b810190808051906020019092919050505086039050600760009054906101000a900473ffffffffffffffffffffffffffffffffffffffff1673ffffffffffffffffffffffffffffffffffffffff16637ffd86c089836040518363ffffffff1660e01b81526004018083815260200182815260200192505050600060405180830381600087803b158015613a3457600080fd5b505af1158015613a48573d6000803e3d6000fd5b505050506000600760009054906101000a900473ffffffffffffffffffffffffffffffffffffffff1673ffffffffffffffffffffffffffffffffffffffff166353cd25828b8b6040518363ffffffff1660e01b8152600401808373ffffffffffffffffffffffffffffffffffffffff1673ffffffffffffffffffffffffffffffffffffffff1681526020018281526020019250505060206040518083038186803b158015613af557600080fd5b505afa158015613b09573d6000803e3d6000fd5b505050506040513d6020811015613b1f57600080fd5b8101908080519060200190929190505050905060006103e86003830281613b4257fe5b049050613bfe8b600760009054906101000a900473ffffffffffffffffffffffffffffffffffffffff1673ffffffffffffffffffffffffffffffffffffffff1663c08e375f8d6040518263ffffffff1660e01b81526004018082815260200191505060206040518083038186803b158015613bbc57600080fd5b505afa158015613bd0573d6000803e3d6000fd5b505050506040513d6020811015613be657600080fd5b8101908080519060200190929190505050830161252d565b505050505b600760009054906101000a900473ffffffffffffffffffffffffffffffffffffffff1673ffffffffffffffffffffffffffffffffffffffff16636e3eb76d8760006040518363ffffffff1660e01b81526004018083815260200182815260200192505050600060405180830381600087803b158015613c8157600080fd5b505af1158015613c95573d6000803e3d6000fd5b50505050600760009054906101000a900473ffffffffffffffffffffffffffffffffffffffff1673ffffffffffffffffffffffffffffffffffffffff1663704eb3318760006040518363ffffffff1660e01b81526004018083815260200182815260200192505050600060405180830381600087803b158015613d1757600080fd5b505af1158015613d2b573d6000803e3d6000fd5b50505050600160048190555050505050505050565b60405180807f41444d494e5f524f4c4500000000000000000000000000000000000000000000815250600a0190506040518091039020613d808133612c78565b613dd5576040517f08c379a0000000000000000000000000000000000000000000000000000000008152600401808060200182810382526031815260200180615e336031913960400191505060405180910390fd5b81600073ffffffffffffffffffffffffffffffffffffffff168173ffffffffffffffffffffffffffffffffffffffff161415613e79576040517f08c379a000000000000000000000000000000000000000000000000000000000815260040180806020018281038252601e8152602001807f416363657373436f6e74726f6c3a20696e76616c69642061646472657373000081525060200191505060405180910390fd5b600260008473ffffffffffffffffffffffffffffffffffffffff1673ffffffffffffffffffffffffffffffffffffffff16815260200190815260200160002060009054906101000a900460ff1615613f1c576040517f08c379a000000000000000000000000000000000000000000000000000000000815260040180806020018281038252602a815260200180615e09602a913960400191505060405180910390fd5b6001600260008573ffffffffffffffffffffffffffffffffffffffff1673ffffffffffffffffffffffffffffffffffffffff16815260200190815260200160002060006101000a81548160ff021916908315150217905550613fb360405180807f56414c494441544f525f524f4c45000000000000000000000000000000000000815250600e0190506040518091039020846151bc565b613ff260405180807f434f4d50414e595f524f4c450000000000000000000000000000000000000000815250600c0190506040518091039020846151bc565b505050565b61400082611251565b61400a8133612c78565b61405f576040517f08c379a0000000000000000000000000000000000000000000000000000000008152600401808060200182810382526031815260200180615e336031913960400191505060405180910390fd5b81600073ffffffffffffffffffffffffffffffffffffffff168173ffffffffffffffffffffffffffffffffffffffff161415614103576040517f08c379a000000000000000000000000000000000000000000000000000000000815260040180806020018281038252601e8152602001807f416363657373436f6e74726f6c3a20696e76616c69642061646472657373000081525060200191505060405180910390fd5b61410d84846151bc565b50505050565b600360009054906101000a900460ff1615614179576040517f08c379a0000000000000000000000000000000000000000000000000000000008152600401808060200182810382526021815260200180615cb06021913960400191505060405180910390fd5b33600260008273ffffffffffffffffffffffffffffffffffffffff1673ffffffffffffffffffffffffffffffffffffffff16815260200190815260200160002060009054906101000a900460ff161561421d576040517f08c379a0000000000000000000000000000000000000000000000000000000008152600401808060200182810382526025815260200180615de46025913960400191505060405180910390fd5b826001811015801561423157506127108111155b614286576040517f08c379a0000000000000000000000000000000000000000000000000000000008152600401808060200182810382526032815260200180615c526032913960400191505060405180910390fd5b600260045414156142ff576040517f08c379a000000000000000000000000000000000000000000000000000000000815260040180806020018281038252601d8152602001807f416363657373436f6e74726f6c3a207265656e7472616e742063616c6c00000081525060200191505060405180910390fd5b6002600481905550600760009054906101000a900473ffffffffffffffffffffffffffffffffffffffff1673ffffffffffffffffffffffffffffffffffffffff16635f940919336040518263ffffffff1660e01b8152600401808273ffffffffffffffffffffffffffffffffffffffff1673ffffffffffffffffffffffffffffffffffffffff16815260200191505060206040518083038186803b1580156143a657600080fd5b505afa1580156143ba573d6000803e3d6000fd5b505050506040513d60208110156143d057600080fd5b8101908080519060200190929190505050614436576040517f08c379a0000000000000000000000000000000000000000000000000000000008152600401808060200182810382526035815260200180615cf76035913960400191505060405180910390fd5b600760009054906101000a900473ffffffffffffffffffffffffffffffffffffffff1673ffffffffffffffffffffffffffffffffffffffff166343a2004e3385876040518463ffffffff1660e01b8152600401808473ffffffffffffffffffffffffffffffffffffffff1673ffffffffffffffffffffffffffffffffffffffff168152602001838152602001828152602001935050505060206040518083038186803b1580156144e557600080fd5b505afa1580156144f9573d6000803e3d6000fd5b505050506040513d602081101561450f57600080fd5b8101908080519060200190929190505050614592576040517f08c379a000000000000000000000000000000000000000000000000000000000815260040180806020018281038252601c8152602001807f45584320666f722070726f6a656374206f76657265786365656465640000000081525060200191505060405180910390fd5b600760009054906101000a900473ffffffffffffffffffffffffffffffffffffffff1673ffffffffffffffffffffffffffffffffffffffff1663ef5e10083385876040518463ffffffff1660e01b8152600401808473ffffffffffffffffffffffffffffffffffffffff1673ffffffffffffffffffffffffffffffffffffffff168152602001838152602001828152602001935050505060206040518083038186803b15801561464157600080fd5b505afa158015614655573d6000803e3d6000fd5b505050506040513d602081101561466b57600080fd5b81019080805190602001909291905050506146ee576040517f08c379a00000000000000000000000000000000000000000000000000000000081526004018080602001828103825260188152602001807f496e73756666696369656e742045584320746f2073656c6c000000000000000081525060200191505060405180910390fd5b6000600860009054906101000a900473ffffffffffffffffffffffffffffffffffffffff1673ffffffffffffffffffffffffffffffffffffffff1663c55d0f56856040518263ffffffff1660e01b81526004018082815260200191505060206040518083038186803b15801561476357600080fd5b505afa158015614777573d6000803e3d6000fd5b505050506040513d602081101561478d57600080fd5b81019080805190602001909291905050509050600081860290506001808111156147b357fe5b600760009054906101000a900473ffffffffffffffffffffffffffffffffffffffff1673ffffffffffffffffffffffffffffffffffffffff1663e0155714876040518263ffffffff1660e01b81526004018082815260200191505060206040518083038186803b15801561482657600080fd5b505afa15801561483a573d6000803e3d6000fd5b505050506040513d602081101561485057600080fd5b8101908080519060200190929190505050600181111561486c57fe5b1415614a6f578560096000828254019250508190555085600e60003373ffffffffffffffffffffffffffffffffffffffff1673ffffffffffffffffffffffffffffffffffffffff168152602001908152602001600020600087815260200190815260200160002060008282540192505081905550600760009054906101000a900473ffffffffffffffffffffffffffffffffffffffff1673ffffffffffffffffffffffffffffffffffffffff16638b4867dd3387896040518463ffffffff1660e01b8152600401808473ffffffffffffffffffffffffffffffffffffffff1673ffffffffffffffffffffffffffffffffffffffff1681526020018381526020018281526020019350505050600060405180830381600087803b15801561499157600080fd5b505af11580156149a5573d6000803e3d6000fd5b50505050600560009054906101000a900473ffffffffffffffffffffffffffffffffffffffff1673ffffffffffffffffffffffffffffffffffffffff1663e3491a6c30886040518363ffffffff1660e01b8152600401808373ffffffffffffffffffffffffffffffffffffffff1673ffffffffffffffffffffffffffffffffffffffff16815260200182815260200192505050600060405180830381600087803b158015614a5257600080fd5b505af1158015614a66573d6000803e3d6000fd5b50505050614de5565b614a798634614f12565b614aeb576040517f08c379a000000000000000000000000000000000000000000000000000000000815260040180806020018281038252601b8152602001807f496e73756666696369656e7420657468657220746f207374616b65000000000081525060200191505060405180910390fd5b6000600a600d880281614afa57fe5b049050600760009054906101000a900473ffffffffffffffffffffffffffffffffffffffff1673ffffffffffffffffffffffffffffffffffffffff166361854d203388846040518463ffffffff1660e01b8152600401808473ffffffffffffffffffffffffffffffffffffffff1673ffffffffffffffffffffffffffffffffffffffff1681526020018381526020018281526020019350505050600060405180830381600087803b158015614bae57600080fd5b505af1158015614bc2573d6000803e3d6000fd5b50505050600760009054906101000a900473ffffffffffffffffffffffffffffffffffffffff1673ffffffffffffffffffffffffffffffffffffffff16638b4867dd33888a6040518463ffffffff1660e01b8152600401808473ffffffffffffffffffffffffffffffffffffffff1673ffffffffffffffffffffffffffffffffffffffff1681526020018381526020018281526020019350505050600060405180830381600087803b158015614c7757600080fd5b505af1158015614c8b573d6000803e3d6000fd5b505050506000600b60003373ffffffffffffffffffffffffffffffffffffffff1673ffffffffffffffffffffffffffffffffffffffff1681526020019081526020016000209050600080905060008090505b8280549050811015614d195788838281548110614cf657fe5b90600052602060002001541415614d0c57600191505b8080600101915050614cdd565b5080614d8957600b60003373ffffffffffffffffffffffffffffffffffffffff1673ffffffffffffffffffffffffffffffffffffffff1681526020019081526020016000208890806001815401808255809150509060018203906000526020600020016000909192909190915055505b6001600a60003373ffffffffffffffffffffffffffffffffffffffff1673ffffffffffffffffffffffffffffffffffffffff16815260200190815260200160002060006101000a81548160ff0219169083151502179055505050505b600860009054906101000a900473ffffffffffffffffffffffffffffffffffffffff1673ffffffffffffffffffffffffffffffffffffffff166339b688d0868860006040518463ffffffff1660e01b815260040180848152602001838152602001821515151581526020019350505050600060405180830381600087803b158015614e6f57600080fd5b505af1158015614e83573d6000803e3d6000fd5b505050507fea97181d926a55194a403eaae49ae468ff030724e00ab77c23164f80f99e4cc133878484604051808573ffffffffffffffffffffffffffffffffffffffff1673ffffffffffffffffffffffffffffffffffffffff16815260200184815260200183815260200182815260200194505050505060405180910390a15050600160048190555050505050565b600080600a600d850281614f2257fe5b0490508083101591505092915050565b60405180807f5041555345525f524f4c45000000000000000000000000000000000000000000815250600b019050604051809103902081565b600a6020528060005260406000206000915054906101000a900460ff1681565b600080600860009054906101000a900473ffffffffffffffffffffffffffffffffffffffff1673ffffffffffffffffffffffffffffffffffffffff1663ef859e308686866040518463ffffffff1660e01b815260040180848152602001838152602001821515151581526020019350505050604080518083038186803b15801561501457600080fd5b505afa158015615028573d6000803e3d6000fd5b505050506040513d604081101561503e57600080fd5b81019080805190602001909291908051906020019092919050505091509150935093915050565b600e602052816000526040600020602052806000526040600020600091509150505481565b61271081565b6000600260008373ffffffffffffffffffffffffffffffffffffffff1673ffffffffffffffffffffffffffffffffffffffff16815260200190815260200160002060009054906101000a900460ff169050919050565b6150f08282612c78565b6151b857600160008084815260200190815260200160002060008373ffffffffffffffffffffffffffffffffffffffff1673ffffffffffffffffffffffffffffffffffffffff16815260200190815260200160002060006101000a81548160ff0219169083151502179055503373ffffffffffffffffffffffffffffffffffffffff168173ffffffffffffffffffffffffffffffffffffffff16837f2f8788117e7eff1d82e926ec794901d17c78024a50270940304540a733656f0d60405160405180910390a45b5050565b6151c68282612c78565b1561528f57600080600084815260200190815260200160002060008373ffffffffffffffffffffffffffffffffffffffff1673ffffffffffffffffffffffffffffffffffffffff16815260200190815260200160002060006101000a81548160ff0219169083151502179055503373ffffffffffffffffffffffffffffffffffffffff168173ffffffffffffffffffffffffffffffffffffffff16837ff6391f5c32d9c69d2a47ea670b442974b53935d1edc7fd64eb21e047a839171b60405160405180910390a45b5050565b7f322e5021ddf51920f7602154a6c845b34ef1b32704a1fa2c66927b56be2807628383604051808373ffffffffffffffffffffffffffffffffffffffff1673ffffffffffffffffffffffffffffffffffffffff1681526020018281526020019250505060405180910390a160008090505b600c600084815260200190815260200160002080549050811015615783576000600c6000858152602001908152602001600020828154811061534257fe5b9060005260206000200160009054906101000a900473ffffffffffffffffffffffffffffffffffffffff16905060008190506000600d60008473ffffffffffffffffffffffffffffffffffffffff1673ffffffffffffffffffffffffffffffffffffffff1681526020019081526020016000206000878152602001908152602001600020549050600760009054906101000a900473ffffffffffffffffffffffffffffffffffffffff1673ffffffffffffffffffffffffffffffffffffffff1663c08e375f876040518263ffffffff1660e01b81526004018082815260200191505060206040518083038186803b15801561543c57600080fd5b505afa158015615450573d6000803e3d6000fd5b505050506040513d602081101561546657600080fd5b8101908080519060200190929190505050851061556757600560009054906101000a900473ffffffffffffffffffffffffffffffffffffffff1673ffffffffffffffffffffffffffffffffffffffff1663b73cacc584836040518363ffffffff1660e01b8152600401808373ffffffffffffffffffffffffffffffffffffffff1673ffffffffffffffffffffffffffffffffffffffff16815260200182815260200192505050602060405180830381600087803b15801561552657600080fd5b505af115801561553a573d6000803e3d6000fd5b505050506040513d602081101561555057600080fd5b81019080805190602001909291905050505061571d565b6000600760009054906101000a900473ffffffffffffffffffffffffffffffffffffffff1673ffffffffffffffffffffffffffffffffffffffff1663c08e375f886040518263ffffffff1660e01b81526004018082815260200191505060206040518083038186803b1580156155dc57600080fd5b505afa1580156155f0573d6000803e3d6000fd5b505050506040513d602081101561560657600080fd5b81019080805190602001909291905050508683028161562157fe5b049050600560009054906101000a900473ffffffffffffffffffffffffffffffffffffffff1673ffffffffffffffffffffffffffffffffffffffff1663b73cacc585836040518363ffffffff1660e01b8152600401808373ffffffffffffffffffffffffffffffffffffffff1673ffffffffffffffffffffffffffffffffffffffff16815260200182815260200192505050602060405180830381600087803b1580156156cd57600080fd5b505af11580156156e1573d6000803e3d6000fd5b505050506040513d60208110156156f757600080fd5b8101908080519060200190929190505050506000818303905061571a848261252d565b50505b6000600d60008573ffffffffffffffffffffffffffffffffffffffff1673ffffffffffffffffffffffffffffffffffffffff1681526020019081526020016000206000888152602001908152602001600020819055505050508080600101915050615304565b50600760009054906101000a900473ffffffffffffffffffffffffffffffffffffffff1673ffffffffffffffffffffffffffffffffffffffff1663c08e375f836040518263ffffffff1660e01b81526004018082815260200191505060206040518083038186803b1580156157f757600080fd5b505afa15801561580b573d6000803e3d6000fd5b505050506040513d602081101561582157600080fd5b81019080805190602001909291905050508110615b23576000600760009054906101000a900473ffffffffffffffffffffffffffffffffffffffff1673ffffffffffffffffffffffffffffffffffffffff1663c08e375f846040518263ffffffff1660e01b81526004018082815260200191505060206040518083038186803b1580156158ad57600080fd5b505afa1580156158c1573d6000803e3d6000fd5b505050506040513d60208110156158d757600080fd5b810190808051906020019092919050505082039050600760009054906101000a900473ffffffffffffffffffffffffffffffffffffffff1673ffffffffffffffffffffffffffffffffffffffff16637ffd86c084836040518363ffffffff1660e01b81526004018083815260200182815260200192505050600060405180830381600087803b15801561596957600080fd5b505af115801561597d573d6000803e3d6000fd5b50505050600560009054906101000a900473ffffffffffffffffffffffffffffffffffffffff1673ffffffffffffffffffffffffffffffffffffffff1663b73cacc585836040518363ffffffff1660e01b8152600401808373ffffffffffffffffffffffffffffffffffffffff1673ffffffffffffffffffffffffffffffffffffffff16815260200182815260200192505050602060405180830381600087803b158015615a2a57600080fd5b505af1158015615a3e573d6000803e3d6000fd5b505050506040513d6020811015615a5457600080fd5b810190808051906020019092919050505050615b1d84600760009054906101000a900473ffffffffffffffffffffffffffffffffffffffff1673ffffffffffffffffffffffffffffffffffffffff1663c08e375f866040518263ffffffff1660e01b81526004018082815260200191505060206040518083038186803b158015615add57600080fd5b505afa158015615af1573d6000803e3d6000fd5b505050506040513d6020811015615b0757600080fd5b810190808051906020019092919050505061252d565b50615bc4565b600760009054906101000a900473ffffffffffffffffffffffffffffffffffffffff1673ffffffffffffffffffffffffffffffffffffffff16637ffd86c08360006040518363ffffffff1660e01b81526004018083815260200182815260200192505050600060405180830381600087803b158015615ba157600080fd5b505af1158015615bb5573d6000803e3d6000fd5b50505050615bc3838261252d565b5b50505056fe496e73756666696369656e742045584320696e2070726f6a65637420746f2062757945636f584368616e67654d61726b65743a20636f6d70616e792061646472657373206973206e6f74207265676973746572656445636f584368616e67654d61726b65743a2063616c6c6572206973206e6f7420616e206163746976652076616c696461746f7245636f584368616e67654d61726b65743a207472616e73616374696f6e20616d6f756e74206f7574206f6620626f756e647350726f6a65637420636f6d706c657465642c2063616e6e6f742062652076616c69646174656420616761696e416363657373436f6e74726f6c3a20636f6e747261637420697320706175736564416363657373436f6e74726f6c3a206163636f756e74206e6f7420626c61636b6c697374656445636f584368616e67654d61726b65743a2063616c6c6572206d7573742062652061207265676973746572656420636f6d70616e7945636f584368616e67654d61726b65743a2070726f6a65637420646f6573206e6f7420657869737445636f584368616e67654d61726b65743a2070726f6a65637420616c726561647920636f6d706c65746564416363657373436f6e74726f6c3a20616d6f756e74206d7573742062652067726561746572207468616e207a65726f45636f584368616e67654d61726b65743a20696e73756666696369656e7420657468657220666f722063757272656e74207072696365416363657373436f6e74726f6c3a206163636f756e7420697320626c61636b6c6973746564416363657373436f6e74726f6c3a206163636f756e7420616c726561647920626c61636b6c6973746564416363657373436f6e74726f6c3a2063616c6c657220646f6573206e6f74206861766520726571756972656420726f6c65416363657373436f6e74726f6c3a2063616e206f6e6c792072656e6f756e636520726f6c657320666f722073656c66416363657373436f6e74726f6c3a20636f6e7472616374206973206e6f7420706175736564a265627a7a72315820eee47aef3bf5c7bb4c28882c6ea50bd18e640f1a0c7f0723973fd82cef9ed47364736f6c63430005110032",
  "source": "pragma solidity ^0.5.0;\n\nimport \"./ValidatorRegistry.sol\";\nimport \"./EcoXChangeToken.sol\";\nimport \"./Company.sol\";\nimport \"./AccessControl.sol\";\nimport \"./DynamicPricing.sol\";\n\n/**\n * @title EcoXChangeMarket\n * @dev This contract represents a carbon credit market where users can buy and sell carbon credits with enhanced security.\n */\ncontract EcoXChangeMarket is AccessControl {\n    // Events\n    event BuyCredit(\n        address buyer,\n        uint256 amount,\n        uint256 price,\n        uint256 totalCost\n    );\n    event ReturnCredits(\n        address seller,\n        uint256 amount,\n        uint256 price,\n        uint256 totalRevenue\n    );\n    event ProjectValidated(\n        address companyAddress,\n        uint256 projectId,\n        bool isValid\n    );\n    event Penalty(address companyAddress, uint256 projectId);\n    event PriceDiscovery(\n        uint256 indexed projectId,\n        uint256 oldPrice,\n        uint256 newPrice\n    );\n    event MarketMaking(\n        uint256 indexed projectId,\n        uint256 bidPrice,\n        uint256 askPrice\n    );\n\n    // State variables\n    EcoXChangeToken ecoXChangeTokenInstance;\n    ValidatorRegistry validatorRegistryInstance;\n    Company companyInstance;\n    DynamicPricing dynamicPricingInstance;\n    uint256 excBank = 0;\n    mapping(address => bool) public isSeller;\n    mapping(address => uint256[]) public companyProjects; // Mapping of company address to list of projects\n    mapping(uint256 => address[]) public projectBuyers; // Mapping of project id to list of buyers\n    mapping(address => mapping(uint256 => uint256)) public projectStakes; //mapping of buyer address to project id to amount\n    mapping(address => mapping(uint256 => uint256)) public relisted; // Mapping of company address to projectId to their excs sold, due to listing project that have been validated\n\n    // Enhanced security mappings\n    mapping(uint256 => bool) public projectValidated; // Track validated projects\n    mapping(address => uint256) public userTransactionCount; // Track user activity\n    mapping(uint256 => uint256) public projectCreationTime; // Track project creation time\n\n    // Constants for validation\n    uint256 public constant MIN_TRANSACTION_AMOUNT = 1;\n    uint256 public constant MAX_TRANSACTION_AMOUNT = 10000;\n    uint256 public constant STAKE_PERCENTAGE = 130; // 130% staking requirement\n\n    // Constructor\n    constructor(\n        Company companyAddress,\n        EcoXChangeToken ecoXChangeTokenAddress,\n        ValidatorRegistry validatorRegistryAddress,\n        DynamicPricing dynamicPricingAddress\n    ) public {\n        ecoXChangeTokenInstance = ecoXChangeTokenAddress;\n        validatorRegistryInstance = validatorRegistryAddress;\n        companyInstance = companyAddress;\n        dynamicPricingInstance = dynamicPricingAddress;\n    }\n\n    /**\n     * @dev Modifier that restricts the execution of a function to only be called by a registered validator.\n     */\n    modifier onlyActiveValidator() {\n        require(\n            validatorRegistryInstance.isValidator(msg.sender),\n            \"EcoXChangeMarket: caller is not an active validator\"\n        );\n        _;\n    }\n\n    /**\n     * @dev Modifier to validate project exists and is not completed\n     */\n    modifier validProject(uint256 projectId) {\n        require(\n            projectId < companyInstance.numProjects(),\n            \"EcoXChangeMarket: project does not exist\"\n        );\n        require(\n            companyInstance.getProjectState(projectId) !=\n                Company.ProjectState.completed,\n            \"EcoXChangeMarket: project already completed\"\n        );\n        _;\n    }\n\n    /**\n     * @dev Modifier to validate transaction amounts\n     */\n    modifier validTransactionAmount(uint256 amount) {\n        require(\n            amount >= MIN_TRANSACTION_AMOUNT &&\n                amount <= MAX_TRANSACTION_AMOUNT,\n            \"EcoXChangeMarket: transaction amount out of bounds\"\n        );\n        _;\n    }\n\n    /**\n     * @dev Allows the contract owner to withdraw a specified amount of Ether from the contract balance and transfer it to a specified company address.\n     * @param companyAddress The address of the company to which the Ether will be transferred.\n     * @param amount The amount of Ether to be withdrawn and transferred.\n     * @notice Only the contract owner can call this function.\n     * @dev Throws an error if the specified amount is greater than the contract balance.\n     */\n    function withdrawEther(\n        address payable companyAddress,\n        uint256 amount\n    )\n        public\n        onlyActiveValidator\n        validAddress(companyAddress)\n        validAmount(amount)\n    {\n        require(\n            amount <= address(this).balance,\n            \"Insufficient contract balance\"\n        );\n        amount = amount * 1 ether; //convert to wei before transfer\n        companyAddress.transfer(amount);\n    }\n\n    /**\n     * @dev Check whether or not a company has provided enough Ether to stake for a project (for penalty purposes).\n     * @param _excAmount The amount of exc they wish to sell from the project.\n     * @param etherAmount The amount of Ether supplied.\n     */\n    function checkSufficientStake(\n        uint256 _excAmount,\n        uint256 etherAmount\n    ) public pure returns (bool) {\n        uint256 stakedAmount = (_excAmount * 13) / 10;\n        return etherAmount >= stakedAmount;\n    }\n\n    /**\n     * @dev Validate a project by a validator, and handle penalty if project is invalid, otherwise transfer EXC to buyers.\n     * @param companyAddress The address of the company.\n     * @param projectId The ID of the project.\n     * @param isValid A boolean indicating whether the project is valid or not.\n     * @param actualEXC The actual EXC (EcoXChange Token) amount for the project.\n     * @notice This function can only be called by a validator.\n     */\n    function validateProject(\n        address payable companyAddress,\n        uint256 projectId,\n        bool isValid,\n        uint256 actualEXC\n    )\n        public\n        onlyActiveValidator\n        whenNotPaused\n        validAddress(companyAddress)\n        validProject(projectId)\n        validAmount(actualEXC)\n        nonReentrant\n    {\n        // Validate a project by a validator, and handle penalty if project is invalid, otherwise transfer EXC to buyers\n        require(\n            companyInstance.getProjectState(projectId) !=\n                Company.ProjectState.completed,\n            \"Project completed, cannot be validated again\"\n        ); // Check if project is completed, cannot be validated again\n        companyInstance.setProjectStateComplete(projectId); // Set project state to completed\n        emit ProjectValidated(companyAddress, projectId, isValid); // Emit event for project validation\n        if (!isValid) {\n            // Project is invalid\n            handlePenalty(companyAddress, projectId, actualEXC);\n        } else {\n            // Project is valid\n            //Transfer EXC to buyers\n            address[] storage buyers = projectBuyers[projectId];\n            for (uint256 i = 0; i < buyers.length; i++) {\n                // Loop through buyers of the project\n                address buyer = buyers[i];\n                uint256 buyerStake = projectStakes[buyer][projectId]; // Get buyer's stake for the project\n                ecoXChangeTokenInstance.getEXC(buyer, buyerStake); // Mint EXC to buyer\n                projectStakes[buyer][projectId] = 0; // Reset buyer's stake to 0\n            }\n            // Project's EXCAmount left is returned to project\n            uint256 excAmountUnsold = actualEXC -\n                companyInstance.getEXCSold(projectId);\n            companyInstance.setProjectexcAmount(projectId, excAmountUnsold); // Update project's EXC amount, project can be resold with remaining EXC by seller\n            // Return penalty + profit to seller\n            uint256 stakedCredits = companyInstance.getStakedCredits( // Get staked credits (sellers stake 130% (of ether)) for the project\n                    companyAddress,\n                    projectId\n                );\n            uint256 returnPenalty = (stakedCredits * 3) / 1000; // Calculate penalty amount to return to seller\n            withdrawEther(\n                companyAddress,\n                returnPenalty + companyInstance.getEXCSold(projectId)\n            ); // Return penalty amount and profit back to seller\n        }\n\n        companyInstance.setEXCListed(projectId, 0);\n        companyInstance.setEXCSold(projectId, 0);\n    }\n\n    /**\n     * @dev Handles penalty for a project that fails validation.\n     * @param companyAddress The address of the company associated with the project.\n     * @param projectId The ID of the project.\n     * @param actualEXC The actual EcoXChange Tokens (EXC) generated by the project.\n     *\n     * Emits a `Penalty` event for the failed project.\n     * Loops through the buyers of the project and performs the following actions:\n     * - If the actual EXC is greater than or equal to the EXC sold, mints the actual EXC to the buyer.\n     * - If the actual EXC is less than the EXC sold, calculates the actual EXC received by the buyer,\n     *   mints the actual EXC to the buyer, and transfers the compensation amount to the buyer.\n     * Transfers the profits to the company and keeps the penalty amount.\n     * Resets the buyer's stake to 0.\n     */\n    function handlePenalty(\n        address payable companyAddress,\n        uint256 projectId,\n        uint256 actualEXC // Actual EXC generated by the project\n    ) internal {\n        // Handle penalty for a project that fails validation\n        emit Penalty(companyAddress, projectId);\n        for (uint256 i = 0; i < projectBuyers[projectId].length; i++) {\n            // Loop through buyers of the project\n            address buyer = projectBuyers[projectId][i]; // Get buyer address\n            address payable buyerPayable;\n            assembly {\n                buyerPayable := buyer\n            } //make buyer payable\n            uint256 buyerStake = projectStakes[buyer][projectId]; // Get buyer's stake for the project\n            if (actualEXC >= companyInstance.getEXCSold(projectId)) {\n                // If actual EXC is greater than or equal to EXC sold\n                ecoXChangeTokenInstance.getEXC(buyer, buyerStake); // Mint actual EXC to buyer, penalty and profits kept by market\n            } else {\n                // If actual EXC is less than EXC sold\n                uint256 actualBuyerEXC = (buyerStake * actualEXC) /\n                    companyInstance.getEXCSold(projectId); // Calculate actual EXC received by the buyer, based on proportion\n                ecoXChangeTokenInstance.getEXC(buyer, actualBuyerEXC); // Mint actual EXC to buyer\n                uint256 buyerCompensation = buyerStake - actualBuyerEXC; // Calculate compensation amount to buyer\n                withdrawEther(buyerPayable, buyerCompensation); // Transfer compensation amount to buyer\n            }\n            projectStakes[buyer][projectId] = 0; // Reset buyer's stake to 0\n        }\n\n        if (actualEXC >= companyInstance.getEXCSold(projectId)) {\n            // sellers have more exc to be resold\n            uint256 excAmountUnsold = actualEXC -\n                companyInstance.getEXCSold(projectId); // Calculate EXC amount unsold\n            companyInstance.setProjectexcAmount(projectId, excAmountUnsold); // Update project's EXC amount, project can be resold with remaining EXC by seller\n            ecoXChangeTokenInstance.getEXC(companyAddress, excAmountUnsold); // Mint actual EXC to company\n\n            withdrawEther(\n                companyAddress,\n                companyInstance.getEXCSold(projectId)\n            ); // Transfer profits to company, penalty kept by market\n        } else {\n            companyInstance.setProjectexcAmount(projectId, 0); // Update project's EXC amount to 0 as all EXC sold\n            withdrawEther(companyAddress, actualEXC); // Transfer profits to company (only got profits from the actual exc sold), penalty kept by market\n        }\n    }\n\n    /**\n     * @dev Allows a seller to list and sell EcoXChange tokens (EXC) for a specific project.\n     * @param _excAmount The amount of EXC to be sold.\n     * @param projectId The ID of the project for which the EXC is being sold.\n     *  The seller must have enough EXC listed for the project and sufficient EXC balance to sell.\n     *  If the project is completed, the EXC is transferred to the market and the seller receives ether.\n     *  If the project is ongoing, the seller must stake 130% of the EXC amount in ether.\n     *  The seller's ether is transferred to the contract for staking, with 30% being a penalty.\n     *  The EXC is listed and the project is added to the seller's list of projects.\n     *  Emits a `ReturnCredits` event with the seller's address and the amount of EXC sold.\n     */\n\n    function sell(\n        uint256 _excAmount,\n        uint256 projectId\n    )\n        public\n        payable\n        whenNotPaused\n        notBlacklisted(msg.sender)\n        validTransactionAmount(_excAmount)\n        nonReentrant\n    {\n        // Enhanced validation - check if sender is a registered company\n        require(\n            companyInstance.registeredCompanies(msg.sender),\n            \"EcoXChangeMarket: caller must be a registered company\"\n        );\n        require(\n            companyInstance.checkEXCListed(msg.sender, projectId, _excAmount),\n            \"EXC for project overexceeded\"\n        ); // Check if excListed is <= to excAmount, must have enuf excAmount in project to sell\n        require(\n            companyInstance.checkSufficientEXC(\n                msg.sender,\n                projectId,\n                _excAmount\n            ),\n            \"Insufficient EXC to sell\"\n        ); // Check if seller has enough exc to sell in project, especially after sold excs from this project before\n\n        // Get current dynamic price\n        uint256 currentPrice = dynamicPricingInstance.getCurrentPrice(\n            projectId\n        );\n        uint256 totalRevenue = _excAmount * currentPrice;\n\n        if (\n            companyInstance.getProjectState(projectId) ==\n            Company.ProjectState.completed\n        ) {\n            // if project is completed\n            excBank += _excAmount; // add EXC to bank\n            relisted[msg.sender][projectId] += _excAmount; // add exc from company to relisted\n            companyInstance.listEXC(msg.sender, projectId, _excAmount); //update excListed in project\n            ecoXChangeTokenInstance.transferEXC(address(this), _excAmount); // transfer EXC to market, from seller\n        } else {\n            //check if company has enough ether to stake only if project is ongoing\n            require(\n                checkSufficientStake(_excAmount, msg.value),\n                \"Insufficient ether to stake\"\n            ); // Seller has to transfer 130% ether to contract for staking, 30% is penalty. Ether is transferred as msg.value is called.\n            uint256 stakedAmount = (_excAmount * 13) / 10; // sellers stake 130% (of ether), 30% is penalty\n            companyInstance.stakeCredits(msg.sender, projectId, stakedAmount); //stake credits\n            companyInstance.listEXC(msg.sender, projectId, _excAmount); //update excListed in project\n\n            //Check if project has been listed by company (if company has sold tokens from project before)\n            uint256[] storage projectList = companyProjects[msg.sender];\n            bool projectAdded = false;\n            for (uint256 i = 0; i < projectList.length; i++) {\n                if (projectList[i] == projectId) {\n                    projectAdded = true; // project already added\n                }\n            }\n            if (!projectAdded) {\n                companyProjects[msg.sender].push(projectId); // add project to list of projects\n            }\n            isSeller[msg.sender] = true; // add address of seller to list of sellers\n        }\n\n        // Update pricing after trade\n        dynamicPricingInstance.updatePriceAfterTrade(\n            projectId,\n            _excAmount,\n            false\n        );\n\n        emit ReturnCredits(msg.sender, _excAmount, currentPrice, totalRevenue);\n    }\n\n    /**\n     * @dev Allows a buyer to purchase carbon credits from a project.\n     * @param _excAmount The amount of carbon credits to purchase.\n     * @param companyAddress The address of the company selling the carbon credits.\n     * @param projectId The ID of the project from which to purchase the carbon credits.\n     */\n    function buy(\n        uint256 _excAmount,\n        address payable companyAddress,\n        uint256 projectId\n    )\n        public\n        payable\n        whenNotPaused\n        notBlacklisted(msg.sender)\n        validAddress(companyAddress)\n        validTransactionAmount(_excAmount)\n        nonReentrant\n    {\n        // Get current dynamic price\n        uint256 currentPrice = dynamicPricingInstance.getCurrentPrice(\n            projectId\n        );\n        uint256 totalCost = _excAmount * currentPrice;\n\n        // Enhanced validation\n        require(\n            msg.value >= totalCost,\n            \"EcoXChangeMarket: insufficient ether for current price\"\n        );\n        require(\n            companyInstance.registeredCompanies(companyAddress),\n            \"EcoXChangeMarket: company address is not registered\"\n        );\n        require(\n            companyInstance.checkSufficientEXC(\n                companyAddress,\n                projectId,\n                _excAmount\n            ),\n            \"Insufficient EXC in project to buy\"\n        ); // Check if buyer has enough exc to buy in project\n\n        companyInstance.sellEXC(companyAddress, projectId, _excAmount); // increase excSold in project by _excAmount\n\n        // Update pricing after trade\n        dynamicPricingInstance.updatePriceAfterTrade(\n            projectId,\n            _excAmount,\n            true\n        );\n\n        // Calculate refund if overpaid\n        uint256 refund = msg.value - totalCost;\n\n        if (\n            companyInstance.getProjectState(projectId) ==\n            Company.ProjectState.completed\n        ) {\n            require(\n                _excAmount <= relisted[companyAddress][projectId],\n                \"Insuffucient EXC to buy\"\n            );\n            excBank -= _excAmount; // deduct EXC from bank\n            relisted[companyAddress][projectId] -= _excAmount; // deduct EXC from company's relisted EXC\n            ecoXChangeTokenInstance.transferEXC(msg.sender, _excAmount); // transfer EXC to buyer from market\n            companyAddress.transfer(totalCost); // transfer exact cost to company\n        } else {\n            projectStakes[msg.sender][projectId] += _excAmount; // add \"share\" of the project's EXC bought to the buyer\n\n            // check if buyer has bought from project before\n            address[] storage buyerList = projectBuyers[projectId];\n            bool buyerAdded = false;\n            for (uint256 i = 0; i < buyerList.length; i++) {\n                if (buyerList[i] == msg.sender) {\n                    buyerAdded = true;\n                }\n            }\n            if (!buyerAdded) {\n                projectBuyers[projectId].push(msg.sender);\n            }\n        }\n\n        // Refund overpayment\n        if (refund > 0) {\n            msg.sender.transfer(refund);\n        }\n\n        emit BuyCredit(msg.sender, _excAmount, currentPrice, totalCost);\n    }\n\n    function getProjectBuyers(\n        uint256 projectId\n    ) public view returns (address[] memory) {\n        return projectBuyers[projectId];\n    }\n\n    /**\n     * @dev Get current price for a project\n     */\n    function getCurrentPrice(uint256 projectId) public view returns (uint256) {\n        return dynamicPricingInstance.getCurrentPrice(projectId);\n    }\n\n    /**\n     * @dev Get comprehensive pricing information for a project\n     */\n    function getProjectPricingInfo(\n        uint256 projectId\n    )\n        public\n        view\n        returns (\n            uint256 currentPrice,\n            uint256 basePrice,\n            uint256 minPrice,\n            uint256 maxPrice,\n            DynamicPricing.PricingModel model,\n            uint256 totalVolume,\n            uint256 qualityScore,\n            uint256 demandScore,\n            uint256 supplyScore\n        )\n    {\n        return dynamicPricingInstance.getProjectPricingInfo(projectId);\n    }\n\n    /**\n     * @dev Calculate price impact for a potential trade\n     */\n    function calculatePriceImpact(\n        uint256 projectId,\n        uint256 tradeAmount,\n        bool isBuy\n    ) public view returns (uint256 priceImpact, uint256 newPrice) {\n        return\n            dynamicPricingInstance.calculatePriceImpact(\n                projectId,\n                tradeAmount,\n                isBuy\n            );\n    }\n\n    /**\n     * @dev Get market conditions\n     */\n    function getMarketConditions()\n        public\n        view\n        returns (\n            uint256 demandMultiplier,\n            uint256 supplyMultiplier,\n            uint256 volatilityIndex,\n            uint256 sentiment,\n            uint256 lastUpdate\n        )\n    {\n        return dynamicPricingInstance.getMarketConditions();\n    }\n\n    /**\n     * @dev Initialize pricing for a new project (admin only)\n     */\n    function initializeProjectPricing(\n        uint256 projectId,\n        DynamicPricing.PricingModel model,\n        uint256 qualityScore\n    ) public onlyRole(ADMIN_ROLE) whenNotPaused {\n        dynamicPricingInstance.initializeProjectPricing(\n            projectId,\n            model,\n            qualityScore\n        );\n    }\n\n    /**\n     * @dev Update market conditions (admin only)\n     */\n    function updateMarketConditions(\n        uint256 demandMultiplier,\n        uint256 supplyMultiplier,\n        uint256 volatilityIndex,\n        uint256 sentiment\n    ) public onlyRole(ADMIN_ROLE) whenNotPaused {\n        dynamicPricingInstance.updateMarketConditions(\n            demandMultiplier,\n            supplyMultiplier,\n            volatilityIndex,\n            sentiment\n        );\n    }\n}\n",
  "sourcePath": "C:\\Users\\aliya\\Downloads\\EcoXChange\\contracts\\EcoXChangeMarket.sol",
  "compiler": {
    "name": "solc",
    "version": "0.5.17+commit.d19bba13.Emscripten.clang"
  },
  "schemaVersion": "3.4.16",
  "updatedAt": "2025-06-23T09:15:20.619Z",
  "devdoc": {
    "details": "This contract represents a carbon credit market where users can buy and sell carbon credits with enhanced security.",
    "methods": {
      "blacklistAccount(address)": {
        "details": "Add address to blacklist"
      },
      "buy(uint256,address,uint256)": {
        "details": "Allows a buyer to purchase carbon credits from a project.",
        "params": {
          "_excAmount": "The amount of carbon credits to purchase.",
          "companyAddress": "The address of the company selling the carbon credits.",
          "projectId": "The ID of the project from which to purchase the carbon credits."
        }
      },
      "calculatePriceImpact(uint256,uint256,bool)": {
        "details": "Calculate price impact for a potential trade"
      },
      "checkSufficientStake(uint256,uint256)": {
        "details": "Check whether or not a company has provided enough Ether to stake for a project (for penalty purposes).",
        "params": {
          "_excAmount": "The amount of exc they wish to sell from the project.",
          "etherAmount": "The amount of Ether supplied."
        }
      },
      "getCurrentPrice(uint256)": {
        "details": "Get current price for a project"
      },
      "getMarketConditions()": {
        "details": "Get market conditions"
      },
      "getProjectPricingInfo(uint256)": {
        "details": "Get comprehensive pricing information for a project"
      },
      "getRoleAdmin(bytes32)": {
        "details": "Get the admin role that controls a role"
      },
      "grantRole(bytes32,address)": {
        "details": "Grant a role to an account"
      },
      "hasRole(bytes32,address)": {
        "details": "Check if an account has a specific role"
      },
      "initializeProjectPricing(uint256,uint8,uint256)": {
        "details": "Initialize pricing for a new project (admin only)"
      },
      "isBlacklisted(address)": {
        "details": "Check if account is blacklisted"
      },
      "owner()": {
        "details": "Get contract owner"
      },
      "pause()": {
        "details": "Pause the contract (emergency stop)"
      },
      "paused()": {
        "details": "Check if contract is paused"
      },
      "removeFromBlacklist(address)": {
        "details": "Remove address from blacklist"
      },
      "renounceRole(bytes32,address)": {
        "details": "Renounce a role (caller renounces their own role)"
      },
      "revokeRole(bytes32,address)": {
        "details": "Revoke a role from an account"
      },
      "sell(uint256,uint256)": {
        "details": "Allows a seller to list and sell EcoXChange tokens (EXC) for a specific project.",
        "params": {
          "_excAmount": "The amount of EXC to be sold.",
          "projectId": "The ID of the project for which the EXC is being sold. The seller must have enough EXC listed for the project and sufficient EXC balance to sell. If the project is completed, the EXC is transferred to the market and the seller receives ether. If the project is ongoing, the seller must stake 130% of the EXC amount in ether. The seller's ether is transferred to the contract for staking, with 30% being a penalty. The EXC is listed and the project is added to the seller's list of projects. Emits a `ReturnCredits` event with the seller's address and the amount of EXC sold."
        }
      },
      "unpause()": {
        "details": "Unpause the contract"
      },
      "updateMarketConditions(uint256,uint256,uint256,uint256)": {
        "details": "Update market conditions (admin only)"
      },
      "validateProject(address,uint256,bool,uint256)": {
        "details": "Validate a project by a validator, and handle penalty if project is invalid, otherwise transfer EXC to buyers.",
        "params": {
          "actualEXC": "The actual EXC (EcoXChange Token) amount for the project.",
          "companyAddress": "The address of the company.",
          "isValid": "A boolean indicating whether the project is valid or not.",
          "projectId": "The ID of the project."
        }
      },
      "withdrawEther(address,uint256)": {
        "details": "Allows the contract owner to withdraw a specified amount of Ether from the contract balance and transfer it to a specified company address.Throws an error if the specified amount is greater than the contract balance.",
        "params": {
          "amount": "The amount of Ether to be withdrawn and transferred.",
          "companyAddress": "The address of the company to which the Ether will be transferred."
        }
      }
    },
    "title": "EcoXChangeMarket"
  },
  "userdoc": {
    "methods": {
      "validateProject(address,uint256,bool,uint256)": {
        "notice": "This function can only be called by a validator."
      },
      "withdrawEther(address,uint256)": {
        "notice": "Only the contract owner can call this function."
      }
    }
  }
}