{
  "contractName": "ValidatorRegistry",
  "abi": [
    {
      "anonymous": false,
      "inputs": [
        {
          "indexed": false,
          "internalType": "address",
          "name": "account",
          "type": "address"
        }
      ],
      "name": "Paused",
      "type": "event"
    },
    {
      "anonymous": false,
      "inputs": [
        {
          "indexed": true,
          "internalType": "bytes32",
          "name": "role",
          "type": "bytes32"
        },
        {
          "indexed": true,
          "internalType": "bytes32",
          "name": "previousAdminRole",
          "type": "bytes32"
        },
        {
          "indexed": true,
          "internalType": "bytes32",
          "name": "newAdminRole",
          "type": "bytes32"
        }
      ],
      "name": "RoleAdminChanged",
      "type": "event"
    },
    {
      "anonymous": false,
      "inputs": [
        {
          "indexed": true,
          "internalType": "bytes32",
          "name": "role",
          "type": "bytes32"
        },
        {
          "indexed": true,
          "internalType": "address",
          "name": "account",
          "type": "address"
        },
        {
          "indexed": true,
          "internalType": "address",
          "name": "sender",
          "type": "address"
        }
      ],
      "name": "RoleGranted",
      "type": "event"
    },
    {
      "anonymous": false,
      "inputs": [
        {
          "indexed": true,
          "internalType": "bytes32",
          "name": "role",
          "type": "bytes32"
        },
        {
          "indexed": true,
          "internalType": "address",
          "name": "account",
          "type": "address"
        },
        {
          "indexed": true,
          "internalType": "address",
          "name": "sender",
          "type": "address"
        }
      ],
      "name": "RoleRevoked",
      "type": "event"
    },
    {
      "anonymous": false,
      "inputs": [
        {
          "indexed": false,
          "internalType": "address",
          "name": "account",
          "type": "address"
        }
      ],
      "name": "Unpaused",
      "type": "event"
    },
    {
      "anonymous": false,
      "inputs": [
        {
          "indexed": false,
          "internalType": "address",
          "name": "validator",
          "type": "address"
        }
      ],
      "name": "ValidatorAdded",
      "type": "event"
    },
    {
      "anonymous": false,
      "inputs": [
        {
          "indexed": false,
          "internalType": "address",
          "name": "validator",
          "type": "address"
        }
      ],
      "name": "ValidatorRemoved",
      "type": "event"
    },
    {
      "anonymous": false,
      "inputs": [
        {
          "indexed": false,
          "internalType": "address",
          "name": "validator",
          "type": "address"
        },
        {
          "indexed": false,
          "internalType": "bool",
          "name": "active",
          "type": "bool"
        }
      ],
      "name": "ValidatorStatusChanged",
      "type": "event"
    },
    {
      "constant": true,
      "inputs": [],
      "name": "ADMIN_ROLE",
      "outputs": [
        {
          "internalType": "bytes32",
          "name": "",
          "type": "bytes32"
        }
      ],
      "payable": false,
      "stateMutability": "view",
      "type": "function"
    },
    {
      "constant": true,
      "inputs": [],
      "name": "COMPANY_ROLE",
      "outputs": [
        {
          "internalType": "bytes32",
          "name": "",
          "type": "bytes32"
        }
      ],
      "payable": false,
      "stateMutability": "view",
      "type": "function"
    },
    {
      "constant": true,
      "inputs": [],
      "name": "DEFAULT_ADMIN_ROLE",
      "outputs": [
        {
          "internalType": "bytes32",
          "name": "",
          "type": "bytes32"
        }
      ],
      "payable": false,
      "stateMutability": "view",
      "type": "function"
    },
    {
      "constant": true,
      "inputs": [],
      "name": "MAX_REPUTATION",
      "outputs": [
        {
          "internalType": "uint256",
          "name": "",
          "type": "uint256"
        }
      ],
      "payable": false,
      "stateMutability": "view",
      "type": "function"
    },
    {
      "constant": true,
      "inputs": [],
      "name": "MIN_REPUTATION",
      "outputs": [
        {
          "internalType": "uint256",
          "name": "",
          "type": "uint256"
        }
      ],
      "payable": false,
      "stateMutability": "view",
      "type": "function"
    },
    {
      "constant": true,
      "inputs": [],
      "name": "PAUSER_ROLE",
      "outputs": [
        {
          "internalType": "bytes32",
          "name": "",
          "type": "bytes32"
        }
      ],
      "payable": false,
      "stateMutability": "view",
      "type": "function"
    },
    {
      "constant": true,
      "inputs": [],
      "name": "VALIDATOR_ROLE",
      "outputs": [
        {
          "internalType": "bytes32",
          "name": "",
          "type": "bytes32"
        }
      ],
      "payable": false,
      "stateMutability": "view",
      "type": "function"
    },
    {
      "constant": false,
      "inputs": [
        {
          "internalType": "address",
          "name": "account",
          "type": "address"
        }
      ],
      "name": "blacklistAccount",
      "outputs": [],
      "payable": false,
      "stateMutability": "nonpayable",
      "type": "function"
    },
    {
      "constant": true,
      "inputs": [
        {
          "internalType": "bytes32",
          "name": "role",
          "type": "bytes32"
        }
      ],
      "name": "getRoleAdmin",
      "outputs": [
        {
          "internalType": "bytes32",
          "name": "",
          "type": "bytes32"
        }
      ],
      "payable": false,
      "stateMutability": "view",
      "type": "function"
    },
    {
      "constant": false,
      "inputs": [
        {
          "internalType": "bytes32",
          "name": "role",
          "type": "bytes32"
        },
        {
          "internalType": "address",
          "name": "account",
          "type": "address"
        }
      ],
      "name": "grantRole",
      "outputs": [],
      "payable": false,
      "stateMutability": "nonpayable",
      "type": "function"
    },
    {
      "constant": true,
      "inputs": [
        {
          "internalType": "bytes32",
          "name": "role",
          "type": "bytes32"
        },
        {
          "internalType": "address",
          "name": "account",
          "type": "address"
        }
      ],
      "name": "hasRole",
      "outputs": [
        {
          "internalType": "bool",
          "name": "",
          "type": "bool"
        }
      ],
      "payable": false,
      "stateMutability": "view",
      "type": "function"
    },
    {
      "constant": true,
      "inputs": [
        {
          "internalType": "address",
          "name": "account",
          "type": "address"
        }
      ],
      "name": "isBlacklisted",
      "outputs": [
        {
          "internalType": "bool",
          "name": "",
          "type": "bool"
        }
      ],
      "payable": false,
      "stateMutability": "view",
      "type": "function"
    },
    {
      "constant": true,
      "inputs": [],
      "name": "owner",
      "outputs": [
        {
          "internalType": "address",
          "name": "",
          "type": "address"
        }
      ],
      "payable": false,
      "stateMutability": "view",
      "type": "function"
    },
    {
      "constant": false,
      "inputs": [],
      "name": "pause",
      "outputs": [],
      "payable": false,
      "stateMutability": "nonpayable",
      "type": "function"
    },
    {
      "constant": true,
      "inputs": [],
      "name": "paused",
      "outputs": [
        {
          "internalType": "bool",
          "name": "",
          "type": "bool"
        }
      ],
      "payable": false,
      "stateMutability": "view",
      "type": "function"
    },
    {
      "constant": false,
      "inputs": [
        {
          "internalType": "address",
          "name": "account",
          "type": "address"
        }
      ],
      "name": "removeFromBlacklist",
      "outputs": [],
      "payable": false,
      "stateMutability": "nonpayable",
      "type": "function"
    },
    {
      "constant": false,
      "inputs": [
        {
          "internalType": "bytes32",
          "name": "role",
          "type": "bytes32"
        },
        {
          "internalType": "address",
          "name": "account",
          "type": "address"
        }
      ],
      "name": "renounceRole",
      "outputs": [],
      "payable": false,
      "stateMutability": "nonpayable",
      "type": "function"
    },
    {
      "constant": false,
      "inputs": [
        {
          "internalType": "bytes32",
          "name": "role",
          "type": "bytes32"
        },
        {
          "internalType": "address",
          "name": "account",
          "type": "address"
        }
      ],
      "name": "revokeRole",
      "outputs": [],
      "payable": false,
      "stateMutability": "nonpayable",
      "type": "function"
    },
    {
      "constant": true,
      "inputs": [],
      "name": "totalValidators",
      "outputs": [
        {
          "internalType": "uint256",
          "name": "",
          "type": "uint256"
        }
      ],
      "payable": false,
      "stateMutability": "view",
      "type": "function"
    },
    {
      "constant": false,
      "inputs": [],
      "name": "unpause",
      "outputs": [],
      "payable": false,
      "stateMutability": "nonpayable",
      "type": "function"
    },
    {
      "constant": true,
      "inputs": [
        {
          "internalType": "address",
          "name": "",
          "type": "address"
        }
      ],
      "name": "validatorActive",
      "outputs": [
        {
          "internalType": "bool",
          "name": "",
          "type": "bool"
        }
      ],
      "payable": false,
      "stateMutability": "view",
      "type": "function"
    },
    {
      "constant": true,
      "inputs": [
        {
          "internalType": "address",
          "name": "",
          "type": "address"
        }
      ],
      "name": "validatorJoinDate",
      "outputs": [
        {
          "internalType": "uint256",
          "name": "",
          "type": "uint256"
        }
      ],
      "payable": false,
      "stateMutability": "view",
      "type": "function"
    },
    {
      "constant": true,
      "inputs": [
        {
          "internalType": "address",
          "name": "",
          "type": "address"
        }
      ],
      "name": "validatorReputation",
      "outputs": [
        {
          "internalType": "uint256",
          "name": "",
          "type": "uint256"
        }
      ],
      "payable": false,
      "stateMutability": "view",
      "type": "function"
    },
    {
      "constant": true,
      "inputs": [
        {
          "internalType": "address",
          "name": "",
          "type": "address"
        }
      ],
      "name": "validators",
      "outputs": [
        {
          "internalType": "bool",
          "name": "",
          "type": "bool"
        }
      ],
      "payable": false,
      "stateMutability": "view",
      "type": "function"
    },
    {
      "constant": false,
      "inputs": [
        {
          "internalType": "address",
          "name": "_validator",
          "type": "address"
        }
      ],
      "name": "addValidator",
      "outputs": [],
      "payable": false,
      "stateMutability": "nonpayable",
      "type": "function"
    },
    {
      "constant": false,
      "inputs": [
        {
          "internalType": "address",
          "name": "_validator",
          "type": "address"
        }
      ],
      "name": "removeValidator",
      "outputs": [],
      "payable": false,
      "stateMutability": "nonpayable",
      "type": "function"
    },
    {
      "constant": false,
      "inputs": [
        {
          "internalType": "address",
          "name": "_validator",
          "type": "address"
        },
        {
          "internalType": "bool",
          "name": "_active",
          "type": "bool"
        }
      ],
      "name": "setValidatorStatus",
      "outputs": [],
      "payable": false,
      "stateMutability": "nonpayable",
      "type": "function"
    },
    {
      "constant": false,
      "inputs": [
        {
          "internalType": "address",
          "name": "_validator",
          "type": "address"
        },
        {
          "internalType": "uint256",
          "name": "_newReputation",
          "type": "uint256"
        }
      ],
      "name": "updateValidatorReputation",
      "outputs": [],
      "payable": false,
      "stateMutability": "nonpayable",
      "type": "function"
    },
    {
      "constant": true,
      "inputs": [
        {
          "internalType": "address",
          "name": "_validator",
          "type": "address"
        }
      ],
      "name": "isValidator",
      "outputs": [
        {
          "internalType": "bool",
          "name": "",
          "type": "bool"
        }
      ],
      "payable": false,
      "stateMutability": "view",
      "type": "function"
    },
    {
      "constant": true,
      "inputs": [
        {
          "internalType": "address",
          "name": "_validator",
          "type": "address"
        }
      ],
      "name": "getValidatorInfo",
      "outputs": [
        {
          "internalType": "bool",
          "name": "exists",
          "type": "bool"
        },
        {
          "internalType": "bool",
          "name": "active",
          "type": "bool"
        },
        {
          "internalType": "uint256",
          "name": "reputation",
          "type": "uint256"
        },
        {
          "internalType": "uint256",
          "name": "joinDate",
          "type": "uint256"
        }
      ],
      "payable": false,
      "stateMutability": "view",
      "type": "function"
    },
    {
      "constant": true,
      "inputs": [],
      "name": "getActiveValidatorCount",
      "outputs": [
        {
          "internalType": "uint256",
          "name": "",
          "type": "uint256"
        }
      ],
      "payable": false,
      "stateMutability": "view",
      "type": "function"
    }
  ],
  "bytecode": "0x608060405233600360016101000a81548173ffffffffffffffffffffffffffffffffffffffff021916908373ffffffffffffffffffffffffffffffffffffffff1602179055506000600360006101000a81548160ff02191690831515021790555060016004819055506200007d6000801b336200029d60201b60201c565b620000c460405180807f41444d494e5f524f4c4500000000000000000000000000000000000000000000815250600a0190506040518091039020336200029d60201b60201c565b6200010b60405180807f5041555345525f524f4c45000000000000000000000000000000000000000000815250600b0190506040518091039020336200029d60201b60201c565b6200015560405180807f41444d494e5f524f4c4500000000000000000000000000000000000000000000815250600a01905060405180910390206000801b6200037c60201b60201c565b620001d160405180807f56414c494441544f525f524f4c45000000000000000000000000000000000000815250600e019050604051809103902060405180807f41444d494e5f524f4c4500000000000000000000000000000000000000000000815250600a01905060405180910390206200037c60201b60201c565b6200024d60405180807f434f4d50414e595f524f4c450000000000000000000000000000000000000000815250600c019050604051809103902060405180807f41444d494e5f524f4c4500000000000000000000000000000000000000000000815250600a01905060405180910390206200037c60201b60201c565b6200029760405180807f5041555345525f524f4c45000000000000000000000000000000000000000000815250600b01905060405180910390206000801b6200037c60201b60201c565b62000461565b620002af8282620003dd60201b60201c565b6200037857600160008084815260200190815260200160002060008373ffffffffffffffffffffffffffffffffffffffff1673ffffffffffffffffffffffffffffffffffffffff16815260200190815260200160002060006101000a81548160ff0219169083151502179055503373ffffffffffffffffffffffffffffffffffffffff168173ffffffffffffffffffffffffffffffffffffffff16837f2f8788117e7eff1d82e926ec794901d17c78024a50270940304540a733656f0d60405160405180910390a45b5050565b60006200038f836200044460201b60201c565b90508160016000858152602001908152602001600020819055508181847fbd79b86ffe0ab8e8776151514217cd7cacd52c909f66475c3af44e129f0b00ff60405160405180910390a4505050565b600080600084815260200190815260200160002060008373ffffffffffffffffffffffffffffffffffffffff1673ffffffffffffffffffffffffffffffffffffffff16815260200190815260200160002060009054906101000a900460ff16905092915050565b600060016000838152602001908152602001600020549050919050565b612b8a80620004716000396000f3fe608060405234801561001057600080fd5b50600436106101e55760003560e01c80638a11d7c91161010f578063d1270485116100a2578063e63ab1e911610071578063e63ab1e91461081b578063fa52c7d814610839578063facd743b14610895578063fe575a87146108f1576101e5565b8063d127048514610713578063d213c0f21461076b578063d37b34d714610789578063d547741f146107cd576101e5565b8063aca2490b116100de578063aca2490b14610639578063c49baebe14610689578063c81b356b146106a7578063cf5ebdf1146106c5576101e5565b80638a11d7c9146104f65780638da5cb5b1461056b57806391d14854146105b5578063a217fddf1461061b576101e5565b806340a141ff116101875780635c975abb116101565780635c975abb1461048e578063697c6045146104b057806375b238fc146104ce5780638456cb59146104ec576101e5565b806340a141ff146103665780634d238c8e146103aa578063537df3b6146103ee578063574b5ff014610432576101e5565b806330a3e2d9116101c357806330a3e2d91461029857806336568abe146102f057806337deea701461033e5780633f4ba83a1461035c576101e5565b80631c9ee11a146101ea578063248a9ca3146102085780632f2ff15d1461024a575b600080fd5b6101f261094d565b6040518082815260200191505060405180910390f35b6102346004803603602081101561021e57600080fd5b8101908080359060200190929190505050610986565b6040518082815260200191505060405180910390f35b6102966004803603604081101561026057600080fd5b8101908080359060200190929190803573ffffffffffffffffffffffffffffffffffffffff1690602001909291905050506109a3565b005b6102da600480360360208110156102ae57600080fd5b81019080803573ffffffffffffffffffffffffffffffffffffffff169060200190929190505050610b64565b6040518082815260200191505060405180910390f35b61033c6004803603604081101561030657600080fd5b8101908080359060200190929190803573ffffffffffffffffffffffffffffffffffffffff169060200190929190505050610b7c565b005b610346610c0e565b6040518082815260200191505060405180910390f35b610364610c18565b005b6103a86004803603602081101561037c57600080fd5b81019080803573ffffffffffffffffffffffffffffffffffffffff169060200190929190505050610d93565b005b6103ec600480360360208110156103c057600080fd5b81019080803573ffffffffffffffffffffffffffffffffffffffff16906020019092919050505061113e565b005b6104306004803603602081101561040457600080fd5b81019080803573ffffffffffffffffffffffffffffffffffffffff169060200190929190505050611618565b005b6104746004803603602081101561044857600080fd5b81019080803573ffffffffffffffffffffffffffffffffffffffff169060200190929190505050611850565b604051808215151515815260200191505060405180910390f35b610496611870565b604051808215151515815260200191505060405180910390f35b6104b8611887565b6040518082815260200191505060405180910390f35b6104d661188c565b6040518082815260200191505060405180910390f35b6104f46118c5565b005b6105386004803603602081101561050c57600080fd5b81019080803573ffffffffffffffffffffffffffffffffffffffff169060200190929190505050611a41565b60405180851515151581526020018415151515815260200183815260200182815260200194505050505060405180910390f35b610573611b70565b604051808273ffffffffffffffffffffffffffffffffffffffff1673ffffffffffffffffffffffffffffffffffffffff16815260200191505060405180910390f35b610601600480360360408110156105cb57600080fd5b8101908080359060200190929190803573ffffffffffffffffffffffffffffffffffffffff169060200190929190505050611b9a565b604051808215151515815260200191505060405180910390f35b610623611c01565b6040518082815260200191505060405180910390f35b6106876004803603604081101561064f57600080fd5b81019080803573ffffffffffffffffffffffffffffffffffffffff169060200190929190803515159060200190929190505050611c08565b005b610691611fbe565b6040518082815260200191505060405180910390f35b6106af611ff7565b6040518082815260200191505060405180910390f35b610711600480360360408110156106db57600080fd5b81019080803573ffffffffffffffffffffffffffffffffffffffff16906020019092919080359060200190929190505050611ffd565b005b6107556004803603602081101561072957600080fd5b81019080803573ffffffffffffffffffffffffffffffffffffffff16906020019092919050505061228a565b6040518082815260200191505060405180910390f35b6107736122a2565b6040518082815260200191505060405180910390f35b6107cb6004803603602081101561079f57600080fd5b81019080803573ffffffffffffffffffffffffffffffffffffffff1690602001909291905050506122a8565b005b610819600480360360408110156107e357600080fd5b8101908080359060200190929190803573ffffffffffffffffffffffffffffffffffffffff16906020019092919050505061255f565b005b61082361267b565b6040518082815260200191505060405180910390f35b61087b6004803603602081101561084f57600080fd5b81019080803573ffffffffffffffffffffffffffffffffffffffff1690602001909291905050506126b4565b604051808215151515815260200191505060405180910390f35b6108d7600480360360208110156108ab57600080fd5b81019080803573ffffffffffffffffffffffffffffffffffffffff1690602001909291905050506126d4565b604051808215151515815260200191505060405180910390f35b6109336004803603602081101561090757600080fd5b81019080803573ffffffffffffffffffffffffffffffffffffffff169060200190929190505050612791565b604051808215151515815260200191505060405180910390f35b60405180807f434f4d50414e595f524f4c450000000000000000000000000000000000000000815250600c019050604051809103902081565b600060016000838152602001908152602001600020549050919050565b6109ac82610986565b6109b68133611b9a565b610a0b576040517f08c379a0000000000000000000000000000000000000000000000000000000008152600401808060200182810382526031815260200180612aac6031913960400191505060405180910390fd5b81600073ffffffffffffffffffffffffffffffffffffffff168173ffffffffffffffffffffffffffffffffffffffff161415610aaf576040517f08c379a000000000000000000000000000000000000000000000000000000000815260040180806020018281038252601e8152602001807f416363657373436f6e74726f6c3a20696e76616c69642061646472657373000081525060200191505060405180910390fd5b82600260008273ffffffffffffffffffffffffffffffffffffffff1673ffffffffffffffffffffffffffffffffffffffff16815260200190815260200160002060009054906101000a900460ff1615610b53576040517f08c379a0000000000000000000000000000000000000000000000000000000008152600401808060200182810382526025815260200180612a5d6025913960400191505060405180910390fd5b610b5d85856127e7565b5050505050565b60086020528060005260406000206000915090505481565b3373ffffffffffffffffffffffffffffffffffffffff168173ffffffffffffffffffffffffffffffffffffffff1614610c00576040517f08c379a000000000000000000000000000000000000000000000000000000000815260040180806020018281038252602f815260200180612b02602f913960400191505060405180910390fd5b610c0a82826128bd565b5050565b6000600954905090565b60405180807f5041555345525f524f4c45000000000000000000000000000000000000000000815250600b0190506040518091039020610c588133611b9a565b610cad576040517f08c379a0000000000000000000000000000000000000000000000000000000008152600401808060200182810382526031815260200180612aac6031913960400191505060405180910390fd5b600360009054906101000a900460ff16610d12576040517f08c379a0000000000000000000000000000000000000000000000000000000008152600401808060200182810382526025815260200180612b316025913960400191505060405180910390fd5b6000600360006101000a81548160ff0219169083151502179055507f5db9ee0a495bf2e6ff9c91a7834c1ba4fdd244a5e8aa4e537bd38aeae4b073aa33604051808273ffffffffffffffffffffffffffffffffffffffff1673ffffffffffffffffffffffffffffffffffffffff16815260200191505060405180910390a150565b60405180807f41444d494e5f524f4c4500000000000000000000000000000000000000000000815250600a0190506040518091039020610dd38133611b9a565b610e28576040517f08c379a0000000000000000000000000000000000000000000000000000000008152600401808060200182810382526031815260200180612aac6031913960400191505060405180910390fd5b600360009054906101000a900460ff1615610e8e576040517f08c379a00000000000000000000000000000000000000000000000000000000081526004018080602001828103825260218152602001806129eb6021913960400191505060405180910390fd5b81600073ffffffffffffffffffffffffffffffffffffffff168173ffffffffffffffffffffffffffffffffffffffff161415610f32576040517f08c379a000000000000000000000000000000000000000000000000000000000815260040180806020018281038252601e8152602001807f416363657373436f6e74726f6c3a20696e76616c69642061646472657373000081525060200191505060405180910390fd5b600560008473ffffffffffffffffffffffffffffffffffffffff1673ffffffffffffffffffffffffffffffffffffffff16815260200190815260200160002060009054906101000a900460ff16610fd4576040517f08c379a000000000000000000000000000000000000000000000000000000000815260040180806020018281038252602b8152602001806129c0602b913960400191505060405180910390fd5b6000600560008573ffffffffffffffffffffffffffffffffffffffff1673ffffffffffffffffffffffffffffffffffffffff16815260200190815260200160002060006101000a81548160ff0219169083151502179055506000600660008573ffffffffffffffffffffffffffffffffffffffff1673ffffffffffffffffffffffffffffffffffffffff16815260200190815260200160002060006101000a81548160ff021916908315150217905550600960008154809291906001900391905055506110d660405180807f56414c494441544f525f524f4c45000000000000000000000000000000000000815250600e0190506040518091039020846128bd565b7fe1434e25d6611e0db941968fdc97811c982ac1602e951637d206f5fdda9dd8f183604051808273ffffffffffffffffffffffffffffffffffffffff1673ffffffffffffffffffffffffffffffffffffffff16815260200191505060405180910390a1505050565b60405180807f41444d494e5f524f4c4500000000000000000000000000000000000000000000815250600a019050604051809103902061117e8133611b9a565b6111d3576040517f08c379a0000000000000000000000000000000000000000000000000000000008152600401808060200182810382526031815260200180612aac6031913960400191505060405180910390fd5b600360009054906101000a900460ff1615611239576040517f08c379a00000000000000000000000000000000000000000000000000000000081526004018080602001828103825260218152602001806129eb6021913960400191505060405180910390fd5b81600073ffffffffffffffffffffffffffffffffffffffff168173ffffffffffffffffffffffffffffffffffffffff1614156112dd576040517f08c379a000000000000000000000000000000000000000000000000000000000815260040180806020018281038252601e8152602001807f416363657373436f6e74726f6c3a20696e76616c69642061646472657373000081525060200191505060405180910390fd5b82600260008273ffffffffffffffffffffffffffffffffffffffff1673ffffffffffffffffffffffffffffffffffffffff16815260200190815260200160002060009054906101000a900460ff1615611381576040517f08c379a0000000000000000000000000000000000000000000000000000000008152600401808060200182810382526025815260200180612a5d6025913960400191505060405180910390fd5b600560008573ffffffffffffffffffffffffffffffffffffffff1673ffffffffffffffffffffffffffffffffffffffff16815260200190815260200160002060009054906101000a900460ff1615611424576040517f08c379a000000000000000000000000000000000000000000000000000000000815260040180806020018281038252602b815260200180612a32602b913960400191505060405180910390fd5b6001600560008673ffffffffffffffffffffffffffffffffffffffff1673ffffffffffffffffffffffffffffffffffffffff16815260200190815260200160002060006101000a81548160ff0219169083151502179055506001600660008673ffffffffffffffffffffffffffffffffffffffff1673ffffffffffffffffffffffffffffffffffffffff16815260200190815260200160002060006101000a81548160ff0219169083151502179055506101f4600760008673ffffffffffffffffffffffffffffffffffffffff1673ffffffffffffffffffffffffffffffffffffffff1681526020019081526020016000208190555042600860008673ffffffffffffffffffffffffffffffffffffffff1673ffffffffffffffffffffffffffffffffffffffff168152602001908152602001600020819055506009600081548092919060010191905055506115af60405180807f56414c494441544f525f524f4c45000000000000000000000000000000000000815250600e0190506040518091039020856127e7565b7fe366c1c0452ed8eec96861e9e54141ebff23c9ec89fe27b996b45f5ec388498784604051808273ffffffffffffffffffffffffffffffffffffffff1673ffffffffffffffffffffffffffffffffffffffff16815260200191505060405180910390a150505050565b60405180807f41444d494e5f524f4c4500000000000000000000000000000000000000000000815250600a01905060405180910390206116588133611b9a565b6116ad576040517f08c379a0000000000000000000000000000000000000000000000000000000008152600401808060200182810382526031815260200180612aac6031913960400191505060405180910390fd5b81600073ffffffffffffffffffffffffffffffffffffffff168173ffffffffffffffffffffffffffffffffffffffff161415611751576040517f08c379a000000000000000000000000000000000000000000000000000000000815260040180806020018281038252601e8152602001807f416363657373436f6e74726f6c3a20696e76616c69642061646472657373000081525060200191505060405180910390fd5b600260008473ffffffffffffffffffffffffffffffffffffffff1673ffffffffffffffffffffffffffffffffffffffff16815260200190815260200160002060009054906101000a900460ff166117f3576040517f08c379a0000000000000000000000000000000000000000000000000000000008152600401808060200182810382526026815260200180612a0c6026913960400191505060405180910390fd5b6000600260008573ffffffffffffffffffffffffffffffffffffffff1673ffffffffffffffffffffffffffffffffffffffff16815260200190815260200160002060006101000a81548160ff021916908315150217905550505050565b60066020528060005260406000206000915054906101000a900460ff1681565b6000600360009054906101000a900460ff16905090565b600081565b60405180807f41444d494e5f524f4c4500000000000000000000000000000000000000000000815250600a019050604051809103902081565b60405180807f5041555345525f524f4c45000000000000000000000000000000000000000000815250600b01905060405180910390206119058133611b9a565b61195a576040517f08c379a0000000000000000000000000000000000000000000000000000000008152600401808060200182810382526031815260200180612aac6031913960400191505060405180910390fd5b600360009054906101000a900460ff16156119c0576040517f08c379a00000000000000000000000000000000000000000000000000000000081526004018080602001828103825260218152602001806129eb6021913960400191505060405180910390fd5b6001600360006101000a81548160ff0219169083151502179055507f62e78cea01bee320cd4e420270b5ea74000d11b0c9f74754ebdbfc544b05a25833604051808273ffffffffffffffffffffffffffffffffffffffff1673ffffffffffffffffffffffffffffffffffffffff16815260200191505060405180910390a150565b600080600080600560008673ffffffffffffffffffffffffffffffffffffffff1673ffffffffffffffffffffffffffffffffffffffff16815260200190815260200160002060009054906101000a900460ff16600660008773ffffffffffffffffffffffffffffffffffffffff1673ffffffffffffffffffffffffffffffffffffffff16815260200190815260200160002060009054906101000a900460ff16600760008873ffffffffffffffffffffffffffffffffffffffff1673ffffffffffffffffffffffffffffffffffffffff16815260200190815260200160002054600860008973ffffffffffffffffffffffffffffffffffffffff1673ffffffffffffffffffffffffffffffffffffffff1681526020019081526020016000205493509350935093509193509193565b6000600360019054906101000a900473ffffffffffffffffffffffffffffffffffffffff16905090565b600080600084815260200190815260200160002060008373ffffffffffffffffffffffffffffffffffffffff1673ffffffffffffffffffffffffffffffffffffffff16815260200190815260200160002060009054906101000a900460ff16905092915050565b6000801b81565b60405180807f41444d494e5f524f4c4500000000000000000000000000000000000000000000815250600a0190506040518091039020611c488133611b9a565b611c9d576040517f08c379a0000000000000000000000000000000000000000000000000000000008152600401808060200182810382526031815260200180612aac6031913960400191505060405180910390fd5b600360009054906101000a900460ff1615611d03576040517f08c379a00000000000000000000000000000000000000000000000000000000081526004018080602001828103825260218152602001806129eb6021913960400191505060405180910390fd5b82600073ffffffffffffffffffffffffffffffffffffffff168173ffffffffffffffffffffffffffffffffffffffff161415611da7576040517f08c379a000000000000000000000000000000000000000000000000000000000815260040180806020018281038252601e8152602001807f416363657373436f6e74726f6c3a20696e76616c69642061646472657373000081525060200191505060405180910390fd5b600560008573ffffffffffffffffffffffffffffffffffffffff1673ffffffffffffffffffffffffffffffffffffffff16815260200190815260200160002060009054906101000a900460ff16611e49576040517f08c379a000000000000000000000000000000000000000000000000000000000815260040180806020018281038252602b8152602001806129c0602b913960400191505060405180910390fd5b821515600660008673ffffffffffffffffffffffffffffffffffffffff1673ffffffffffffffffffffffffffffffffffffffff16815260200190815260200160002060009054906101000a900460ff1615151415611ef2576040517f08c379a0000000000000000000000000000000000000000000000000000000008152600401808060200182810382526025815260200180612add6025913960400191505060405180910390fd5b82600660008673ffffffffffffffffffffffffffffffffffffffff1673ffffffffffffffffffffffffffffffffffffffff16815260200190815260200160002060006101000a81548160ff0219169083151502179055507f805c9c534537bef15c327683ea9e388211b8577686ab415f96941b440980c2d48484604051808373ffffffffffffffffffffffffffffffffffffffff1673ffffffffffffffffffffffffffffffffffffffff168152602001821515151581526020019250505060405180910390a150505050565b60405180807f56414c494441544f525f524f4c45000000000000000000000000000000000000815250600e019050604051809103902081565b60095481565b60405180807f41444d494e5f524f4c4500000000000000000000000000000000000000000000815250600a019050604051809103902061203d8133611b9a565b612092576040517f08c379a0000000000000000000000000000000000000000000000000000000008152600401808060200182810382526031815260200180612aac6031913960400191505060405180910390fd5b82600073ffffffffffffffffffffffffffffffffffffffff168173ffffffffffffffffffffffffffffffffffffffff161415612136576040517f08c379a000000000000000000000000000000000000000000000000000000000815260040180806020018281038252601e8152602001807f416363657373436f6e74726f6c3a20696e76616c69642061646472657373000081525060200191505060405180910390fd5b600560008573ffffffffffffffffffffffffffffffffffffffff1673ffffffffffffffffffffffffffffffffffffffff16815260200190815260200160002060009054906101000a900460ff166121d8576040517f08c379a000000000000000000000000000000000000000000000000000000000815260040180806020018281038252602b8152602001806129c0602b913960400191505060405180910390fd5b600083101580156121eb57506103e88311155b612240576040517f08c379a000000000000000000000000000000000000000000000000000000000815260040180806020018281038252602b815260200180612995602b913960400191505060405180910390fd5b82600760008673ffffffffffffffffffffffffffffffffffffffff1673ffffffffffffffffffffffffffffffffffffffff1681526020019081526020016000208190555050505050565b60076020528060005260406000206000915090505481565b6103e881565b60405180807f41444d494e5f524f4c4500000000000000000000000000000000000000000000815250600a01905060405180910390206122e88133611b9a565b61233d576040517f08c379a0000000000000000000000000000000000000000000000000000000008152600401808060200182810382526031815260200180612aac6031913960400191505060405180910390fd5b81600073ffffffffffffffffffffffffffffffffffffffff168173ffffffffffffffffffffffffffffffffffffffff1614156123e1576040517f08c379a000000000000000000000000000000000000000000000000000000000815260040180806020018281038252601e8152602001807f416363657373436f6e74726f6c3a20696e76616c69642061646472657373000081525060200191505060405180910390fd5b600260008473ffffffffffffffffffffffffffffffffffffffff1673ffffffffffffffffffffffffffffffffffffffff16815260200190815260200160002060009054906101000a900460ff1615612484576040517f08c379a000000000000000000000000000000000000000000000000000000000815260040180806020018281038252602a815260200180612a82602a913960400191505060405180910390fd5b6001600260008573ffffffffffffffffffffffffffffffffffffffff1673ffffffffffffffffffffffffffffffffffffffff16815260200190815260200160002060006101000a81548160ff02191690831515021790555061251b60405180807f56414c494441544f525f524f4c45000000000000000000000000000000000000815250600e0190506040518091039020846128bd565b61255a60405180807f434f4d50414e595f524f4c450000000000000000000000000000000000000000815250600c0190506040518091039020846128bd565b505050565b61256882610986565b6125728133611b9a565b6125c7576040517f08c379a0000000000000000000000000000000000000000000000000000000008152600401808060200182810382526031815260200180612aac6031913960400191505060405180910390fd5b81600073ffffffffffffffffffffffffffffffffffffffff168173ffffffffffffffffffffffffffffffffffffffff16141561266b576040517f08c379a000000000000000000000000000000000000000000000000000000000815260040180806020018281038252601e8152602001807f416363657373436f6e74726f6c3a20696e76616c69642061646472657373000081525060200191505060405180910390fd5b61267584846128bd565b50505050565b60405180807f5041555345525f524f4c45000000000000000000000000000000000000000000815250600b019050604051809103902081565b60056020528060005260406000206000915054906101000a900460ff1681565b6000600560008373ffffffffffffffffffffffffffffffffffffffff1673ffffffffffffffffffffffffffffffffffffffff16815260200190815260200160002060009054906101000a900460ff1680156127785750600660008373ffffffffffffffffffffffffffffffffffffffff1673ffffffffffffffffffffffffffffffffffffffff16815260200190815260200160002060009054906101000a900460ff165b801561278a575061278882612791565b155b9050919050565b6000600260008373ffffffffffffffffffffffffffffffffffffffff1673ffffffffffffffffffffffffffffffffffffffff16815260200190815260200160002060009054906101000a900460ff169050919050565b6127f18282611b9a565b6128b957600160008084815260200190815260200160002060008373ffffffffffffffffffffffffffffffffffffffff1673ffffffffffffffffffffffffffffffffffffffff16815260200190815260200160002060006101000a81548160ff0219169083151502179055503373ffffffffffffffffffffffffffffffffffffffff168173ffffffffffffffffffffffffffffffffffffffff16837f2f8788117e7eff1d82e926ec794901d17c78024a50270940304540a733656f0d60405160405180910390a45b5050565b6128c78282611b9a565b1561299057600080600084815260200190815260200160002060008373ffffffffffffffffffffffffffffffffffffffff1673ffffffffffffffffffffffffffffffffffffffff16815260200190815260200160002060006101000a81548160ff0219169083151502179055503373ffffffffffffffffffffffffffffffffffffffff168173ffffffffffffffffffffffffffffffffffffffff16837ff6391f5c32d9c69d2a47ea670b442974b53935d1edc7fd64eb21e047a839171b60405160405180910390a45b505056fe56616c696461746f7252656769737472793a2072657075746174696f6e206f7574206f6620626f756e647356616c696461746f7252656769737472793a2076616c696461746f7220646f6573206e6f74206578697374416363657373436f6e74726f6c3a20636f6e747261637420697320706175736564416363657373436f6e74726f6c3a206163636f756e74206e6f7420626c61636b6c697374656456616c696461746f7252656769737472793a2076616c696461746f7220616c726561647920657869737473416363657373436f6e74726f6c3a206163636f756e7420697320626c61636b6c6973746564416363657373436f6e74726f6c3a206163636f756e7420616c726561647920626c61636b6c6973746564416363657373436f6e74726f6c3a2063616c6c657220646f6573206e6f74206861766520726571756972656420726f6c6556616c696461746f7252656769737472793a2073746174757320616c726561647920736574416363657373436f6e74726f6c3a2063616e206f6e6c792072656e6f756e636520726f6c657320666f722073656c66416363657373436f6e74726f6c3a20636f6e7472616374206973206e6f7420706175736564a265627a7a723158209fb16c53d736ed46db2abe046ce01748443654198eb6665c845a93303ccdc1f564736f6c63430005110032",
  "source": "pragma solidity ^0.5.0;\n\nimport \"./AccessControl.sol\";\n\n/**\n * @title ValidatorRegistry\n * @dev A contract for managing a registry of validators with comprehensive access control.\n */\ncontract ValidatorRegistry is AccessControl {\n    // Events\n    event ValidatorAdded(address validator);\n    event ValidatorRemoved(address validator);\n    event ValidatorStatusChanged(address validator, bool active);\n\n    // State variables\n    mapping(address => bool) public validators;\n    mapping(address => bool) public validatorActive;\n    mapping(address => uint256) public validatorReputation;\n    mapping(address => uint256) public validatorJoinDate;\n\n    uint256 public totalValidators;\n    uint256 public constant MIN_REPUTATION = 0;\n    uint256 public constant MAX_REPUTATION = 1000;\n\n    /**\n     * @dev Adds a new validator to the registry with comprehensive validation.\n     * @param _validator The address of the validator to be added.\n     */\n    function addValidator(\n        address _validator\n    )\n        public\n        onlyRole(ADMIN_ROLE)\n        whenNotPaused\n        validAddress(_validator)\n        notBlacklisted(_validator)\n    {\n        require(\n            !validators[_validator],\n            \"ValidatorRegistry: validator already exists\"\n        );\n\n        validators[_validator] = true;\n        validatorActive[_validator] = true;\n        validatorReputation[_validator] = 500; // Start with neutral reputation\n        validatorJoinDate[_validator] = block.timestamp;\n        totalValidators++;\n\n        // Grant validator role\n        _grantRole(VALIDATOR_ROLE, _validator);\n\n        emit ValidatorAdded(_validator);\n    }\n\n    /**\n     * @dev Removes a validator from the registry.\n     * @param _validator The address of the validator to be removed.\n     */\n    function removeValidator(\n        address _validator\n    ) public onlyRole(ADMIN_ROLE) whenNotPaused validAddress(_validator) {\n        require(\n            validators[_validator],\n            \"ValidatorRegistry: validator does not exist\"\n        );\n\n        validators[_validator] = false;\n        validatorActive[_validator] = false;\n        totalValidators--;\n\n        // Revoke validator role\n        _revokeRole(VALIDATOR_ROLE, _validator);\n\n        emit ValidatorRemoved(_validator);\n    }\n\n    /**\n     * @dev Activates or deactivates a validator.\n     * @param _validator The address of the validator.\n     * @param _active The new active status.\n     */\n    function setValidatorStatus(\n        address _validator,\n        bool _active\n    ) public onlyRole(ADMIN_ROLE) whenNotPaused validAddress(_validator) {\n        require(\n            validators[_validator],\n            \"ValidatorRegistry: validator does not exist\"\n        );\n        require(\n            validatorActive[_validator] != _active,\n            \"ValidatorRegistry: status already set\"\n        );\n\n        validatorActive[_validator] = _active;\n        emit ValidatorStatusChanged(_validator, _active);\n    }\n\n    /**\n     * @dev Updates validator reputation (can be called by market contract).\n     * @param _validator The address of the validator.\n     * @param _newReputation The new reputation score.\n     */\n    function updateValidatorReputation(\n        address _validator,\n        uint256 _newReputation\n    ) public onlyRole(ADMIN_ROLE) validAddress(_validator) {\n        require(\n            validators[_validator],\n            \"ValidatorRegistry: validator does not exist\"\n        );\n        require(\n            _newReputation >= MIN_REPUTATION &&\n                _newReputation <= MAX_REPUTATION,\n            \"ValidatorRegistry: reputation out of bounds\"\n        );\n\n        validatorReputation[_validator] = _newReputation;\n    }\n\n    /**\n     * @dev Checks if an address is an active validator.\n     * @param _validator The address to be checked.\n     * @return A boolean indicating whether the address is an active validator.\n     */\n    function isValidator(address _validator) public view returns (bool) {\n        return\n            validators[_validator] &&\n            validatorActive[_validator] &&\n            !isBlacklisted(_validator);\n    }\n\n    /**\n     * @dev Gets validator information.\n     * @param _validator The address of the validator.\n     * @return exists, active, reputation, joinDate\n     */\n    function getValidatorInfo(\n        address _validator\n    )\n        public\n        view\n        returns (bool exists, bool active, uint256 reputation, uint256 joinDate)\n    {\n        return (\n            validators[_validator],\n            validatorActive[_validator],\n            validatorReputation[_validator],\n            validatorJoinDate[_validator]\n        );\n    }\n\n    /**\n     * @dev Gets the total number of active validators.\n     * @return The number of active validators.\n     */\n    function getActiveValidatorCount() public view returns (uint256) {\n        return totalValidators;\n    }\n}\n",
  "sourcePath": "C:\\Users\\aliya\\Downloads\\EcoXChange\\contracts\\ValidatorRegistry.sol",
  "compiler": {
    "name": "solc",
    "version": "0.5.17+commit.d19bba13.Emscripten.clang"
  },
  "schemaVersion": "3.4.16",
  "updatedAt": "2025-06-23T09:15:20.632Z",
  "devdoc": {
    "details": "A contract for managing a registry of validators with comprehensive access control.",
    "methods": {
      "addValidator(address)": {
        "details": "Adds a new validator to the registry with comprehensive validation.",
        "params": {
          "_validator": "The address of the validator to be added."
        }
      },
      "blacklistAccount(address)": {
        "details": "Add address to blacklist"
      },
      "getActiveValidatorCount()": {
        "details": "Gets the total number of active validators.",
        "return": "The number of active validators."
      },
      "getRoleAdmin(bytes32)": {
        "details": "Get the admin role that controls a role"
      },
      "getValidatorInfo(address)": {
        "details": "Gets validator information.",
        "params": {
          "_validator": "The address of the validator."
        },
        "return": "exists, active, reputation, joinDate"
      },
      "grantRole(bytes32,address)": {
        "details": "Grant a role to an account"
      },
      "hasRole(bytes32,address)": {
        "details": "Check if an account has a specific role"
      },
      "isBlacklisted(address)": {
        "details": "Check if account is blacklisted"
      },
      "isValidator(address)": {
        "details": "Checks if an address is an active validator.",
        "params": {
          "_validator": "The address to be checked."
        },
        "return": "A boolean indicating whether the address is an active validator."
      },
      "owner()": {
        "details": "Get contract owner"
      },
      "pause()": {
        "details": "Pause the contract (emergency stop)"
      },
      "paused()": {
        "details": "Check if contract is paused"
      },
      "removeFromBlacklist(address)": {
        "details": "Remove address from blacklist"
      },
      "removeValidator(address)": {
        "details": "Removes a validator from the registry.",
        "params": {
          "_validator": "The address of the validator to be removed."
        }
      },
      "renounceRole(bytes32,address)": {
        "details": "Renounce a role (caller renounces their own role)"
      },
      "revokeRole(bytes32,address)": {
        "details": "Revoke a role from an account"
      },
      "setValidatorStatus(address,bool)": {
        "details": "Activates or deactivates a validator.",
        "params": {
          "_active": "The new active status.",
          "_validator": "The address of the validator."
        }
      },
      "unpause()": {
        "details": "Unpause the contract"
      },
      "updateValidatorReputation(address,uint256)": {
        "details": "Updates validator reputation (can be called by market contract).",
        "params": {
          "_newReputation": "The new reputation score.",
          "_validator": "The address of the validator."
        }
      }
    },
    "title": "ValidatorRegistry"
  },
  "userdoc": {
    "methods": {}
  }
}